:100000000C9446000C9465000C9465000C946500FB
:100010000C9465000C9465000C9465000C946500CC
:100020000C9465000C9465000C9465000C946500BC
:100030000C9465000C9465000C9465000C946500AC
:100040000C9465000C9465000C94D9050C94650023
:100050000C9465000C9465000C9465000C9465008C
:100060000C9465000C9465000C9465000C9465007C
:100070000C9465000C9465000C948E040C9465003F
:100080000C9465000C9465000C94650011241FBE4F
:10009000CFEFD0E1DEBFCDBF16E0A0E0B1E0E4E8F5
:1000A000F3E100E00BBF02C007900D92AC34B10742
:1000B000D9F726E0ACE4B6E001C01D92A935B2073D
:1000C000E1F70E94F4050C94C0090C940000E5E6E9
:1000D000F0E080818260808382E08A95F1F700C041
:1000E00080818D7F80838BE78A95F1F70895E5E61F
:1000F000F0E020818F7034E0839FC0011124237CC5
:10010000822B80830C946700CF93C82F8091650069
:10011000662311F0816001C08E7F809365008C2F73
:1001200082958F700E9477008C2F8F700E947700CD
:100130008BE78A95F1F7CF910895CF93C82F60E0B0
:100140000E948400C150C23028F486E69EE00197E8
:10015000F1F70000CF91089561E00C948400E4E68B
:10016000F0E080818F6380832FEF8FE191E0215059
:1001700080409040E1F700C00000E5E6F0E08081BB
:100180008E7F808383E00E9477008FEF93E2019758
:10019000F1F700C0000083E00E94770084E191E065
:1001A0000197F1F7000083E00E94770084E191E07D
:1001B0000197F1F7000082E00E94770084E191E06E
:1001C0000197F1F7000088E20E949D008CE00E94F8
:1001D0009D0081E00E949D0086E00C949D0081E0DE
:1001E0000C949D00813039F058F0823031F083302A
:1001F00031F46C5A05C0605C03C06C5E01C060E005
:10020000862F80680C949D00CF93DF93EC01899139
:10021000882319F00E94AC00FACFDF91CF910895A6
:10022000CF93DF93EA010E94F200CE01DF91CF91DC
:100230000C9404010F931F93CF93DF938B0128E05D
:10024000829FC001112480640E949D00E801085F24
:100250001F4F89910E94AC00C017D107D1F7DF91E1
:10026000CF911F910F910895EF92FF920F931F93DB
:10027000CF9382E491E00E9423040E94EF0049E6BC
:1002800051E060E080E00E94100143E751E060E04F
:1002900081E00E94100182E891E00E94230481EA3B
:1002A00091E00E94230485EB91E00E9423042FEF4C
:1002B0008FE793E4215080409040E1F700C00000B8
:1002C0000E94EF0000E010E0C0E06C2F80E00E9490
:1002D000F20081E4800F0E94AC002FEF8FE191E0EB
:1002E000215080409040E1F700C00000CF5F0F5FD9
:1002F0001F4FC03151F700E110E0C0E08AE1E82E65
:10030000F12C6C2F81E00E94F200C801B7010E941D
:1003100082068F5B0E94AC002FEF8FE191E02150AD
:1003200080409040E1F700C00000CF5F0F5F1F4F9B
:10033000C03139F78EEC91E00E9423042FEF8FEF4C
:100340009CE2215080409040E1F700C0000081EF26
:1003500091E00E942304CF911F910F91FF90EF90A5
:100360000C942F04AF92BF92CF92DF92EF92FF9244
:100370000F931F93CF93DF93CDB7DEB761970FB67F
:10038000F894DEBF0FBECDBF8EE092E00E94230442
:100390000E94EF0049E352E060E080E00E9410011B
:1003A00087E492E00E94230483E692E00E94230403
:1003B00000E010E08BE7A82E82E0B82E9E012F5FB0
:1003C0003F4F790196E8C92E92E0D92E1F930F93E3
:1003D000BF92AF92FF92EF920E94D706A70160E012
:1003E00081E00E9410011F930F93DF92CF92FF9242
:1003F000EF920E94D706C7010E9423040F5F1F4F90
:1004000095B381E0892785BB3FEF8FE794E03150BA
:1004100080409040E1F700C0000080919B000FB643
:10042000F894DEBF0FBECDBF87FFD0CF0E942F0450
:100430000E94EF0045E952E060E080E00E94100178
:1004400044EA52E060E081E00E94100181EB92E01A
:100450000E9423043FEF8FE793E4315080409040A7
:10046000E1F700C0000081EF91E00E9423040E94A8
:100470002F0461960FB6F894DEBF0FBECDBFDF919B
:10048000CF911F910F91FF90EF90DF90CF90BF9091
:10049000AF9008950F931F93CF93DF93CDB7DEB73F
:1004A000A8970FB6F894DEBF0FBECDBF88ED92E0DF
:1004B0000E94230488E0EAE1F1E0DE0191960190D8
:1004C0000D928A95E1F788E0E2E2F1E0DE015996CB
:1004D00001900D928A95E1F788E0EAE2F1E0DE0111
:1004E000519601900D928A95E1F788E0E2E3F1E000
:1004F000DE01199601900D928A95E1F788E0EAE312
:10050000F1E0DE01119601900D928A95E1F7BE01AE
:100510006F5D7F4F80E00E941A01BE01675E7F4FD2
:1005200081E00E941A01BE016F5E7F4F82E00E944F
:100530001A01BE01675F7F4F83E00E941A01BE016E
:100540006F5F7F4F84E00E941A010E94EF004EEF20
:1005500052E060E080E00E94100180EC0E949D006B
:1005600080E00E94AC0080E20E94AC0081E00E942A
:10057000AC0080E20E94AC0082E00E94AC0080E20D
:100580000E94AC0083E00E94AC0080E20E94AC00BC
:1005900084E00E94AC008CE093E00E9423048CE293
:1005A00093E00E9423042FEF8FE793E421508040D3
:1005B0009040E1F700C000000E94EF004BE453E0E0
:1005C00060E080E00E94100186E593E00E94230431
:1005D00003E010E0612F81E00E94F20082E00E94BF
:1005E000AC002FEF8FE392E0215080409040E1F784
:1005F00000C00000612F81E00E94F20080E20E94B2
:10060000AC001F5F1C3031F7015019F781EF91E00A
:100610000E9423040E942F04A8960FB6F894DEBF10
:100620000FBECDBFDF91CF911F910F9108953F92E3
:100630004F925F926F927F928F929F92AF92BF92F2
:10064000CF92DF92EF92FF920F931F93CF93DF939E
:10065000CDB7DEB761970FB6F894DEBF0FBECDBF42
:100660008EE693E00E94230483E692E00E94230436
:100670000E94EF0044E953E060E080E00E94100136
:10068000A12CB12C8E010F5F1F4F85EB682E83E0EC
:10069000782E9EEB892E93E0992EC5016FE070E0D5
:1006A0000E946E067C0124E1E20EF11CC5016EE1A0
:1006B00070E00E946E066C012DE2C20ED11CC501D5
:1006C00064E670E00E946E06482E392EDF92CF92CB
:1006D000FF92EF9284EA93E09F938F931F930F937F
:1006E0000E94D706A80160E081E00E9410013F92BD
:1006F0004F927F926F921F930F930E94D706A8018B
:100700006BE081E00E9410013F924F92DF92CF9206
:10071000FF92EF929F928F921F930F930E94D706A2
:10072000C8010E9423040FB6F894DEBF0FBECDBFF0
:1007300098E1941540F421E3241538F48AE48415F3
:1007400030F48FE005C081E003C083E001C087E0A2
:1007500085BB9FEFA91AB90A2FEF8FE39BE02150C9
:1007600080409040E1F700C0000080919B0087FF2F
:1007700094CF0E942F0482EE93E00E94230461969E
:100780000FB6F894DEBF0FBECDBFDF91CF911F91A2
:100790000F91FF90EF90DF90CF90BF90AF909F9020
:1007A0008F907F906F905F904F903F90089581EF72
:1007B00093E00E94230486EF93E00E94230487E7DE
:1007C00094E00E94230487EA94E00E94230483EFCC
:1007D00093E00E94230488E295E00E94230487E3CB
:1007E00095E00E94230482E595E00E94230481E7BE
:1007F00095E00E9423048BE895E00E94230483EF98
:1008000093E00E94230485EA95E00C94230410925F
:100810009B0086E080939D0088E980939A008FE298
:1008200090E0909356068093550610929800809120
:10083000550680939900089590919B0095FFFCCFF9
:1008400080939C000895CF93DF93EC0189918823D6
:1008500019F00E941C04FACFDF91CF910895809186
:100860009B0087FFFCCF80919C0008950F931F93FE
:10087000CF93DF9300D000D000D0CDB7DEB79F93E9
:100880008F9384E496E09F938F938E010F5F1F4FA9
:100890001F930F930E94D706C8010E9423040F9054
:1008A0000F900F900F900F900F9026960FB6F89420
:1008B000DEBF0FBECDBFDF91CF911F910F91089585
:1008C0000F931F93CF93DF9300D01F92CDB7DEB766
:1008D0001F928F9387E496E09F938F938E010F5F13
:1008E0001F4F1F930F930E94D706C8010E94230435
:1008F0000F900F900F900F900F900F900F900F9000
:100900000F90DF91CF911F910F91089587E191E0B2
:100910000C9423040E942F040C941C041F920F9229
:100920000FB60F9211248F9380919C0080935106F3
:1009300081E08093500680915106809354068F91F8
:100940000F900FBE0F901F9018958091500688232E
:1009500019F01092500681E0089580915106089593
:10096000CF93DF9360E177E20E946E06EC01FB011A
:10097000E050FF4F80810E941C04CE0168EE73E0BE
:100980000E946E06EC01FB01E050FF4F80810E9447
:100990001C04CE0164E670E00E946E06EC01FB01CF
:1009A000E050FF4F80810E941C04CE016AE070E09D
:1009B0000E946E06EC01FB01E050FF4F80810E9417
:1009C0001C04C050DF4F8881DF91CF910C941C0430
:1009D000CF9364E60E946206C92FE82FF0E0E05052
:1009E000FF4F80810E941C048C2F6AE00E946206E7
:1009F000C92FE82FF0E0E050FF4F80810E941C04D7
:100A0000EC2FF0E0E050FF4F8081CF910C941C045C
:100A1000CF93DF93EC0197FD02C08BE204C0D19528
:100A2000C195D1098DE20E941C04CE0160E177E2FC
:100A30000E948206EC01FB01E050FF4F80810E9482
:100A40001C04CE0168EE73E00E948206EC01FB01FB
:100A5000E050FF4F80810E941C04CE0164E670E0EC
:100A60000E948206EC01FB01E050FF4F80810E9452
:100A70001C04CE016AE070E00E948206EC01FB01DA
:100A8000E050FF4F80810E941C04C050DF4F8881DE
:100A9000DF91CF910C941C044F925F926F927F92E2
:100AA0008F929F92AF92BF92CF92DF92EF92FF927E
:100AB0000F931F93CF93DF934B015C01C9E0D0E00C
:100AC000C12C9AECD92E9AE9E92E9BE3F92E2AE063
:100AD000422E512C612C712C8C149D04AE04BF0449
:100AE00054F4C701B601A30192010E949606690160
:100AF0007A01219789F78AE0482E512C612C712CBC
:100B00001C141D041E041F04DCF4C501B401A7015C
:100B100096010E9496068B01D82FC92FF901E0504B
:100B2000FF4F80810E941C044801AD2EBC2EC701DE
:100B3000B601A30192010E94960669017A01E0CFF5
:100B4000DF91CF911F910F91FF90EF90DF90CF90A9
:100B5000BF90AF909F908F907F906F905F904F90DD
:100B60000895CF93C82FE82FE295EF70F0E0E050A2
:100B7000FF4F80810E941C04CF70EC2FF0E0E0500A
:100B8000FF4F8081CF910C941C04E82FE295EF7009
:100B9000F0E0E050FF4F208130E0322F2227E82F95
:100BA000EF70F0E0E050FF4F8081A901482BCA01AF
:100BB00008951F920F920FB60F9211248F93CF9327
:100BC000DF931F92CDB7DEB78CB1898389810F90F7
:100BD000DF91CF918F910F900FBE0F901F901895BE
:100BE00008950895089508950E9407040E94AF0093
:100BF0008FEF84BB15BA2FEF8FE39BE0215080402D
:100C00009040E1F700C000008DEB95E00E942304C6
:100C100089EE95E00E9423040E94EF0044E056E034
:100C200060E080E00E94100142E156E060E081E077
:100C30000E94100181E085BB2FEF8FEF9CE22150D5
:100C400080409040E1F700C000000E94D7030E945E
:100C50002F04C82F0E941C0483EF93E00E942304FA
:100C6000C23369F028F4C13381F40E94340122C0F8
:100C7000C33341F0C43349F40E9417031BC00E94E0
:100C8000B20118C00E944A0215C08FE196E00E948E
:100C900023040E94EF0044E356E060E080E00E94FD
:100CA00010012FEF8FE796E1215080409040E1F74F
:100CB00000C000002FEF8FE39BE021508040904068
:100CC000E1F7C1CF991B79E004C0991F961708F08E
:100CD000961B881F7A95C9F780950895AA1BBB1BA0
:100CE00051E107C0AA1FBB1FA617B70710F0A61B2C
:100CF000B70B881F991F5A95A9F780959095BC014D
:100D0000CD01089597FB072E16F4009407D077FDC8
:100D100009D00E946E0607FC05D03EF4909581959F
:100D20009F4F0895709561957F4F0895052E97FB0D
:100D30001EF400940E94AD0657FD07D00E94B50630
:100D400007FC03D04EF40C94AD06509540953095B9
:100D500021953F4F4F4F5F4F089590958095709527
:100D600061957F4F8F4F9F4F0895A1E21A2EAA1BC6
:100D7000BB1BFD010DC0AA1FBB1FEE1FFF1FA2174B
:100D8000B307E407F50720F0A21BB30BE40BF50B48
:100D9000661F771F881F991F1A9469F760957095D1
:100DA000809590959B01AC01BD01CF0108950F93F3
:100DB0001F93CF93DF93CDB7DEB72E970FB6F8947E
:100DC000DEBF0FBECDBF0D891E8986E08C831A83DE
:100DD00009838FEF9FE79E838D83AE01475E5F4F50
:100DE0006F89788DCE0101960E940607EF81F88504
:100DF000E00FF11F10822E960FB6F894DEBF0FBEE3
:100E0000CDBFDF91CF911F910F9108952F923F9207
:100E10004F925F926F927F928F929F92AF92BF920A
:100E2000CF92DF92EF92FF920F931F93CF93DF93B6
:100E3000CDB7DEB72B970FB6F894DEBF0FBECDBF90
:100E40006C017B018A01FC0117821682838181FF7C
:100E5000CCC1CE0101963C01F6019381F70193FDCF
:100E6000859193FF81917F01882309F4BAC185326E
:100E700039F493FD859193FF81917F01853229F4A7
:100E8000B60190E00E942609E7CF912C212C312C4D
:100E9000FFE1F315D8F08B3279F038F4803279F035
:100EA0008332A1F4232D20611DC08D3261F0803387
:100EB00069F4232D216016C0832D8260382EE32D26
:100EC000E4603E2E2AC0F32DF8601DC037FC2DC013
:100ED00020ED280F2A3040F08E32B9F436FC81C163
:100EE000232D2064322E19C036FE06C08AE0989E5B
:100EF000200D1124922E11C0EAE02E9E200D112407
:100F0000222EF32DF0623F2E08C08C3621F4832D63
:100F10008068382E02C0883641F4F70193FD859130
:100F200093FF81917F018111B3CF982F9F7D9554BD
:100F3000933028F40C5F1F4F9FE399830DC08336D5
:100F400031F0833771F0833509F059C021C0F801C1
:100F5000808189830E5F1F4F88248394912C5301D5
:100F600013C02801F2E04F0E511CF801A080B1809F
:100F700036FE03C0692D70E002C06FEF7FEFC50140
:100F80000E941B094C018201F32DFF773F2E16C0F2
:100F9000280122E0420E511CF801A080B18036FEEB
:100FA00003C0692D70E002C06FEF7FEFC5010E94A2
:100FB00010094C01F32DF0683F2E820133FC1BC059
:100FC000822D90E088169906B0F4B60180E290E098
:100FD0000E9426092A94F4CFF50137FC859137FE4B
:100FE00081915F01B60190E00E94260921102A94A8
:100FF00021E0821A91088114910471F7E8C08436C7
:1010000011F0893641F5F80137FE07C06081718122
:10101000828193810C5F1F4F08C060817181072E10
:10102000000C880B990B0E5F1F4FF32DFF763F2EA0
:1010300097FF09C090958095709561957F4F8F4F70
:101040009F4FF0683F2E2AE030E0A3010E94620922
:10105000882E861845C0853731F4232D2F7EB22E79
:101060002AE030E025C0932D997FB92E8F36C1F04C
:1010700018F4883579F0B5C0803719F0883721F039
:10108000B0C0E92FE061BE2EB4FE0DC0FB2DF460B0
:10109000BF2E09C034FE0AC0292F2660B22E06C01A
:1010A00028E030E005C020E130E002C020E132E07D
:1010B000F801B7FE07C060817181828193810C5F66
:1010C0001F4F06C06081718180E090E00E5F1F4F6E
:1010D000A3010E946209882E8618FB2DFF773F2E00
:1010E00036FE0DC0232D2E7FA22E891458F434FE17
:1010F0000BC032FC09C0832D8E7EA82E05C0B82CF3
:10110000A32C03C0B82C01C0B92CA4FE0FC0FE0153
:10111000E80DF11D8081803321F49A2D997EA92E4E
:1011200009C0A2FE06C0B394B39404C08A2D867889
:1011300009F0B394A3FC11C0A0FE06C0B21488F459
:10114000280C922C9B180EC0B21460F4B60180E2F9
:1011500090E00E942609B394F7CFB21418F42B182C
:1011600002C0982C212CA4FE10C0B60180E390E0B0
:101170000E942609A2FE17C0A1FC03C088E790E0E8
:1011800002C088E590E0B6010CC08A2D867859F03F
:10119000A1FE02C08BE201C080E2A7FC8DE2B60195
:1011A00090E00E942609891438F4B60180E390E0AB
:1011B0000E9426099A94F7CF8A94F301E80DF11D55
:1011C0008081B60190E00E9426098110F5CF22208F
:1011D00009F442CEB60180E290E00E9426092A94EA
:1011E000F6CFF6018681978102C08FEF9FEF2B9695
:1011F0000FB6F894DEBF0FBECDBFDF91CF911F9128
:101200000F91FF90EF90DF90CF90BF90AF909F90A5
:101210008F907F906F905F904F903F902F900895A8
:10122000FC010590615070400110D8F780959095B1
:101230008E0F9F1F0895FC016150704001900110B6
:10124000D8F7809590958E0F9F1F08950F931F9349
:10125000CF93DF93FB01238121FD03C08FEF9FEF2D
:101260002CC022FF16C04681578124813581421748
:10127000530744F4A081B1819D012F5F3F4F31831B
:1012800020838C93268137812F5F3F4F37832683BE
:1012900014C08B01EC01FB010084F185E02D099560
:1012A000892BE1F6D80116968D919C91179701969E
:1012B00017969C938E931697CE01DF91CF911F9135
:1012C0000F910895FA01AA27283051F1203181F1B8
:1012D000E8946F936E7F6E5F7F4F8F4F9F4FAF4F3E
:1012E000B1E03ED0B4E03CD0670F781F891F9A1F51
:1012F000A11D680F791F8A1F911DA11D6A0F711D05
:10130000811D911DA11D20D009F468943F912AE010
:10131000269F11243019305D3193DEF6CF010895F8
:10132000462F4770405D4193B3E00FD0C9F7F6CF29
:10133000462F4F70405D4A3318F0495D31FD4052F1
:10134000419302D0A9F7EACFB4E0A6959795879587
:1013500077956795BA95C9F7009761057105089566
:101360009B01AC010A2E0694579547953795279512
:10137000BA95C9F7620F731F841F951FA01D0895AA
:04138000F894FFCF0F
:1013840030313233343536373839414243444546B7
:1013940009000D0A0009000D0A00000A1F1F0E04AF
:1013A4000000040E0E0E1F00040000080C0E0C08B2
:1013B40000000002060E060200000E1F1F1F1F1F62
:1013C4001F1F0D0A3D3D3D2044454D4F20313A201D
:1013D4004261736963205465787420446973706C46
:1013E4006179203D3D3D0D0A0041546D65676131D1
:1013F4003238004C43442044656D6F20342D6269BB
:101404007400446973706C6179696E6720626173FA
:1014140069632074657874206F6E204C43440D0A10
:10142400004C696E6520313A2041546D6567613125
:1014340032380D0A004C696E6520323A204C434420
:101444002044656D6F20342D6269740D0A000D0A05
:10145400446973706C6179696E6720616C7068614E
:10146400626574207061747465726E2E2E2E0D0A7E
:1014740000507265737320616E79206B65792074F6
:101484006F20636F6E74696E75652E2E2E000D0AC3
:101494003D3D3D2044454D4F20323A204E756D620E
:1014A40065727320616E6420466F726D6174746935
:1014B4006E67203D3D3D0D0A00436F756E74657285
:1014C4002044656D6F3A00446973706C6179696E8C
:1014D4006720636F756E746572206F6E204C434491
:1014E4000D0A00507265737320616E79206B657903
:1014F40020746F2073746F700D0A00436F756E74DF
:101504003A20253575000D436F756E743A202575A4
:1015140020202020004465633A3132332048657826
:101524003A37420042696E3A30313131313031312B
:10153400000D0A0D0A53686F77696E672064696647
:10154400666572656E74206E756D62657220666F75
:10155400726D6174730D0A000D0A3D3D3D204445D2
:101564004D4F20333A20437573746F6D2043686187
:1015740072616374657273203D3D3D0D0A004375CD
:1015840073746F6D2043686172733A0044697370B9
:101594006C6179696E6720637573746F6D2063681D
:1015A40061726163746572733A0D0A004865617211
:1015B400742C2042656C6C2C204172726F77732CF2
:1015C40020426174746572790D0A00416E696D611F
:1015D40074696F6E3A000D0A416E696D6174696ECB
:1015E40067206172726F77732E2E2E0D0A000D0A1A
:1015F4003D3D3D2044454D4F20343A205265616CB9
:101604002D54696D6520446973706C6179203D3D8A
:101614003D0D0A005265616C2D54696D652044616D
:1016240074613A00543A25754320483A25752525B6
:1016340020202020004C3A257525252020000D541B
:10164400656D703A2575432048756D69643A257552
:101654002525204C696768743A25752525202020A6
:1016640020000D0A0D0A53746F707065642E0D0A04
:10167400000D0A0D0A00E29594E29590E29590E23D
:101684009590E29590E29590E29590E29590E2959E
:1016940090E29590E29590E29590E29590E2959093
:1016A400E29590E29590E29590E29590E29590E231
:1016B4009590E29590E29590E29590E29590E2956E
:1016C40090E29590E29590E29590E29590E2959063
:1016D400E29590E29590E29590E29590E29590E201
:1016E4009590E29590E29590E29590E29590E2953E
:1016F40090E295970D0A00E295912020204C4344F6
:1017040020446973706C61792028342D62697429CE
:10171400202D2041546D656761313238202020200E
:1017240020E295910D0A00E2959AE29590E2959057
:10173400E29590E29590E29590E29590E29590E2A0
:101744009590E29590E29590E29590E29590E295DD
:1017540090E29590E29590E29590E29590E29590D2
:10176400E29590E29590E29590E29590E29590E270
:101774009590E29590E29590E29590E29590E295AD
:1017840090E29590E29590E29590E29590E29590A2
:10179400E29590E29590E29590E29590E29590E240
:1017A4009590E2959D0D0A0053656C656374204421
:1017B400656D6F3A0D0A0020205B315D2042617334
:1017C4006963205465787420446973706C61790D81
:1017D4000A0020205B325D204E756D6265727320B5
:1017E400616E6420466F726D617474696E670D0A70
:1017F4000020205B335D20437573746F6D20436854
:1018040061726163746572730D0A0020205B345D3C
:10181400205265616C2D54696D6520446973706C48
:1018240061790D0A00456E7465722073656C656399
:1018340074696F6E2028312D34293A20000D0A0D69
:101844000A2A2A2A2048443434373830204C434466
:101854002043686172616374657220446973706CBB
:101864006179202A2A2A0D0A00342D626974206DB8
:101874006F64652C203136783220646973706C6132
:10188400790D0A00202041546D656761313238209A
:101894002000204C43442052656164792120004992
:1018A4006E76616C69642073656C656374696F6ED0
:1018B400210D0A00496E76616C69642063686F6962
:0C18C400636521002575002530325800B6
:00000001FF
