:100000000C9446000C9465000C9465000C946500FB
:100010000C9465000C9465000C9465000C946500CC
:100020000C9465000C9465000C9465000C946500BC
:100030000C9465000C9465000C9465000C946500AC
:100040000C9465000C9465000C94D1060C9465002A
:100050000C9465000C9465000C9465000C9465008C
:100060000C9465000C9465000C9465000C9465007C
:100070000C9465000C9465000C9486050C94650046
:100080000C9465000C9465000C94650011241FBE4F
:10009000CFEFD0E1DEBFCDBF16E0A0E0B1E0ECEAEB
:1000A000F5E100E00BBF02C007900D92AE34B1073E
:1000B000D9F726E0AEE4B6E001C01D92AB35B20739
:1000C000E1F70E94EC060C94D40A0C940000E5E6DB
:1000D000F0E080818260808382E08A95F1F700C041
:1000E00080818D7F80838BE78A95F1F70895E5E61F
:1000F000F0E020818F7034E0839FC0011124237CC5
:10010000822B80830C946700CF93C82F8091650069
:10011000662311F0816001C08E7F809365008C2F73
:1001200082958F700E9477008C2F8F700E947700CD
:100130008BE78A95F1F7CF910895CF93C82F60E0B0
:100140000E948400C150C23028F486E69EE00197E8
:10015000F1F70000CF91089561E00C948400E4E68B
:10016000F0E080818F6380832FEF8FE191E0215059
:1001700080409040E1F700C00000E5E6F0E08081BB
:100180008E7F808383E00E9477008FEF93E2019758
:10019000F1F700C0000083E00E94770084E191E065
:1001A0000197F1F7000083E00E94770084E191E07D
:1001B0000197F1F7000082E00E94770084E191E06E
:1001C0000197F1F7000088E20E949D008CE00E94F8
:1001D0009D0081E00E949D0086E00C949D0081E0DE
:1001E0000C949D00882329F0813011F4605C01C0DB
:1001F00060E0862F80680C949D00CF93DF93EC0124
:100200008991882319F00E94AC00FACFDF91CF9139
:100210000895CF93DF93EA010E94F200CE01DF91AF
:10022000CF910C94FD000F931F93CF93DF938B011D
:1002300028E0829FC001112480640E949D00E80193
:10024000085F1F4F89910E94AC00C017D107D1F7FA
:10025000DF91CF911F910F910895CF9360E00E949D
:10026000F200C0E180E20E94AC00C150D9F7CF910A
:1002700008954F925F926F927F928F929F92AF926A
:10028000BF92CF92DF92EF92FF920F931F93CF9383
:10029000DF93CDB7DEB764970FB6F894DEBF0FBE1D
:1002A000CDBF8AE791E00E941B058DE991E00E9495
:1002B0001B05412CA42CB12CF501EB54FE4F808181
:1002C000882311F04394F6CF0E94EF0040E052E003
:1002D00060E080E00E940901512C80E1C82E82E09C
:1002E000D82E9E012F5F3F4F790166246394712CB5
:1002F00080EC0E949D0000E010E0852C912CC40150
:10030000800F911FB5010E949607FC01EB54FE4F30
:1003100080810E94AC000F5F1F4F0031110579F7FB
:100320005394541408F0512C1F925F92DF92CF9295
:10033000FF92EF920E94EB07C7010E941B05852DDB
:100340008770930102C0220F331F8A95E2F725BB05
:100350003FEF8FE794E0315080409040E1F700C0DC
:10036000000080919B000F900F900F900F900F90C6
:100370000F9087FFBDCF0E9427058EE192E00E947B
:100380001B0564960FB6F894DEBF0FBECDBFDF919C
:10039000CF911F910F91FF90EF90DF90CF90BF9082
:1003A000AF909F908F907F906F905F904F90089547
:1003B0002F923F924F925F926F927F928F929F9275
:1003C000AF92BF92CF92DF92EF92FF920F931F9363
:1003D000CF93DF93CDB7DEB7EC970FB6F894DEBFBF
:1003E0000FBECDBF87E392E00E941B0588E0EAE1E3
:1003F000F1E0DE01D59601900D928A95E1F788E053
:10040000E2E2F1E0DE019D9601900D928A95E1F71E
:1004100088E0EAE2F1E0DE01959601900D928A957E
:10042000E1F788E0E2E3F1E0DE015D9601900D92F4
:100430008A95E1F788E0EAE3F1E0DE015596019064
:100440000D928A95E1F7BE016B5C7F4F80E00E94C0
:100450001301BE016B5D7F4F81E00E941301BE015D
:10046000635E7F4F82E00E941301BE016B5E7F4F8F
:1004700083E00E941301BE01635D7F4F84E00E9410
:1004800013010E94EF0049E552E060E080E00E9425
:100490000901C12CD12CE12CF12C00E010E084E604
:1004A000482E512C94E6292E92E0392ECE01019649
:1004B0003C01C801B2010E9482075B0180EC0E94EE
:1004C0009D0080E090E04C0124E0820E911CA81475
:1004D000B90410F084E008C08A159B0510F080E094
:1004E00003C02A2D281B822F0E94AC00C401803437
:1004F000910549F7FF92EF923F922F927F926F9270
:100500000E94EB07C3010E941B05C601B2010E94B5
:10051000960765BB8FEF9FE322E08150904020401B
:10052000E1F700C00000005C1E4F85E0E80EF11C02
:1005300095E0C91A9BEFD90A0F900F900F900F907A
:100540000F900F9000342AE1120709F0B2CF0E94F9
:10055000EF0048E752E060E080E00E94090142E8D5
:1005600052E060E081E00E9409018BE892E00E9485
:100570001B058FEF9FEF2CE2815090402040E1F768
:1005800000C0000084EA92E00E941B050E9427053B
:10059000EC960FB6F894DEBF0FBECDBFDF91CF91C2
:1005A0001F910F91FF90EF90DF90CF90BF90AF9091
:1005B0009F908F907F906F905F904F903F902F9083
:1005C0000895CF92DF92FF920F931F93CF93DF9303
:1005D000CDB7DEB7A8970FB6F894DEBF0FBECDBF7C
:1005E00081EC92E00E941B0588E0E2E4F1E0DE018C
:1005F000919601900D928A95E1F788E0EAE4F1E0A6
:10060000DE01599601900D928A95E1F788E0E2E5C6
:10061000F1E0DE01519601900D928A95E1F788E0B4
:10062000EAE5F1E0DE01199601900D928A95E1F775
:10063000BE016F5D7F4F80E00E941301BE01675EC7
:100640007F4F81E00E941301BE016F5E7F4F82E009
:100650000E941301BE01675F7F4F83E00E94130178
:100660000E94EF0047EE52E060E080E00E94090146
:1006700085EF92E00E941B0584E1F82ECC24C39400
:10068000D12C00E010E087EC0E949D00802F0E949A
:10069000AC00C601002E01C0880F0A94EAF785BBA2
:1006A0002FEF8FE392E0215080409040E1F700C0AF
:1006B00000000F5F1F4F0430110529F7FA94F11065
:1006C000E0CF0E94EF0044E153E060E080E00E9450
:1006D000090188E0E2E6F1E0DE01119601900D9259
:1006E0008A95E1F7BE016F5F7F4F80E00E941301A2
:1006F0008EE193E00E941B0503E010E081E00E9480
:100700002D01612F81E00E94F20080E00E94AC0088
:100710002CEC8CEC91E0215080409040E1F700C03F
:100720001F5F103159F71FE081E00E942D01612FFA
:1007300081E00E94F20080E00E94AC002CEC8CEC86
:1007400091E0215080409040E1F700C0115060F7E7
:10075000015099F689E393E00E941B0584EA92E038
:100760000E941B050E942705A8960FB6F894DEBFCD
:100770000FBECDBFDF91CF911F910F91FF90DF9002
:10078000CF9008954F925F926F927F928F929F9237
:10079000AF92BF92CF92DF92EF92FF920F931F938F
:1007A000CF93DF93CDB7DEB7E8970FB6F894DEBFEF
:1007B0000FBECDBF81E593E00E941B0581E793E06A
:1007C0000E941B0588E0EAE6F1E0DE01D196019087
:1007D0000D928A95E1F7BE016F5C7F4F80E00E9429
:1007E000130188E0E2E7F1E0DE01999601900D92B5
:1007F0008A95E1F700E096EAC92E93E0D92E882485
:100800008394912C34ECA32E33E0B32E55245A94C8
:100810000E94EF0040EA53E060E080E00E9409019E
:1008200080EC0E949D0080E00E94AC0080E20E946B
:10083000AC00602E712C7301EE0CFF1CE1E0F0E0C7
:10084000EC0FFD1FEE0DFF1D10A541A4812F942D6F
:100850000E94FD004F921F93DF92CF9281E090E0C3
:100860008C0F9D1F9F938F930E94EB07CE010196E3
:100870000E941B05C401002E01C0880F0A94EAF7EC
:1008800085BB0E942705182F0E9414050F900F901A
:100890000F900F900F900F901335D9F048F41D3042
:1008A000F9F0113509F453C01A3009F06EC018C0C0
:1008B000113709F44CC018F4173531F066C01337FE
:1008C00041F0173709F061C0002309F45BC0015003
:1008D0005CC093E0691671040CF056C00F5F55C000
:1008E0000E94EF004AEB53E060E080E00E940901C3
:1008F000E1E0F0E0EC0FFD1FEE0DFF1D10A5F1A4EF
:10090000412F5F2D60E081E00E940901FF921F935B
:10091000BF92AF9281E090E08C0F9D1F9F938F93C9
:100920000E94EB07CE0101960E941B0555BA9FEF6E
:100930002FEB81E2915020408040E1F700C00000A1
:100940000F900F900F900F900F900F901EC086ED9C
:1009500093E00E941B05E8960FB6F894DEBF0FBE29
:10096000CDBFDF91CF911F910F91FF90EF90DF905E
:10097000CF90BF90AF909F908F907F906F905F903F
:100980004F90089503E001C000E09FEF2FE382E065
:10099000915020408040E1F700C0000039CF8BE04B
:1009A00094E00E941B0580E194E00E941B0581E910
:1009B00094E00E941B0581EC94E00E941B058DE0F1
:1009C00094E00E941B0582E495E00E941B0581E5EE
:1009D00095E00E941B0588E695E00E941B058EE7C6
:1009E00095E00E941B0588E995E00E941B058DE0BB
:1009F00094E00E941B0581EB95E00C941B0510927E
:100A00009B0086E080939D0088E980939A008FE2A6
:100A100090E090935806809357061092980080912A
:100A2000570680939900089590919B0095FFFCCF05
:100A300080939C000895CF93DF93EC0189918823E4
:100A400019F00E941405FACFDF91CF91089580919B
:100A50009B0087FFFCCF80919C0008950F931F930C
:100A6000CF93DF9300D000D000D0CDB7DEB79F93F7
:100A70008F9386E496E09F938F938E010F5F1F4FB5
:100A80001F930F930E94EB07C8010E941B050F9054
:100A90000F900F900F900F900F9026960FB6F8942E
:100AA000DEBF0FBECDBFDF91CF911F910F91089593
:100AB0000F931F93CF93DF9300D01F92CDB7DEB774
:100AC0001F928F9389E496E09F938F938E010F5F1F
:100AD0001F4F1F930F930E94EB07C8010E941B0535
:100AE0000F900F900F900F900F900F900F900F900E
:100AF0000F90DF91CF911F910F91089587E191E0C1
:100B00000C941B050E9427050C9414051F920F924C
:100B10000FB60F9211248F9380919C0080935306FF
:100B200081E08093520680915306809356068F9100
:100B30000F900FBE0F901F9018958091520688233A
:100B400019F01092520681E008958091530608959D
:100B5000CF93DF9360E177E20E948207EC01FB0113
:100B6000E050FF4F80810E941405CE0168EE73E0D3
:100B70000E948207EC01FB01E050FF4F80810E9440
:100B80001405CE0164E670E00E948207EC01FB01CF
:100B9000E050FF4F80810E941405CE016AE070E0B2
:100BA0000E948207EC01FB01E050FF4F80810E9410
:100BB0001405C050DF4F8881DF91CF910C9414054C
:100BC000CF9364E60E947607C92FE82FF0E0E0504B
:100BD000FF4F80810E9414058C2F6AE00E947607E7
:100BE000C92FE82FF0E0E050FF4F80810E941405EC
:100BF000EC2FF0E0E050FF4F8081CF910C94140572
:100C0000CF93DF93EC0197FD02C08BE204C0D19536
:100C1000C195D1098DE20E941405CE0160E177E211
:100C20000E949607EC01FB01E050FF4F80810E947B
:100C30001405CE0168EE73E00E949607EC01FB01FB
:100C4000E050FF4F80810E941405CE0164E670E001
:100C50000E949607EC01FB01E050FF4F80810E944B
:100C60001405CE016AE070E00E949607EC01FB01DA
:100C7000E050FF4F80810E941405C050DF4F8881F3
:100C8000DF91CF910C9414054F925F926F927F92F7
:100C90008F929F92AF92BF92CF92DF92EF92FF928C
:100CA0000F931F93CF93DF934B015C01C9E0D0E01A
:100CB000C12C9AECD92E9AE9E92E9BE3F92E2AE071
:100CC000422E512C612C712C8C149D04AE04BF0457
:100CD00054F4C701B601A30192010E94AA07690159
:100CE0007A01219789F78AE0482E512C612C712CCA
:100CF0001C141D041E041F04DCF4C501B401A7016B
:100D000096010E94AA078B01D82FC92FF901E05044
:100D1000FF4F80810E9414054801AD2EBC2EC701F3
:100D2000B601A30192010E94AA0769017A01E0CFEE
:100D3000DF91CF911F910F91FF90EF90DF90CF90B7
:100D4000BF90AF909F908F907F906F905F904F90EB
:100D50000895CF93C82FE82FE295EF70F0E0E050B0
:100D6000FF4F80810E941405CF70EC2FF0E0E0501F
:100D7000FF4F8081CF910C941405E82FE295EF701E
:100D8000F0E0E050FF4F208130E0322F2227E82FA3
:100D9000EF70F0E0E050FF4F8081A901482BCA01BD
:100DA00008951F920F920FB60F9211248F93CF9335
:100DB000DF931F92CDB7DEB78CB1898389810F9005
:100DC000DF91CF918F910F900FBE0F901F901895CC
:100DD00008950895089508950E94FF040E94AF00A9
:100DE0008FEF84BB15BA2FEF3FE38BE021503040EB
:100DF0008040E1F700C000008AED95E00E941B05ED
:100E00008EEF95E00E941B050E94EF0009EC15E0B3
:100E1000C0E0EE24E394F12C8C2F80680E949D00AA
:100E2000F80181918F010E94AC008C2F877097018F
:100E300002C0220F331F8A95E2F725BB3FEF8FE1F7
:100E400091E0315080409040E1F700C00000CF5F5A
:100E5000C03111F74CE156E060E081E00E940901E9
:100E6000EFEFFFEB21E2E150F0402040E1F700C05E
:100E700000000E94CF040E942705C82F0E9414057D
:100E80008DE094E00E941B05C23369F028F4C13361
:100E900081F40E94390122C0C33341F0C43349F4C4
:100EA0000E94C2031BC00E94D80118C00E94E10228
:100EB00015C088E296E00E941B050E94EF004DE3FA
:100EC00056E060E080E00E9409013FEF8FE796E185
:100ED000315080409040E1F700C00000EFEFFFE3A9
:100EE0002BE0E150F0402040E1F7C1CF991B79E0C1
:100EF00004C0991F961708F0961B881F7A95C9F7AA
:100F000080950895AA1BBB1B51E107C0AA1FBB1FF8
:100F1000A617B70710F0A61BB70B881F991F5A9585
:100F2000A9F780959095BC01CD01089597FB072EF8
:100F300016F4009407D077FD09D00E94820707FCC1
:100F400005D03EF4909581959F4F089570956195D9
:100F50007F4F0895052E97FB1EF400940E94C10751
:100F600057FD07D00E94C90707FC03D04EF40C942C
:100F7000C10750954095309521953F4F4F4F5F4F9A
:100F8000089590958095709561957F4F8F4F9F4FF5
:100F90000895A1E21A2EAA1BBB1BFD010DC0AA1FBA
:100FA000BB1FEE1FFF1FA217B307E407F50720F0D2
:100FB000A21BB30BE40BF50B661F771F881F991F4D
:100FC0001A9469F760957095809590959B01AC0196
:100FD000BD01CF0108950F931F93CF93DF93CDB73A
:100FE000DEB72E970FB6F894DEBF0FBECDBF0D89CA
:100FF0001E8986E08C831A8309838FEF9FE79E8387
:101000008D83AE01475E5F4F6F89788DCE0101966B
:101010000E941A08EF81F885E00FF11F10822E96CA
:101020000FB6F894DEBF0FBECDBFDF91CF911F91F9
:101030000F9108952F923F924F925F926F927F92FD
:101040008F929F92AF92BF92CF92DF92EF92FF92D8
:101050000F931F93CF93DF93CDB7DEB72B970FB6C8
:10106000F894DEBF0FBECDBF6C017B018A01FC018D
:1010700017821682838181FFCCC1CE0101963C018B
:10108000F6019381F70193FD859193FF81917F0193
:10109000882309F4BAC1853239F493FD859193FF11
:1010A00081917F01853229F4B60190E00E943A0ACD
:1010B000E7CF912C212C312CFFE1F315D8F08B32A6
:1010C00079F038F4803279F08332A1F4232D206155
:1010D0001DC08D3261F0803369F4232D216016C06C
:1010E000832D8260382EE32DE4603E2E2AC0F32D3E
:1010F000F8601DC037FC2DC020ED280F2A3040F0CD
:101100008E32B9F436FC81C1232D2064322E19C0F1
:1011100036FE06C08AE0989E200D1124922E11C042
:10112000EAE02E9E200D1124222EF32DF0623F2E98
:1011300008C08C3621F4832D8068382E02C0883692
:1011400041F4F70193FD859193FF81917F01811116
:10115000B3CF982F9F7D9554933028F40C5F1F4F89
:101160009FE399830DC0833631F0833771F0833567
:1011700009F059C021C0F801808189830E5F1F4F9B
:1011800088248394912C530113C02801F2E04F0E60
:10119000511CF801A080B18036FE03C0692D70E0BB
:1011A00002C06FEF7FEFC5010E942F0A4C01820140
:1011B000F32DFF773F2E16C0280122E0420E511C6E
:1011C000F801A080B18036FE03C0692D70E002C036
:1011D0006FEF7FEFC5010E94240A4C01F32DF068E8
:1011E0003F2E820133FC1BC0822D90E088169906A9
:1011F000B0F4B60180E290E00E943A0A2A94F4CF5B
:10120000F50137FC859137FE81915F01B60190E0D1
:101210000E943A0A21102A9421E0821A910881142E
:10122000910471F7E8C0843611F0893641F5F80170
:1012300037FE07C060817181828193810C5F1F4FEF
:1012400008C060817181072E000C880B990B0E5F1E
:101250001F4FF32DFF763F2E97FF09C09095809585
:10126000709561957F4F8F4F9F4FF0683F2E2AE01A
:1012700030E0A3010E94760A882E861845C0853783
:1012800031F4232D2F7EB22E2AE030E025C0932D9D
:10129000997FB92E8F36C1F018F4883579F0B5C032
:1012A000803719F0883721F0B0C0E92FE061BE2EF9
:1012B000B4FE0DC0FB2DF460BF2E09C034FE0AC081
:1012C000292F2660B22E06C028E030E005C020E1BC
:1012D00030E002C020E132E0F801B7FE07C06081D3
:1012E0007181828193810C5F1F4F06C06081718183
:1012F00080E090E00E5F1F4FA3010E94760A882EC7
:101300008618FB2DFF773F2E36FE0DC0232D2E7F36
:10131000A22E891458F434FE0BC032FC09C0832D70
:101320008E7EA82E05C0B82CA32C03C0B82C01C0FB
:10133000B92CA4FE0FC0FE01E80DF11D80818033A1
:1013400021F49A2D997EA92E09C0A2FE06C0B3945D
:10135000B39404C08A2D867809F0B394A3FC11C01D
:10136000A0FE06C0B21488F4280C922C9B180EC064
:10137000B21460F4B60180E290E00E943A0AB3949D
:10138000F7CFB21418F42B1802C0982C212CA4FE0D
:1013900010C0B60180E390E00E943A0AA2FE17C096
:1013A000A1FC03C088E790E002C088E590E0B601A8
:1013B0000CC08A2D867859F0A1FE02C08BE201C0D4
:1013C00080E2A7FC8DE2B60190E00E943A0A8914FF
:1013D00038F4B60180E390E00E943A0A9A94F7CF7D
:1013E0008A94F301E80DF11D8081B60190E00E941E
:1013F0003A0A8110F5CF222009F442CEB60180E2EC
:1014000090E00E943A0A2A94F6CFF60186819781ED
:1014100002C08FEF9FEF2B960FB6F894DEBF0FBE82
:10142000CDBFDF91CF911F910F91FF90EF90DF9093
:10143000CF90BF90AF909F908F907F906F905F9074
:101440004F903F902F900895FC010590615070409F
:101450000110D8F7809590958E0F9F1F0895FC017D
:101460006150704001900110D8F7809590958E0FD3
:101470009F1F08950F931F93CF93DF93FB01238149
:1014800021FD03C08FEF9FEF2CC022FF16C04681C5
:101490005781248135814217530744F4A081B181DB
:1014A0009D012F5F3F4F318320838C9326813781AD
:1014B0002F5F3F4F3783268314C08B01EC01FB0164
:1014C0000084F185E02D0995892BE1F6D801169667
:1014D0008D919C911797019617969C938E931697D2
:1014E000CE01DF91CF911F910F910895FA01AA27A4
:1014F000283051F1203181F1E8946F936E7F6E5F57
:101500007F4F8F4F9F4FAF4FB1E03ED0B4E03CD004
:10151000670F781F891F9A1FA11D680F791F8A1FE7
:10152000911DA11D6A0F711D811D911DA11D20D04E
:1015300009F468943F912AE0269F11243019305D08
:101540003193DEF6CF010895462F4770405D4193F9
:10155000B3E00FD0C9F7F6CF462F4F70405D4A3346
:1015600018F0495D31FD4052419302D0A9F7EACF0E
:10157000B4E0A6959795879577956795BA95C9F73D
:1015800000976105710508959B01AC010A2E069430
:101590005795479537952795BA95C9F7620F731FE9
:0C15A000841F951FA01D0895F894FFCF34
:1015AC00303132333435363738394142434445468D
:1015BC0009000D0A0009000D0A001F11111111116B
:1015CC00111F1F1F1F1F1F1F1F1F1F19191919194B
:1015DC00191F1F1D1D1D1D1D1D1F1F1F1D1D1D1D29
:1015EC001F1F0000040E1F0E040000040C1C1C0C1A
:1015FC000400000808181808080008080C0E0E0C47
:10160C00080800000E1F1F0E000000080C0E0C082E
:10161C000000EC03F503FD0305040D0A3D3D3D20E0
:10162C0044454D4F20313A205363726F6C6C696E98
:10163C00672054657874203D3D3D0D0A005072655D
:10164C00737320616E79206B657920746F207374CD
:10165C006F700D0A002020202041546D65676131A8
:10166C003238204D6963726F636F6E74726F6C6C7D
:10167C006572202D20416476616E636564204C4355
:10168C0044204665617475726573202D2053637216
:10169C006F6C6C696E672044656D6F202020200094
:1016AC005363726F6C6C696E672044656D6F3A00A2
:1016BC000D4F66667365743A2025752020000D0A5F
:1016CC000D0A5363726F6C6C696E672073746F7064
:1016DC007065642E0D0A000D0A3D3D3D2044454DBC
:1016EC004F20323A2050726F6772657373204261DB
:1016FC007273203D3D3D0D0A004C6F6164696E674D
:10170C002E2E2E000D50726F67726573733A202562
:10171C007525252020202000436F6D706C65746545
:10172C0021002020202031303025000D0A0D0A50D8
:10173C00726F677265737320636F6D706C6574651F
:10174C00210D0A00507265737320616E79206B65F0
:10175C007920746F20636F6E74696E75652E2E2EF2
:10176C00000D0A3D3D3D2044454D4F20333A20416C
:10177C006E696D617465642047726170686963732A
:10178C00203D3D3D0D0A0050726F63657373696EA9
:10179C00672E2E2E00446973706C6179696E672018
:1017AC007370696E6E657220616E696D6174696FBC
:1017BC006E0D0A00426F756E63696E673A0044697C
:1017CC0073706C6179696E6720626F756E63696E98
:1017DC00672062616C6C0D0A000D0A416E696D61C7
:1017EC0074696F6E20636F6D706C657465210D0A82
:1017FC00000D0A3D3D3D2044454D4F20343A204DCF
:10180C00656E752053797374656D203D3D3D0D0AF1
:10181C0000436F6D6D616E64733A20773D75702C6B
:10182C0020733D646F776E2C20454E5445523D73AA
:10183C00656C6563742C20713D717569740D0A00BB
:10184C004D454E553A000D53656C65637465643AAD
:10185C002025732020202020200053656C656374A4
:10186C0065643A000D0A0D0A4F70656E696E673A31
:10187C002025730D0A000D0A0D0A45786974696EEE
:10188C0067206D656E752E2E2E0D0A0053657474CF
:10189C00696E677300446973706C61790053656E8F
:1018AC00736F72730041626F7574000D0A0D0A003C
:1018BC00E29594E29590E29590E29590E29590E213
:1018CC009590E29590E29590E29590E29590E29554
:1018DC0090E29590E29590E29590E29590E2959049
:1018EC00E29590E29590E29590E29590E29590E2E7
:1018FC009590E29590E29590E29590E29590E29524
:10190C0090E29590E29590E29590E29590E2959018
:10191C00E29590E29590E29590E29590E29590E2B6
:10192C009590E29590E29590E29590E295970D0A4C
:10193C0000E2959120204C434420416476616E6313
:10194C006564204665617475726573202D20415461
:10195C006D65676131323820202020E295910D0AA7
:10196C0000E2959AE29590E29590E29590E295903E
:10197C00E29590E29590E29590E29590E29590E256
:10198C009590E29590E29590E29590E29590E29593
:10199C0090E29590E29590E29590E29590E2959088
:1019AC00E29590E29590E29590E29590E29590E226
:1019BC009590E29590E29590E29590E29590E29563
:1019CC0090E29590E29590E29590E29590E2959058
:1019DC00E29590E29590E29590E29590E2959D0DBE
:1019EC000A0053656C6563742044656D6F3A0D0A8B
:1019FC000020205B315D205363726F6C6C696E67E5
:101A0C0020546578740D0A0020205B325D205072E2
:101A1C006F677265737320426172730D0A00202028
:101A2C005B335D20416E696D617465642047726142
:101A3C0070686963730D0A0020205B345D20496E69
:101A4C00746572616374697665204D656E750D0AF7
:101A5C0000456E7465722073656C656374696F6E96
:101A6C002028312D34293A200020204C4344204199
:101A7C006476616E6365642020000D0A0D0A2A2AC3
:101A8C002A204C434420416476616E636564204691
:101A9C0065617475726573202A2A2A0D0A005363D6
:101AAC00726F6C6C696E672C20416E696D61746924
:101ABC006F6E2C204D656E75730D0A0020204665E7
:101ACC006174757265732100496E76616C6964206E
:101ADC0073656C656374696F6E210D0A00496E76CF
:0E1AEC00616C696421002575002530325800B8
:00000001FF
