:100000000C9446000C9465000C9465000C946500FB
:100010000C9465000C9465000C9465000C946500CC
:100020000C9465000C9465000C9465000C946500BC
:100030000C9465000C9465000C9465000C946500AC
:100040000C9465000C9465000C94B6070C94650044
:100050000C9465000C94BB050C9465000C94650031
:100060000C9465000C9465000C9465000C9465007C
:100070000C9465000C9465000C946B060C94650060
:100080000C9465000C9465000C94650011241FBE4F
:10009000CFEFD0E1DEBFCDBF16E0A0E0B1E0E4E9F4
:1000A000F7E100E00BBF02C007900D92A03EB10740
:1000B000D9F726E0A0EEB6E001C01D92A63FB20738
:1000C000E1F70E94D1070C94C80B0C94000087B391
:1000D000806E87BB82E88FBD8AE18EBD87EE93E09C
:1000E00097BD86BD1BBC1ABC88B38F7388BB0895AF
:1000F000853608F084E6282F30E0A7EEB3E00E94B2
:10010000D00824E630E040E050E00E948F083BBD7C
:100110002ABD089518161CF4C69AC7980AC08823E9
:1001200021F0C698C79A819504C088B38F7388BBA5
:1001300080E00C947800BF92CF92DF92EF92FF9212
:100140000F931F93CF93DF93CDB7DEB764970FB6AE
:10015000F894DEBF0FBECDBF89E291E00E94000699
:1001600081E591E00E9400068DE591E00E94000685
:1001700080E891E00E94000685EA91E00E94000676
:1001800006E610E089EAE82E82E0F82ECE0101961C
:100190006C01BB24B39480919B0087FF65C0809164
:1001A0009C0090ED980F9A3038F5880F8056182FE4
:1001B000110F110F180F812F063629F40E948A00A3
:1001C0008DEB91E005C081950E948A0088EC91E05A
:1001D0000E9400061F921F93FF92EF92DF92CF9230
:1001E0000E94DF08C6010E9400060F900F900F903A
:1001F0000F900F900F9038C08F7D863449F4812F77
:100200000E948A0083ED91E00E94000606E62CC061
:10021000823551F4812F81950E948A0088EE91E009
:100220000E94000602E720C0823449F480E00E9468
:100230008A008DEF91E00E94000610E015C0813524
:1002400099F480E00E948A0064960FB6F894DEBFAD
:100250000FBECDBFDF91CF911F910F91FF90EF9017
:10026000DF90CF90BF9008958091E1069091E206D3
:1002700001969093E2068093E1068131974208F45B
:100280008ACF85B38B2585BB1092E2061092E106DA
:1002900082CFCF92DF92EF92FF920F931F93CF9373
:1002A000DF93CDB7DEB76E970FB6F894DEBF0FBE03
:1002B000CDBF86E092E00E94000688E292E00E94B4
:1002C00000068DE592E00E94000602EA12E0CE01EF
:1002D00001967C0188E892E00E940006C69AC798C1
:1002E000C12CD12C8C2D0E947800DF92CF921F93CD
:1002F0000F93FF92EF920E94DF08C7010E94000651
:100300009FEF2FE784E0915020408040E1F700C04C
:10031000000080919B000F900F900F900F900F9016
:100320000F9087FF06C080919C008F7D813509F476
:1003300080C095E0C90ED11C29E6C216D10491F601
:100340008FEF9FE726E1815090402040E1F700C009
:10035000000080EB92E00E94000694E6C92ED12CAA
:100360008C2D0E947800DF92CF921F930F93FF9203
:10037000EF920E94DF08C7010E9400068FEF9FE7FF
:1003800024E0815090402040E1F700C000008091BF
:100390009B000F900F900F900F900F900F9087FF82
:1003A00006C080919C008F7D813509F442C085E0B4
:1003B000C81AD1089BEFC9169FEFD90689F688B3F2
:1003C0008F7388BB2FEF8FE796E1215080409040DC
:1003D000E1F700C0000082EC92E00E940006C6989F
:1003E000C79AC12CD12C8C2D0E947800DF92CF921D
:1003F0001F930F93FF92EF920E94DF08C7010E94A4
:1004000000062FEF8FE794E0215080409040E1F705
:1004100000C0000080919B000F900F900F900F90F4
:100420000F900F9087FF17C080919C008F7D8135C2
:1004300091F480E00E948A006E960FB6F894DEBFB9
:100440000FBECDBFDF91CF911F910F91FF90EF9025
:10045000DF90CF90089525E0C20ED11C89E6C81622
:10046000D10409F69FEF2FE786E1915020408040AC
:10047000E1F700C0000080EB92E00E94000684E6F5
:10048000D82E8D2D0E9478009FEF2FE784E09150A9
:1004900020408040E1F700C000009BEFD90ED91248
:1004A000F0CF88B38F7388BB8CED92E00E9400067A
:1004B0002FEF8FEF9CE2215080409040E1F700C089
:1004C000000008CF4F925F926F927F928F929F921F
:1004D000AF92BF92CF92DF92EF92FF920F931F9352
:1004E000CF93DF93CDB7DEB7EE970FB6F894DEBFAC
:1004F0000FBECDBF82EF92E00E94000689E193E03B
:100500000E9400068DE393E00E9400068DE592E0D4
:100510000E9400068CE0EDE1F1E0DE01D39601904F
:100520000D928A95E1F7C69AC79882E30E947800F7
:100530008E010D5C1F4F4E012FE3820E911C412C4A
:1005400050E8552E50E7652E712C6DE5E62E63E0E0
:10055000F62ECE0101966C015801F80121913191DE
:100560008F01C901A0E0B0E09C01AD0183E0220F42
:10057000331F441F551F8A95D1F7C301B2010E9452
:100580008F082150310937BD26BDC9019695879541
:100590009BBD8ABD3F932F93F50181818F9380810D
:1005A0008F93FF92EF92DF92CF920E94DF08C601F5
:1005B0000E940006FFEF2FE733E4F1502040304067
:1005C000E1F700C0000080919B000FB6F894DEBFF9
:1005D0000FBECDBF87FF0DC080919C008F7D813500
:1005E00041F480E00E948A0087EE93E097BD86BDCB
:1005F0000FC08016910609F0AFCF80E00E948A00FC
:1006000087EE93E097BD86BD89E793E00E940006E0
:10061000EE960FB6F894DEBF0FBECDBFDF91CF913F
:100620001F910F91FF90EF90DF90CF90BF90AF9010
:100630009F908F907F906F905F904F9008956F92F2
:100640007F928F929F92AF92BF92CF92DF92EF9262
:10065000FF920F931F93CF93DF93CDB7DEB7EC9745
:100660000FB6F894DEBF0FBECDBF8EE993E00E94B7
:1006700000068EEC93E00E94000682E094E00E9467
:1006800000068CE294E00E9400060E940C0516E62B
:1006900088248A9483E0982EA12CB12C9BE5E92E26
:1006A00094E0F92ECE0101966C0180E00E941705BE
:1006B000782E692E282F392FA4E6B0E00E94D008AA
:1006C000A50194010E948F08022F822F163609F08F
:1006D00081950E948A008091E0068F5F8093E006FA
:1006E0008A30E8F0163619F486E993E002C08AE908
:1006F00093E09F938F931F920F936F927F92FF923D
:10070000EF92DF92CF920E94DF08C6010E9400069E
:100710001092E0060FB6F894DEBF0FBECDBF8091F9
:100720009B0087FF29C080919C008F7D843451F409
:10073000163611F412E701C016E68DE794E00E9428
:1007400000061AC08135C1F480E00E948A00EC9650
:100750000FB6F894DEBF0FBECDBFDF91CF911F91D2
:100760000F91FF90EF90DF90CF90BF90AF909F9050
:100770008F907F906F9008959FEF2FE181E09150CF
:1007800020408040E1F700C000008FCF81E994E075
:100790000E94000686E994E00E94000687E195E049
:1007A0000E94000687E495E00E94000683E994E039
:1007B0000E94000688EC95E00E94000687ED95E017
:1007C0000E9400068AEF95E00E9400068AE196E00A
:1007D0000E94000685E396E00E94000683E994E00B
:1007E0000E94000687E596E00C9400068FEF8ABB16
:1007F0001BBA87BB88BB9FE094BB20EF25BB11BA17
:1008000082BB22B993B9109261001092620080936A
:100810006400109265000895883068F448B321E0C0
:1008200030E0B90102C0660F771F8A95E2F7CB016D
:100830008095842388BB0895883060F448B321E014
:1008400030E0B90102C0660F771F8A95E2F7CB014D
:10085000842B88BB0895883060F448B321E030E0F1
:10086000B90102C0660F771F8A95E2F7CB01842792
:1008700088BB0895809588BB08958FEF88BB089545
:1008800018BA0895883060F420B330E0A90102C09E
:10089000559547958A95E2F7CA018095817008952C
:1008A00080E0089580B38095089580B38F3F39F03C
:1008B0008FEF97E40197F1F700C00000F6CF80B307
:1008C0008F3F39F48FEF97E40197F1F700C00000F4
:1008D000F6CF9FEF2FE181E0915020408040E1F77B
:1008E00000C00000089590E0981771F0292F20951E
:1008F00028BB2FEF3FE34BE0215030404040E1F771
:1009000000C000009F5FF0CF08950F931F93CF9317
:10091000DF93182FD0E00FEFD11799F0C0E008BB9C
:100920008C2F0E940C042FEF8FE794E02150804021
:100930009040E1F700C00000CF5FC83081F7DF5F73
:10094000EBCFDF91CF911F910F9108950F931F93DC
:10095000CF93DF93082FD0E01FEFD01721F1C0E035
:1009600018BB8C2F0E940C042FEF8FE593E02150D1
:1009700080409040E1F700C00000CF5FC83081F7B1
:10098000C7E018BBC1508C2F0E940C042FEF8FE5DD
:1009900093E0215080409040E1F700C00000C11179
:1009A000F0CFDF5FDACFDF91CF911F910F910895E4
:1009B000CF93DF93C0E0DFEFD8BB8C2F0E940C04F5
:1009C0002FEF8FEB96E0215080409040E1F700C080
:1009D0000000CF5FC83081F78FEF88BBDF91CF91E8
:1009E000089580B388BB882351F02FEF8FE191E009
:1009F000215080409040E1F700C00000F2CF8FEF1F
:100A000088BB0895F8940E94F603789408958FB7F0
:100A1000881F8827881F089516B880E487B980E862
:100A200088B987E886B9369A3699FECF0895482F57
:100A3000982F9F71906497B987E886B9369A36994E
:100A4000FECF84B125B130E0322F2227B901680FE3
:100A5000711DCB017093E8066093E7064093E606AC
:100A60000895CF92DF92EF92FF921F93CF93DF937F
:100A7000182FD62FC0E0C12CD12C7601CD1761F0F4
:100A8000812F0E941705C80ED91EE11CF11C86EFAC
:100A90008A95F1F7CF5FF2CF2C2F30E040E050E0A5
:100AA000C701B6010E948F08C901DF91CF911F9144
:100AB000FF90EF90DF90CF9008950E9417059C0162
:100AC000A8E8B3E10E94D008DC01CB012AE0B6958A
:100AD000A795979587952A95D1F708950E945D056A
:100AE0006AE070E00E9467088091E4069091E50654
:100AF000860F971F089568E00E9431059C01A4E6C7
:100B0000B0E00E94D0082FEF33E040E050E00E94B8
:100B10008F08C90108950F931F93CF93DF938C0122
:100B2000D42FD60FC62FCD1769F08C2F0E94170532
:100B3000F801819391938F0183E397E00197F1F797
:100B4000CF5FF1CFDF91CF911F910F9108958EED7F
:100B500087B9369A3699FECF84B125B130E0322F6D
:100B60002227280F311D2059314081E021353105E0
:100B700008F080E008951F920F920FB60F92112493
:100B80002F938F939F9324B185B190E0982F88275E
:100B9000820F911D9093E8068093E70681E0809391
:100BA000E3069F918F912F910F900FBE0F901F9092
:100BB00018958F71806487B9339A1092E306369A3C
:100BC00008958091E306089510929B0086E080933B
:100BD0009D0088E980939A008FE290E09093F3065D
:100BE0008093F206109298008091F206809399000B
:100BF000089590919B0095FFFCCF80939C000895F1
:100C0000CF93DF93EC018991882319F00E94F905B5
:100C1000FACFDF91CF91089580919B0087FFFCCFA1
:100C200080919C0008950F931F93CF93DF9300D082
:100C300000D000D0CDB7DEB79F938F9387ED96E0BD
:100C40009F938F938E010F5F1F4F1F930F930E94EF
:100C5000DF08C8010E9400060F900F900F900F90C0
:100C60000F900F9026960FB6F894DEBF0FBECDBF43
:100C7000DF91CF911F910F9108950F931F93CF9301
:100C8000DF9300D01F92CDB7DEB71F928F938AED0E
:100C900096E09F938F938E010F5F1F4F1F930F93CB
:100CA0000E94DF08C8010E9400060F900F900F906D
:100CB0000F900F900F900F900F900F90DF91CF91AA
:100CC0001F910F9108958AE191E00C9400060E9413
:100CD0000C060C94F9051F920F920FB60F92112477
:100CE0008F9380919C008093EE0681E08093ED06C7
:100CF0008091EE068093F1068F910F900FBE0F90BA
:100D00001F9018958091ED06882319F01092ED063A
:100D100081E008958091EE060895CF93DF9360E11E
:100D200077E20E946708EC01FB01ED5FFE4F8081D6
:100D30000E94F905CE0168EE73E00E946708EC019D
:100D4000FB01ED5FFE4F80810E94F905CE0164E654
:100D500070E00E946708EC01FB01ED5FFE4F8081AF
:100D60000E94F905CE016AE070E00E946708EC017C
:100D7000FB01ED5FFE4F80810E94F905CD5FDE4FE4
:100D80008881DF91CF910C94F905CF9364E60E949E
:100D90005B08C92FE82FF0E0ED5FFE4F80810E94D5
:100DA000F9058C2F6AE00E945B08C92FE82FF0E05C
:100DB000ED5FFE4F80810E94F905EC2FF0E0ED5FC2
:100DC000FE4F8081CF910C94F905CF93DF93EC0116
:100DD00097FD02C08BE204C0D195C195D1098DE287
:100DE0000E94F905CE0160E177E20E947B08EC01E8
:100DF000FB01ED5FFE4F80810E94F905CE0168EE98
:100E000073E00E947B08EC01FB01ED5FFE4F8081E7
:100E10000E94F905CE0164E670E00E947B08EC01B7
:100E2000FB01ED5FFE4F80810E94F905CE016AE073
:100E300070E00E947B08EC01FB01ED5FFE4F8081BA
:100E40000E94F905CD5FDE4F8881DF91CF910C9430
:100E5000F9054F925F926F927F928F929F92AF921D
:100E6000BF92CF92DF92EF92FF920F931F93CF9397
:100E7000DF934B015C01C9E0D0E0C12C9AECD92E84
:100E80009AE9E92E9BE3F92E2AE0422E512C612C9F
:100E9000712C8C149D04AE04BF0454F4C701B60138
:100EA000A30192010E94B10869017A01219789F793
:100EB0008AE0482E512C612C712C1C141D041E0438
:100EC0001F04DCF4C501B401A70196010E94B1081A
:100ED0008B01D82FC92FF901ED5FFE4F80810E9451
:100EE000F9054801AD2EBC2EC701B601A301920140
:100EF0000E94B10869017A01E0CFDF91CF911F9183
:100F00000F91FF90EF90DF90CF90BF90AF909F90A8
:100F10008F907F906F905F904F900895CF93C82FE0
:100F2000E82FE295EF70F0E0ED5FFE4F80810E94C8
:100F3000F905CF70EC2FF0E0ED5FFE4F8081CF918F
:100F40000C94F905E82FE295EF70F0E0ED5FFE4FAD
:100F5000208130E0322F2227E82FEF70F0E0ED5FA4
:100F6000FE4F8081A901482BCA0108951F920F925C
:100F70000FB60F9211248F93CF93DF931F92CDB7AB
:100F8000DEB78CB1898389810F90DF91CF918F91EA
:100F90000F900FBE0F901F90189508950895089513
:100FA0000895CF93DF93CDB7DEB76E970FB6F89461
:100FB000DEBF0FBECDBF0E94E4050E9467008FEF29
:100FC00084BB15BA2FEF8FE39BE021508040904007
:100FD000E1F700C000008FE696E00E94000689E974
:100FE00096E00E9400061F9280E78F9380E88F931F
:100FF0001F9286EA96E09F938F938E010F5F1F4F9B
:101000001F930F930E94DF08C8010E9400068CEB1B
:1010100096E00E9400061F921F9283E08F9389E959
:101020008F938AEA96E09F938F931F930F930E946A
:10103000DF08C8010E9400060FB6F894DEBF0FBE9D
:10104000CDBF0E94C6030E940C06182F0E94F9050E
:1010500083E994E00E940006123369F028F411330A
:1010600081F40E949B001AC0133341F0143349F4F9
:101070000E941F0313C00E94490110C00E94620217
:101080000DC082EC96E00E9400069FEF2FE786E1FC
:10109000915020408040E1F700C0000080E00E94B5
:1010A0008A009FEF2FE38BE0915020408040E1F7D2
:1010B00000C00000C6CF991B79E004C0991F9617A5
:1010C00008F0961B881F7A95C9F780950895AA1B8A
:1010D000BB1B51E107C0AA1FBB1FA617B70710F023
:1010E000A61BB70B881F991F5A95A9F78095909555
:1010F000BC01CD01089597FB072E16F4009407D08C
:1011000077FD09D00E94670807FC05D03EF4909552
:1011100081959F4F0895709561957F4F0895A1E245
:101120001A2EAA1BBB1BFD010DC0AA1FBB1FEE1F61
:10113000FF1FA217B307E407F50720F0A21BB30BAC
:10114000E40BF50B661F771F881F991F1A9469F728
:1011500060957095809590959B01AC01BD01CF0184
:101160000895052E97FB1EF400940E94C80857FDB1
:1011700007D00E948F0807FC03D04EF40C94C808D7
:1011800050954095309521953F4F4F4F5F4F0895B3
:1011900090958095709561957F4F8F4F9F4F0895E3
:1011A000A29FB001B39FC001A39F700D811D1124A8
:1011B000911DB29F700D811D1124911D08950F93F3
:1011C0001F93CF93DF93CDB7DEB72E970FB6F8946A
:1011D000DEBF0FBECDBF0D891E8986E08C831A83CA
:1011E00009838FEF9FE79E838D83AE01475E5F4F3C
:1011F0006F89788DCE0101960E940E09EF81F885E6
:10120000E00FF11F10822E960FB6F894DEBF0FBECE
:10121000CDBFDF91CF911F910F9108952F923F92F3
:101220004F925F926F927F928F929F92AF92BF92F6
:10123000CF92DF92EF92FF920F931F93CF93DF93A2
:10124000CDB7DEB72B970FB6F894DEBF0FBECDBF7C
:101250006C017B018A01FC0117821682838181FF68
:10126000CCC1CE0101963C01F6019381F70193FDBB
:10127000859193FF81917F01882309F4BAC185325A
:1012800039F493FD859193FF81917F01853229F493
:10129000B60190E00E942E0BE7CF912C212C312C2F
:1012A000FFE1F315D8F08B3279F038F4803279F021
:1012B0008332A1F4232D20611DC08D3261F0803373
:1012C00069F4232D216016C0832D8260382EE32D12
:1012D000E4603E2E2AC0F32DF8601DC037FC2DC0FF
:1012E00020ED280F2A3040F08E32B9F436FC81C14F
:1012F000232D2064322E19C036FE06C08AE0989E47
:10130000200D1124922E11C0EAE02E9E200D1124F2
:10131000222EF32DF0623F2E08C08C3621F4832D4F
:101320008068382E02C0883641F4F70193FD85911C
:1013300093FF81917F018111B3CF982F9F7D9554A9
:10134000933028F40C5F1F4F9FE399830DC08336C1
:1013500031F0833771F0833509F059C021C0F801AD
:10136000808189830E5F1F4F88248394912C5301C1
:1013700013C02801F2E04F0E511CF801A080B1808B
:1013800036FE03C0692D70E002C06FEF7FEFC5012C
:101390000E94230B4C018201F32DFF773F2E16C0D4
:1013A000280122E0420E511CF801A080B18036FED7
:1013B00003C0692D70E002C06FEF7FEFC5010E948E
:1013C000180B4C01F32DF0683F2E820133FC1BC03B
:1013D000822D90E088169906B0F4B60180E290E084
:1013E0000E942E0B2A94F4CFF50137FC859137FE2D
:1013F00081915F01B60190E00E942E0B21102A948A
:1014000021E0821A91088114910471F7E8C08436B2
:1014100011F0893641F5F80137FE07C0608171810E
:10142000828193810C5F1F4F08C060817181072EFC
:10143000000C880B990B0E5F1F4FF32DFF763F2E8C
:1014400097FF09C090958095709561957F4F8F4F5C
:101450009F4FF0683F2E2AE030E0A3010E946A0B04
:10146000882E861845C0853731F4232D2F7EB22E65
:101470002AE030E025C0932D997FB92E8F36C1F038
:1014800018F4883579F0B5C0803719F0883721F025
:10149000B0C0E92FE061BE2EB4FE0DC0FB2DF4609C
:1014A000BF2E09C034FE0AC0292F2660B22E06C006
:1014B00028E030E005C020E130E002C020E132E069
:1014C000F801B7FE07C060817181828193810C5F52
:1014D0001F4F06C06081718180E090E00E5F1F4F5A
:1014E000A3010E946A0B882E8618FB2DFF773F2EE2
:1014F00036FE0DC0232D2E7FA22E891458F434FE03
:101500000BC032FC09C0832D8E7EA82E05C0B82CDE
:10151000A32C03C0B82C01C0B92CA4FE0FC0FE013F
:10152000E80DF11D8081803321F49A2D997EA92E3A
:1015300009C0A2FE06C0B394B39404C08A2D867875
:1015400009F0B394A3FC11C0A0FE06C0B21488F445
:10155000280C922C9B180EC0B21460F4B60180E2E5
:1015600090E00E942E0BB394F7CFB21418F42B180E
:1015700002C0982C212CA4FE10C0B60180E390E09C
:101580000E942E0BA2FE17C0A1FC03C088E790E0CA
:1015900002C088E590E0B6010CC08A2D867859F02B
:1015A000A1FE02C08BE201C080E2A7FC8DE2B60181
:1015B00090E00E942E0B891438F4B60180E390E08D
:1015C0000E942E0B9A94F7CF8A94F301E80DF11D37
:1015D0008081B60190E00E942E0B8110F5CF222071
:1015E00009F442CEB60180E290E00E942E0B2A94CC
:1015F000F6CFF6018681978102C08FEF9FEF2B9681
:101600000FB6F894DEBF0FBECDBFDF91CF911F9113
:101610000F91FF90EF90DF90CF90BF90AF909F9091
:101620008F907F906F905F904F903F902F90089594
:10163000FC010590615070400110D8F7809590959D
:101640008E0F9F1F0895FC016150704001900110A2
:10165000D8F7809590958E0F9F1F08950F931F9335
:10166000CF93DF93FB01238121FD03C08FEF9FEF19
:101670002CC022FF16C04681578124813581421734
:10168000530744F4A081B1819D012F5F3F4F318307
:1016900020838C93268137812F5F3F4F37832683AA
:1016A00014C08B01EC01FB010084F185E02D09954C
:1016B000892BE1F6D80116968D919C91179701968A
:1016C00017969C938E931697CE01DF91CF911F9121
:1016D0000F910895FA01AA27283051F1203181F1A4
:1016E000E8946F936E7F6E5F7F4F8F4F9F4FAF4F2A
:1016F000B1E03ED0B4E03CD0670F781F891F9A1F3D
:10170000A11D680F791F8A1F911DA11D6A0F711DF0
:10171000811D911DA11D20D009F468943F912AE0FC
:10172000269F11243019305D3193DEF6CF010895E4
:10173000462F4770405D4193B3E00FD0C9F7F6CF15
:10174000462F4F70405D4A3318F0495D31FD4052DD
:10175000419302D0A9F7EACFB4E0A6959795879573
:1017600077956795BA95C9F7009761057105089552
:101770009B01AC010A2E06945795479537952795FE
:10178000BA95C9F7620F731F841F951FA01D089596
:04179000F894FFCFFB
:10179400000401303132333435363738394142436D
:1017A40044454609000D0A0009000D0A006400F4CE
:1017B40001E803D007881310270D0A3D3D3D20445E
:1017C400454D4F20313A204261736963205370655F
:1017D400656420436F6E74726F6C203D3D3D0D0A4D
:1017E40000436F6D6D616E64733A0D0A0020203002
:1017F4002D393A2053657420737065656420283050
:101804003D73746F702C20393D6D6178290D0A0089
:101814002020663A20466F72776172642020723A03
:1018240020526576657273652020623A20427261A7
:101834006B650D0A002020713A2052657475726E32
:1018440020746F206D656E750D0A0D0A00466F7267
:10185400776172642040200052657665727365205A
:10186400402000446972656374696F6E3A20464F84
:1018740052574152440D0A00446972656374696F9A
:101884006E3A20524556455253450D0A0042524184
:101894004B45440D0A000D0A3D3D3D2044454D4F46
:1018A40020323A2053706565642052616D70696E10
:1018B40067203D3D3D0D0A0044656D6F6E73747283
:1018C4006174696E6720736D6F6F74682061636300
:1018D400656C65726174696F6E20616E6420646505
:1018E40063656C65726174696F6E0D0A0050726590
:1018F400737320616E79206B657920746F20636F38
:101904006E74696E75652C2027712720746F2071A1
:101914007569740D0A0D0A0052616D70696E672055
:1019240055502028466F7277617264292E2E2E0D31
:101934000A0053706565643A20256425250D0A0064
:1019440052616D70696E6720444F574E2E2E2E0DD6
:101954000A0052616D70696E6720555020285265E7
:101964007665727365292E2E2E0D0A000D0A4379B1
:10197400636C6520636F6D706C657465210D0A0D71
:101984000A000D0A3D3D3D2044454D4F20333A2089
:1019940050574D204672657175656E6379205465A4
:1019A4007374203D3D3D0D0A0054657374696E6780
:1019B40020646966666572656E742050574D2066B2
:1019C40072657175656E636965730D0A004C6973A0
:1019D40074656E20746F206D6F746F7220736F75F1
:1019E4006E64206368616E6765730D0A00467265F4
:1019F4007175656E63793A20257520487A2C2054D8
:101A04004F503A2025750D0A000D0A46726571750E
:101A1400656E6379207465737420636F6D706C6593
:101A24007465210D0A0046574400524556000D0ABC
:101A34003D3D3D2044454D4F20343A20506F746560
:101A44006E74696F6D65746572205370656564208A
:101A5400436F6E74726F6C203D3D3D0D0A005573EB
:101A6400696E672041444320746F2072656164206D
:101A7400706F74656E74696F6D6574657220666FDE
:101A84007220737065656420636F6E74726F6C0D81
:101A94000A00414443303A20537065656420636F03
:101AA4006E74726F6C2028302D3130323320E28610
:101AB4009220302D31303025290D0A005072657383
:101AC400732027642720746F20746F67676C652008
:101AD400646972656374696F6E2C202771272074A2
:101AE4006F20717569740D0A0D0A004144433A2050
:101AF400253475202053706565643A2025336425A8
:101B04002520204469723A2025730D0A000D0A44E9
:101B14006972656374696F6E20746F67676C65645E
:101B2400210D0A0D0A00E29594E29590E29590E267
:101B34009590E29590E29590E29590E29590E295E9
:101B440090E29590E29590E29590E29590E29590DE
:101B5400E29590E29590E29590E29590E29590E27C
:101B64009590E29590E29590E29590E29590E295B9
:101B740090E29590E29590E29590E29590E29590AE
:101B8400E29590E29590E29590E29590E29590E24C
:101B94009590E29590E29590E29590E29590E29589
:101BA40090E295970D0A00E295912020204443206D
:101BB4004D4F544F522050574D20434F4E54524F87
:101BC4004C202D2041546D6567613132382020202E
:101BD40020E295910D0A00E2959AE29590E29590A3
:101BE400E29590E29590E29590E29590E29590E2EC
:101BF4009590E29590E29590E29590E29590E29529
:101C040090E29590E29590E29590E29590E295901D
:101C1400E29590E29590E29590E29590E29590E2BB
:101C24009590E29590E29590E29590E29590E295F8
:101C340090E29590E29590E29590E29590E29590ED
:101C4400E29590E29590E29590E29590E29590E28B
:101C54009590E2959D0D0A0053656C65637420446C
:101C6400656D6F3A0D0A0020205B315D204261737F
:101C7400696320537065656420436F6E74726F6C82
:101C8400202855415254290D0A0020205B325D2042
:101C94004175746F6D617469632053706565642068
:101CA40052616D70696E670D0A0020205B335D2000
:101CB40050574D204672657175656E637920546581
:101CC40073740D0A0020205B345D2041444320508E
:101CD4006F74656E74696F6D6574657220436F6EA1
:101CE40074726F6C0D0A00456E7465722073656CB6
:101CF400656374696F6E2028312D34293A20000DF4
:101D04000A0D0A2A2A2A204443204D6F746F722038
:101D140050574D20436F6E74726F6C2053797374F7
:101D2400656D202A2A2A0D0A0041546D65676131C8
:101D3400323820402000256C750050574D204672E3
:101D4400657175656E63793A20256C7520487A0D46
:101D54000A00496E76616C69642073656C6563740E
:101D6400696F6E210D0A0025750025303258000078
:00000001FF
