S00C00004D61696E2E7372656393
S113000045C0000060C000005EC000005CC000008D
S11300105AC0000058C0000056C0000054C0000080
S113002052C0000050C000006BC000004CC0000073
S11300304AC0000048C0000046C0000044C00000A0
S113004042C0000040C000003EC000003CC00000B0
S11300503AC0000038C0000036C0000034C00000C0
S113006032C0000030C000002EC000002CC00000D0
S11300702AC0000028C0000026C0000024C00000E0
S113008022C0000020C000001EC0000011241FBEBA
S1130090CFEFD0E1DEBFCDBF11E0A0E0B1E0E0E6FC
S11300A0F1E000E00BBF02C007900D92A230B1074F
S11300B0D9F721E0A2E0B1E001C01D92A630B20759
S11300C0E1F702D04BC09CCF03D080E090E00895CC
S11300D01092980087E68093990088E180939A00B3
S11300E086E080939D0080919B0087FFFCCF9091D8
S11300F09C0080919B0085FFFCCF90939C00F3CFE4
S11301001F920F920FB60F9211242F933F938F9348
S11301109F938AE184BD8091040190910501019629
S11301209093050180930401209100013091010115
S11301308217930751F481E090E090930301809338
S1130140020110920501109204019F918F913F9139
S11301502F910F900FBE0F901F901895F894FFCF1A
S1050160F401A4
S9030000FC
