S00D000044656275672E7372656330
S11300000C9446000C9465000C9465000C946500F7
S11300100C9465000C9465000C9465000C946500C8
S11300200C9465000C9465000C946C000C946500B1
S11300300C9465000C9465000C9465000C946500A8
S11300400C9465000C9465000C9465000C94650098
S11300500C9465000C9465000C9465000C94650088
S11300600C9465000C9465000C9465000C94650078
S11300700C9465000C9465000C9465000C94650068
S11300800C9465000C9465000C94650011241FBE4B
S1130090CFEFD0E1DEBFCDBF11E0A0E0B1E0EAE6F2
S11300A0F1E000E00BBF02C007900D92A230B1074F
S11300B0D9F721E0A2E0B1E001C01D92A630B20759
S11300C0E1F70E9467000C94B3000C9400000E94B6
S11300D09A0090E080E008951F920F920FB60F925D
S11300E011242F933F938F939F938AE184BD809132
S11300F004019091050101969093050180930401F8
S113010020910001309101018217930751F481E09D
S113011090E09093030180930201109205011092E4
S113012004019F918F913F912F910F900FBE0F90DB
S11301301F9018958FEF87BB9AEA85E598BB2FEF40
S113014033ED40E3215030404040E1F700C000006F
S113015088BB2FEF33ED40E3215030404040E1F7BE
S10D016000C00000EBCFF894FFCFBD
S105016AF4019A
S9030000FC
