:100000000C9415030C943D030C943D030C943D0398
:100010000C943D030C943D030C943D030C943D0360
:100020000C943D030C943D030C943D030C943D0350
:100030000C943D030C943D030C943D030C943D0340
:100040000C94A1100C943D030C943D030C943D03BF
:100050000C943D030C943D030C943D030C943D0320
:100060000C943D030C943D03EF03038002CF030087
:10007000C130ED0464031281E803850078CB0539B3
:100080002C003402F70120EA020000C00123C10164
:1000900010C5023E28C701863601483701003A01E3
:1000A00055B1020018B603088227F20100260101AB
:1000B000E00F0F312B0C0E084EF1370710030E091D
:1000C00000E10F000E1403110731C148080F0C3175
:1000D000360F118029800000000000003E5B4F5B5E
:1000E0003E3E6B4F6B3E1C3E7C3E1C183C7E3C18DB
:1000F0001C577D571C1C5E7F5E1C00183C1800FFBF
:10010000E7C3E7FF0018241800FFE7DBE7FF3048EC
:100110003A060E2629792926407F050507407F05E6
:10012000253F5A3CE73C5A7F3E1C1C08081C1C3EDD
:100130007F14227F22145F5F005F5F06097F017FCB
:10014000006689956A606060606094A2FFA294086E
:10015000047E040810207E201008082A1C08081CB1
:100160002A08081E101010100C1E0C1E0C30383EF1
:100170003830060E3E0E06000000000000005F0052
:10018000000007000700147F147F14242A7F2A121E
:100190002313086462364956205000080703000004
:1001A0001C2241000041221C002A1C7F1C2A080836
:1001B0003E08080080703000080808080800006049
:1001C000600020100804023E5149453E00427F4035
:1001D0000072494949462141494D331814127F1094
:1001E00027454545393C4A494931412111090736DE
:1001F00049494936464949291E000014000000407B
:100200003400000008142241141414141400412274
:10021000140802015909063E415D594E7C12111223
:100220007C7F494949363E414141227F4141413E1F
:100230007F494949417F090909013E414151737F85
:100240000808087F00417F41002040413F017F08AE
:100250001422417F404040407F021C027F7F0408FF
:10026000107F3E4141413E7F090909063E4151212F
:100270005E7F09192946264949493203017F010356
:100280003F4040403F1F2040201F3F4038403F63D9
:100290001408146303047804036159494D43007F33
:1002A0004141410204081020004141417F04020104
:1002B00002044040404040000307080020545478A6
:1002C000407F284444383844444428384444287FF4
:1002D000385454541800087E090218A4A49C787F4E
:1002E0000804047800447D40002040403D007F1019
:1002F00028440000417F40007C047804787C080496
:1003000004783844444438FC182424181824241849
:10031000FC7C08040408485454542404043F442436
:100320003C4040207C1C2040201C3C4030403C4451
:10033000281028444C9090907C4464544C4400080D
:10034000364100000077000000413608000201023B
:1003500004023C2623263C1EA1A161123A40402003
:100360007A3854545559215555794122545478427C
:10037000215554784020545579400C1E5272123940
:1003800055555559395454545939555454580000F9
:10039000457C410002457D420001457C407D1211B3
:1003A000127DF0282528F07C545545002054547CBB
:1003B000547C0A097F4932494949323A4444443A13
:1003C000324A4848303A4141217A3A424020780046
:1003D0009DA0A07D3D4242423D3D4040403D3C24E9
:1003E000FF2424487E4943662B2FFC2F2BFF09292D
:1003F000F620C0887E090320545479410000447DD2
:10040000413048484A32384040227A007A0A0A721B
:100410007D0D19317D2629292F28262929292630C5
:10042000484D4020380808080808080808382F10E8
:10043000C8ACBA2F102834FA00007B000008142A38
:10044000142222142A14085500550055AA55AA55FD
:10045000AAFF55FF55FF000000FF00101010FF001D
:10046000141414FF001010FF00FF1010F010F0140F
:100470001414FC001414F700FF0000FF00FF141414
:10048000F404FC141417101F10101F101F14141460
:100490001F00101010F0000000001F101010101F9F
:1004A00010101010F010000000FF101010101010AD
:1004B000101010FF10000000FF140000FF00FF00EC
:1004C000001F10170000FC04F41414171017141464
:1004D000F404F40000FF00F714141414141414F7B7
:1004E00000F7141414171410101F101F141414F410
:1004F000141010F010F000001F101F0000001F1457
:10050000000000FC140000F010F01010FF10FF14A9
:100510001414FF141010101F00000000F010FFFF53
:10052000FFFFFFF0F0F0F0F0FFFFFF000000000021
:10053000FFFF0F0F0F0F0F3844443844FC4A4A4A5C
:10054000347E02020606027E027E02635549416342
:100550003844443C04407E201E2006027E0202995C
:10056000A5E7A5991C2A492A1C4C7201724C304AF5
:100570004D4D303048784830BC625A463D3E49497E
:1005800049007E0101017E2A2A2A2A2A44445F4426
:100590004440514A444040444A51400000FF010356
:1005A000E080FF000008086B6B0836123624360620
:1005B0000F090F060000181800000010100030404E
:1005C000FF0101001F01011E00191D1712003C3C14
:1005D0003C3C000000000000000000240027002A2E
:1005E0000000000000250028002B0004040404047F
:1005F00004040402020202020203030303030301D0
:1006000002040810204080010204081020010204A6
:100610000810200000000800020100000304070089
:100620000000000000000000761111241FBECFEF73
:10063000D8E0DEBFCDBF11E0A0E0B1E0E4E8F4E235
:1006400002C005900D92A033B107D9F721E0A0E3D5
:10065000B1E001C01D92AE37B207E1F713E0C5E18A
:10066000D3E004C02197FE010E943512C431D107A6
:10067000C9F70E94EB100C9440120C94000090E01B
:10068000FC01ED5EF94F2491FC01E150FA4F3491E9
:10069000FC01E551FA4FE491EE23C9F0222339F031
:1006A000233001F1A8F4213019F1223029F1F0E0D2
:1006B000EE0FFF1FEF51FA4FA591B4918FB7F89449
:1006C000EC91611126C030953E233C938FBF089575
:1006D0002730A9F02830C9F0243049F780918000F4
:1006E0008F7D03C0809180008F7780938000DFCF63
:1006F00084B58F7784BDDBCF84B58F7DFBCF8091B0
:10070000B0008F778093B000D2CF8091B0008F7D02
:10071000F9CF3E2BDACFCF93DF9390E0FC01E1508D
:10072000FA4F249185519A4FFC0184918823D1F08E
:1007300090E0880F991FFC01E952FA4FA591B491FE
:10074000FC01EF51FA4FC591D49161110EC09FB7D2
:10075000F8948C91E22FE0958E238C932881E223EC
:10076000E8839FBFDF91CF9108958FB7F894EC9104
:10077000E22BEC938FBFF6CF3FB7F89480917A01CC
:1007800090917B01A0917C01B0917D0126B5A89B41
:1007900005C02F3F19F00196A11DB11D3FBFBA2F13
:1007A000A92F982F8827BC01CD01620F711D811DD3
:1007B000911D42E0660F771F881F991F4A95D1F758
:1007C00008958F929F92AF92BF92CF92DF92EF9255
:1007D000FF924B015C010E94BC036B017C010E94F3
:1007E000BC036C197D098E099F09683E7340810521
:1007F0009105A8F321E0821A9108A108B10888EEBA
:10080000C80E83E0D81EE11CF11C81149104A104E0
:10081000B10429F7FF90EF90DF90CF90BF90AF9099
:100820009F908F900895AF92BF92CF92DF92EF92F8
:10083000FF920F931F93CF93DF936C017B018B018A
:10084000040F151FEB015E01AE18BF08C017D107DA
:1008500059F06991D601ED91FC910190F081E02D64
:10086000C6010995892B79F7C501DF91CF911F91B9
:100870000F91FF90EF90DF90CF90BF90AF900895D1
:10088000FC01A5A1B6A18C9192A589238C93A5A169
:10089000B6A18C9191A5892B8C9308950F931F93EA
:1008A000CF93DF93EC018B018DA981110DC01EBD8B
:1008B0000DB407FEFDCF0EBD0DB407FEFDCFDF91D9
:1008C000CF911F910F9108958130E9F480E1E9A162
:1008D000FAA1908117FF14C02DA1922B9083EBA158
:1008E000FCA190812FA1922B9083EBA1FCA1908180
:1008F00028A592239083000F111F815041F7DFCF6D
:100900002EA19223EBCFEF8DF8A11083CE010E9490
:100910004004EF8DF8A10083CE01DF91CF911F91AC
:100920000F910C944004FC0185A9811105C06EBD96
:100930000DB407FEFDCF08958130E1F488E0A1A158
:10094000B2A19C9167FF13C025A1922B9C93A3A1F8
:10095000B4A19C9127A1922B9C93660FA3A1B4A153
:100960009C9120A592239C93815049F7089526A13C
:100970009223ECCFA78DB0A16C93CF010C944004CF
:10098000CF93DF93EC01ED8DFE8D80819CA98923AF
:100990008083CE010E949304ED8DFE8D80819BA902
:1009A000892B8083DF91CF910895FC0185A9811166
:1009B00004C091A182A19CBD8DBD08951F93CF93CA
:1009C000DF93EC01162FE881F9810284F385E02D95
:1009D0000995112371F06DADCE010E94C004E8812C
:1009E000F9810688F789E02DCE01DF91CF911F9123
:1009F00009946EADF1CFAF92BF92CF92DF92EF929A
:100A0000FF920F931F93CF93DF93EC0177FD38C0D4
:100A100088859985681779079CF557FD31C08A85C7
:100A20009B854817590764F569017A015B01E881E4
:100A3000F9810284F385E02DCE010995E881F981E1
:100A400002A4F3A5E02D01E010E021E030E0A701D1
:100A5000B501CE010995B601CE010E944E04E88190
:100A6000F9810688F789E02DCE01DF91CF911F91A2
:100A70000F91FF90EF90DF90CF90BF90AF900994CF
:100A8000DF91CF911F910F91FF90EF90DF90CF906A
:100A9000BF90AF9008958F929F92AF92BF92CF92E6
:100AA000DF92EF92FF920F931F93CF93DF93EC01AE
:100AB00049015701E881F98102A4F3A5E02D0995C8
:100AC0009401D8010E9417126B017C01C114D1045A
:100AD000E104F10409F490C08DA9811115C081E0F1
:100AE000C81AD108E108F1088FEFC816D806E80641
:100AF000F80609F481C0BEBC0DB407FEFDCFAEBC44
:100B00000DB407FEFDCFEBCF813009F045C081E089
:100B1000C81AD108E108F1088FEFC816D806E80610
:100B2000F80609F469C09B2D88E0E9A1FAA12081AB
:100B300097FF2CC03DA1232B2083EBA1FCA120819A
:100B40003FA1232B2083EBA1FCA1208138A52323E7
:100B50002083990F815049F79A2D88E0E9A1FAA1E5
:100B6000208197FF16C03DA1232B2083EBA1FCA180
:100B700020813FA1232B2083EBA1FCA1208138A55C
:100B800023232083990F815049F7C1CF3EA123230E
:100B9000D3CF3EA12323E9CFBA1016C0CC0CDD1C65
:100BA000EE1CFF1CEF8DF8A1B08281E0C81AD108BD
:100BB000E108F1088FEFC816D806E806F806E1F05C
:100BC000CE010E944004F1CF81E0C81AD108E108AB
:100BD000F1088FEFC816D806E806F80669F0EF8D21
:100BE000F8A1B082CE010E944004EF8DF8A1A0824E
:100BF000CE010E944004E8CFDF91CF911F910F9169
:100C0000FF90EF90DF90CF90BF90AF909F908F902C
:100C100008958F929F92AF92BF92CF92DF92EF9200
:100C2000FF920F931F93CF93DF935C014B016A01F7
:100C3000E90177FD52C0DC0118968D919C916817EF
:100C400079070CF04AC0209709F447C037FF07C066
:100C5000C9010196C80ED91ED195C195D109F501DA
:100C600082859385C816D906C4F5A6014C0F5D1F71
:100C70009A012150310937FD30C0D7FE03C0EA0187
:100C8000D12CC12C281739071CF0EC01CC19DD0937
:100C9000D501ED91FC910284F385E02DC501099504
:100CA00078018E0121E030E0A601B401C5010E9467
:100CB0004B05D501ED91FC910688F789E02DC50122
:100CC000DF91CF911F910F91FF90EF90DF90CF9028
:100CD000BF90AF909F908F900994DF91CF911F911B
:100CE0000F91FF90EF90DF90CF90BF90AF909F90CB
:100CF0008F9008958F929F92AF92BF92CF92DF9282
:100D0000EF92FF920F931F93CF93DF935C016B01E0
:100D10004A01E90157FD52C0DC011A968D919C9160
:100D2000481759070CF04AC0209709F447C037FF0D
:100D300007C0C9010196C80ED91ED195C195D10928
:100D4000F50180859185C816D906C4F5A6014C0F1A
:100D50005D1F9A012150310937FD30C0D7FE03C015
:100D6000EA01D12CC12C281739071CF0EC01CC1951
:100D7000DD09D501ED91FC910284F385E02DC501DB
:100D80000995780101E010E09E01A401B601C501BA
:100D90000E944B05D501ED91FC910688F789E02D65
:100DA000C501DF91CF911F910F91FF90EF90DF90E0
:100DB000CF90BF90AF909F908F900994DF91CF918B
:100DC0001F910F91FF90EF90DF90CF90BF90AF9069
:100DD0009F908F9008958F929F92AF92BF92CF92E3
:100DE000DF92EF92FF920F931F93CF93DF934C010B
:100DF0006B015A01E901209709F46CC00115110536
:100E000009F468C037FF07C0C9010196C80ED91E92
:100E1000D195C195D109F401A085B185CA16DB062B
:100E20000CF058C017FF07C0C8010196A80EB91EE4
:100E3000119501951109F40182859385A816B906CB
:100E40000CF048C0F601EC0FFD1FAF0141505109F5
:100E500057FD40C0B501600F711F9B012150310942
:100E600037FD38C0D7FE03C0EF01D12CC12CB7FE2F
:100E700003C08B01B12CA12C4A175B071CF0ED01BC
:100E8000CC19DD09281739071CF08C010A191B0938
:100E9000D401ED91FC910284F385E02DC401099504
:100EA0009E01A501B601C4010E944B05D401ED913C
:100EB000FC910688F789E02DC401DF91CF911F9145
:100EC0000F91FF90EF90DF90CF90BF90AF909F90E9
:100ED0008F900994DF91CF911F910F91FF90EF9028
:100EE000DF90CF90BF90AF909F908F900895EF923A
:100EF000FF920F931F93CF93DF9377FD32C0DC01F6
:100F00001896ED91FC916E177F075CF52115310560
:100F100041F137FF07C0F90131964E0F5F1F319540
:100F200021953109DC011A96ED91FC914E175F076E
:100F3000C4F4EA01C20FD31FDE011197B7FD11C03F
:100F400057FF03C09E0150E040E0AE17BF071CF002
:100F50009F01241B350B7801890121E030E00E94BC
:100F60004B05DF91CF911F910F91FF90EF90089566
:100F7000EF92FF920F931F93CF93DF9357FD31C0F2
:100F8000DC011A96ED91FC914E175F0754F521157F
:100F9000310539F137FF07C0F90131966E0F7F1F18
:100FA000319521953109DC011896ED91FC916E1770
:100FB0007F07BCF4EB01C20FD31FDE011197B7FD11
:100FC00010C077FF03C09E0170E060E0AE17BF075E
:100FD0001CF09F01261B370B780101E010E00E94F6
:100FE0004B05DF91CF911F910F91FF90EF900895E6
:100FF0008F929F92AF92BF92CF92DF92EF92FF9229
:101000000F931F93CF93DF9347012115310509F407
:101010004BC00115110509F447C037FF07C0F9019E
:1010200031966E0F7F1F319521953109DC0118969D
:10103000AD90BC906A157B05BCF517FF07C0F801A1
:1010400031964E0F5F1F119501951109DC011A961B
:10105000ED91FC914E175F073CF56B01C20ED31E5C
:10106000E6012197D7FD20C07A01E00EF11ED701DD
:101070001197B7FD19C077FF03C0960170E060E0DB
:1010800057FF03C0870150E040E0CA15DB051CF0A4
:101090009501261B370BAE17BF071CF08F01041BF1
:1010A000150B74010E944B05DF91CF911F910F9199
:1010B000FF90EF90DF90CF90BF90AF909F908F9078
:1010C0000895EF92FF920F931F93CF93DF93EC015C
:1010D00077FD22C08885998568177907ECF457FD5C
:1010E0001BC08A859B8548175907B4F47901E881AC
:1010F000F98102A4F3A5E02D01E010E021E030E049
:10110000CE010995B701CE01DF91CF911F910F91CB
:10111000FF90EF900C944E04DF91CF911F910F91AF
:10112000FF90EF900895CF93DF93EC010E94D504D8
:101130008FA987FD06C0EB8DFC8D80819AA989233C
:101140008083DF91CF9108950895EF92FF920F93DE
:101150001F93CF93DF93EC01162F7A01022F0E9489
:10116000D5048FA987FD06C0EB8DFC8D80819AA9DF
:1011700089238083ED8DFE8D80819CA989238083C6
:10118000612FCE010E949304ED8DFE8D80819BA97D
:10119000892B808390E080E010E0801791074CF469
:1011A000F70161917F01CE010E94930481E090E0FC
:1011B000F4CF8FA987FD06C0EB8DFC8D808199A9A6
:1011C000892B8083DF91CF911F910F91FF90EF903A
:1011D0000895FC0187A987FD06C0A38DB48D9C915D
:1011E00081A9892B8C9308950895FC016370668B07
:1011F0008481958126813781613039F0633029F00F
:101200009187808733872287089531872087938746
:10121000828708952F923F924F925F926F927F92B2
:101220008F929F92AF92BF92CF92DF92EF92FF92F6
:101230000F931F93CF93DF93CDB7DEB76A970FB6A7
:10124000F894DEBF0FBECDBF9A8F898F7A836983F2
:101250004A01D22E18870F833701BC2CDC01599626
:101260002D913C915A972115310509F015C1189619
:101270008D919C911997681779070CF0D7C11A9630
:101280008D919C91481759070CF0D0C14C2C512CD2
:10129000B6E0CB9E600D711D11247C876B871616FE
:1012A00017060CF0C3C1EA2DF0E0FA87E98793E056
:1012B000EE0FFF1F9A95E1F7F88BEF87CF01840FB0
:1012C000951F181619060CF0B1C1A98DBA8D589644
:1012D0008C91811104C0BFEABD1508F4D394A98D87
:1012E000BA8DED91FC9111970284F385E02DCD012B
:1012F0000995B5E0DB9EC0011124E981FA81FC83E8
:10130000EB83312C212C9C0129523F4F388F2F8B9E
:101310004A2D50E05E8B4D8BEF89F88DE20DF31D69
:1013200044919E828D82D12CC12C69817A81620D7B
:10133000731D7A8B698B842F90E09C8B8B8BE98D4E
:10134000FA8DA081B18140FF82C0F1E0BF126FC071
:10135000AF126DC01C96ED91FC912F813885A401D0
:101360004C0D5D1D69897A89898D9A8D0995EB8966
:10137000FC89F595E7954E2F5FEFC51AD50A6D816B
:101380007E818D899E89680F791F7E836D8398E0A9
:10139000C916D10481F6AFEF2A1A3A0AEB81FC8113
:1013A000E40DF51DFC83EB83F5E02F16310409F005
:1013B000B3CF2F81388526153705B9F0A98DBA8DA1
:1013C000ED91FC91B1E0BB1257C0AB1255C06981E1
:1013D0007A816B5F7F4F0088F189E02D830128E0DF
:1013E00030E0A401898D9A8D0995A98DBA8DED9172
:1013F000FC9111970688F789E02DCD016A960FB60A
:10140000F894DEBF0FBECDBFDF91CF911F910F913A
:10141000FF90EF90DF90CF90BF90AF909F908F9014
:101420007F906F905F904F903F902F9009941E9601
:10143000ED91FC91EF80F88409851A8592014D8128
:101440005E816B817C81898D9A8D099590CF2F81EA
:1014500038852615370509F48ACF31E0B31207C065
:10146000A31205C01C96ED91FC91930178CF1E96B6
:10147000ED91FC917301E0CF6B857C856419750952
:101480000684F785E02D73010F8518899201A40168
:10149000898D9A8D0995A9CFF90134969491329747
:1014A00045915491D91AB7E0DB9E400D511D11248E
:1014B000F901259134913C8B2B8BFA0125903490C6
:1014C000FA013296749031963491398B3296649049
:1014D0003196449041E04C1518F04A1508F07FC051
:1014E000662D062C000C770B7C836B83842D042CDB
:1014F000000C990B9E838D83A98DBA8DED91FC9183
:1015000011970284F385E02DCD010995512CD12C42
:10151000C12CEA2DF0E0FA87E9872B2D30E03C87DB
:101520002B87A401440D511D47FC5A95588F4F8BB2
:1015300069817A81660D711D67FC7A957E876D875A
:101540007989C71608F051CF2C2D30E04D815E818E
:10155000420F531FA985BA854A9FC0014B9F900D2A
:101560005A9F900D1124FC01E80DF91DF88BEF87AF
:10157000852D612C4F89588D420F531F5E8B4D8BEB
:10158000671408F050C044244394480E877041F417
:10159000C1010196EB89FC89E20DF31DD4901C0179
:1015A000D7FE19C0A98DBA8DED91FC91662D70E022
:1015B000B1E0BB1219C0AB1217C02D853E85620F7A
:1015C000731F0484F585E02D2F8138854D895E8950
:1015D000898D9A8D0995DD0C6394842DD1CF1E825F
:1015E0001D821C821B8288CF4B815C81640F751F1A
:1015F000AB85BC856A9FC0016B9F900D7A9F900D53
:10160000112469817A81680F791F0684F785E02D9E
:10161000EF80F88409851A859D014F855889898D49
:101620009A8D0995D8CF570CC3948ACF6A960FB676
:10163000F894DEBF0FBECDBFDF91CF911F910F9108
:10164000FF90EF90DF90CF90BF90AF909F908F90E2
:101650007F906F905F904F903F902F9008958F9262
:101660009F92AF92CF92EF92FF920F931F93CF93DF
:10167000DF93EC01262F898D9A8D009709F051C0D8
:101680006A30D1F41D861C868D8948E0849F9001C4
:1016900011248E859F85820F931F9F878E8781E0FF
:1016A00090E0DF91CF911F910F91FF90EF90CF903D
:1016B000AF909F908F9008956D3089F3CC88AD885E
:1016C0008F898823C1F08C859D8536E0C39E800D6F
:1016D000911D1124488559854817590764F44E8592
:1016E0005F851D861C8638E0A39EC0011124840FEF
:1016F000951F9F878E87EA88FB88088919894E8500
:101700005F856C857D85CE010E940A092C898C85B8
:101710009D8546E0249F800D911D11249D878C8717
:10172000BECF6A3069F41D861C86FC013696E491B2
:101730002D898E859F85E29F800D911D1124ADCF4F
:101740006D3009F4ACCFFC0134963491631708F482
:10175000A6CF3196E491E61708F4A1CFFC013296AA
:1017600085909490462F431B342F47E0349F800C84
:10177000911C1124F401329634913196E491332373
:10178000A9F1EE2399F1CC88F4013596E491AD8866
:101790004F89442301F10E2E000CFF0BE30FF11DC6
:1017A000CE9EA001CF9E500D11246C857D85460FE5
:1017B000571F68857985641775076CF44E855F85BA
:1017C0001D861C86FC013696E491AE9E400D511D8F
:1017D00011245F874E87EA88FB88088919894E851E
:1017E0005F856C857D85CE010E940A09F4013496DF
:1017F000E4912C898C859D85E29F800D911D11249B
:101800008DCF6F927F928F929F92AF92BF92CF9225
:10181000DF92EF92FF920F931F93CF93DF93EC0130
:101820006B015A0139014801E881F9810284F3858D
:10183000E02D0995E881F9810288F389E02D87017F
:101840009301A501B601CE010995A501480D591DC9
:1018500041505109E881F9810288F389E02D930113
:10186000B601CE010995E881F9810088F189E02D62
:101870009401A501B601CE010995C60CD71CB6018D
:1018800061507109E881F9810088F189E02D9401A6
:10189000A501CE010995E881F9810688F789E02D37
:1018A000CE01DF91CF911F910F91FF90EF90DF90CC
:1018B000CF90BF90AF909F908F907F906F90099442
:1018C0006F927F928F929F92AF92BF92CF92DF9250
:1018D000EF92FF920F931F93CF93DF935C01EB0185
:1018E0006A01490138018701DC01ED91FC91621721
:1018F000730719F5641675062CF0962D872D3A019D
:10190000C92ED82E9601261937092F5F3F4F048C18
:10191000F58DE02DA301BE01C5010995DF91CF91A1
:101920001F910F91FF90EF90DF90CF90BF90AF90FD
:101930009F908F907F906F9008954615570591F472
:101940002617370724F0892D4B01C22FD82F9E016F
:10195000281939092F5F3F4F068CF78DE02DA6011E
:10196000B401DACF0284F385E02D0995D501ED911C
:10197000FC910488F589E02D83019401A601BE0144
:10198000C5010995D501ED91FC910688F789E02DF7
:10199000C501DF91CF911F910F91FF90EF90DF90E4
:1019A000CF90BF90AF909F908F907F906F90099451
:1019B000EF92FF920F931F93DC011A960D911C91E9
:1019C0001B9718962D913C911997ED91FC9100A0D1
:1019D000F1A1E02D7B0150E040E070E060E009956E
:1019E0001F910F91FF90EF9008954F925F926F9229
:1019F0007F928F929F92AF92BF92CF92DF92EF929F
:101A0000FF920F931F93CF93DF936C012B015A0129
:101A100039014801DC01ED91FC910284F385E02D50
:101A20000995E201640C751CD601ED91FC91C61577
:101A3000D7055CF40088F189E02D87019401A501A8
:101A4000BE01C60109952196EFCF0688F789E02DE2
:101A5000C601DF91CF911F910F91FF90EF90DF9022
:101A6000CF90BF90AF909F908F907F906F905F903E
:101A70004F9009948F929F92AF92BF92CF92DF9234
:101A8000EF92FF920F931F93CF93DF93EC015B01D3
:101A90004A016901E881F9810284F385E02D099505
:101AA00095012C0D3D1D21503109E881F9810488F3
:101AB000F589E02D78018401A401B501CE010995D5
:101AC000E881F9810688F789E02DCE01DF91CF9179
:101AD0001F910F91FF90EF90DF90CF90BF90AF904C
:101AE0009F908F9009948F929F92AF92BF92CF92C6
:101AF000DF92EF92FF920F931F93CF93DF93EC014E
:101B00005B014A0169017801E881F9810284F3856A
:101B1000E02D0995C80CD91C860101501109E881F6
:101B2000F9810488F589E02D9501A401B501CE0164
:101B30000995E881F9810688F789E02DCE01DF91CA
:101B4000CF911F910F91FF90EF90DF90CF90BF90BA
:101B5000AF909F908F9009940895EF92FF920F930A
:101B60001F93DC01ED91FC9100A0F1A1E02D0995FE
:101B70001F910F91FF90EF9008950F931F93DC0139
:101B8000ED91FC91068CF78DE02D09951F910F9139
:101B900008950F931F93DC01ED91FC91048CF58D5A
:101BA000E02D09951F910F910895DC01ED91FC91B5
:101BB0000084F185E02D09942F923F924F925F921D
:101BC0006F927F928F929F92AF92BF92CF92DF924D
:101BD000EF92FF920F931F93CF93DF9300D000D02B
:101BE00000D0CDB7DEB73C016A013E832D83FC8275
:101BF000EB825801A41AB50AB7FE03C0B194A194B0
:101C0000B1088D809E80861A970A97FE03C0919432
:101C1000819491088A149B045CF0902F812F0D8190
:101C20001E819D838E839C2D8D2D6B01692F782FB6
:101C30000C151D055CF09D818E817E836D83692F5F
:101C4000782F902F812F8601C92ED82E1601201AA9
:101C5000310A2B012D813E81421A530A57FE03C0DF
:101C6000519441945108710137FE03C03FEFE31ACC
:101C7000F30AF594E7948D819E81861797075CF5AA
:101C8000A1E0B0E0BA83A983C016D1064CF1D3011C
:101C9000ED91FC910484F585E02D2B813C81A80118
:101CA0006D817E818A149B041CF04D815E81B80198
:101CB000C3010995E418F508F7FE0AC02D813E819D
:101CC00089819A81280F391F3E832D83E20CF31CF2
:101CD0000F5F1F4FD9CF2FEF3FEF3A832983D4CF28
:101CE00026960FB6F894DEBF0FBECDBFDF91CF9121
:101CF0001F910F91FF90EF90DF90CF90BF90AF902A
:101D00009F908F907F906F905F904F903F902F901B
:101D10000895AF92BF92CF92DF92EF92FF920F930E
:101D20001F93CF93DF93EC015B016A0121503109CE
:101D30007901E60EF71E01501109040F151F6AE222
:101D40000E94C004B501CE010E944E04B701CE012D
:101D50000E944E046BE2CE010E94C004B601CE0187
:101D60000E944E04B801CE010E944E046CE2CE01E6
:101D7000DF91CF911F910F91FF90EF90DF90CF9067
:101D8000BF90AF900C94C004611106C060E220E0E7
:101D900050E040E00C94A50861E2F9CFCF93DF93C7
:101DA0001F92CDB7DEB7FC016370668B623071F0B5
:101DB000633011F188E4613051F488E2898380E472
:101DC00091E09187808780EF90E008C088E8898360
:101DD00080EF90E09187808780E491E0938782870D
:101DE00021E0AE014F5F5F4F66E3CF010E94A5087F
:101DF0000F90DF91CF91089588EEE0CF089590E0A5
:101E000080E00895EF92FF920F931F93682F82E373
:101E100091E00E94CE0E64E670E080E090E00E94C7
:101E2000E10389E5E82E8EECF82E04E610E02AE0C6
:101E300030E050E040E070E060E082E391E00E943A
:101E4000600C0AE510E028EC30E044E650E06AE07F
:101E500070E082E391E00E94600C10E000E030E06E
:101E600020E04AE550E068EC70E082E391E00E94F7
:101E7000600C1F910F91FF90EF9008950E943B120C
:101E8000AF92BF92CF92DF92EF92FF920F931F9388
:101E9000CF93DF93EC016A017B01C114D104E1040B
:101EA000F10431F4C12C42E1D42E4AE7E42EF12CA6
:101EB0008FA987FD07C061E00E948B0361E08FA9B5
:101EC0000E943F0361E088AD0E948B0361E088AD12
:101ED0000E943F038DA98111C1C040E052E16AE731
:101EE00070E0C416D506E606F70640F476956795C9
:101EF000579547958F5F8630A1F787E0982F906AB6
:101F0000969599A3809581708AA31BA21CA21DA2FD
:101F10001EA21FB7F89480913101811127C0E5EF0F
:101F2000F5E08491E9E0F6E09491E82FF0E0EE0F1F
:101F3000FF1FE952FA4FA591B491EC91E92321F4E6
:101F400061E08AE00E943F0361E08AE00E948B0327
:101F50008CB580618CBD8CB580648CBD61E08DE0FA
:101F60000E948B0361E08BE00E948B038091310122
:101F70008F5F809331011FBF8EA987FD21C061E073
:101F80000E948B0361E08EA90E943F0364E670E02B
:101F900080E090E00E94E10360E08EA90E943F0390
:101FA00064E670E080E090E00E94E10361E08EA9C9
:101FB0000E943F0368EC70E080E090E00E94E10343
:101FC0008EA987FF0DC020E050E040E061E0CE0127
:101FD0000E94A50866E970E080E090E00E94E103BD
:101FE00008E610E0C8010196F801E490EE2009F43B
:101FF00095C00E5F1F4FFC01F490CF2CE894C7F8FA
:10200000CE010E94D5048FA987FD06C0EB8DFC8D03
:1020100080819AA989238083ED8DFE8D80819CA982
:10202000892380836E2DCE010E949304ED8DFE8D59
:1020300080819BA9892B8083B12CA12CD12CAC143D
:10204000BD040CF057C0F801EA0DFB1D6491CE01F0
:102050000E949304FFEFAF1ABF0AF1CF0BEE15E019
:10206000F12C8130B9F461E08AA50E948B0360E015
:102070008AA50E943F0361E08CA50E948B0360E06B
:102080008CA50E943F038BA587FD76CF60E00E9460
:102090008B0372CFF8018491E82FF0E0EE0FFF1F61
:1020A000EF51FA4F859194912F8D38A12817390758
:1020B00041F461E08F2D0E948B0360E08F2D0E9420
:1020C0003F03F3940F5F1F4FF4E1FF12E3CF61E092
:1020D0008EA50E948B0361E08EA50E943F038FA511
:1020E00087FD4ACF61E00E948B0361E08FA50E94CB
:1020F0003F0342CF8FA987FD06C0EB8DFC8D808109
:1021000099A9892B80830C0D1D1DF7FE6BCF66E905
:1021100070E080E090E00E94E10364CF80EF90E007
:102120009987888780E491E09B878A87DF91CF91A8
:102130001F910F91FF90EF90DF90CF90BF90AF90E5
:1021400008951F920F920FB60F9211242F933F9371
:102150008F939F93AF93BF93809176019091770176
:10216000A0917801B09179013091750123E0230F9E
:102170002D3758F50196A11DB11D2093750180934F
:10218000760190937701A0937801B09379018091C3
:102190007A0190917B01A0917C01B0917D01019623
:1021A000A11DB11D80937A0190937B01A0937C01C6
:1021B000B0937D01BF91AF919F918F913F912F91EE
:1021C0000F900FBE0F901F90189526E8230F0296D0
:1021D000A11DB11DD2CF789484B5826084BD84B531
:1021E000816084BD85B5826085BD85B5816085BD12
:1021F00080916E00816080936E00109281008091CA
:102200008100826080938100809181008160809351
:102210008100809180008160809380008091B10076
:1022200084608093B1008091B00081608093B000A1
:1022300080917A00846080937A0080917A00826035
:1022400080937A0080917A00816080937A008091F7
:102250007A00806880937A001092C10040E050E0DC
:10226000BA0182E391E00E94400F90E080E00E947A
:10227000020F68EE73E080E090E00E94E10370E0FE
:1022800060E082E391E00E94D80C81E090E00E943F
:10229000020F68EE73E080E090E00E94E10370E0DE
:1022A00060E082E391E00E94D80C82E090E00E941E
:1022B000020F68EE73E080E090E00E94E10370E0BE
:1022C00060E082E391E00E94D80C83E090E00E94FD
:1022D000020F68EE73E080E090E00E94E103C0E04E
:1022E000D0E02097F1F30E940000FBCFA2E3B1E021
:1022F00013961C921E92129720EF30E015963C9395
:102300002E93149780E491E017969C938E931697E2
:1023100019963C932E9318971B969C938E931A971D
:1023200056961C9256971D961C921E921C971F96AD
:102330001C921E921E9781E055968C935597549649
:102340008C9354972FEF3FEF53963C932E935297D5
:1023500051963C932E93509757968C935797589637
:102360001C9258975A961C921E925997D5961C9279
:10237000D5978FEFD6968C93D6978EE0D7968C9381
:10238000D7978CE0D8968C93D897DA961C921E92A9
:10239000D997DC961C921E92DB97DD961C92DD97F6
:1023A000DE961C92DE9710927101109272011092CB
:1023B00073011092740180E391E090969C938E9348
:1023C0005F97E7EFF5E0E491F0E0EE0FFF1FEF51CC
:1023D000FA4F859194915E969C938E935D97EBE076
:1023E000F6E08491D3968C93D397E9EFF5E0E491EE
:1023F000F0E0EE0FFF1FEF51FA4F259134915C96FC
:102400003C932E935B97EDE0F6E0E491D196EC934C
:10241000D197E095D296EC93D297E82FE095D49699
:10242000EC93D49784E091E08D939C9308950E945F
:102430001F12332312F48A1B9B0B0C943012A29FA1
:10244000B001B39FC001A39F700D811D1124911D88
:10245000B29F700D811D1124911D08950E941F12BD
:10246000B7FF0895821B930B0895EE0FFF1F059091
:10247000F491E02D099481E090E0F8940C944012DE
:04248000F894FFCFFE
:10248400000000002F0B1304FF0EFE0EFB04930844
:102494006108F8077707B807DC0DE908CE0EC40E0B
:1024A40009067A06EB06D80C600C010C400F890E65
:00000001FF
