:100000000C9400010C941F010C941F010C941F010F
:100010000C941F010C941F010C941F010C941F01E0
:100020000C941F010C941F010C941F010C941F01D0
:100030000C941F010C941F010C941F010C941F01C0
:100040000C941F010C941F010C941F010C941F01B0
:100050000C941F010C941F010C941F010C941F01A0
:100060000C941F010C941F010C941F010C941F0190
:100070000C941F010C941F010C941F010C941F0180
:100080000C941F010C941F010C941F0143686563BD
:100090006B6572205061747465726E004353313A1F
:1000A000207920302E2E363320204353323A2079C7
:1000B0002036342E2E31323700526967687420287A
:1000C0004353323A20792036342E2E3132372900EC
:1000D0004C65667420284353313A207920302E2E07
:1000E0003633290044656D6F2031303A20477269FC
:1000F00064205061747465726E0044656D6F2039C0
:100100003A204E65737465642053686170657300AE
:1001100044656D6F20383A20526164696174696E7C
:1001200067204C696E65730044656D6F20373A2017
:10013000546578742050616765730044656D6F2065
:10014000363A20436972636C65730044656D6F20B5
:10015000353A2052656374616E676C65730044655F
:100160006D6F20343A204C696E65730044656D6F85
:1001700020333A205061676520416464726573736F
:10018000696E670044656D6F20323A20506978656A
:100190006C2044726177696E670044656D6F203131
:1001A0003A20546578742048656164657200534F45
:1001B00043333035302047726170686963730020C3
:1001C000202041546D65676131323820474C4344EB
:1001D000202020003D3D3D3D3D3D3D3D3D3D3D3DE3
:1001E0003D3D3D3D3D3D3D3D004F0023242526271F
:1001F00028292A2B2C2D2E2F30313233343536003E
:1002000011241FBECFEFD0E1DEBFCDBF13E0A0E0D1
:10021000B1E0ECE9F5E100E00BBF02C007900D9200
:10022000AA37B107D9F723E0AAE7B3E001C01D92CE
:10023000A338B207E1F70E949F070C94CC0A0C94F4
:1002400000008BBB6115E9F01C9A40FF1CC01F9A8F
:1002500041FF1BC01E9A85E08A95F1F700001D9AA8
:1002600085E08A95F1F700001D988AE08A95F1F7FC
:1002700000C083B18F7383B985E38A95F1F70000DD
:1002800008951C98E2CF1F98E3CF1E98E4CF462F25
:1002900060E00C942101CF93DF93C82FD62F886B99
:1002A0000E944701D0FDC0937C03D1FDC0937D0324
:1002B000DF91CF910895462F61E00C94210180E0F9
:1002C0000895883010F40C944B010895CF93DF9378
:1002D000C82FD62F803448F480640E944701D0FD97
:1002E000C0937E03D1FDC0937F03DF91CF9108952A
:1002F000CF93DF93C62F883080F467FD0EC0D1E026
:10030000603410F0C054D2E06D2F0E9461016D2F57
:100310008C2FDF91CF910C946601DF91CF910895DE
:10032000CF93C82F8FE3C11101C08EE363E00E9419
:100330004701C0938003CF910895CF93DF93C0E02E
:1003400063E08C2F0E94610163E080E40E9447011A
:1003500010927E0310927F03D0E463E080E00E945D
:100360005B01D150D1F7CF5FC83051F761E080E039
:100370000E944B0161E080E00E94660110927B03C5
:1003800010927A03DF91CF910895CF93DF938FEF8F
:100390008ABB82B1806F82B983B18F7083B92FEF2E
:1003A00081EE94E0215080409040E1F700C00000D1
:1003B000CCE7D3E087E0FE0111928A95E9F763E08C
:1003C0008EE30E9447018FE39CE90197F1F700C09B
:1003D000000063E08FE30E94470181E08C8363E0CB
:1003E00080EC0E94470163E088EB0E94470118827D
:1003F000198263E080E40E9447011A821B820E94F6
:100400009D0110927B0310927A03DF91CF910895A2
:10041000CF93DF93C0E063E08C2F0E94610163E023
:1004200080E40E94470110927E0310927F03D0E483
:1004300063E08FEF0E945B01D150D1F7CF5FC830EE
:1004400051F7DF91CF910895CF93DF93C82FD62F27
:10045000803448F4806C0E944701D0FDC093810332
:10046000D1FDC0938203DF91CF910895CF93DF93A5
:1004700000D00F92CDB7DEB76A83498387FD24C0D1
:10048000603410F5962F96959695969521E08034D8
:1004900008F022E02B83682F892F0E947801898140
:1004A000813081F49A8181E091FD84E090FD880F94
:1004B00092FD82956B810F900F900F90DF91CF91FD
:1004C0000C945B0180E0F6CF0F900F900F90DF91BE
:1004D000CF91089580E008951F93CF93DF9300D0CC
:1004E00000D00F92CDB7DEB7182F69834A832B83D4
:1004F00090E08C839D838C81811B9A81891748F0C1
:100500000F900F900F900F900F90DF91CF911F9150
:1005100008958C819D81803891052CF44B816981EF
:100520008C810E9436028C819D810196E2CF1F93BF
:10053000CF93DF9300D000D00F92CDB7DEB7898381
:10054000162F4A832B83862F90E08C839D838C818A
:10055000811B9A81891748F00F900F900F900F9090
:100560000F90DF91CF911F9108958C819D818034F0
:1005700091052CF44B816C8189810E9436028C811B
:100580009D810196E2CF2F923F924F925F926F92A0
:100590007F928F929F92AF92BF92CF92DF92EF9213
:1005A000FF920F931F93CF93DF9300D00F92CDB79D
:1005B000DEB7342E222E0983C82ED12C242F281BDF
:1005C000330B790137FF03C07601E41AF108062FD7
:1005D00010E0222D261B330B490137FF03C04801D1
:1005E0008218910871E0672E712C831518F05FEF67
:1005F000752E672C41E0442E512C621518F03FEF08
:10060000532E452CC701881999098A839B83AA24F4
:10061000BB24A818B9084981602F8C2D0E9436028E
:100620003C141D0419F420161106D9F08A819B810F
:10063000880F991FA816B90644F42A813B8128190E
:1006400039092A833B83C60CD71C8E159F051CF7DE
:100650008A819B818E0D9F1D8A839B83040D151DAE
:10066000DACF0F900F900F90DF91CF911F910F91E4
:10067000FF90EF90DF90CF90BF90AF909F908F90C2
:100680007F906F905F904F903F902F9008950F93C1
:10069000CF93DF9300D000D0CDB7DEB789836A83D4
:1006A0004B832C83202F0E946C026C8161508A81C5
:1006B000680F202F4B8189810E946C02202F4C8172
:1006C0006A8189810E9497028B818150202F4C8101
:1006D0006A819981890F0F900F900F900F90DF9191
:1006E000CF910F910C9497020F93CF93DF9300D08B
:1006F00000D0CDB7DEB789836B834A83862F820F04
:100700008C838B819C81891308C00F900F900F9070
:100710000F90DF91CF910F910895202F4A816B8127
:1007200089810E946C029B819F5F9B83EACFCF925D
:10073000DF92EF92FF920F931F93CF93DF93CDB78A
:10074000DEB728970FB6F894DEBF0FBECDBFD82E08
:10075000C62E2B834F831886E12CF12C87014B8109
:100760009C2D900F9A83692F8F818D0D8C830E9411
:1007700036024B819F819C0D9983692F8D2D800FAF
:100780008D830E9436024B8169819D2D901B9E8333
:10079000892F0E9436024B816A818D2D9F81891B92
:1007A00089830E9436024B818C2D801B8A83682F9F
:1007B00089810E9436024B819C2D8F81981B9983E1
:1007C000692F8E810E9436024B8169818D810E9442
:1007D00036024B816A818C810E9436021E141F04EE
:1007E0005CF00F5F1F4FC801880F991F0196E80E3C
:1007F000F91E1E141F0454F48F81988501978F836E
:100800009887880F991F0196E81AF90A8F819885B1
:10081000801791070CF0A3CF28960FB6F894DEBF8F
:100820000FBECDBFDF91CF911F910F91FF90EF9041
:10083000DF90CF9008958F929F92AF92BF92CF9208
:10084000DF92EF92FF920F931F93CF93DF9300D02D
:1008500000D000D0CDB7DEB78A836B832C83C42E43
:10086000D12C882499248C189D08449F7001112450
:100870008D829E828D819E81889F5001899FB00CC0
:10088000B00C112484019B81980F9983009FC001B3
:10089000019F900D900D11248A0D9B1DE816F906FD
:1008A00034F04C8169818A81800F0E9436020F5F8B
:1008B0001F4FC016D10654F78D819E8101968D83FE
:1008C0009E83C816D906B4F60F900F900F900F9024
:1008D0000F900F90DF91CF911F910F91FF90EF90AC
:1008E000DF90CF90BF90AF909F908F900895883009
:1008F00030F4653120F480937B0360937A0308958C
:100900000F931F93CF93DF9300EE080F0F3578F509
:1009100080917A03C82FCC0FC80FCC0F6C2F809119
:100920007B030E94780185E0089F800111240F5FFE
:100930001E4FD0E08C2F8D0F61E0803408F062E014
:10094000F80181918F010E945B01DF5FD53091F743
:10095000CB5F61E0C03408F062E080E00E945B01A0
:1009600080917A038F5F853138F480937A03DF9129
:10097000CF911F910F91089510927A0380917B037C
:100980008F5F883018F480937B03F1CF10927B0344
:10099000EECFCF93DF93EC018881811103C0DF910B
:1009A000CF91089521960E948004F6CFCF93DF93D4
:1009B00000D0CDB7DEB749835A830E94770489817E
:1009C0009A810F900F90DF91CF910C94C904CF932F
:1009D000DF93CDB7DEB7C058D1090FB6F894DEBFAC
:1009E0000FBECDBF9E012B573F4FF9014191519151
:1009F0009F0160E870E0CE0101960E94D207CE010F
:100A000001960E94C904C058DF4F0FB6F894DEBFAC
:100A10000FBECDBFDF91CF9108958CE793E008958D
:100A20000F930E949D012FEF83ED90E321508040B2
:100A30009040E1F700C000000E9408022FEF83ED14
:100A400090E3215080409040E1F700C000000E94F8
:100A50009D014CED52E060E080E00E94D60440EF42
:100A600052E060E081E00E94D6044CEF52E060E08A
:100A700082E00E94D6042FEF87EA91E62150804061
:100A80009040E1F700C000000E949D0101E024E1D8
:100A900048E26AE08AE00E94470324E144E16AE018
:100AA0008CE30E94740321E04FE06DE280E40E9439
:100AB00097032FE34FE760E080E00E94C3022FEF2F
:100AC00087EA91E6215080409040E1F700C00000A5
:100AD0000E949D014CE053E060E080E00F910C9497
:100AE000D6040E949D0141E253E060E080E00E9454
:100AF000D60445E353E060E081E00E94D60446E47A
:100B000053E060E082E00E94D6044AE553E060E0F2
:100B100083E00E94D60484E080937B0310927A03E2
:100B200080918003811579F08AE193E09F938F9300
:100B30008EE693E09F938F930E94E7040F900F90AF
:100B40000F900F9008958DE193E0F0CFCF93DF9356
:100B5000CDB7DEB768970FB6F894DEBF0FBECDBF36
:100B60008F8B688FBA01CE0101960E94CB07AE0130
:100B70004F5F5F4F688D8F890E94D60468960FB6CD
:100B8000F894DEBF0FBECDBFDF91CF9108958FEFF8
:100B90008ABB1BBA87BB88BB9FE094BB20EF25BBF9
:100BA00011BA82BB22B993B910926100109262000F
:100BB00080936400109265000895883048F498B3DB
:100BC00021E001C0220F8A95EAF72095292328BB4E
:100BD0000895883040F498B321E001C0220F8A952F
:100BE000EAF7922B98BB0895883040F498B321E03F
:100BF00001C0220F8A95EAF7922798BB0895809545
:100C000088BB08958FEF88BB089518BA089588307F
:100C100058F420B330E002C0359527958A95E2F765
:100C20002095822F8170089580E0089580B380958B
:100C3000089580B38F3F69F480B38F3F89F09FEFB1
:100C400020E782E0915020408040E1F700C00000A2
:100C500008958FE39CE90197F1F700C00000E9CF08
:100C60008FE39CE90197F1F700C00000E5CF90E029
:100C7000981301C00895292F209528BB2FEF39E63E
:100C800048E1215030404040E1F700C000009F5F44
:100C9000EFCF1F93CF93DF9300D00F92CDB7DEB786
:100CA00089831B821FEF9B812981921307C00F90BC
:100CB0000F900F90DF91CF911F9108951A8218BB6A
:100CC0008A810E94DD052FEF83EC99E0215080405E
:100CD0009040E1F700C000002A812F5F2A8328306E
:100CE00071F78B818F5F8B83DECF1F93CF93DF9361
:100CF00000D00F92CDB7DEB789831B821FEF9B8197
:100D00002981921307C00F900F900F90DF91CF9120
:100D10001F9108951A8218BB8A810E94DD052FEF6A
:100D200082E597E0215080409040E1F700C000004C
:100D30002A812F5F2A83283071F787E08A8318BBC6
:100D40009A8191509A83892F0E94DD052FEF82E5C9
:100D500097E0215080409040E1F700C000002A81D8
:100D60002111EDCF8B818F5F8B83C9CFCF93DF9321
:100D7000C0E0DFEFD8BB8C2F0E94DD052FEF85EAA6
:100D80009EE0215080409040E1F700C00000CF5F1E
:100D9000C83081F7D8BBDF91CF91089580B388BB6D
:100DA000811551F02FEF80E792E021508040904074
:100DB000E1F700C00000F2CF8FEF88BB08958830C4
:100DC00078F421E001C0220F8A95EAF790B3809170
:100DD0000001811107C080B3982B922381E091110B
:100DE00080E008958150EFE9FFE03197F1F700C00E
:100DF0000000EFCF883080F491E001C0990F8A9510
:100E0000EAF7892F90B3982341F090910001911156
:100E10000BC090B3982381F00895EFE3FCE931977C
:100E2000F1F700C00000EECF9150EFE9FFE03197FD
:100E3000F1F700C00000EBCFEFE3FCE93197F1F7E9
:100E400000C00000E6CF883040F492B321E001C03A
:100E5000220F8A95EAF7922B92BB0895883048F4C6
:100E600092B321E001C0220F8A95EAF72095292349
:100E700022BB0895CF93DF930F92CDB7DEB789835E
:100E8000898186230F90DF91CF910895FC01908195
:100E9000862F809589236423682B60830895853687
:100EA00020F084E68093000108958530D8F785E02E
:100EB000F9CF8091000108951F93CF93DF93C0E095
:100EC000D0E010E08C2F0E94DF06811539F081E020
:100ED0000C2E01C0880F0A94EAF7182B2196C8300F
:100EE000D10581F7812FDF91CF911F910895CF9385
:100EF000C0E08C2F0E94DF0681110AC0CF5FC8308E
:100F0000C1F78FE39CE90197F1F700C00000F0CF33
:100F10008C2F0E94FA068C2FCF910895F8940E948E
:100F2000C705789408958FB787FB882780F90895BF
:100F3000F8940E94C7050E94C501789408950E9404
:100F400098070E949D0144ED51E060E080E00E941E
:100F5000A6054FEB51E060E081E00E94A6054BEE54
:100F600051E060E082E00E94A6054EEA51E060E0B8
:100F700086E00E94A6054AE951E060E087E00E9411
:100F8000A6052FEF81EE94E0215080409040E1F7DC
:100F900000C00000FFCFFB01DC0105900D92002096
:100FA000E1F708950F931F93CF93DF93CDB7DEB78B
:100FB0002E970FB6F894DEBF0FBECDBF8C01CA01CD
:100FC00046E04C8309831A83FB016130704810F0BE
:100FD000E0E0F0E83197ED83FE83A901BC01CE018A
:100FE00001960E940C084D815E8157FD0AC02F8139
:100FF0003885421753070CF49A01020F131FF801AA
:1010000010822E960FB6F894DEBF0FBECDBFDF91D3
:10101000CF911F910F9108955F926F927F928F925F
:101020009F92AF92BF92CF92DF92EF92FF920F9377
:101030001F93CF93DF93CDB7DEB72B970FB6F894FE
:10104000DEBF0FBECDBF6C017B018A01FC011682A1
:101050001782838181FFF1C13AE0532EF60123818B
:10106000F70123FD859123FF81917F01811509F40B
:1010700037C1853239F423FD959123FF91917F018A
:10108000953229F4B60190E00E94360AE7CF30E0AD
:10109000912C612C712CF0E27F1640F59B32D9F037
:1010A00058F49032D1F09332F1F09E3291F576FC03
:1010B00017C1689476F806C09D3291F09033C1F460
:1010C000689470F8F70123FD959123FF91917F01BA
:1010D0009111E1CF28C0689471F8689472F8F2CF4A
:1010E000689473F8EFCF689474F8ECCF77FC1BC06A
:1010F00080ED890F8A30C8F676FE05C0959C800D7C
:101100001124982EDFCF659C800D1124682E7F2A34
:10111000D9CF9C3619F4689477F8D4CF9C3409F46D
:1011200045C0983679F2892F8F7D8554833008F435
:101130003FC0933609F461C0933709F46BC093350F
:1011400009F477C0943619F0993609F0A4C0F80173
:1011500077FE9AC061917191819191918F01272DB4
:101160002F76822E97FF04C00E94C40A689487F8E5
:101170002AE030E05E014FEFA41AB40AA5010E94F4
:10118000660A782E7A1886FEE1C0882D8E7F791443
:1011900008F0DBC084FE2FC182FC23C12EEE822228
:1011A000B92C882D867809F4DDC020C131E08ACFC2
:1011B000311501F1085F1F4F8FE3898321E0822EF3
:1011C000912C5E012FEFA21AB20AE89477F873FC13
:1011D00003C086149104F0F18114910409F041C018
:1011E000611409F43BCFB60180E290E00E94360A18
:1011F0006A94F6CF0C5F1F4FDFCFF801808189839F
:101200000E5F1F4F91E0892E912C5E01FFEFAF1A08
:10121000BF0ADBCFF801A190B1908F01692D70E07A
:1012200076FC02C06FEF7FEFC5010E942B0A4C01D4
:10123000CCCFF801A190B1908F01692D70E076FCC0
:1012400002C06FEF7FEFC5010E94200A4C01689435
:1012500077F8BDCFB60180E290E00E94360A6A942A
:10126000B8CFF50177FC859177FE81915F01B601DA
:1012700090E00E94360A81E0611001C080E0681AA7
:10128000F1E08F1A9108A8CF61917191872F880F93
:10129000880B982F63CF9537C9F4872CE89484F88E
:1012A0002AE030E0F80187FE4BC061917191819195
:1012B00091918F015E01FFEFAF1ABF0AA5010E9455
:1012C000660A782E7A18E89487F85DCF872D897F93
:1012D000882E903729F1E8F4983539F19F3669F175
:1012E000F601868197812B960FB6F894DEBF0FBE6C
:1012F000CDBFDF91CF911F910F91FF90EF90DF90C5
:10130000CF90BF90AF909F908F907F906F905F90A5
:101310000895983729F774FC05C020E130E0C2CF6A
:10132000689484F8689482F8F8CF74FE03C0E72DBF
:10133000E6608E2E20E132E0B5CF28E030E0B2CF7B
:101340006191719180E090E0B4CF882EB72C84FE3B
:1013500028CFFE01E70DF11D8081803309F044C0E4
:1013600049EE842283FC0EC080FE51C0972CB61437
:1013700018F4960C9B18B62C862D8B196B1408F458
:1013800080E0B80EB61408F044C06B1884FE43C069
:10139000B60180E390E00E94360A82FE09C088E52B
:1013A00090E081FC02C088E790E0B6010E94360A16
:1013B0007914E0F15E018FEFA81AB80A7A9482E0FE
:1013C000882E912C8C0E9D1E870C911CF40182910D
:1013D0004F01B60190E00E94360A8A149B04B1F7CF
:1013E000FFCEB92C882EB5CF82FC02C0B394BACF01
:1013F000B394B394B7CFB92C882ED3CEB60180E284
:1014000090E00E94360AA394A614C0F3B5CFAB2C8B
:10141000FBCF612CBBCF882D867851F280E281FC16
:101420008BE287FC8DE2B60190E0C0CFB60180E38D
:1014300090E00E94360A9A94BBCF8FEF9FEF53CF74
:10144000FC010590615070400110D8F7809590958F
:101450008E0F9F1F0895FC01615070400190011094
:10146000D8F7809590958E0F9F1F08950F931F9327
:10147000CF93DF93182F092FEB018B8181FD09C0DA
:101480000FEF1FEF812F902FDF91CF911F910F91C1
:10149000089582FF14C02E813F818C819D81281781
:1014A00039073CF4E881F981CF010196888399835B
:1014B00010838E819F8101968E839F83E3CFE88581
:1014C000F985812F0995892BA1F3DACFFA01AA2793
:1014D000283051F1203181F1E8946F936E7F6E5F77
:1014E0007F4F8F4F9F4FAF4FB1E03ED0B4E03CD025
:1014F000670F781F891F9A1FA11D680F791F8A1F08
:10150000911DA11D6A0F711D811D911DA11D20D06E
:1015100009F468943F912AE0269F11243019305D28
:101520003193DEF6CF010895462F4770405D419319
:10153000B3E00FD0C9F7F6CF462F4F70405D4A3366
:1015400018F0495D31FD4052419302D0A9F7EACF2E
:10155000B4E0A6959795879577956795BA95C9F75D
:1015600000976105710508959B01AC010A2E069450
:101570005795479537952795BA95C9F7620F731F09
:10158000841F951FA01D0895909580957095619575
:0C1590007F4F8F4F9F4F0895F894FFCFBE
:10159C0014000000000000004F00000007000700CE
:1015AC00147F147F14242A7F2A12231308646236B2
:1015BC00495522500005030000001C224100004147
:1015CC00221C0014083E081408083E08080050307D
:1015DC0000000808080808006060000020100804DB
:1015EC00023E5149453E00427F400042615149460E
:1015FC002141454B311814127F1027454545393C84
:10160C004A494930017109050336494949360649A9
:10161C0049291E00363600000056360000081422F8
:10162C00410014141414140041221408020151092D
:10163C0006324979413E7E1111117E7F4949493666
:10164C003E414141227F4141221C7F494949417F12
:10165C00090909013E4149497A7F0808087F004180
:10166C007F41002040413F017F081422417F4040D0
:10167C0040407F020C027F7F0408107F3E414141B5
:10168C003E7F090909063E4151215E7F0919294611
:10169C00464949493101017F01013F4040403F1F0C
:1016AC002040201F3F4038403F6314081463070854
:1016BC007008076151494543007F4141000204080D
:1016CC0010200041417F00040201020440404040D0
:1016DC0040000102040020545454787F484444389C
:1016EC003844444420384444487F385454541808EF
:1016FC007E0901020C5252523E7F080404780044C9
:10170C007D40002040443D007F1028440000417F74
:10171C0040007C041804787C080404783844444461
:10172C00387C14141408081414187C7C080404085D
:10173C004854545420043F4440203C4040207C1CDE
:10174C002040201C3C4030403C44281028440C5085
:10175C0050503C4464544C44000836410000007F17
:10176C000000004136080008040810084B533031C3
:10177C003038204C69627261727920546573740040
:10178C0031323878363420474C434400436F6D7007
:10179C006C65746520447269766572005465737467
:1017AC0020436F6D706C657465004F4E004F46465C
:1017BC00004B533031303820436F6D706C6574655D
:1017CC00204C696200313238783634204475616CB3
:1017DC00204374726C0053696D756C494445204309
:1017EC006F6D70617469626C650041546D65676101
:1017FC00313238204F7074696D697A6564004469C0
:0A180C0073706C61793A20257300B7
:00000001FF
