:10000000EDC1000009C2000007C2000005C20000E7
:1000100003C2000001C20000FFC10000FDC10000DA
:10002000FBC10000F9C10000F7C10000F5C10000EC
:10003000F3C10000F1C10000EFC10000EDC10000FC
:10004000EBC10000E9C10000E7C10000E5C100000C
:10005000E3C10000E1C10000DFC10000DDC100001C
:10006000DBC10000D9C10000D7C10000D5C100002C
:10007000D3C10000D1C10000CFC10000CDC100003C
:10008000CBC10000C9C10000C7C10000436865635F
:100090006B6572205061747465726E004353313A1F
:1000A000207920302E2E363320204353323A2079C7
:1000B0002036342E2E31323700526967687420287A
:1000C0004353323A20792036342E2E3132372900EC
:1000D0004C65667420284353313A207920302E2E07
:1000E0003633290044656D6F2031303A20477269FC
:1000F00064205061747465726E0044656D6F2039C0
:100100003A204E65737465642053686170657300AE
:1001100044656D6F20383A20526164696174696E7C
:1001200067204C696E65730044656D6F20373A2017
:10013000546578742050616765730044656D6F2065
:10014000363A20436972636C65730044656D6F20B5
:10015000353A2052656374616E676C65730044655F
:100160006D6F20343A204C696E65730044656D6F85
:1001700020333A205061676520416464726573736F
:10018000696E670044656D6F20323A20506978656A
:100190006C2044726177696E670044656D6F203131
:1001A0003A20546578742048656164657200534F45
:1001B00043333035302047726170686963730020C3
:1001C000202041546D65676131323820474C4344EB
:1001D000202020003D3D3D3D3D3D3D3D3D3D3D3DE3
:1001E0003D3D3D3D3D3D3D3D004F0023242526271F
:1001F00028292A2B2C2D2E2F30313233343536003E
:10020000000000000000004F00000007000700147D
:100210007F147F14242A7F2A12231308646236492C
:100220005522500005030000001C2241000041221D
:100230001C0014083E081408083E0808005030004E
:100240000008080808080060600000201008040288
:100250003E5149453E00427F40004261514946219E
:1002600041454B311814127F1027454545393C4A0A
:10027000494930017109050336494949360649495A
:10028000291E0036360000005636000008142241B0
:100290000014141414140041221408020151090618
:1002A000324979413E7E1111117E7F494949363EDE
:1002B000414141227F4141221C7F494949417F09F7
:1002C0000909013E4149497A7F0808087F00417FBA
:1002D00041002040413F017F081422417F404040BF
:1002E000407F020C027F7F0408107F3E4141413E67
:1002F0007F090909063E4151215E7F0919294626D9
:100300004949493201017F01013F4040403F1F20E0
:1003100040201F3F4038403F6314081463070870B3
:1003200008076151494543007F414100020408101C
:10033000200041417F00040201020440404040404F
:10034000000102040020545454787F484444383853
:1003500044444420384444487F3854545418087E58
:100360000901020C5252523E7F0804047800047DB9
:1003700000002040443D007F1028440000417F40A1
:10038000007C0418047C7C08040478384444443815
:100390007C14141408081414187C7C0804040848FD
:1003A00054545420043F4440203C4040207C1C20B6
:1003B00040201C3C4030403C44281028440C505005
:1003C000503C4464544C440008364100000077001F
:1003D00000004136080008040810080011241FBE60
:1003E000CFEFD0E1DEBFCDBF11E0A0E0B1E0E8EF9C
:1003F000F9E100E00BBF02C007900D92A830B107F1
:10040000D9F725E0A8E0B1E001C01D92AC30B207F9
:10041000E1F724D00C94FA0CF3CDCF93DF93CDB752
:10042000DEB766970FB6F894DEBF0FBECDBF8E8BDA
:1004300044E150E0CE0101960E94EB0C1D8AAE0112
:100440004F5F5F4F60E08E8940D366960FB6F89499
:10045000DEBF0FBECDBFDF91CF9108950E943A0B52
:100460006BD164ED71E080E0D8DF6FEB71E081E08B
:10047000D4DF6BEE71E082E0D0DF6EEA71E086E0FF
:10048000CCDF6AE971E087E0C8DF2FEF81EE94E00E
:10049000215080409040E1F700C00000FFCF982F2E
:1004A000969596959695877020E8873029F0E82FE5
:1004B000F0E0E050FF4F208180E8989FF001112488
:1004C000E85FFE4FE60FF11D8081822B80839854F8
:1004D0009BBB1C98809165008D7F809365001E9A60
:1004E0001F9A9AE19A95F1F700C01D9A85E38A95C3
:1004F000F1F700001D988FE891E00197F1F700C037
:1005000000006034A8F5605C6BBB1C9880916500AE
:100510008D7F809365001E981F9A9AE19A95F1F756
:1005200000C01D9A85E38A95F1F700001D988FE8B9
:1005300091E00197F1F700C0000080818BBB1C9A0D
:10054000809165008D7F809365001E981F9A9AE1C7
:100550009A95F1F700C01D9A85E38A95F1F700009E
:100560001D988FE891E00197F1F700C00000089511
:100570006BBB1C98809165008D7F809365001E9AEF
:100580001F989AE19A95F1F700C01D9A85E38A9524
:10059000F1F700001D988FE891E00197F1F700C096
:1005A000000080818BBB1C9A809165008D7F8093B9
:1005B00065001E9A1F98CBCFD09AD19AD29AD39A1F
:1005C000D49AD59AD69AD79A149A159A169A179AAF
:1005D000E4E6F0E08081826080831C981D981E987C
:1005E0001F98E5E680818D7F80831BBA2FEF80E71F
:1005F00092E0215080409040E1F700C00000089553
:100600008BBB1C98E5E6F0E080818D7F80831E988F
:100610001F9A8AE18A95F1F700C01D9A95E39A9591
:10062000F1F700001D988FE891E00197F1F700C005
:10063000000008958BBB1C98E5E6F0E080818D7F7B
:1006400080831E9A1F988AE18A95F1F700C01D9A4F
:1006500095E39A95F1F700001D988FE891E00197D6
:10066000F1F700C0000008958BBB1C98E5E6F0E0B0
:1006700080818D7F80831E9A1F9A8AE18A95F1F787
:1006800000C01D9A95E39A95F1F700001D988FE838
:1006900091E00197F1F700C0000008958BBB1C9A10
:1006A000E5E6F0E080818D7F80831E981F9A8AE1C5
:1006B0008A95F1F700C01D9A95E39A95F1F700002D
:1006C0001D988FE891E00197F1F700C000000895B0
:1006D0008BBB1C9AE5E6F0E080818D7F80831E9ABB
:1006E0001F988AE18A95F1F700C01D9A95E39A95C3
:1006F000F1F700001D988FE891E00197F1F700C035
:10070000000008958BBB1C9AE5E6F0E080818D7FA8
:1007100080831E9A1F9A8AE18A95F1F700C01D9A7C
:1007200095E39A95F1F700001D988FE891E0019705
:10073000F1F700C00000089528EB30E42BBB1C98B3
:10074000809165008D7F809365001E9A1F9A8AE1D3
:100750008A95F1F700C01D9A95E39A95F1F700008C
:100760001D98EFE8F1E03197F1F700C0000087EC49
:1007700090E00197F1F700C000003BBB1C9880910E
:1007800065008D7F809365001E9A1F9A9AE19A9565
:10079000F1F700C01D9AE5E3EA95F1F700001D9816
:1007A0008FE891E00197F1F700C00000E7ECF0E07E
:1007B0003197F1F700C0000090E41BBA1C9A8091B9
:1007C00065008D7F809365001E9A1F9AFAE1FA9565
:1007D000F1F700C01D9A85E38A95F1F700001D9896
:1007E000EFE8F1E03197F1F700C00000F5E3FA958A
:1007F000F1F70000915009F72F5F203C09F09ECFE0
:100800008FE39CE90197F1F700C000000895D4DE62
:100810002FEF81EE94E0215080409040E1F700C03E
:1008200000008EE38BBB1C98E5E6F0E080818D7FB5
:1008300080831E9A1F9A2AE12A95F1F700C01D9A1B
:1008400085E38A95F1F700001D988FE891E0019704
:10085000F1F700C000008FE39CE90197F1F700C0B9
:1008600000008FE38BBB1C9880818D7F80831E9A54
:100870001F9A9AE19A95F1F700C01D9A25E32A95EF
:10088000F1F700001D988FE891E00197F1F700C0A3
:1008900000008FE39CE90197F1F700C0000080ECB5
:1008A0008BBB1C9880818D7F80831E9A1F9A9AE152
:1008B0009A95F1F700C01D9A25E32A95F1F70000FB
:1008C0001D988FE891E00197F1F700C000008FE1DB
:1008D0009EE40197F1F700C0000088EB8BBB1C98E9
:1008E00080818D7F80831E9A1F9A9AE19A95F1F7F5
:1008F00000C01D9A25E32A95F1F700001D988FE8A6
:1009000091E00197F1F700C000008FE19EE40197AC
:10091000F1F700C0000080E48BBB1C9880818D7FC4
:1009200080831E9A1F9A9AE19A95F1F700C01D9A4A
:1009300025E32A95F1F700001D988FE891E00197D3
:10094000F1F700C000008FE39CE90197F1F700C0C8
:1009500000009FEF20E782E0915020408040E1F7C7
:1009600000C000000895809309056093080588542D
:100970008BBB1C98809165008D7F809365001E9ACB
:100980001F9A8AE18A95F1F700C01D9A95E39A951E
:10099000F1F700001D988FE891E00197F1F700C092
:1009A000000090910805892F880F890F880F9A30D1
:1009B000D8F48C5B8BBB1C98809165008D7F8093F5
:1009C00065001E981F9A9AE19A95F1F700C01D9A4A
:1009D00085E38A95F1F700001D988FE891E0019773
:1009E000F1F700C0000008958C5F8BBB1C988091CC
:1009F00065008D7F809365001E9A1F98E4CF90E07C
:100A0000FC01EE0FFF1FEE0FFF1FE80FF91FE05A6A
:100A1000FE4F85E0909108059A30E0F594919BBBDC
:100A20001C9A909165009D7F909365001E981F9A77
:100A30009AE19A95F1F700C01D9AA5E3AA95F1F7FE
:100A400000001D98AFE8B1E01197F1F700C0000079
:100A5000815031968111DECF809108051BBA1C9A16
:100A60008A3058F5809165008D7F809365001E98CF
:100A70001F9ABAE1BA95F1F700C01D9A85E38A95ED
:100A8000F1F700001D98AFE8B1E01197F1F700C051
:100A90000000089594919BBB1C9A909165009D7FE6
:100AA000909365001E9A1F98BAE1BA95F1F700C0BD
:100AB0001D9A95E39A95F1F7C3CF809165008D7FDC
:100AC000809365001E9A1F98D4CF1F93CF93DF9316
:100AD000EA01809309056093080588548BBB1C9834
:100AE000809165008D7F809365001E9A1F9A8AE130
:100AF0008A95F1F700C01D9A95E39A95F1F70000E9
:100B00001D988FE891E00197F1F700C000009091E7
:100B10000805892F880F890F880F9A3008F054C074
:100B20008C5B8BBB1C98809165008D7F80936500EA
:100B30001E981F9A9AE19A95F1F700C01D9A85E3D5
:100B40008A95F1F700001D988FE891E00197F1F781
:100B500000C000008881811599F19091080510E48A
:100B60000AC04DDF2196909108059F5F909308057C
:100B70008881811529F19A30A1F71BBB1C988091BF
:100B800065008D7F809365001E9A1F989AE19A9563
:100B9000F1F700C01D9A85E38A95F1F700001D98D2
:100BA0008FE891E00197F1F700C00000899127DFFD
:100BB000909108059F5F9093080588818111DBCF94
:100BC000DF91CF911F9108958C5F8BBB1C98809112
:100BD00065008D7F809365001E9A1F98ABCF885467
:100BE0008BBB1C98809165008D7F809365001E9A59
:100BF0001F9A8AE18A95F1F700C01D9A95E39A95AC
:100C0000F1F700001D988FE891E00197F1F700C01F
:100C100000006034D8F4605C6BBB1C988091650068
:100C20008D7F809365001E981F9A9AE19A95F1F73F
:100C300000C01D9A85E38A95F1F700001D988FE8A2
:100C400091E00197F1F700C0000008956BBB1C987C
:100C5000809165008D7F809365001E9A1F98E5CF77
:100C6000803410F467FF1BCC0895E8E0F1E080E0E9
:100C700094E0DF019C011D9221503040E1F708957E
:100C80009F92AF92BF92CF92DF92EF92FF920F931B
:100C90001F93CF93DF93982E162F621709F44BC042
:100CA000C62FD0E0A22EB12C621750F5AC16BD06AF
:100CB000DCF06501CC1ADD0A842F8919990B7C01BF
:100CC00000E010E0C801B6015FD6CB01890D911D8F
:100CD000803420F4C7FD02C06C2FE1DB21960E0D9D
:100CE0001F1DAC16BD0674F7DF91CF911F910F91B8
:100CF000FF90EF90DF90CF90BF90AF909F900895BE
:100D00006501CC1ADD0A841B990B7C0100E010E020
:100D1000C801B60139D6CB01890D911D803420F46C
:100D2000C7FD02C06C2FBBDB21970E0D1F1DCA151E
:100D3000DB0574F7D9CF841799F1C82FD0E0E42EE2
:100D4000F12C8417C0F4EC16FD0674F25701AC1AAE
:100D5000BD0AC12CD12CC03448F4C601B50114D64B
:100D6000912F690F67FD02C08C2F99DB2196EC163D
:100D7000FD068CF7B9CF5701AC1ABD0AC12CD12C96
:100D8000C03448F4C601B501FFD5812F680F67FD57
:100D900002C08C2F84DB2197CE15DF058CF7A4CF02
:100DA00090E4891708F0A0CF67FD9ECFDF91CF9127
:100DB0001F910F91FF90EF90DF90CF90BF90AF9079
:100DC0009F906DCBCF93DF9300D000D0CDB7DEB72F
:100DD00089836A834B832C83482F52DF2C814B817C
:100DE0006A81842F4DDF2A814B81622F898148DF00
:100DF0002C814B81622F89810F900F900F900F9063
:100E0000DF91CF913DCF4F925F926F927F928F9201
:100E10009F92AF92BF92CF92DF92EF92FF920F9389
:100E20001F93CF93DF93982E862E70E0242F30E00F
:100E3000C901880F991F820F931F9C0197FF02C061
:100E40002D5F3F4F35952795359527956624772457
:100E5000621A730AEB01C21BD30B5C01B594A79411
:100E6000B594A7946B01CA0CDB1C449F700111243C
:100E70008E01061B170B10C0C7FD08C06C2F0FDBBF
:100E800080E4581618F4642D852D09DB21960F5F38
:100E90001F4FCC16DD063CF1009FC001019F900D55
:100EA000900D1124B701681B790B872F880F880BD1
:100EB000982F78D407D520E030E040E05FE3E0D31E
:100EC00043D44C2E862F890D592C561A8034A0F20B
:100ED00090E45916D8F6C7FFD6CF21960F5F1F4F63
:100EE000CC16DD06CCF6E301C90DD11D8501090D37
:100EF000111DBC2E90E4C91718F5669CC001679CB3
:100F0000900D900D1124B701681B790B872F880F66
:100F1000880B982F47D4D6D420E030E040E05FE340
:100F2000AFD312D4862F880DA82CA61A87FD03C034
:100F3000682F8C2FB4DAA7FC03C06A2D8B2DAFDA93
:100F400021968FEF681A780A0C171D0794F6DF9127
:100F5000CF911F910F91FF90EF90DF90CF90BF90B6
:100F6000AF909F908F907F906F905F904F9008957B
:100F7000CF939DEC899F912D1124969596959695EA
:100F8000292F220F220F290F220F982F921BC92FD2
:100F9000C62B29F480E233DD8C2FCF91089580E3B6
:100FA000890F2DDDC1E08C2FCF910895CF93C9E239
:100FB0008C9FC12D1124C295CF7094E6C99F8019D2
:100FC0001124C82F8A3098F480E219DD8DECC89F77
:100FD000812D1124869586958695982F990F990FC6
:100FE000890F880FC81B8C2F805DCF9108CD8DECA9
:100FF000C89F812D1124869586958695805DFFDC9E
:10100000E5CF1F93CF93DF9300D000D0CDB7DEB7ED
:10101000AC019C01369527953695279536952795F1
:10102000A5ECB0E2A2D4929582958F7089279F702B
:10103000892768EE73E0869F9001879F300D969F09
:10104000300D1124421B530B9A0136952795369586
:101050002795ABE7B4E189D4BC017695679524E682
:10106000269FC001279F900D11249A01281B390B40
:10107000822F8F70922F92959F70980F832F8F7071
:10108000980F832F82958F70980F4DEC949F412D70
:101090001124842F869586954C77840F981B291BE5
:1010A0003109EDECFCEC2E9FA0012F9F500D3E9FCF
:1010B000500D11244B835C8325E030E040FF20E09D
:1010C000A901490F511D49835A838B819C819695B3
:1010D00087958B839C831B81611107C080E28FDC25
:1010E000111106C080E28BDC06C080E3860F87DC2E
:1010F0008B81805D84DC8981805D0F900F900F90E3
:101100000F90DF91CF911F917ACCFF920F931F9395
:10111000CF93DF9300D000D00F92CDB7DEB7FC01A4
:101120009C01329522952F7023273F702327A7E437
:10113000B3E01BD496958795969587959695879558
:1011400040E157E2849F9001859F300D949F300DC0
:101150001124E21BF30B9F013695279536952795B1
:1011600036952795A5ECB0E200D4AC015295429596
:101170004F7045275F70452728EE33E0429FC0013E
:10118000439F900D529F900D1124E81BF90B9F0176
:101190003695279536952795ABE7B4E1E6D39C01C4
:1011A000369527952C833D8324E66C817D81269F8F
:1011B000C001279F900D1124E81BF90BFC808E2F96
:1011C0008F709E2F92959F70980F8F2F8F70980F12
:1011D0008F2F82958F70980F8DEC989F812D112401
:1011E000682F669566958C77860F981B9F01291B43
:1011F0003109EDECFCEC2E9F80012F9F100D3E9FDE
:10120000100D112425E030E000FF20E0B901690F46
:10121000711D69837A83169507950B8341110CC064
:1012200080E2EDDBF1100BC080E2E9DB7B81711124
:1012300009C080E2E4DB09C080E3840FE0DB8C813D
:10124000805DDDDB80E3800FDADB8981805D0F90DC
:101250000F900F900F900F90DF91CF911F910F91F2
:10126000FF90CDCB8FEF8ABB1BBA87BB88BB9FE0BB
:1012700094BB20EF25BB11BA82BB22B993B910925F
:1012800061001092620080936400109265000895DE
:10129000883048F498B321E001C0220F8A95EAF71C
:1012A0002095292328BB0895883040F498B321E085
:1012B00001C0220F8A95EAF7922B98BB08958830D7
:1012C00040F498B321E001C0220F8A95EAF79227F3
:1012D00098BB0895809588BB08958FEF88BB0895CB
:1012E00018BA0895883010F080E0089520B330E0F7
:1012F00002C0359527958A95E2F72095822F817057
:10130000089580B38095089506C08FE39CE9019706
:10131000F1F700C0000080B38F3FB9F780B38F3F73
:1013200049F48FE39CE90197F1F700C0000080B316
:101330008F3FB9F39FEF20E782E09150204080403B
:10134000E1F700C000000895811579F080959FEFC6
:1013500098BB2FEF39E648E1215030404040E1F79B
:1013600000C0000091508913F3CF0895811509F44E
:101370005DC020E09FEF98BBC0983FEF43EC59E081
:10138000315040405040E1F700C0000098BBC19888
:101390003FEF43EC59E0315040405040E1F700C08E
:1013A000000098BBC2983FEF43EC59E031504040F9
:1013B0005040E1F700C0000098BBC3983FEF43ECFA
:1013C00059E0315040405040E1F700C0000098BB68
:1013D000C4983FEF43EC59E0315040405040E1F7B2
:1013E00000C0000098BBC5983FEF43EC59E0315076
:1013F00040405040E1F700C0000098BBC6983FEF66
:1014000043EC59E0315040405040E1F700C000004B
:1014100098BBC7983FEF43EC59E0315040405040F3
:10142000E1F700C000002F5F8213A5CF089581155A
:1014300009F4AAC020E09FEF98BBC0983FEF42E5B7
:1014400057E0315040405040E1F700C0000098BBE9
:10145000C1983FEF42E557E0315040405040E1F73E
:1014600000C0000098BBC2983FEF42E557E0315002
:1014700040405040E1F700C0000098BBC3983FEFE8
:1014800042E557E0315040405040E1F700C00000D5
:1014900098BBC4983FEF42E557E031504040504080
:1014A000E1F700C0000098BBC5983FEF42E557E068
:1014B000315040405040E1F700C0000098BBC69852
:1014C0003FEF42E557E0315040405040E1F700C067
:1014D000000098BBC7983FEF42E557E031504040CD
:1014E0005040E1F700C0000098BBC6983FEF42E5CE
:1014F00057E0315040405040E1F700C0000098BB39
:10150000C5983FEF42E557E0315040405040E1F789
:1015100000C0000098BBC4983FEF42E557E031504F
:1015200040405040E1F700C0000098BBC3983FEF37
:1015300042E557E0315040405040E1F700C0000024
:1015400098BBC2983FEF42E557E0315040405040D1
:10155000E1F700C0000098BBC1983FEF42E557E0BB
:10156000315040405040E1F700C0000098BBC098A7
:101570003FEF42E557E0315040405040E1F700C0B6
:1015800000002F5F821358CF08958FEF88BBC0985B
:101590002FEF35EA9EE0215030409040E1F700C047
:1015A000000088BBC1982FEF35EA9EE02150304003
:1015B0009040E1F700C0000088BBC2982FEF35EAE9
:1015C0009EE0215030409040E1F700C0000088BB11
:1015D000C3982FEF35EA9EE0215030409040E1F76C
:1015E00000C0000088BBC4982FEF35EA9EE0215070
:1015F00030409040E1F700C0000088BBC5982FEF55
:1016000035EA9EE0215030409040E1F700C00000F4
:1016100088BBC6982FEF35EA9EE0215030409040BD
:10162000E1F700C0000088BBC7982FEF35EA9EE0C5
:10163000215030409040E1F700C0000088BB089581
:1016400009C02FEF80E792E0215080409040E1F701
:1016500000C0000080B388BB8111F3CF8FEF88BB3F
:101660000895F894FFDD789408958FB787FB882755
:1016700080F90895F894F6DDCAD878940895505802
:10168000BB27AA270ED0E0C0D1D030F0D6D020F0B2
:1016900031F49F3F11F41EF4C6C00EF4E095E7FB51
:1016A000BCC0E92FE2D080F3BA1762077307840742
:1016B000950718F071F49EF5FAC00EF4E0950B2E24
:1016C000BA2FA02D0B01B90190010C01CA01A00194
:1016D0001124FF27591B99F0593F50F4503E68F1EF
:1016E0001A16F040A22F232F342F4427585FF3CF30
:1016F000469537952795A795F0405395C9F77EF401
:101700001F16BA0B620B730B840BBAF09150A1F049
:10171000FF0FBB1F661F771F881FC2F70EC0BA0FCF
:10172000621F731F841F48F4879577956795B79557
:10173000F7959E3F08F0B3CF9395880F08F099274F
:10174000EE0F97958795089598D088F09F5790F061
:10175000B92F9927B751A0F0D1F0660F771F881FD6
:10176000991F1AF0BA95C9F712C0B13081F09FD015
:10177000B1E008959CC0672F782F8827B85F39F0B3
:10178000B93FCCF3869577956795B395D9F73EF435
:1017900090958095709561957F4F8F4F9F4F0895DD
:1017A000E89409C097FB3EF49095809570956195FB
:1017B0007F4F8F4F9F4F9923A9F0F92F96E9BB27B1
:1017C0009395F695879577956795B795F111F8CF2D
:1017D000FAF4BB0F11F460FF1BC06F5F7F4F8F4F98
:1017E0009F4F16C0882311F096E911C0772321F08E
:1017F0009EE8872F762F05C0662371F096E8862F26
:1018000070E060E02AF09A95660F771F881FDAF77C
:10181000880F9695879597F9089597F99F6780E8BF
:1018200070E060E008959FEF80EC089500240A9432
:101830001616170618060906089500240A941216AB
:101840001306140605060895092E0394000C11F4DE
:10185000882352F0BB0F40F4BF2B11F460FF04C08B
:101860006F5F7F4F8F4F9F4F089557FD9058440FE4
:10187000551F59F05F3F71F04795880F97FB991FEF
:1018800061F09F3F79F087950895121613061406AC
:10189000551FF2CF4695F1DF08C016161706180639
:1018A000991FF1CF86957105610508940895E89414
:1018B000BB2766277727CB0197F9089511F40EF41B
:1018C000B2CF3EC0DADFD0F39923D9F3CEF39F57DE
:1018D000550B87FF43D00024A0E640EA90018058D2
:1018E0005695979528F4805C660F771F881F20F027
:1018F00026173707480730F4621B730B840B202927
:1019000031294A2BA69517940794202531254A277B
:1019100058F7660F771F881F20F0261737074807EC
:1019200030F4620B730B840B200D311D411DA0950B
:1019300081F7B901842F9158880F9695879508955E
:101940009F3F31F0915020F4879577956795B79533
:10195000880F911D9695879597F90895915050405D
:10196000660F771F881FD2F70895A29FB001B39F1B
:10197000C001A39F700D811D1124911DB29F700D98
:10198000811D1124911D089597FB072E16F40094D4
:1019900006D077FD08D00BD007FC05D03EF490951B
:1019A00081959F4F0895709561957F4F0895AA1B6B
:1019B000BB1B51E107C0AA1FBB1FA617B70710F03A
:1019C000A61BB70B881F991F5A95A9F7809590956C
:1019D000BC01CD010895FB01DC014150504048F0AD
:1019E00005900D920020C9F701C01D924150504052
:0819F000E0F70895F894FFCF21
:0819F800010204081020400068
:00000001FF
