:100000000C9446000C9465000C9465000C946500FB
:100010000C9465000C9465000C9465000C946500CC
:100020000C9465000C9465000C9465000C946500BC
:100030000C9465000C9465000C9465000C946500AC
:100040000C9465000C9465000C9436060C946500C5
:100050000C9465000C9465000C9465000C9465008C
:100060000C9465000C9465000C9465000C9465007C
:100070000C9465000C9465000C94EB040C946500E2
:100080000C9465000C9465000C94650011241FBE4F
:10009000CFEFD0E1DEBFCDBF17E0A0E0B1E0E0E5FB
:1000A000F4E100E00BBF02C007900D92AE39B1073A
:1000B000D9F727E0AEE9B7E001C01D92AB3AB2072D
:1000C000E1F70E9451060C94260A0C94000087B3B5
:1000D000876087BBBB98C09A81E58DB908958FB9B9
:1000E000779BFECF8FB10895C09885E00E946F0086
:1000F0008FEF0E946F00C09A08950E94740080FFE5
:1001000005C088E18A95F1F700C0F7CF0895C0983F
:1001100086E00E946F00C09A0895C09884E00E9413
:100120006F00C09A0895CF93DF93EC010E947D0089
:10013000C09883E00E946F008D2F0E946F008C2F6B
:100140000E946F008FEF0E946F00C09ADF91CF91E5
:1001500008951F93CF93DF93D82F192FC62F0E9496
:100160007D000E948700C09882E00E946F00812F6E
:100170000E946F008D2F0E946F008C2F0E946F00D5
:10018000C09ADF91CF911F910C947D00EF92FF9266
:100190000F931F93CF93DF93EC017B018A010E94A1
:1001A0007D00C09883E00E946F008D2F0E946F0039
:1001B0008C2F0E946F00E7010E0D1F1DC017D10785
:1001C00029F08FEF0E946F008993F8CFC09ADF91DA
:1001D000CF911F910F91FF90EF900895EF92FF92B2
:1001E0000F931F93CF93DF93EC01062FE72E142F6D
:1001F000413408F010E40E947D000E948700C098FE
:1002000082E00E946F008D2F0E946F008C2F0E9451
:100210006F00F02EC02FDE2D8C2F8F19811720F448
:1002200089910E946F00F8CFC09ADF91CF911F9102
:100230000F91FF90EF900C947D007F928F929F9290
:10024000AF92BF92CF92DF92EF92FF920F931F93E4
:10025000CF93DF93CDB7DEB7C654D1090FB6F8946C
:10026000DEBF0FBECDBF8AE191E00E94800484E42E
:1002700091E00E94800489E691E00E94800400EAF7
:1002800010E021E8A22E21E0B22ECE0101967C01E1
:10029000680190E6C90ED11C602FC6010E94A9001A
:1002A0001F930F93DF92CF92BF92AF92FF92EF9284
:1002B0000E943D07C7010E9480040F5F1F4F0FB6C9
:1002C000F894DEBF0FBECDBF0A3A110509F78DE9DC
:1002D00091E00E94800400EA10E0712C86EDA82EC7
:1002E00081E0B82E96EB892E91E0992E680190E678
:1002F000C90ED11CC6010E94930080130BC01F932E
:100300008F93DF92CF929F928F92FF92EF920E94F3
:100310003D070DC01F930F931F928F93DF92CF92D3
:10032000BF92AF92FF92EF920E943D0773940FB677
:10033000F894DEBF0FBECDBFC7010E9480040F5FDF
:100340001F4F0A3A110591F6711007C088E092E03C
:100350000E9480048FE085BB15C01F927F9282E2CD
:1003600092E09F938F93FF92EF920E943D07C70107
:100370000E94800480EF85BB0F900F900F900F902C
:100380000F900F908EE392E00E9480040E948C04F4
:10039000CA5BDF4F0FB6F894DEBF0FBECDBFDF9153
:1003A000CF911F910F91FF90EF90DF90CF90BF9072
:1003B000AF909F908F907F9008957F928F929F92A1
:1003C000AF92BF92CF92DF92EF92FF920F931F9363
:1003D000CF93DF93CDB7DEB7CC5BD1090FB6F894DE
:1003E000DEBF0FBECDBF8DE592E00E94800481E8A4
:1003F00092E00E9480048FE992E00E9480045E01F6
:1004000081E4A80EB11CF50180E081938F5F8034F8
:10041000E1F78BEB92E00E9480040CB51DB540E43F
:10042000B50180E092E00E94EE008CB59DB5801B86
:10043000910B9F938F938FED92E09F938F938E01FB
:100440000F571F4F1F930F930E943D07C8010E9433
:10045000800488E093E00E94800440E450E0BE0104
:100460006F5F7F4F80E092E00E94C600FE013196F0
:100470006F010F900F900F900F900F900F90E12C45
:10048000F12C712C8EE1882E83E0982EF60181915B
:100490006F01F50191915F018917A9F073941F9283
:1004A0009F931F928F93FF92EF929F928F921F9331
:1004B0000F930E943D07C8010E9480040FB6F89474
:1004C000DEBF0FBECDBF9FEFE91AF90AE0E4EE16DA
:1004D000F104E1F6711005C087E493E00E94800406
:1004E00013C01F927F928BE793E09F938F931F938C
:1004F0000F930E943D07C8010E9480040F900F9047
:100500000F900F900F900F908EE392E00E94800466
:100510000E948C04C454DF4F0FB6F894DEBF0FBEA8
:10052000CDBFDF91CF911F910F91FF90EF90DF90A2
:10053000CF90BF90AF909F908F907F900895AF9293
:10054000BF92CF92DF92EF92FF920F931F93CF93C0
:10055000DF93CDB7DEB7C05DD1090FB6F894DEBF2B
:100560000FBECDBF84EA93E00E94800484ED93E047
:100570000E94800489EF93E00E948004ACB4BDB473
:10058000E12CF12C89E1C82E84E0D82E8E010F5782
:100590001F4F40E850E0BE016F5F7F4FC7010E94D0
:1005A000C600C70181589F4F9F938F93FF92EF9290
:1005B000DF92CF921F930F930E943D07C8010E94C4
:1005C000800480E8E80EF11C0FB6F894DEBF0FBE81
:1005D000CDBFE11494E0F906E1F62CB53DB5790103
:1005E000EA18FB08FF92EF9282E394E09F938F93C7
:1005F0001F930F930E943D07C8010E94800497013A
:1006000040E050E060E070E080E092EC0E94FC0688
:100610005F934F933F932F9386E594E09F938F933F
:100620001F930F930E943D07C8010E9480048EE330
:1006300092E00E9480040E948C040FB6F894DEBF02
:100640000FBECDBFC053DF4F0FB6F894DEBF0FBE55
:10065000CDBFDF91CF911F910F91FF90EF90DF9071
:10066000CF90BF90AF9008952F923F924F925F929C
:100670006F927F928F929F92AF92BF92CF92DF92B2
:10068000EF92FF920F931F93CF93DF93CDB7DEB717
:10069000A9970FB6F894DEBF0FBECDBF89E794E0EF
:1006A0000E94800481EA94E00E9480048FEB94E031
:1006B0000E9480047E0185E2E80EF11C6E0199E241
:1006C000C90ED11C870137010E948C04F801819367
:1006D0008F010E947904C016D106B1F719A600E077
:1006E00010E024E0000F111F2A95E1F7F701819136
:1006F0007F0190ED980F9A3028F4082E000C990B8A
:10070000C09712C09FEB980F963028F4082E000C6B
:10071000990BC79709C09FE9980F963038F4082EB7
:10072000000C990B87559109082B192BEC14FD042B
:10073000C1F689EE94E00E9480041F930F9380E13C
:1007400095E09F938F93CE0101967C019F938F93A9
:100750000E943D07C7010E94800485E195E00E9448
:1007600080040F900F900F900F900F900F90C12C5E
:10077000D12C8BE1282E85E0382E92E2492E95E08F
:10078000592E5801AC0CBD1CBF92AF923F922F92D4
:10079000FF92EF920E943D07C7010E94800440E152
:1007A00050E0BE016B5E7F4FC5010E94C600FE0196
:1007B00075965F010F900F900F900F900F900F9014
:1007C0004F01F40181914F011F928F935F924F92DD
:1007D000FF92EF920E943D07C7010E9480040F9094
:1007E0000F900F900F900F900F906814790449F7B5
:1007F00088E295E00E948004F50181915F0190EE0E
:10080000980F9F3508F08EE20E947904A614B70471
:1008100099F78BE295E00E948004F0E1CF0ED11CA5
:10082000C11481E0D80609F0ACCF8EE392E00E94BB
:1008300080040E948C04A9960FB6F894DEBF0FBE08
:10084000CDBFDF91CF911F910F91FF90EF90DF907F
:10085000CF90BF90AF909F908F907F906F905F9060
:100860004F903F902F90089586E195E00E9480047C
:100870008FE295E00E94800480EB95E00E94800466
:1008800080EE95E00E94800488E195E00E9480045B
:1008900081E696E00E94800480E796E00E94800452
:1008A0008EE896E00E94800481EB96E00E9480042E
:1008B00085ED96E00E94800488E195E00E94800426
:1008C00081EF96E00C94800410929B0086E0809368
:1008D0009D0088E980939A008FE290E09093A807AA
:1008E0008093A707109298008091A70780939900A2
:1008F000089590919B0095FFFCCF80939C000895F4
:10090000CF93DF93EC018991882319F00E94790439
:10091000FACFDF91CF91089580919B0087FFFCCFA4
:1009200080919C0008950F931F93CF93DF9300D085
:1009300000D000D0CDB7DEB79F938F9386E997E0C4
:100940009F938F938E010F5F1F4F1F930F930E94F2
:100950003D07C8010E9480040F900F900F900F90E8
:100960000F900F9026960FB6F894DEBF0FBECDBF46
:10097000DF91CF911F910F9108950F931F93CF9304
:10098000DF9300D01F92CDB7DEB71F928F9389E916
:1009900097E09F938F938E010F5F1F4F1F930F93CD
:1009A0000E943D07C8010E9480040F900F900F9095
:1009B0000F900F900F900F900F900F90DF91CF91AD
:1009C0001F910F91089587E191E00C9480040E949B
:1009D0008C040C9479041F920F920FB60F9211247D
:1009E0008F9380919C008093A30781E08093A2075E
:1009F0008091A3078093A6078F910F900FBE0F9051
:100A00001F9018958091A207882319F01092A207D1
:100A100081E008958091A3070895CF93DF9360E16B
:100A200077E20E94D406EC01FB01E050FF4F808189
:100A30000E947904CE0168EE73E00E94D406EC01B6
:100A4000FB01E050FF4F80810E947904CE0164E6F3
:100A500070E00E94D406EC01FB01E050FF4F808162
:100A60000E947904CE016AE070E00E94D406EC0195
:100A7000FB01E050FF4F80810E947904C050DF4F9E
:100A80008881DF91CF910C947904CF9364E60E9422
:100A9000C806C92FE82FF0E0E050FF4F80810E9488
:100AA00079048C2F6AE00E94C806C92FE82FF0E075
:100AB000E050FF4F80810E947904EC2FF0E0E0507D
:100AC000FF4F8081CF910C947904CF93DF93EC0199
:100AD00097FD02C08BE204C0D195C195D1098DE28A
:100AE0000E947904CE0160E177E20E94E806EC0101
:100AF000FB01E050FF4F80810E947904CE0168EE37
:100B000073E00E94E806EC01FB01E050FF4F80819A
:100B10000E947904CE0164E670E00E94E806EC01D0
:100B2000FB01E050FF4F80810E947904CE016AE012
:100B300070E00E94E806EC01FB01E050FF4F80816D
:100B40000E947904C050DF4F8881DF91CF910C94CF
:100B500079044F925F926F927F928F929F92AF92A1
:100B6000BF92CF92DF92EF92FF920F931F93CF939A
:100B7000DF934B015C01C9E0D0E0C12C9AECD92E87
:100B80009AE9E92E9BE3F92E2AE0422E512C612CA2
:100B9000712C8C149D04AE04BF0454F4C701B6013B
:100BA000A30192010E941E0769017A01219789F72A
:100BB0008AE0482E512C612C712C1C141D041E043B
:100BC0001F04DCF4C501B401A70196010E941E07B1
:100BD0008B01D82FC92FF901E050FF4F80810E946F
:100BE00079044801AD2EBC2EC701B601A3019201C4
:100BF0000E941E0769017A01E0CFDF91CF911F911A
:100C00000F91FF90EF90DF90CF90BF90AF909F90AB
:100C10008F907F906F905F904F900895CF93C82FE3
:100C2000E82FE295EF70F0E0E050FF4F80810E94E6
:100C30007904CF70EC2FF0E0E050FF4F8081CF912E
:100C40000C947904E82FE295EF70F0E0E050FF4F4C
:100C5000208130E0322F2227E82FEF70F0E0E050C3
:100C6000FF4F8081A901482BCA0108951F920F925E
:100C70000FB60F9211248F93CF93DF931F92CDB7AE
:100C8000DEB78CB1898389810F90DF91CF918F91ED
:100C90000F900FBE0F901F90189508950895089516
:100CA0000895CF93DF93CDB7DEB7EC970FB6F894E6
:100CB000DEBF0FBECDBF0E9464040E94670081E0CA
:100CC0008EBD8FEF84BB15BA2FEF8FE39BE02150D1
:100CD00080409040E1F700C0000089E097E00E946A
:100CE000800480E397E00E94800481E597E00E9401
:100CF00080040E9474001F928F9387E697E09F9371
:100D00008F938E010F5F1F4F1F930F930E943D071C
:100D1000C8010E9480040F900F900F900F900F90C9
:100D20000F900E9434040E948C04182F0E947904B2
:100D300088E195E00E948004123369F028F41133B1
:100D400081F40E941D011AC0133341F0143349F499
:100D50000E94340313C00E94DD0110C00E949F0254
:100D60000DC081E897E00E9480042FEF8FE796E1A5
:100D7000215080409040E1F700C000002FEF8FE34A
:100D80009BE0215080409040E1F700C00000C9CFB7
:100D9000991B79E004C0991F961708F0961B881FCD
:100DA0007A95C9F780950895AA1BBB1B51E107C02E
:100DB000AA1FBB1FA617B70710F0A61BB70B881FEB
:100DC000991F5A95A9F780959095BC01CD0108957A
:100DD00097FB072E16F4009407D077FD09D00E94E8
:100DE000D40607FC05D03EF4909581959F4F089559
:100DF000709561957F4F0895A1E21A2EAA1BBB1B27
:100E0000FD010DC0AA1FBB1FEE1FFF1FA217B307D6
:100E1000E407F50720F0A21BB30BE40BF50B661FEC
:100E2000771F881F991F1A9469F7609570958095B0
:100E300090959B01AC01BD01CF010895052E97FB54
:100E40001EF400940E94350757FD07D00E94FC064F
:100E500007FC03D04EF40C9435075095409530951F
:100E600021953F4F4F4F5F4F089590958095709516
:100E700061957F4F8F4F9F4F08950F931F93CF938F
:100E8000DF93CDB7DEB72E970FB6F894DEBF0FBE57
:100E9000CDBF0D891E8986E08C831A8309838FEF6D
:100EA0009FE79E838D83AE01475E5F4F6F89788D8C
:100EB000CE0101960E946C07EF81F885E00FF11FCB
:100EC00010822E960FB6F894DEBF0FBECDBFDF9115
:100ED000CF911F910F9108952F923F924F925F9261
:100EE0006F927F928F929F92AF92BF92CF92DF923A
:100EF000EF92FF920F931F93CF93DF93CDB7DEB79F
:100F00002B970FB6F894DEBF0FBECDBF6C017B01EF
:100F10008A01FC0117821682838181FFCCC1CE0138
:100F200001963C01F6019381F70193FD859193FFB2
:100F300081917F01882309F4BAC1853239F493FD88
:100F4000859193FF81917F01853229F4B60190E06C
:100F50000E948C09E7CF912C212C312CFFE1F31555
:100F6000D8F08B3279F038F4803279F08332A1F402
:100F7000232D20611DC08D3261F0803369F4232D53
:100F8000216016C0832D8260382EE32DE4603E2E52
:100F90002AC0F32DF8601DC037FC2DC020ED280FAE
:100FA0002A3040F08E32B9F436FC81C1232D206402
:100FB000322E19C036FE06C08AE0989E200D1124FC
:100FC000922E11C0EAE02E9E200D1124222EF32D28
:100FD000F0623F2E08C08C3621F4832D8068382EB5
:100FE00002C0883641F4F70193FD859193FF81910A
:100FF0007F018111B3CF982F9F7D9554933028F4B2
:101000000C5F1F4F9FE399830DC0833631F0833708
:1010100071F0833509F059C021C0F80180818983BE
:101020000E5F1F4F88248394912C530113C0280115
:10103000F2E04F0E511CF801A080B18036FE03C0D3
:10104000692D70E002C06FEF7FEFC5010E9481093A
:101050004C018201F32DFF773F2E16C0280122E0BC
:10106000420E511CF801A080B18036FE03C0692DEC
:1010700070E002C06FEF7FEFC5010E9476094C015E
:10108000F32DF0683F2E820133FC1BC0822D90E0CF
:1010900088169906B0F4B60180E290E00E948C09AF
:1010A0002A94F4CFF50137FC859137FE81915F01D9
:1010B000B60190E00E948C0921102A9421E0821A46
:1010C00091088114910471F7E8C0843611F08936D3
:1010D00041F5F80137FE07C06081718182819381FB
:1010E0000C5F1F4F08C060817181072E000C880BB8
:1010F000990B0E5F1F4FF32DFF763F2E97FF09C010
:1011000090958095709561957F4F8F4F9F4FF068B8
:101110003F2E2AE030E0A3010E94C809882E8618DD
:1011200045C0853731F4232D2F7EB22E2AE030E0E2
:1011300025C0932D997FB92E8F36C1F018F48835CC
:1011400079F0B5C0803719F0883721F0B0C0E92FA9
:10115000E061BE2EB4FE0DC0FB2DF460BF2E09C0B1
:1011600034FE0AC0292F2660B22E06C028E030E0E7
:1011700005C020E130E002C020E132E0F801B7FE16
:1011800007C060817181828193810C5F1F4F06C00F
:101190006081718180E090E00E5F1F4FA3010E948B
:1011A000C809882E8618FB2DFF773F2E36FE0DC00E
:1011B000232D2E7FA22E891458F434FE0BC032FC4E
:1011C00009C0832D8E7EA82E05C0B82CA32C03C089
:1011D000B82C01C0B92CA4FE0FC0FE01E80DF11D12
:1011E0008081803321F49A2D997EA92E09C0A2FE18
:1011F00006C0B394B39404C08A2D867809F0B394E2
:10120000A3FC11C0A0FE06C0B21488F4280C922CD6
:101210009B180EC0B21460F4B60180E290E00E9408
:101220008C09B394F7CFB21418F42B1802C0982C81
:10123000212CA4FE10C0B60180E390E00E948C092E
:10124000A2FE17C0A1FC03C088E790E002C088E5B9
:1012500090E0B6010CC08A2D867859F0A1FE02C03C
:101260008BE201C080E2A7FC8DE2B60190E00E9413
:101270008C09891438F4B60180E390E00E948C094F
:101280009A94F7CF8A94F301E80DF11D8081B6019D
:1012900090E00E948C098110F5CF222009F442CE03
:1012A000B60180E290E00E948C092A94F6CFF60104
:1012B0008681978102C08FEF9FEF2B960FB6F8942F
:1012C000DEBF0FBECDBFDF91CF911F910F91FF9079
:1012D000EF90DF90CF90BF90AF909F908F907F90D6
:1012E0006F905F904F903F902F900895FC01059074
:1012F000615070400110D8F7809590958E0F9F1F18
:101300000895FC016150704001900110D8F780955C
:1013100090958E0F9F1F08950F931F93CF93DF9388
:10132000FB01238121FD03C08FEF9FEF2CC022FF23
:1013300016C046815781248135814217530744F4F2
:10134000A081B1819D012F5F3F4F318320838C931A
:10135000268137812F5F3F4F3783268314C08B014F
:10136000EC01FB010084F185E02D0995892BE1F664
:10137000D80116968D919C911797019617969C937C
:101380008E931697CE01DF91CF911F910F91089503
:10139000FA01AA27283051F1203181F1E8946F93A6
:1013A0006E7F6E5F7F4F8F4F9F4FAF4FB1E03ED04C
:1013B000B4E03CD0670F781F891F9A1FA11D680FEA
:1013C000791F8A1F911DA11D6A0F711D811D911D1D
:1013D000A11D20D009F468943F912AE0269F112492
:1013E0003019305D3193DEF6CF010895462F4770F6
:1013F000405D4193B3E00FD0C9F7F6CF462F4F7051
:10140000405D4A3318F0495D31FD4052419302D0AE
:10141000A9F7EACFB4E0A695979587957795679554
:10142000BA95C9F700976105710508959B01AC0154
:101430000A2E06945795479537952795BA95C9F77B
:10144000620F731F841F951FA01D0895F894FFCF8E
:1014500030313233343536373839414243444546EA
:1014600009000D0A0009000D0A000D0A3D3D3D204E
:1014700044454D4F20313A204261736963205265E3
:1014800061642F57726974652054657374203D3D03
:101490003D0D0A0057726974696E6720616E6420A1
:1014A00072656164696E672073696E676C6520623E
:1014B000797465730D0A0D0A0057726974696E6755
:1014C00020746573742062797465732E2E2E0D0A54
:1014D00000202041646472657373203078253034B5
:1014E00058203D203078253032580D0A000D0A5220
:1014F000656164696E67206261636B206461746119
:101500002E2E2E0D0A002020416464726573732014
:10151000307825303458203D20307825303258201E
:10152000E29C930D0A00202041646472657373206D
:10153000307825303458203D2030782530325820FE
:10154000286578706563746564203078253032587A
:101550002920E29C970D0A000D0AE29C9320416C21
:101560006C20746573747320706173736564210DEE
:101570000A000D0AE29C97202575206572726F7231
:1015800073206465746563746564210D0A000D0A37
:10159000507265737320616E79206B657920746F6A
:1015A00020636F6E74696E75652E2E2E000D0A3DD8
:1015B0003D3D2044454D4F20323A20506167652023
:1015C00057726974652054657374203D3D3D0D0A62
:1015D0000057726974696E672066756C6C203634CA
:1015E0002D6279746520706167650D0A0D0A0050DF
:1015F0007265706172696E672074657374207061C2
:10160000747465726E2E2E2E0D0A005772697469FD
:101610006E67207061676520746F20616464726515
:101620007373203078303230302E2E2E0D0A005059
:1016300061676520777269746520636F6D706C6592
:1016400074656420696E2025752074696D6572204B
:101650007469636B730D0A000D0A566572696679C9
:10166000696E6720646174612E2E2E0D0A002020A1
:10167000427974652025753A20476F7420307825AB
:101680003032582C2045787065637465642030785A
:10169000253032580D0A00E29C9320506167652086
:1016A0007772697465207375636365737366756CAF
:1016B0002120416C6C203634206279746573207669
:1016C000657269666965642E0D0A00E29C97205078
:1016D000616765207772697465206661696C65640D
:1016E000212025752062797465206572726F72738E
:1016F0002E0D0A000D0A3D3D3D2044454D4F20333F
:101700003A2053657175656E7469616C205265612C
:101710006420506572666F726D616E6365203D3D39
:101720003D0D0A0052656164696E6720314B4220AD
:101730006F6620646174612073657175656E74698C
:10174000616C6C790D0A0D0A0052656164696E67FF
:1017500020696E203132382D627974652063687596
:101760006E6B732E2E2E0D0A0020205265616420B0
:10177000627974657320253475202D202534750D0C
:101780000A000D0A546F74616C20726561642074E4
:10179000696D653A2025752074696D6572207469DC
:1017A000636B730D0A005472616E7366657220720A
:1017B0006174653A207E256C752062797465732F9B
:1017C0007365636F6E640D0A000D0A3D3D3D204454
:1017D000454D4F20343A204D656D6F727920447528
:1017E0006D70205574696C697479203D3D3D0D0A1A
:1017F000004865782064756D70206F6620454550FF
:10180000524F4D20636F6E74656E74730D0A004500
:101810006E746572207374617274206164647265A1
:10182000737320696E206865782028652E672E2CDA
:101830002030313030293A20000D0A0D0A44756DF0
:1018400070696E6720323536206279746573207353
:1018500074617274696E672066726F6D20307800F3
:1018600025303458003A0D0A0D0A00253034583A14
:101870002000253032582000207C007C0D0A00E238
:101880009594E29590E29590E29590E29590E2959C
:1018900090E29590E29590E29590E29590E2959095
:1018A000E29590E29590E29590E29590E29590E233
:1018B0009590E29590E29590E29590E29590E29570
:1018C00090E29590E29590E29590E29590E2959065
:1018D000E29590E29590E29590E29590E29590E203
:1018E0009590E29590E29590E29590E29590E29540
:1018F00090E29590E29590E29590E295970D0A001E
:10190000E2959120202053504920454550524F4D9B
:10191000202832354C4332353629202D2041546D54
:1019200065676131323820202020E295910D0A0050
:10193000E2959AE29590E29590E29590E29590E298
:101940009590E29590E29590E29590E29590E295DF
:1019500090E29590E29590E29590E29590E29590D4
:10196000E29590E29590E29590E29590E29590E272
:101970009590E29590E29590E29590E29590E295AF
:1019800090E29590E29590E29590E29590E29590A4
:10199000E29590E29590E29590E29590E29590E242
:1019A0009590E29590E29590E29590E2959D0D0AD2
:1019B0000053656C6563742044656D6F3A0D0A00D1
:1019C00020205B315D204261736963205265616450
:1019D0002F577269746520546573740D0A002020B6
:1019E0005B325D20506167652057726974652054D1
:1019F00065737420283634206279746573290D0A62
:101A00000020205B335D2053657175656E746961DC
:101A10006C205265616420506572666F726D616EF4
:101A200063650D0A0020205B345D204D656D6F728B
:101A3000792044756D70205574696C6974790D0A4C
:101A400000456E7465722073656C656374696F6EB2
:101A50002028312D34293A20000D0A0D0A2A2A2A7D
:101A60002053504920454550524F4D204D656D6FD4
:101A700072792053797374656D202A2A2A0D0A0021
:101A800032354C433235362045787465726E616C60
:101A900020454550524F4D202833324B42290D0AE4
:101AA00000506167652073697A653A203634206298
:101AB000797465730D0A00537461747573205265EF
:101AC0006769737465723A203078253032580D0A90
:101AD00000496E76616C69642073656C6563746936
:0E1AE0006F6E210D0A0025750025303258006A
:00000001FF
