:100000000C9446000C9465000C9465000C946500FB
:100010000C9465000C9465000C9465000C946500CC
:100020000C9465000C9465000C9465000C946500BC
:100030000C9465000C9465000C9465000C946500AC
:100040000C9465000C9465000C9480070C9465007A
:100050000C9465000C9465000C9465000C9465008C
:100060000C9465000C9465000C9465000C9465007C
:100070000C9465000C9465000C9435060C94650096
:100080000C9465000C9465000C94650011241FBE4F
:10009000CFEFD0E1DEBFCDBF17E0A0E0B1E0E6EDED
:1000A000F6E100E00BBF02C007900D92AC30B10743
:1000B000D9F727E0ACE0B7E001C01D92AB31B20741
:1000C000E1F70E949B070C94690B0C940000E5E695
:1000D000F0E080818260808382E08A95F1F700C041
:1000E00080818D7F80838BE78A95F1F70895E5E61F
:1000F000F0E020818F7034E0839FC0011124237CC5
:10010000822B80830C946700CF93C82F8091650069
:10011000662311F0816001C08E7F809365008C2F73
:1001200082958F700E9477008C2F8F700E947700CD
:100130008BE78A95F1F7CF910895CF93C82F60E0B0
:100140000E948400C13029F486E69EE00197F1F711
:100150000000CF91089561E00C948400E4E6F0E0A3
:1001600080818F6380832FEF8FE191E02150804069
:100170009040E1F700C00000E5E6F0E080818E7F6E
:10018000808383E00E9477008FEF93E20197F1F77D
:1001900000C0000083E00E94770084E191E00197B5
:1001A000F1F7000083E00E94770084E191E001977D
:1001B000F1F7000082E00E94770084E191E001976E
:1001C000F1F7000088E20E949D008CE00E949D00F3
:1001D00081E00E949D0086E00C949D0081E00C94DB
:1001E0009D008111605C862F80680C949D00CF93E8
:1001F000DF93EC018991882319F00E94AB00FACFBC
:10020000DF91CF910895CF93DF93EA010E94F1002F
:10021000CE01DF91CF910C94F7008FE08ABB8FEF76
:100220008BBB089580E090E061E070E02BB32F601D
:100230002BBB3BB3AB01082E01C0440F0A94EAF775
:10024000242F209523232BBB2CE02A95F1F70000C7
:1002500049B3407F20E030E050E0F9013496DA0104
:1002600002C0B595A795EA95E2F7A0FD0BC0880FEF
:10027000991F880F991F865E9E4FFC01E20FF31FA6
:10028000808108952F5F3F4F2430310531F701966B
:100290008430910559F680E00895CF930E941201B1
:1002A000C82F8823D9F38FEF9FE80197F1F700C09B
:1002B00000000E941201882329F08FEF97E4019734
:1002C000F1F7F5CF8FEF9FE80197F1F700C000003D
:1002D0008C2FCF9108956F927F928F929F92AF92C1
:1002E000BF92CF92DF92EF92FF920F931F93CF9323
:1002F000DF93CDB7DEB764970FB6F894DEBF0FBEBD
:10030000CDBF8AE291E00E94CA0582E591E00E9499
:10031000CA058DE691E00E94CA050E94EE0043E8FE
:1003200051E060E080E00E94030100E010E082E91B
:10033000A82E81E0B82E9E012F5F3F4F790192EAEF
:10034000892E91E0992E66246A940E941201782EDB
:10035000882309F45AC080910D07781609F458C013
:100360000F5F1F4F1F930F93C72C072C000CDD0846
:10037000DF927F92BF92AF92FF92EF920E9480082D
:10038000A70160E081E00E9403011F930F93DF92B9
:100390007F929F928F92FF92EF920E948008C701F6
:1003A0000E94CA0580ED870D0FB6F894DEBF0FBE20
:1003B000CDBF8A3010F485BB01C065BA70920D07BD
:1003C00034E4731225C08FEF9FE32BE081509040FF
:1003D0002040E1F700C0000082EC91E00E94CA05D5
:1003E00064960FB6F894DEBF0FBECDBFDF91CF91FC
:1003F0001F910F91FF90EF90DF90CF90BF90AF9043
:100400009F908F907F906F90089510920D0715BA6E
:100410008FEF97E40197F1F700C0000096CF2F927D
:100420003F924F925F926F927F928F929F92AF9284
:10043000BF92CF92DF92EF92FF920F931F93CF93D1
:10044000DF93CDB7DEB7A5970FB6F894DEBF0FBE2A
:10045000CDBF86ED91E00E94CA058EEF91E00E942B
:10046000CA0581E1E0EFF2E0DE01559601900D92C0
:100470008A95E1F70E94EE004DE252E060E080E0F4
:100480000E9403011F9280E18F931F9281E08F935E
:100490001F9281E38F9389E392E09F938F938E0164
:1004A0000F5F1F4F1F930F930E948008A80160E009
:1004B00081E00E9403010FB6F894DEBF0FBECDBFEE
:1004C000512C59E4652E52E0752E6DEEA62E62E099
:1004D000B62E70E1272EE9E3CE2EE2E0DE2E0E945A
:1004E0004D01382EE52CF12CE5E1F0E0EC0FFD1F7D
:1004F000EE0DFF1D4080842C042C000C99089F9267
:100500004F92832D032C000C990B9F933F927F9267
:100510006F921F930F930E948008C8010E94CA0522
:100520000FB6F894DEBF0FBECDBF341075C089E69C
:1005300092E00E94CA055394852D90E04FEF549E9F
:100540009001112444E0359527954A95E1F725BBA4
:1005500020E152123CC00E94EE004AE752E060E007
:1005600080E00E94030149E852E060E081E00E94DF
:10057000030185E992E00E94CA058FEF85BB3FEF3A
:100580004FEF8CE2315040408040E1F700C0000066
:1005900081EB92E00E94CA050E944D01A5960FB61C
:1005A000F894DEBF0FBECDBFDF91CF911F910F91A9
:1005B000FF90EF90DF90CF90BF90AF909F908F9083
:1005C0007F906F905F904F903F902F9008951F9273
:1005D0002F929C012F5F3F4F3F932F93E5E1F0E077
:1005E000EC0FFD1FE80FF91F8081282F082E000C4B
:1005F000330B3F938F93DF92CF921F930F930E9401
:100600008008A80160E081E00E9403010FB6F89421
:10061000DEBF0FBECDBF63CF8EEC92E00E94CA0555
:100620000E94EE0041EE52E060E080E00E94030193
:100630009F924F92BF92AF921F930F930E94800898
:10064000A80160E081E00E9403010F900F900F90DD
:100650000F900F900F9083E03FEF35BB4FEF9FE37C
:1006600022E0415090402040E1F700C0000015BA60
:100670003FEF4FE392E0315040409040E1F700C03F
:100680000000815049F70E94EE004DE252E060E028
:1006900080E00E9403011F922F92C70101969F9351
:1006A0008F93E5E1F0E0EC0FFD1FEE0DFF1D808163
:1006B000282F082E000C330B3F938F93DF92CF929D
:1006C0001F930F930E948008A80160E081E00E94C0
:1006D00003010FB6F894DEBF0FBECDBF30E1531259
:1006E000FECE39CF5F926F927F928F929F92AF92A0
:1006F000BF92CF92DF92EF92FF920F931F93CF930F
:10070000DF93CDB7DEB7A4970FB6F894DEBF0FBE68
:10071000CDBF81E093E00E94CA0589E293E00E9488
:10072000CA058DE691E00E94CA050E94EE004EE4E3
:1007300053E060E080E00E94030166246394712C22
:10074000CE0101967C019EE6C92E93E0D92E2EE5BE
:10075000A22E23E0B22E6AE171E040E050E010E00A
:100760008BB38F608BBB9BB39301042E01C0220F10
:100770000A94EAF7822F809589238BBB9CE09A9597
:10078000F1F7000029B3207F84E090E030E0F90128
:10079000082E02C0F595E7950A94E2F7E0FD0DC03A
:1007A000A5E1B0E0AC0FBD1FA10FB11DFC01349756
:1007B000E60FF71FE081EC931F5F019688309105EB
:1007C00031F74F5F5F4F6C5F7F4F4430510541F60B
:1007D000112309F479C080EC0E949D001130E1F5ED
:1007E0000D89802F002E000C990B9F930F93BF92C1
:1007F000AF92FF92EF920E948008C7010E94F7001B
:100800000F900F900F900F900F900F90043409F0FD
:1008100056C0EFEFFFE32BE0E150F0402040E1F75E
:1008200000C0000082EC91E00E94CA05A4960FB6B9
:10083000F894DEBF0FBECDBFDF91CF911F910F9116
:10084000FF90EF90DF90CF90BF90AF909F908F90F0
:100850007F906F905F9008951F921F93DF92CF92C9
:10086000FF92EF920E948008C7010E94F70088E77C
:1008700093E00E94CA054E0185E1880E911C0F90FD
:100880000F900F900F900F900F9000E0F401519097
:100890004F01852D0E94AB00852D0E94C30580E28B
:1008A0000E94C3050F5F101711F0053079F789E832
:1008B00093E00E94F7008BE993E00E94CA0512952D
:1008C000110F107E15BB07C04EE853E060E081E0D9
:1008D0000E94030115BAFFEF2FE181E0F1502040A3
:1008E0008040E1F700C0000036CF3F924F925F9208
:1008F0006F927F928F929F92AF92BF92CF92DF9230
:10090000EF92FF920F931F93CF93DF93CDB7DEB794
:10091000C055D1090FB6F894DEBF0FBECDBF8FE929
:1009200093E00E94CA0587EC93E00E94CA0584EE1A
:1009300093E00E94CA050E94EE004AE054E060E0A5
:1009400080E00E9403018AE194E00E94CA05CC2461
:10095000C394D12CA12CB12C412C512C32018E01ED
:100960000F5F1F4F750184E6882E912C0E941201A3
:10097000382E882309F12FEFE21AF20A80EC0E9448
:100980009D00FF92EF92832D032C000C990B9F93F7
:100990003F928EE394E09F938F931F930F930E9457
:1009A0008008C8010E94F7008FEF85BB0FB6F8944E
:1009B000DEBF0FBECDBF02C091E095BB8FEF97E4C5
:1009C0000197F1F700C0000091E0891A910871F6D3
:1009D00024E6420E511C611C711CC7018A199B0937
:1009E0009F938F931F921F921F9294E6B92EBF92EE
:1009F000DF92CF928EE494E09F938F931F930F9397
:100A00000E948008C8010E94CA058FEFC81AD80A40
:100A10000FB6F894DEBF0FBECDBF94EF491691E03C
:100A200059066104710411F057019CCF1F921F9267
:100A30001F92BF921F921F9281E08F9384EF8F933A
:100A400081E794E09F938F931F930F930E948008F8
:100A5000C8010E94CA05FF92EF9287E994E09F9334
:100A60008F931F930F930E948008C8010E94CA05AC
:100A70000E94EE004AE752E060E080E00E9403013D
:100A80001F921F921F92BF928EEA94E09F938F93C2
:100A90001F930F930E948008A80160E081E00E94EC
:100AA00003012FEF8FEF9CE2215080409040E1F74F
:100AB00000C0000081EB92E00E94CA050E944D0137
:100AC0000FB6F894DEBF0FBECDBFC05BDF4F0FB6D1
:100AD000F894DEBF0FBECDBFDF91CF911F910F9174
:100AE000FF90EF90DF90CF90BF90AF909F908F904E
:100AF0007F906F905F904F903F90089588E292E0D2
:100B00000E94CA0589EB94E00E94CA058AE395E039
:100B10000E94CA0589E695E00E94CA058AE292E031
:100B20000E94CA058AEE95E00E94CA0589EF95E009
:100B30000E94CA0585E196E00E94CA0581E396E01D
:100B40000E94CA058DE496E00E94CA058AE292E0FE
:100B50000E94CA0589E696E00C94CA0510929B0093
:100B600086E080939D0088E980939A008FE290E070
:100B70009093180780931707109298008091170799
:100B800080939900089590919B0095FFFCCF8093EE
:100B90009C000895CF93DF93EC018991882319F08D
:100BA0000E94C305FACFDF91CF91089580919B00F9
:100BB00087FFFCCF80919C0008950F931F93CF93E4
:100BC000DF9300D000D000D0CDB7DEB79F938F93D6
:100BD00083E097E09F938F938E010F5F1F4F1F93CA
:100BE0000F930E948008C8010E94CA050F900F90C1
:100BF0000F900F900F900F9026960FB6F894DEBFCF
:100C00000FBECDBFDF91CF911F910F9108950F932C
:100C10001F93CF93DF9300D01F92CDB7DEB71F9203
:100C20008F9386E097E09F938F938E010F5F1F4F06
:100C30001F930F930E948008C8010E94CA050F905D
:100C40000F900F900F900F900F900F900F900F90AC
:100C5000DF91CF911F910F91089587E191E00C945E
:100C6000CA050E94D6050C94C3051F920F920FB6B9
:100C70000F9211248F9380919C008093130781E041
:100C80008093120780911307809316078F910F901E
:100C90000FBE0F901F90189580911207882319F0AE
:100CA0001092120781E00895809113070895CF9361
:100CB000DF9360E177E20E941708EC01FB01E0504E
:100CC000FF4F80810E94C305CE0168EE73E00E9451
:100CD0001708EC01FB01E050FF4F80810E94C30523
:100CE000CE0164E670E00E941708EC01FB01E050C1
:100CF000FF4F80810E94C305CE016AE070E00E9430
:100D00001708EC01FB01E050FF4F80810E94C305F2
:100D1000C050DF4F8881DF91CF910C94C305CF93F2
:100D200064E60E940B08C92FE82FF0E0E050FF4F67
:100D300080810E94C3058C2F6AE00E940B08C92F96
:100D4000E82FF0E0E050FF4F80810E94C305EC2FB8
:100D5000F0E0E050FF4F8081CF910C94C305CF931A
:100D6000DF93EC0197FD02C08BE204C0D195C195E1
:100D7000D1098DE20E94C305CE0160E177E20E94B5
:100D80002B08EC01FB01E050FF4F80810E94C3055E
:100D9000CE0168EE73E00E942B08EC01FB01E050ED
:100DA000FF4F80810E94C305CE0164E670E00E947F
:100DB0002B08EC01FB01E050FF4F80810E94C3052E
:100DC000CE016AE070E00E942B08EC01FB01E050CC
:100DD000FF4F80810E94C305C050DF4F8881DF91A3
:100DE000CF910C94C3054F925F926F927F928F9236
:100DF0009F92AF92BF92CF92DF92EF92FF920F93AA
:100E00001F93CF93DF934B015C01C9E0D0E0C12C6D
:100E10009AECD92E9AE9E92E9BE3F92E2AE0422E8C
:100E2000512C612C712C8C149D04AE04BF0454F41D
:100E3000C701B601A30192010E943F0869017A012E
:100E4000219789F78AE0482E512C612C712C1C14B3
:100E50001D041E041F04DCF4C501B401A7019601A2
:100E60000E943F088B01D82FC92FF901E050FF4F96
:100E700080810E94C3054801AD2EBC2EC701B6017A
:100E8000A30192010E943F0869017A01E0CFDF913E
:100E9000CF911F910F91FF90EF90DF90CF90BF9077
:100EA000AF909F908F907F906F905F904F9008953C
:100EB000CF93C82FE82FE295EF70F0E0E050FF4F9E
:100EC00080810E94C305CF70EC2FF0E0E050FF4F0F
:100ED0008081CF910C94C305E82FE295EF70F0E08C
:100EE000E050FF4F208130E0322F2227E82FEF70B3
:100EF000F0E0E050FF4F8081A901482BCA0108951E
:100F00001F920F920FB60F9211248F93CF93DF93FE
:100F10001F92CDB7DEB78CB1898389810F90DF91A5
:100F2000CF918F910F900FBE0F901F90189508953D
:100F30000895089508950E94AE050E94AE000E9493
:100F40000D018FEF84BB15BA2FEF8FE39BE021508B
:100F500080409040E1F700C0000081E896E00E94E8
:100F6000CA058BEA96E00E94CA050E94EE004BEC8F
:100F700056E060E080E00E94030149ED56E060E049
:100F800081E00E94030181E085BB2FEF8FEF9CE29F
:100F9000215080409040E1F700C000000E947E0593
:100FA0000E94D605C82F0E94C3058AE292E00E94E3
:100FB000CA05C23369F028F4C13381F40E946B0181
:100FC00022C0C33341F0C43349F40E9475041BC0EE
:100FD0000E940F0218C00E94720315C085EE96E0B1
:100FE0000E94CA050E94EE004AEF56E060E080E0F1
:100FF0000E9403012FEF8FE796E12150804090403F
:10100000E1F700C000002FEF8FE39BE0215080400C
:101010009040E1F7C1CF991B79E004C0991F961762
:1010200008F0961B881F7A95C9F780950895AA1B2A
:10103000BB1B51E107C0AA1FBB1FA617B70710F0C3
:10104000A61BB70B881F991F5A95A9F780959095F5
:10105000BC01CD01089597FB072E16F4009407D02C
:1010600077FD09D00E94170807FC05D03EF4909543
:1010700081959F4F0895709561957F4F0895052E36
:1010800097FB1EF400940E94560857FD07D00E945B
:101090005E0807FC03D04EF40C945608509540951A
:1010A000309521953F4F4F4F5F4F08959095809514
:1010B000709561957F4F8F4F9F4F0895A1E21A2E33
:1010C000AA1BBB1BFD010DC0AA1FBB1FEE1FFF1FEC
:1010D000A217B307E407F50720F0A21BB30BE40B3C
:1010E000F50B661F771F881F991F1A9469F7609583
:1010F0007095809590959B01AC01BD01CF0108953D
:101100000F931F93CF93DF93CDB7DEB72E970FB614
:10111000F894DEBF0FBECDBF0D891E8986E08C839B
:101120001A8309838FEF9FE79E838D83AE01475E0D
:101130005F4F6F89788DCE0101960E94AF08EF81D5
:10114000F885E00FF11F10822E960FB6F894DEBFDF
:101150000FBECDBFDF91CF911F910F9108952F92B8
:101160003F924F925F926F927F928F929F92AF9237
:10117000BF92CF92DF92EF92FF920F931F93CF9384
:10118000DF93CDB7DEB72B970FB6F894DEBF0FBE57
:10119000CDBF6C017B018A01FC011782168283811D
:1011A00081FFCCC1CE0101963C01F6019381F7018C
:1011B00093FD859193FF81917F01882309F4BAC142
:1011C000853239F493FD859193FF81917F018532BA
:1011D00029F4B60190E00E94CF0AE7CF912C212C90
:1011E000312CFFE1F315D8F08B3279F038F48032EE
:1011F00079F08332A1F4232D20611DC08D3261F07E
:10120000803369F4232D216016C0832D8260382E2F
:10121000E32DE4603E2E2AC0F32DF8601DC037FC9C
:101220002DC020ED280F2A3040F08E32B9F436FC64
:1012300081C1232D2064322E19C036FE06C08AE0FB
:10124000989E200D1124922E11C0EAE02E9E200DB2
:101250001124222EF32DF0623F2E08C08C3621F48B
:10126000832D8068382E02C0883641F4F70193FD43
:10127000859193FF81917F018111B3CF982F9F7D3D
:101280009554933028F40C5F1F4F9FE399830DC052
:10129000833631F0833771F0833509F059C021C0AE
:1012A000F801808189830E5F1F4F88248394912CDD
:1012B000530113C02801F2E04F0E511CF801A08029
:1012C000B18036FE03C0692D70E002C06FEF7FEF82
:1012D000C5010E94C40A4C018201F32DFF773F2E05
:1012E00016C0280122E0420E511CF801A080B180F6
:1012F00036FE03C0692D70E002C06FEF7FEFC501BD
:101300000E94B90A4C01F32DF0683F2E820133FC94
:101310001BC0822D90E088169906B0F4B60180E2D9
:1013200090E00E94CF0A2A94F4CFF50137FC859112
:1013300037FE81915F01B60190E00E94CF0A211033
:101340002A9421E0821A91088114910471F7E8C06F
:10135000843611F0893641F5F80137FE07C0608107
:101360007181828193810C5F1F4F08C06081718100
:10137000072E000C880B990B0E5F1F4FF32DFF7685
:101380003F2E97FF09C090958095709561957F4F8E
:101390008F4F9F4FF0683F2E2AE030E0A3010E945C
:1013A0000B0B882E861845C0853731F4232D2F7EF0
:1013B000B22E2AE030E025C0932D997FB92E8F36CA
:1013C000C1F018F4883579F0B5C0803719F0883746
:1013D00021F0B0C0E92FE061BE2EB4FE0DC0FB2DA0
:1013E000F460BF2E09C034FE0AC0292F2660B22E39
:1013F00006C028E030E005C020E130E002C020E176
:1014000032E0F801B7FE07C060817181828193816B
:101410000C5F1F4F06C06081718180E090E00E5F1D
:101420001F4FA3010E940B0B882E8618FB2DFF7700
:101430003F2E36FE0DC0232D2E7FA22E891458F488
:1014400034FE0BC032FC09C0832D8E7EA82E05C051
:10145000B82CA32C03C0B82C01C0B92CA4FE0FC01B
:10146000FE01E80DF11D8081803321F49A2D997ED3
:10147000A92E09C0A2FE06C0B394B39404C08A2D5D
:10148000867809F0B394A3FC11C0A0FE06C0B21484
:1014900088F4280C922C9B180EC0B21460F4B6018C
:1014A00080E290E00E94CF0AB394F7CFB21418F410
:1014B0002B1802C0982C212CA4FE10C0B60180E38A
:1014C00090E00E94CF0AA2FE17C0A1FC03C088E7EB
:1014D00090E002C088E590E0B6010CC08A2D8678C5
:1014E00059F0A1FE02C08BE201C080E2A7FC8DE2B0
:1014F000B60190E00E94CF0A891438F4B60180E367
:1015000090E00E94CF0A9A94F7CF8A94F301E80DF5
:10151000F11D8081B60190E00E94CF0A8110F5CFC5
:10152000222009F442CEB60180E290E00E94CF0A68
:101530002A94F6CFF6018681978102C08FEF9FEF44
:101540002B960FB6F894DEBF0FBECDBFDF91CF91C3
:101550001F910F91FF90EF90DF90CF90BF90AF90D1
:101560009F908F907F906F905F904F903F902F90C3
:101570000895FC010590615070400110D8F78095E6
:1015800090958E0F9F1F0895FC016150704001904F
:101590000110D8F7809590958E0F9F1F08950F9397
:1015A0001F93CF93DF93FB01238121FD03C08FEFB6
:1015B0009FEF2CC022FF16C04681578124813581C0
:1015C0004217530744F4A081B1819D012F5F3F4F23
:1015D000318320838C93268137812F5F3F4F378360
:1015E000268314C08B01EC01FB010084F185E02D02
:1015F0000995892BE1F6D80116968D919C91179744
:10160000019617969C938E931697CE01DF91CF91FA
:101610001F910F910895FA01AA27283051F1203126
:1016200081F1E8946F936E7F6E5F7F4F8F4F9F4F76
:10163000AF4FB1E03ED0B4E03CD0670F781F891FB8
:101640009A1FA11D680F791F8A1F911DA11D6A0F86
:10165000711D811D911DA11D20D009F468943F9139
:101660002AE0269F11243019305D3193DEF6CF0138
:101670000895462F4770405D4193B3E00FD0C9F7FE
:10168000F6CF462F4F70405D4A3318F0495D31FD6B
:101690004052419302D0A9F7EACFB4E0A6959795BE
:1016A000879577956795BA95C9F700976105710594
:1016B00008959B01AC010A2E0694579547953795DE
:1016C0002795BA95C9F7620F731F841F951FA01D38
:0616D0000895F894FFCF1D
:1016D6003031323334353637383941424344454662
:1016E60009000D0A0009000D0A0031323341343574
:1016F6003642373839432A3023440D0A3D3D3D20D2
:1017060044454D4F20313A204261736963204B6551
:101716007920446574656374696F6E203D3D3D0DA7
:101726000A005072657373206B657973206F6E20A3
:10173600746865206B65797061640D0A0050726586
:1017460073732027442720746F20657869740D0A07
:101756000D0A00507265737320616E79206B65798E
:101766003A004B65793A20256320282325752920E0
:1017760020004B657920707265737365643A202783
:101786002563272028436F756E743A202575290D29
:101796000A000D0A45786974696E672064656D6F85
:1017A6002E2E2E0D0A000D0A3D3D3D2044454D4F7F
:1017B60020323A204B657970616420546573742039
:1017C6005061747465726E203D3D3D0D0A00507285
:1017D60065737320616C6C206B65797320696E206C
:1017E6006F726465723A20312D392C20302C202AF4
:1017F6002C20232C20412D440D0A0D0A005465731C
:10180600743A205072657373004B65793A202563EC
:10181600202825752F257529005072657373656418
:101826003A20272563272C20457870656374656404
:101836003A20272563270D0A002020E29C932043A7
:101846006F7272656374210D0A00546573742043C8
:101856006F6D706C6574652100416C6C206B6579E9
:1018660073204F4B000D0AE29C93204B6579706103
:1018760064207465737420504153534544210D0A06
:1018860000507265737320616E79206B65792074E0
:101896006F20636F6E74696E75652E2E2E00202084
:1018A600E29C972057726F6E67206B6579210D0A4F
:1018B6000057726F6E6721205472793A00256300D3
:1018C6003132333435363738392A302341424344AE
:1018D600000D0A3D3D3D2044454D4F20333A204DF5
:1018E600756C74692D4B65792044657465637469FC
:1018F6006F6E203D3D3D0D0A004465746563746955
:101906006E672073696D756C74616E656F75732093
:101916006B657920707265737365730D0A004D757A
:101926006C74692D4B657920546573743A004B6568
:1019360079733A20256320202020202020004B6543
:1019460079733A2575205B000D4D756C7469706C62
:1019560065206B6579733A20005D202020004E6F6C
:10196600206B657973202020202020202020000D68
:101976000A3D3D3D2044454D4F20343A2053636196
:101986006E204672657175656E6379205465737451
:10199600203D3D3D0D0A004D6561737572696E67A8
:1019A600206B6579706164207363616E2072617467
:1019B600650D0A00507265737320616E79206B6540
:1019C600792C20686F6C642C207468656E207265B3
:1019D6006C656173650D0A0D0A005363616E2052D2
:1019E60061746520546573743A0053746172746946
:1019F6006E67207363616E2072617465206D656128
:101A0600737572656D656E742E2E2E0D0A004B650C
:101A1600793A20256320436E743A25752000536574
:101A2600632025753A205363616E733D256C752CD2
:101A360020446574656374696F6E733D25750D0A80
:101A4600000D0A546F74616C207363616E733A20E3
:101A5600256C7520287E256C75207363616E732F47
:101A6600736563290D0A00546F74616C2064657494
:101A7600656374696F6E733A2025750D0A005261AD
:101A860074653A256C752F7300E29594E29590E2A1
:101A96009590E29590E29590E29590E29590E29588
:101AA60090E29590E29590E29590E29590E295907D
:101AB600E29590E29590E29590E29590E29590E21B
:101AC6009590E29590E29590E29590E29590E29558
:101AD60090E29590E29590E29590E29590E295904D
:101AE600E29590E29590E29590E29590E29590E2EB
:101AF6009590E29590E29590E29590E29590E29528
:101B060090E29590E295970D0A00E2959120204B80
:101B16006579706164204D617472697820536361E0
:101B26006E6E696E67202D2041546D656761313296
:101B3600382020E295910D0A00E2959AE29590E20E
:101B46009590E29590E29590E29590E29590E295D7
:101B560090E29590E29590E29590E29590E29590CC
:101B6600E29590E29590E29590E29590E29590E26A
:101B76009590E29590E29590E29590E29590E295A7
:101B860090E29590E29590E29590E29590E295909C
:101B9600E29590E29590E29590E29590E29590E23A
:101BA6009590E29590E29590E29590E29590E29577
:101BB60090E29590E2959D0D0A0053656C656374FD
:101BC6002044656D6F3A0D0A0020205B315D20428E
:101BD60061736963204B6579204465746563746934
:101BE6006F6E0D0A0020205B325D204B65797061B7
:101BF600642054657374205061747465726E0D0AA6
:101C06000020205B335D204D756C74692D4B657922
:101C160020446574656374696F6E0D0A0020205B4D
:101C2600345D205363616E204672657175656E631F
:101C36007920546573740D0A00456E7465722073BD
:101C4600656C656374696F6E2028312D34293A20DE
:101C5600000D0A0D0A2A2A2A20347834204D617490
:101C6600726978204B657970616420496E7465727B
:101C760066616365202A2A2A0D0A00526F772F4370
:101C86006F6C756D6E207363616E6E696E6720741E
:101C96006563686E697175650D0A00204B6579701C
:101CA60061642052656164790020347834204D6186
:101CB6007472697800496E76616C69642073656C2C
:101CC600656374696F6E210D0A00496E76616C69F1
:0C1CD60064210025750025303258000004
:00000001FF
