:100000000C9446000C9465000C9465000C946500FB
:100010000C9465000C9465000C9465000C946500CC
:100020000C9465000C9465000C9465000C946500BC
:100030000C9465000C9465000C9465000C946500AC
:100040000C9465000C9465000C9406060C946500F5
:100050000C9465000C9465000C9465000C9465008C
:100060000C9465000C9465000C9465000C9465007C
:100070000C9465000C9465000C94BB040C94650012
:100080000C9465000C9465000C94650011241FBE4F
:10009000CFEFD0E1DEBFCDBF17E0A0E0B1E0E2EDF1
:1000A000F3E100E00BBF02C007900D92A038B1074A
:1000B000D9F727E0A0E8B7E001C01D92AD38B2073C
:1000C000E1F70E9421060C94E7090C94000087B325
:1000D000876387BBBB9888B3816388BB81E58DB993
:1000E00008958FB9779BFECF8FB1089581FF02C02D
:1000F00098E501C090E580FD9460613049F030F0F2
:10010000623041F0633039F4936005C0709A03C0E7
:10011000916001C092609DB908950F931F93CF9392
:100120008330C0F5E0910001E33088F498B329E111
:10013000E29FF0011124EF5FFE4F21E030E00080EC
:1001400002C0220F331F0A94E2F7292B28BBC82FC5
:1001500089E1C89F800111240F5F1E4FF80164815F
:1001600083810E947600F8E1FA95F1F700C028B388
:1001700081E090E0F801008002C0880F991F0A9486
:10018000E2F78095822388BBC0930001F2E0FA95E4
:10019000F1F700C0CF911F910F910895E0910001F8
:1001A000E330A0F428B389E1E89FF0011124EF5F68
:1001B000FE4F81E090E0008002C0880F991F0A94F2
:1001C000E2F7822B88BB8FEF8093000182E08A9553
:1001D000F1F700C008956F927F928F929F92AF9235
:1001E000BF92CF92DF92EF92FF920F931F93CF9324
:1001F000DF93CDB7DEB7C456D1090FB6F894DEBF92
:100200000FBECDBF86E691E00E9450048DE891E0DC
:100210000E94500401E011E0CC24C394D12C91EB56
:10022000692E91E0792ECE0101967C0121ECA22E5F
:1002300021E0B22E32ED832E31E0932EC8010596D7
:100240009F938F93DF92CF927F926F92FF92EF9264
:100250000E94FE06C7010E945004F80180811F928F
:100260008F93BF92AF92FF92EF920E94FE06C7015A
:100270000E945004F80183811F928F939F928F9266
:10028000FF92EF920E94FE06C7010E9450040FB633
:10029000F894DEBF0FBECDBFF8018481813059F0E4
:1002A00038F0823059F0833069F48AE092E008C077
:1002B0008AEE91E005C084EF91E002C08FEF91E0FB
:1002C0000E9450048EEA91E00E945004FFEFCF1A82
:1002D000DF0A075E1F4F84E0C816D10409F0AECFD5
:1002E00086EA93E00E9450040E945C04CC59DF4FE0
:1002F0000FB6F894DEBF0FBECDBFDF91CF911F9137
:100300000F91FF90EF90DF90CF90BF90AF909F90B4
:100310008F907F906F9008957F928F929F92AF926F
:10032000BF92CF92DF92EF92FF920F931F93CF93E2
:10033000DF93CDB7DEB7C055D1090FB6F894DEBF55
:100340000FBECDBF86E192E00E94500483E492E0AC
:100350000E9450048DE692E00E94500480E8F82E3E
:1003600097E8C92E92E0D92E9E012F5F3F4F590189
:1003700088248394912C00E010E0802F0E948D004F
:100380008F2D0E947100782E0E94CE00E02E0F5F0C
:100390001F4F1F927F921F92FF921F930F93DF9226
:1003A000CF92BF92AF920E94FE06C5010E945004F8
:1003B000C40101C0880FEA94EAF785BB3FEF8FEBD9
:1003C00096E0315080409040E1F700C000008091FD
:1003D0009B000FB6F894DEBF0FBECDBF87FF1EC0D7
:1003E0000E945C0488B3816388BB81EB92E00E9429
:1003F0005004C05BDF4F0FB6F894DEBF0FBECDBF19
:10040000DF91CF911F910F91FF90EF90DF90CF90F0
:10041000BF90AF909F908F907F900895033011050B
:1004200009F0ABCF8EEA91E00E945004F394A3CF81
:100430008F929F92AF92BF92CF92DF92EF92FF92F4
:100440000F931F93CF93DF93CDB7DEB7C456D10977
:100450000FB6F894DEBF0FBECDBF80ED92E00E94D4
:1004600050048BEF92E00E94500484E293E00E94DB
:100470005004CCB4DDB400E010E033E0E32EF12C06
:10048000C801B7010E9486060E948D008AEA0E9478
:1004900071000E94CE000F5F1F4F083E83E01807D7
:1004A00079F7ECB4FDB4EC18FD0883E08F9388EE87
:1004B0008F9385E493E09F938F938E010F5F1F4F7F
:1004C0001F930F930E94FE06C8010E945004FF92E2
:1004D000EF9284E693E09F938F931F930F930E9474
:1004E000FE06C8010E9450049701A8EEB3E00E94E6
:1004F000EF066B017C0128EE822E23E0922EA12CC8
:10050000B12CA50194010E94AE06CA01B901A50152
:1005100094010E94AE069F938F937F936F93C701C0
:10052000B60120E432E44FE050E00E94AE065F9353
:100530004F933F932F9381E893E09F938F931F9363
:100540000F930E94FE06C8010E94500484EA93E0C3
:100550000E9450040E945C040FB6F894DEBF0FBEE8
:10056000CDBFCC59DF4F0FB6F894DEBF0FBECDBF65
:10057000DF91CF911F910F91FF90EF90DF90CF907F
:10058000BF90AF909F908F9008953F924F925F924F
:100590006F927F928F929F92AF92BF92CF92DF9293
:1005A000EF92FF920F931F93CF93DF93CDB7DEB7F8
:1005B000CA55D1090FB6F894DEBF0FBECDBF83EC8C
:1005C00093E00E94500482EF93E00E9450048EEF6B
:1005D00093E00E94500485E194E00E94500481E47D
:1005E00094E00E94500485E594E00E9450048DE65A
:1005F00094E00E945004512C39E1432E4CEE642EBD
:1006000044E0742E8E010F5F1F4F51E5A52EB12CD3
:10061000AC0EBD1E83E0A80EB11C64E9E62E64E0BA
:10062000F62E75E8C72E74E0D72E88248394912C7B
:1006300080919B0087FFFCCF0E945C04382E0E94B3
:1006400049049DE0391619F08AE03812C1C0E1E58D
:10065000F0E0EC0FFD1FE50DF11D10828EEA91E038
:100660000E945004511002C0512CE2CF62968FAD0F
:1006700062972FEC322E380E92E0931500F1832D05
:100680000E948D00439CC00111248A5F9E4F9F935E
:100690008F93DF92CF921F930F930E94FE06C801A3
:1006A0000E945004C40101C0880F3A94EAF785BB48
:1006B0000F900F900F900F900F900F90D5CF8F7DD0
:1006C000833599F580910001833060F582E08515CE
:1006D00048F5E1E5F0E0EC0FFD1F3196512C8191DA
:1006E000529490EF592290ED980F9A3010F4592AB5
:1006F0000CC09FEB980F963010F4875305C09FE90C
:10070000980F963010F48755582AAE16BF0639F761
:10071000852D0E9471001F928F931F925F92FF920E
:10072000EF9225C08DEB94E031C0843441F40E94F7
:10073000CE0083ED94E00E94500415BA95CF893421
:1007400041F5809100018330F8F490E09C012F5F27
:100750003F4F3F932F93489E9001499E300D1124A7
:10076000C9018A5F9E4F9F938F937F926F921F93D1
:100770000F930E94FE06C8010E9450040FB6F89421
:10078000DEBF0FBECDBF70CF86E095E00E94500463
:100790006BCF813509F068CF88B3816388BBC65AB7
:1007A000DF4F0FB6F894DEBF0FBECDBFDF91CF9104
:1007B0001F910F91FF90EF90DF90CF90BF90AF907F
:1007C0009F908F907F906F905F904F903F90089593
:1007D00098E0391619F08FE7381209C0552009F44E
:1007E00043CF5A948BE195E00E94500421CF98E0CA
:1007F000951508F41DCFE1E5F0E0EC0FFD1FE50DC8
:10080000F11D3082539414CF8CEA91E00E94500481
:100810008EE195E00E9450048FE995E00E9450041B
:100820008FEC95E00E9450048EEA91E00E94500403
:1008300080E596E00E9450048FE596E00E94500407
:100840008AE796E00E9450048BE996E00E945004EB
:1008500088EB96E00E9450048EEA91E00E945004DA
:100860008BED96E00C94500410929B0086E08093F0
:100870009D0088E980939A008FE290E090938A0728
:10088000809389071092980080918907809399003E
:10089000089590919B0095FFFCCF80939C00089554
:1008A000CF93DF93EC018991882319F00E944904CA
:1008B000FACFDF91CF91089580919B0087FFFCCF05
:1008C00080919C0008950F931F93CF93DF9300D0E6
:1008D00000D000D0CDB7DEB79F938F9387E797E026
:1008E0009F938F938E010F5F1F4F1F930F930E9453
:1008F000FE06C8010E9450040F900F900F900F90B9
:100900000F900F9026960FB6F894DEBF0FBECDBFA6
:10091000DF91CF911F910F9108950F931F93CF9364
:10092000DF9300D01F92CDB7DEB71F928F938AE777
:1009300097E09F938F938E010F5F1F4F1F930F932D
:100940000E94FE06C8010E9450040F900F900F9065
:100950000F900F900F900F900F900F90DF91CF910D
:100960001F910F91089583E691E00C9450040E942A
:100970005C040C9449041F920F920FB60F9211243D
:100980008F9380919C008093850781E080938407FA
:1009900080918507809388078F910F900FBE0F90ED
:1009A0001F90189580918407882319F0109284076E
:1009B00081E00895809185070895CF93DF9360E1EA
:1009C00077E20E948606EC01FB01E45BFE4F80812A
:1009D0000E944904CE0168EE73E00E948606EC0195
:1009E000FB01E45BFE4F80810E944904CE0164E676
:1009F00070E00E948606EC01FB01E45BFE4F808103
:100A00000E944904CE016AE070E00E948606EC0173
:100A1000FB01E45BFE4F80810E944904C45BDE4F12
:100A20008881DF91CF910C944904CF9364E60E94B2
:100A30007A06C92FE82FF0E0E45BFE4F80810E9428
:100A400049048C2F6AE00E947A06C92FE82FF0E053
:100A5000E45BFE4F80810E944904EC2FF0E0E45BF0
:100A6000FE4F8081CF910C944904CF93DF93EC012A
:100A700097FD02C08BE204C0D195C195D1098DE2EA
:100A80000E944904CE0160E177E20E949A06EC01DF
:100A9000FB01E45BFE4F80810E944904CE0168EEB9
:100AA00073E00E949A06EC01FB01E45BFE4F80813B
:100AB0000E944904CE0164E670E00E949A06EC01AF
:100AC000FB01E45BFE4F80810E944904CE016AE095
:100AD00070E00E949A06EC01FB01E45BFE4F80810E
:100AE0000E944904C45BDE4F8881DF91CF910C9452
:100AF00049044F925F926F927F928F929F92AF9232
:100B0000BF92CF92DF92EF92FF920F931F93CF93FA
:100B1000DF934B015C01C9E0D0E0C12C9AECD92EE7
:100B20009AE9E92E9BE3F92E2AE0422E512C612C02
:100B3000712C8C149D04AE04BF0454F4C701B6019B
:100B4000A30192010E94D00669017A01219789F7D9
:100B50008AE0482E512C612C712C1C141D041E049B
:100B60001F04DCF4C501B401A70196010E94D00660
:100B70008B01D82FC92FF901E45BFE4F80810E94C1
:100B800049044801AD2EBC2EC701B601A301920154
:100B90000E94D00669017A01E0CFDF91CF911F91C9
:100BA0000F91FF90EF90DF90CF90BF90AF909F900C
:100BB0008F907F906F905F904F900895CF93C82F44
:100BC000E82FE295EF70F0E0E45BFE4F80810E9439
:100BD0004904CF70EC2FF0E0E45BFE4F8081CF91B1
:100BE0000C944904E82FE295EF70F0E0E45BFE4FCF
:100BF000208130E0322F2227E82FEF70F0E0E45B15
:100C0000FE4F8081A901482BCA0108951F920F92BF
:100C10000FB60F9211248F93CF93DF931F92CDB70E
:100C2000DEB78CB1898389810F90DF91CF918F914D
:100C30000F900FBE0F901F90189508950895089576
:100C400008950E9434040E94670081E08EBD8FEFFA
:100C500084BB15BA2FEF8FE39BE02150804090407A
:100C6000E1F700C0000083EF96E00E9450048DE1A0
:100C700097E00E94500489E397E00E9450040E948C
:100C800004040E945C04C82F0E9449048EEA91E08B
:100C90000E945004C23369F028F4C13381F40E94E9
:100CA000EB001AC0C33341F0C43349F40E94C502BB
:100CB00013C00E948C0110C00E9418020DC082E671
:100CC00097E00E9450042FEF8FE796E1215080407B
:100CD0009040E1F700C0000088B3816388BB15BA7B
:100CE0002FEF8FE39BE0215080409040E1F700C060
:100CF0000000C5CF991B79E004C0991F961708F032
:100D0000961B881F7A95C9F780950895AA1BBB1B6F
:100D100051E107C0AA1FBB1FA617B70710F0A61BFB
:100D2000B70B881F991F5A95A9F780959095BC011C
:100D3000CD01089597FB072E16F4009407D077FD98
:100D400009D00E94860607FC05D03EF49095819557
:100D50009F4F0895709561957F4F0895A1E21A2ED7
:100D6000AA1BBB1BFD010DC0AA1FBB1FEE1FFF1F4F
:100D7000A217B307E407F50720F0A21BB30BE40B9F
:100D8000F50B661F771F881F991F1A9469F76095E6
:100D90007095809590959B01AC01BD01CF010895A0
:100DA000052E97FB1EF400940E94E70657FD07D01E
:100DB0000E94AE0607FC03D04EF40C94E706509553
:100DC0004095309521953F4F4F4F5F4F0895909537
:100DD0008095709561957F4F8F4F9F4F0895A29F8B
:100DE000B001B39FC001A39F700D811D1124911DFF
:100DF000B29F700D811D1124911D08950F931F93B3
:100E0000CF93DF93CDB7DEB72E970FB6F894DEBF42
:100E10000FBECDBF0D891E8986E08C831A8309839E
:100E20008FEF9FE79E838D83AE01475E5F4F6F8993
:100E3000788DCE0101960E942D07EF81F885E00F95
:100E4000F11F10822E960FB6F894DEBF0FBECDBFF5
:100E5000DF91CF911F910F9108952F923F924F9262
:100E60005F926F927F928F929F92AF92BF92CF923A
:100E7000DF92EF92FF920F931F93CF93DF93CDB743
:100E8000DEB72B970FB6F894DEBF0FBECDBF6C0157
:100E90007B018A01FC0117821682838181FFCCC10C
:100EA000CE0101963C01F6019381F70193FD8591F6
:100EB00093FF81917F01882309F4BAC1853239F407
:100EC00093FD859193FF81917F01853229F4B601CD
:100ED00090E00E944D09E7CF912C212C312CFFE1AD
:100EE000F315D8F08B3279F038F4803279F0833210
:100EF000A1F4232D20611DC08D3261F0803369F48F
:100F0000232D216016C0832D8260382EE32DE460EE
:100F10003E2E2AC0F32DF8601DC037FC2DC020EDF9
:100F2000280F2A3040F08E32B9F436FC81C1232DCF
:100F30002064322E19C036FE06C08AE0989E200D2D
:100F40001124922E11C0EAE02E9E200D1124222E93
:100F5000F32DF0623F2E08C08C3621F4832D80687B
:100F6000382E02C0883641F4F70193FD859193FF36
:100F700081917F018111B3CF982F9F7D955493303C
:100F800028F40C5F1F4F9FE399830DC0833631F027
:100F9000833771F0833509F059C021C0F801808191
:100FA00089830E5F1F4F88248394912C530113C0B3
:100FB0002801F2E04F0E511CF801A080B18036FEEE
:100FC00003C0692D70E002C06FEF7FEFC5010E9482
:100FD00042094C018201F32DFF773F2E16C02801F4
:100FE00022E0420E511CF801A080B18036FE03C001
:100FF000692D70E002C06FEF7FEFC5010E943709D5
:101000004C01F32DF0683F2E820133FC1BC0822D72
:1010100090E088169906B0F4B60180E290E00E9454
:101020004D092A94F4CFF50137FC859137FE819163
:101030005F01B60190E00E944D0921102A9421E041
:10104000821A91088114910471F7E8C0843611F076
:10105000893641F5F80137FE07C0608171818281D0
:1010600093810C5F1F4F08C060817181072E000CB7
:10107000880B990B0E5F1F4FF32DFF763F2E97FFC6
:1010800009C090958095709561957F4F8F4F9F4FC8
:10109000F0683F2E2AE030E0A3010E948909882EE3
:1010A000861845C0853731F4232D2F7EB22E2AE0D5
:1010B00030E025C0932D997FB92E8F36C1F018F4FA
:1010C000883579F0B5C0803719F0883721F0B0C085
:1010D000E92FE061BE2EB4FE0DC0FB2DF460BF2EE3
:1010E00009C034FE0AC0292F2660B22E06C028E0AF
:1010F00030E005C020E130E002C020E132E0F8013C
:10110000B7FE07C060817181828193810C5F1F4FA0
:1011100006C06081718180E090E00E5F1F4FA301E7
:101120000E948909882E8618FB2DFF773F2E36FEF8
:101130000DC0232D2E7FA22E891458F434FE0BC02F
:1011400032FC09C0832D8E7EA82E05C0B82CA32C9E
:1011500003C0B82C01C0B92CA4FE0FC0FE01E80DDD
:10116000F11D8081803321F49A2D997EA92E09C02A
:10117000A2FE06C0B394B39404C08A2D867809F009
:10118000B394A3FC11C0A0FE06C0B21488F4280CCE
:10119000922C9B180EC0B21460F4B60180E290E06D
:1011A0000E944D09B394F7CFB21418F42B1802C063
:1011B000982C212CA4FE10C0B60180E390E00E9480
:1011C0004D09A2FE17C0A1FC03C088E790E002C051
:1011D00088E590E0B6010CC08A2D867859F0A1FE12
:1011E00002C08BE201C080E2A7FC8DE2B60190E074
:1011F0000E944D09891438F4B60180E390E00E9402
:101200004D099A94F7CF8A94F301E80DF11D80817E
:10121000B60190E00E944D098110F5CF222009F41B
:1012200042CEB60180E290E00E944D092A94F6CFAA
:10123000F6018681978102C08FEF9FEF2B960FB644
:10124000F894DEBF0FBECDBFDF91CF911F910F91FC
:10125000FF90EF90DF90CF90BF90AF909F908F90D6
:101260007F906F905F904F903F902F900895FC017A
:101270000590615070400110D8F7809590958E0FC1
:101280009F1F0895FC016150704001900110D8F734
:10129000809590958E0F9F1F08950F931F93CF9366
:1012A000DF93FB01238121FD03C08FEF9FEF2CC053
:1012B00022FF16C04681578124813581421753078A
:1012C00044F4A081B1819D012F5F3F4F3183208382
:1012D0008C93268137812F5F3F4F3783268314C03D
:1012E0008B01EC01FB010084F185E02D0995892B30
:1012F000E1F6D80116968D919C9117970196179655
:101300009C938E931697CE01DF91CF911F910F91F1
:101310000895FA01AA27283051F1203181F1E8948B
:101320006F936E7F6E5F7F4F8F4F9F4FAF4FB1E0D8
:101330003ED0B4E03CD0670F781F891F9A1FA11DD3
:10134000680F791F8A1F911DA11D6A0F711D811DD4
:10135000911DA11D20D009F468943F912AE0269F99
:1013600011243019305D3193DEF6CF010895462FF8
:101370004770405D4193B3E00FD0C9F7F6CF462FD9
:101380004F70405D4A3318F0495D31FD4052419342
:1013900002D0A9F7EACFB4E0A695979587957795FF
:1013A0006795BA95C9F700976105710508959B0186
:1013B000AC010A2E06945795479537952795BA950F
:1013C000C9F7620F731F841F951FA01D0895F8941D
:0213D000FFCF4D
:1013D200FF0001000001454550524F4D2032354C6F
:1013E20043323536000000000000040200000053C2
:1013F200504920444143204D43503439323100009A
:1014020000000005030000015350492041444320DD
:101412004D43503330303800000000003031323359
:1014220034353637383941424344454609000D0ABE
:101432000009000D0A000D0A3D3D3D2044454D4F77
:1014420020313A2044657669636520496E666F7281
:101452006D6174696F6E203D3D3D0D0A00536361FD
:101462006E6E696E67205350492062757320666FF5
:101472007220646576696365732E2E2E0D0A0D0A3D
:10148200004465766963652025753A2025730D0A47
:1014920000202043532050696E3A20504225750D9A
:1014A2000A002020535049204D6F64653A2025756B
:1014B200202053706565643A2000465F4350552FE3
:1014C200340D0A00465F4350552F31360D0A00464F
:1014D2005F4350552F36340D0A00465F4350552F57
:1014E2003132380D0A000D0A3D3D3D2044454D4F35
:1014F20020323A2053657175656E7469616C2044BF
:10150200657669636520416363657373203D3D3D84
:101512000D0A0053656E64696E6720646174612010
:10152200746F20656163682064657669636520690C
:101532006E2073657175656E63650D0A0050726584
:10154200737320616E79206B657920746F207374D8
:101552006F700D0A0D0A0044657669636520257572
:101562003A2053656E74203078253032582C205240
:1015720065636569766564203078253032580D0AD6
:10158200000D0A53657175656E7469616C20616343
:10159200636573732073746F707065642E0D0A0037
:1015A2000D0A3D3D3D2044454D4F20333A205261C6
:1015B2007069642044657669636520537769746352
:1015C20068696E67203D3D3D0D0A0054657374697C
:1015D2006E67206661737420737769746368696EDD
:1015E20067206265747765656E20646576696365F8
:1015F200730D0A004D6561737572696E67207377AA
:1016020069746368696E67206F7665726865616484
:101612000D0A0D0A00436F6D706C657465642025B8
:10162200752064657669636520737769746368659C
:10163200730D0A00546F74616C2074696D653A20F1
:1016420025752074696D6572207469636B730D0A68
:1016520000417665726167652070657220737769F3
:101662007463683A20256C752E2530336C75206DB5
:10167200730D0A000D0A507265737320616E792032
:101682006B657920746F20636F6E74696E75652E59
:101692002E2E000D0A3D3D3D2044454D4F20343A4B
:1016A20020496E746572616374697665204465765B
:1016B20069636520436F6E74726F6C203D3D3D0D12
:1016C2000A00436F6D6D616E64733A0D0A0020204B
:1016D200312D333A2053656C6563742064657669F5
:1016E20063650D0A002020735B58585D3A205365EC
:1016F2006E6420686578206279746520746F207347
:10170200656C6563746564206465766963650D0A5A
:10171200002020643A20446573656C65637420611F
:101722006C6C0D0A002020693A2053686F772064A0
:10173200657669636520696E666F0D0A0020207107
:101742003A2052657475726E20746F206D656E75E5
:101752000D0A0D0A0053656C65637465643A2025B1
:10176200730D0A00E286922053656E743A20307837
:10177200253032582020E2869020526563656976D2
:1017820065643A203078253032580D0A004E6F20B9
:101792006465766963652073656C6563746564214D
:1017A2000D0A00416C6C2064657669636573206480
:1017B2006573656C65637465640D0A0043757272C6
:1017C200656E743A20257320284465766963652026
:1017D2002575290D0A004E6F2064657669636520C0
:1017E20073656C65637465640D0A00200800E295F8
:1017F20094E29590E29590E29590E29590E2959030
:10180200E29590E29590E29590E29590E29590E2D1
:101812009590E29590E29590E29590E29590E2950E
:1018220090E29590E29590E29590E29590E2959003
:10183200E29590E29590E29590E29590E29590E2A1
:101842009590E29590E29590E29590E29590E295DE
:1018520090E29590E29590E29590E29590E29590D3
:10186200E29590E29590E29590E295970D0A00E25A
:101872009591202020535049204D554C54492D44D8
:10188200455649434520425553202D2041546D650C
:10189200676131323820202020E295910D0A00E262
:1018A200959AE29590E29590E29590E29590E29574
:1018B20090E29590E29590E29590E29590E2959073
:1018C200E29590E29590E29590E29590E29590E211
:1018D2009590E29590E29590E29590E29590E2954E
:1018E20090E29590E29590E29590E29590E2959043
:1018F200E29590E29590E29590E29590E29590E2E1
:101902009590E29590E29590E29590E29590E2951D
:1019120090E29590E29590E29590E2959D0D0A00F5
:1019220053656C6563742044656D6F3A0D0A00203F
:10193200205B315D2044657669636520496E666F80
:10194200726D6174696F6E0D0A0020205B325D203A
:1019520053657175656E7469616C2044657669635F
:1019620065204163636573730D0A0020205B335D5C
:1019720020526170696420537769746368696E6785
:1019820020546573740D0A0020205B345D20496E7B
:10199200746572616374697665204465766963650E
:1019A20020436F6E74726F6C0D0A00456E7465721F
:1019B2002073656C656374696F6E2028312D34293C
:1019C2003A20000D0A0D0A2A2A2A20535049204D96
:1019D200756C74692D446576696365204275732060
:1019E20053797374656D202A2A2A0D0A0041546DB9
:1019F2006567613132382053504920427573204D5A
:101A0200616E616765720D0A00537570706F727452
:101A1200696E672033205350492064657669636597
:101A220073206F6E20736861726564206275730D36
:101A32000A00496E76616C69642073656C65637433
:101A4200696F6E210D0A002575002530325800009D
:00000001FF
