:100000000C9446000C9465000C9465000C946500FB
:100010000C9465000C9465000C9465000C946500CC
:100020000C9465000C9465000C9465000C946500BC
:100030000C9465000C9465000C9465000C946500AC
:100040000C9465000C9465000C9469060C94650092
:100050000C9465000C9465000C9465000C9465008C
:100060000C9465000C9465000C9465000C9465007C
:100070000C9465000C9465000C941E050C946500AE
:100080000C9465000C9465000C94650011241FBE4F
:10009000CFEFD0E1DEBFCDBF17E0A0E0B1E0EAE7EF
:1000A000F4E100E00BBF02C007900D92AE3AB10739
:1000B000D9F727E0AEEAB7E001C01D92AB3BB2072B
:1000C000E1F70E9484060C943B0A0C94000080E245
:1000D000809370001092710084E080937400089502
:1000E00084EA8093740081E197E22091740027FDF7
:1000F00004C00197D1F782E0089580917100887F54
:10010000883021F0803111F083E0089580E0089577
:1001100084E98093740086EF8A95F1F708958093BF
:10012000730084E88093740081E197E22091740069
:1001300027FD04C00197D1F782E0089580917100F6
:10014000887F883121F0883211F083E0089580E0C3
:100150000895662311F024EC01C024E82093740074
:1001600021E137E24091740047FD05C0215031097B
:10017000C9F782E0089520917300FC0120838091EB
:100180007100887F662319F0803519F404C0883522
:1001900011F083E0089580E008950F931F93CF93AB
:1001A000DF93082F162FD42F0E947000C82F8111C3
:1001B00013C0802F880F0E948F00C82F81110CC0A0
:1001C000812F0E948F00C82F811106C08D2F0E94A1
:1001D0008F00C82F882321F00E9488008C2F03C035
:1001E0000E94880080E0DF91CF911F910F910895C8
:1001F000FF920F931F93CF93DF93D82FF62E8A0190
:100200000E947000C82F811121C08D2F880F0E947D
:100210008F00C82F81111AC08F2D0E948F00C82F08
:10022000811114C00E947000C82F81110FC08D2F42
:10023000880F81600E948F00C82F811107C060E085
:10024000C8010E94A900C82F882321F00E948800BD
:100250008C2F03C00E94880080E0DF91CF911F9116
:100260000F91FF9008958F929F92AF92BF92CF927D
:10027000DF92EF92FF920F931F93CF93DF93CDB74F
:10028000DEB7E2970FB6F894DEBF0FBECDBF4C01CC
:10029000E62E86E291E00E94B30408E010E0F12C23
:1002A00084E5C82E81E0D82ECE0101965C010E9423
:1002B0007000811120C0802F880F0E948F00811153
:1002C00018C0FE1428F4F401EF0DF11D0083F3941F
:1002D0001F930F93DF92CF92BF92AF920E9452076B
:1002E000C5010E94B3040F900F900F900F900F90D4
:1002F0000F900E9488000F5F1F4F08371105B9F655
:100300008F2DE2960FB6F894DEBF0FBECDBFDF9102
:10031000CF911F910F91FF90EF90DF90CF90BF9002
:10032000AF909F908F9008958F929F92AF92BF92BF
:10033000DF92EF92FF920F931F93CF93DF93CDB78E
:10034000DEB7CC54D1090FB6F894DEBF0FBECDBFD7
:100350008FE691E00E94B30483E991E00E94B30428
:1003600060E1CE01CD960E943301D82E1F928F936B
:1003700083EB91E09F938F93CE0101965C019F9355
:100380008F930E945207C5010E94B3040F900F90F3
:100390000F900F900F900F90DD2049F189ED91E0C3
:1003A0000E94B304FE01FD967F0100E010E08FEE95
:1003B000882E81E0982E0D15C0F4F70181917F0100
:1003C0000F5F1F4F1F928F931F930F939F928F92D8
:1003D000BF92AF920E945207C5010E94B3040FB6AC
:1003E000F894DEBF0FBECDBFE6CFD5BA06C08DE014
:1003F00092E00E94B3048FEF85BB83E492E00E94F9
:10040000B3040E94BF04C45BDF4F0FB6F894DEBF95
:100410000FBECDBFDF91CF911F910F91FF90EF9055
:10042000DF90BF90AF909F908F900895EF92FF92D2
:100430000F931F93CF93DF93CDB7DEB7C755D10985
:100440000FB6F894DEBF0FBECDBF82E692E00E94E9
:10045000B3048FE892E00E94B3040E94BF04659643
:100460008FAF65970E94AC040E94BF0466968FAF61
:1004700066970E94AC0467961FAE6797FE01EC5A20
:10048000FF4F9F012E5F3F4F00E00295007F81915B
:1004900090ED980F9A3010F4092B0CC09FEB980F39
:1004A000963010F4875305C09FE9980F963010F4EA
:1004B0008755082BE217F30741F786EB92E00E947D
:1004C000B3040E94BF0462968FAF62970E94AC048F
:1004D0000E94BF0463968FAF63970E94AC0464963A
:1004E0001FAE6497FE01EF5AFF4F9F012E5F3F4FF3
:1004F00010E01295107F819190ED980F9A3010F4D2
:10050000192B0CC09FEB980F963010F4875305C041
:100510009FE9980F963010F48755182BE217F307D0
:1005200041F783EE92E00E94B304AE01495A5F4F57
:10053000612F802F0E94F8009E012F5F3F4F7901AD
:1005400081111EC068968FAD68971F928F931F927E
:100550008F931F921F938DEF92E09F938F933F9302
:100560002F930E945207C7010E94B30468968FAD73
:10057000689785BB0FB6F894DEBF0FBECDBF15C020
:100580001F928F9385E293E09F938F933F932F93D6
:100590000E945207C7010E94B3048FEF85BB0F90E2
:1005A0000F900F900F900F900F9083E492E00E94B5
:1005B000B3040E94BF04C95ADF4F0FB6F894DEBFE0
:1005C0000FBECDBFDF91CF911F910F91FF90EF90A4
:1005D00008956F927F928F929F92AF92BF92DF9217
:1005E000EF92FF920F931F93CF93DF93CDB7DEB7B8
:1005F000C254D1090FB6F894DEBF0FBECDBF88E458
:1006000093E00E94B30481E793E00E94B3048AE977
:1006100093E00E94B3040E94BF040E94AC040E94B5
:10062000BF040E94AC0487EB93E00E94B3048E01E8
:100630000D5C1F4F5801F12CD12CA5016F2D80E5C9
:100640000E94F8008111D3948FEF97E40197F1F79E
:1006500000C00000F3949FEFA91AB90AE0E1FE126E
:10066000ECCF8EEE93E00E94B30489E294E00E9406
:10067000B3045801F0E1AF0EB11C380183E3882EBA
:1006800084E0982ECE0101967C01F30181913F0117
:100690001F928F939F928F92FF92EF920E94520728
:1006A000C7010E94B3040F900F900F900F900F900E
:1006B0000F90A614B70449F789E394E00E94B304AD
:1006C000F80181918F0190EE980F9F3508F08EE22E
:1006D0000E94AC04A016B10699F71F92DF9285E440
:1006E00094E09F938F93FF92EF920E945207C7016D
:1006F0000E94B30483E492E00E94B3040E94BF040A
:100700000F900F900F900F900F900F90CE5BDF4FD8
:100710000FB6F894DEBF0FBECDBFDF91CF911F9112
:100720000F91FF90EF90DF90BF90AF909F908F90D0
:100730007F906F9008952F923F924F925F926F92A9
:100740007F928F929F92AF92BF92CF92DF92EF9261
:10075000FF920F931F93CF93DF93CDB7DEB7C954AA
:10076000D1090FB6F894DEBF0FBECDBF85E694E089
:100770000E94B30488E894E00E94B30480911A01B7
:1007800090911B01A0911C01B0911D0129968CAF85
:100790009DAFAEAFBFAF299788E0EEE1F1E0DE019B
:1007A000DD9601900D928A95E1F78E010B5B1F4F4C
:1007B0006E012DE3C20ED11C280184E0480E511CAD
:1007C0009FEAA92E94E0B92EDE0111967D0129EC55
:1007D000622E24E0722EF801D8018D918D01809354
:1007E0007000D6018C9111969C91B2E0CB0ED11C79
:1007F00020811F922F939F938F93BF92AF92FF926E
:10080000EF920E945207C7010E94B3048CB49DB4BA
:100810000FB6F894DEBF0FBECDBF84E6282E312C74
:10082000AE01475B5F4F60E080E50E94F8008111F8
:1008300001C033942A942110F3CF8CB59DB51F923B
:100840003F92881999099F938F937F926F92FF929D
:10085000EF920E945207C7010E94B3049FEFAFE3DB
:10086000BBE09150A040B040E1F700C000000FB6DF
:10087000F894DEBF0FBECDBF0415150509F0ABCF50
:1008800080E2809370008FEE94E00E94B30483E4D2
:1008900092E00E94B3040E94BF04C75BDF4F0FB613
:1008A000F894DEBF0FBECDBFDF91CF911F910F91A6
:1008B000FF90EF90DF90CF90BF90AF909F908F9080
:1008C0007F906F905F904F903F902F90089589EEAA
:1008D00093E00E94B30485E295E00E94B30486EAA7
:1008E00095E00E94B30486ED95E00E94B3048BEE80
:1008F00093E00E94B30487E596E00E94B30486E685
:1009000096E00E94B3048EE796E00E94B3048FE95C
:1009100096E00E94B30482EC96E00E94B3048BEE52
:1009200093E00E94B30489ED96E00C94B304109216
:100930009B0086E080939D0088E980939A008FE277
:1009400090E09093B8078093B70710929800809139
:10095000B70780939900089590919B0095FFFCCF75
:1009600080939C000895CF93DF93EC0189918823B5
:1009700019F00E94AC04FACFDF91CF9108958091D5
:100980009B0087FFFCCF80919C0008950F931F93DD
:10099000CF93DF9300D000D000D0CDB7DEB79F93C8
:1009A0008F9385EA97E09F938F938E010F5F1F4F80
:1009B0001F930F930E945207C8010E94B3040F9027
:1009C0000F900F900F900F900F9026960FB6F894FF
:1009D000DEBF0FBECDBFDF91CF911F910F91089564
:1009E0000F931F93CF93DF9300D01F92CDB7DEB745
:1009F0001F928F9388EA97E09F938F938E010F5FEA
:100A00001F4F1F930F930E945207C8010E94B30407
:100A10000F900F900F900F900F900F900F900F90DE
:100A20000F90DF91CF911F910F91089587E191E091
:100A30000C94B3040E94BF040C94AC041F920F9258
:100A40000FB60F9211248F9380919C008093B3076F
:100A500081E08093B2078091B3078093B6078F91AE
:100A60000F900FBE0F901F9018958091B2078823AA
:100A700019F01092B20781E008958091B3070895AC
:100A8000CF93DF9360E177E20E94E906EC01FB017E
:100A9000E050FF4F80810E94AC04CE0168EE73E00D
:100AA0000E94E906EC01FB01E050FF4F80810E94AB
:100AB000AC04CE0164E670E00E94E906EC01FB01A3
:100AC000E050FF4F80810E94AC04CE016AE070E0EC
:100AD0000E94E906EC01FB01E050FF4F80810E947B
:100AE000AC04C050DF4F8881DF91CF910C94AC04EF
:100AF000CF9364E60E94DD06C92FE82FF0E0E050B6
:100B0000FF4F80810E94AC048C2F6AE00E94DD06BA
:100B1000C92FE82FF0E0E050FF4F80810E94AC0425
:100B2000EC2FF0E0E050FF4F8081CF910C94AC04AB
:100B3000CF93DF93EC0197FD02C08BE204C0D19507
:100B4000C195D1098DE20E94AC04CE0160E177E24B
:100B50000E94FD06EC01FB01E050FF4F80810E94E6
:100B6000AC04CE0168EE73E00E94FD06EC01FB01CF
:100B7000E050FF4F80810E94AC04CE0164E670E03B
:100B80000E94FD06EC01FB01E050FF4F80810E94B6
:100B9000AC04CE016AE070E00E94FD06EC01FB01AE
:100BA000E050FF4F80810E94AC04C050DF4F88812D
:100BB000DF91CF910C94AC044F925F926F927F9231
:100BC0008F929F92AF92BF92CF92DF92EF92FF925D
:100BD0000F931F93CF93DF934B015C01C9E0D0E0EB
:100BE000C12C9AECD92E9AE9E92E9BE3F92E2AE042
:100BF000422E512C612C712C8C149D04AE04BF0428
:100C000054F4C701B601A30192010E9411076901C2
:100C10007A01219789F78AE0482E512C612C712C9A
:100C20001C141D041E041F04DCF4C501B401A7013B
:100C300096010E9411078B01D82FC92FF901E050AE
:100C4000FF4F80810E94AC044801AD2EBC2EC7012D
:100C5000B601A30192010E94110769017A01E0CF58
:100C6000DF91CF911F910F91FF90EF90DF90CF9088
:100C7000BF90AF909F908F907F906F905F904F90BC
:100C80000895CF93C82FE82FE295EF70F0E0E05081
:100C9000FF4F80810E94AC04CF70EC2FF0E0E05059
:100CA000FF4F8081CF910C94AC04E82FE295EF7058
:100CB000F0E0E050FF4F208130E0322F2227E82F74
:100CC000EF70F0E0E050FF4F8081A901482BCA018E
:100CD00008951F920F920FB60F9211248F93CF9306
:100CE000DF931F92CDB7DEB78CB1898389810F90D6
:100CF000DF91CF918F910F900FBE0F901F9018959D
:100D000008950895089508950E9497040E94670029
:100D100081E08EBD8FEF84BB15BA2FEF8FE39BE090
:100D2000215080409040E1F700C0000081EF96E044
:100D30000E94B3048CE197E00E94B3048CE397E037
:100D40000E94B30481E697E00E94B3040E94670406
:100D50000E94BF04C82F0E94AC048BEE93E00E9457
:100D6000B304C23369F028F4C13381F40E949401C2
:100D70001AC0C33341F0C43349F40E949B0313C02B
:100D80000E94160210C00E94E9020DC080E997E09F
:100D90000E94B3042FEF8FE796E1215080409040EE
:100DA000E1F700C000002FEF8FE39BE0215080406F
:100DB0009040E1F700C00000C9CF991B79E004C062
:100DC000991F961708F0961B881F7A95C9F780958A
:100DD0000895AA1BBB1B51E107C0AA1FBB1FA61782
:100DE000B70710F0A61BB70B881F991F5A95A9F7D4
:100DF00080959095BC01CD01089597FB072E16F4C0
:100E0000009407D077FD09D00E94E90607FC05D0C1
:100E10003EF4909581959F4F0895709561957F4F11
:100E20000895052E97FB1EF400940E94280757FD95
:100E300007D00E94300707FC03D04EF40C9428071B
:100E400050954095309521953F4F4F4F5F4F0895F6
:100E500090958095709561957F4F8F4F9F4F089526
:100E6000A1E21A2EAA1BBB1BFD010DC0AA1FBB1FAE
:100E7000EE1FFF1FA217B307E407F50720F0A21B20
:100E8000B30BE40BF50B661F771F881F991F1A948D
:100E900069F760957095809590959B01AC01BD01B7
:100EA000CF0108950F931F93CF93DF93CDB7DEB794
:100EB0002E970FB6F894DEBF0FBECDBF0D891E89E9
:100EC00086E08C831A8309838FEF9FE79E838D834F
:100ED000AE01475E5F4F6F89788DCE0101960E940B
:100EE0008107EF81F885E00FF11F10822E960FB673
:100EF000F894DEBF0FBECDBFDF91CF911F910F9150
:100F000008952F923F924F925F926F927F928F92AD
:100F10009F92AF92BF92CF92DF92EF92FF920F9388
:100F20001F93CF93DF93CDB7DEB72B970FB6F8940F
:100F3000DEBF0FBECDBF6C017B018A01FC011782B1
:100F40001682838181FFCCC1CE0101963C01F6015E
:100F50009381F70193FD859193FF81917F01882310
:100F600009F4BAC1853239F493FD859193FF8191DB
:100F70007F01853229F4B60190E00E94A109E7CFF4
:100F8000912C212C312CFFE1F315D8F08B3279F024
:100F900038F4803279F08332A1F4232D20611DC012
:100FA0008D3261F0803369F4232D216016C0832DCA
:100FB0008260382EE32DE4603E2E2AC0F32DF860C7
:100FC0001DC037FC2DC020ED280F2A3040F08E3296
:100FD000B9F436FC81C1232D2064322E19C036FEAF
:100FE00006C08AE0989E200D1124922E11C0EAE0DE
:100FF0002E9E200D1124222EF32DF0623F2E08C0CC
:101000008C3621F4832D8068382E02C0883641F456
:10101000F70193FD859193FF81917F018111B3CFFA
:10102000982F9F7D9554933028F40C5F1F4F9FE3BA
:1010300099830DC0833631F0833771F0833509F021
:1010400059C021C0F801808189830E5F1F4F882419
:101050008394912C530113C02801F2E04F0E511CD0
:10106000F801A080B18036FE03C0692D70E002C097
:101070006FEF7FEFC5010E9496094C018201F32DAD
:10108000FF773F2E16C0280122E0420E511CF801C6
:10109000A080B18036FE03C0692D70E002C06FEF02
:1010A0007FEFC5010E948B094C01F32DF0683F2EA4
:1010B000820133FC1BC0822D90E088169906B0F4A3
:1010C000B60180E290E00E94A1092A94F4CFF501D4
:1010D00037FC859137FE81915F01B60190E00E9457
:1010E000A10921102A9421E0821A91088114910407
:1010F00071F7E8C0843611F0893641F5F80137FE02
:1011000007C060817181828193810C5F1F4F08C08D
:1011100060817181072E000C880B990B0E5F1F4FA9
:10112000F32DFF763F2E97FF09C09095809570951F
:1011300061957F4F8F4F9F4FF0683F2E2AE030E040
:10114000A3010E94DD09882E861845C0853731F439
:10115000232D2F7EB22E2AE030E025C0932D997FDB
:10116000B92E8F36C1F018F4883579F0B5C08037C4
:1011700019F0883721F0B0C0E92FE061BE2EB4FE2F
:101180000DC0FB2DF460BF2E09C034FE0AC0292F0C
:101190002660B22E06C028E030E005C020E130E035
:1011A00002C020E132E0F801B7FE07C06081718122
:1011B000828193810C5F1F4F06C06081718180E046
:1011C00090E00E5F1F4FA3010E94DD09882E861854
:1011D000FB2DFF773F2E36FE0DC0232D2E7FA22E36
:1011E000891458F434FE0BC032FC09C0832D8E7E66
:1011F000A82E05C0B82CA32C03C0B82C01C0B92C54
:10120000A4FE0FC0FE01E80DF11D8081803321F4A2
:101210009A2D997EA92E09C0A2FE06C0B394B3945C
:1012200004C08A2D867809F0B394A3FC11C0A0FEF7
:1012300006C0B21488F4280C922C9B180EC0B2146D
:1012400060F4B60180E290E00E94A109B394F7CF68
:10125000B21418F42B1802C0982C212CA4FE10C034
:10126000B60180E390E00E94A109A2FE17C0A1FC94
:1012700003C088E790E002C088E590E0B6010CC0AA
:101280008A2D867859F0A1FE02C08BE201C080E26F
:10129000A7FC8DE2B60190E00E94A109891438F400
:1012A000B60180E390E00E94A1099A94F7CF8A9456
:1012B000F301E80DF11D8081B60190E00E94A109C3
:1012C0008110F5CF222009F442CEB60180E290E0F1
:1012D0000E94A1092A94F6CFF6018681978102C067
:1012E0008FEF9FEF2B960FB6F894DEBF0FBECDBFEA
:1012F000DF91CF911F910F91FF90EF90DF90CF90F2
:10130000BF90AF909F908F907F906F905F904F9025
:101310003F902F900895FC0105906150704001109E
:10132000D8F7809590958E0F9F1F0895FC0161500E
:10133000704001900110D8F7809590958E0F9F1FF7
:1013400008950F931F93CF93DF93FB01238121FD1A
:1013500003C08FEF9FEF2CC022FF16C0468157813C
:10136000248135814217530744F4A081B1819D0146
:101370002F5F3F4F318320838C93268137812F5FEE
:101380003F4F3783268314C08B01EC01FB0100849F
:10139000F185E02D0995892BE1F6D80116968D91FE
:1013A0009C911797019617969C938E931697CE0152
:1013B000DF91CF911F910F910895FA01AA2728304C
:1013C00051F1203181F1E8946F936E7F6E5F7F4F12
:1013D0008F4F9F4FAF4FB1E03ED0B4E03CD0670F8E
:1013E000781F891F9A1FA11D680F791F8A1F911DE1
:1013F000A11D6A0F711D811D911DA11D20D009F431
:1014000068943F912AE0269F11243019305D319372
:10141000DEF6CF010895462F4770405D4193B3E05B
:101420000FD0C9F7F6CF462F4F70405D4A3318F002
:10143000495D31FD4052419302D0A9F7EACFB4E0B3
:10144000A6959795879577956795BA95C9F700976B
:101450006105710508959B01AC010A2E069457950C
:10146000479537952795BA95C9F7620F731F841F63
:0A147000951FA01D0895F894FFCF0A
:10147A0030313233343536373839414243444546C0
:10148A0009000D0A0009000D0A0048200C02060591
:10149A000D0515051D055363616E6E696E6720495A
:1014AA0032432062757320286164647265737365C0
:1014BA00732030783038202D2030783737292E2E77
:1014CA002E0D0A002020466F756E642064657669C9
:1014DA006365206174203078253032580D0A000D7A
:1014EA000A3D3D3D2044454D4F20313A2049324383
:1014FA0020427573205363616E6E6572203D3D3DD7
:10150A000D0A005363616E6E696E6720666F722002
:10151A0049324320646576696365732E2E2E0D0A5F
:10152A000D0A000D0A5363616E20636F6D706C655E
:10153A0074652120466F756E642025752064657672
:10154A006963652873290D0A000D0A446576696383
:10155A0065206164647265737365733A0D0A0020CD
:10156A00204465766963652025753A2030782530F0
:10157A0032582028372D626974290D0A000D0A4E47
:10158A006F206465766963657320666F756E642E75
:10159A0020436865636B20636F6E6E656374696F61
:1015AA006E7320616E642070756C6C2D757073217A
:1015BA000D0A000D0A507265737320616E79206BF3
:1015CA00657920746F20636F6E74696E75652E2E4F
:1015DA002E000D0A3D3D3D2044454D4F20323A2014
:1015EA00526567697374657220526561642F577218
:1015FA006974652054657374203D3D3D0D0A0045AC
:10160A006E746572206465766963652061646472CC
:10161A0065737320286865782C20652E672E2C2028
:10162A003530293A20000D0A0D0A456E746572207C
:10163A007265676973746572206164647265737335
:10164A0020286865782C20652E672E2C20303029BA
:10165A003A20000D0A0D0A52656164696E672072AC
:10166A00656769737465722E2E2E0D0A00526567BE
:10167A00697374657220307825303258203D2030E5
:10168A0078253032582028257520646563696D6194
:10169A006C290D0A004572726F7220726561646965
:1016AA006E672072656769737465722120436F647F
:1016BA00653A2025750D0A000D0A3D3D3D20444539
:1016CA004D4F20333A2053657175656E7469616CAC
:1016DA0020526561642054657374203D3D3D0D0AB6
:1016EA000052656164696E67206D756C7469706C0F
:1016FA00652062797465732066726F6D2049324382
:10170A00206465766963650D0A00456E746572200A
:10171A006465766963652061646472657373202801
:10172A00686578293A20000D0A0D0A5265616469D4
:10173A006E67203136206279746573207374617222
:10174A0074696E672066726F6D2061646472657376
:10175A007320307830302E2E2E0D0A0D0A00416487
:10176A0064726573733A2030302030312030322071
:10177A003033203034203035203036203037203096
:10178A003820303920304120304220304320304444
:10179A002030452030460D0A00446174613A202009
:1017AA002020002530325820000D0A0D0A415343EB
:1017BA0049493A20000D0A0D0A5265616420636F97
:1017CA006D706C65746521204572726F72733A2070
:1017DA0025750D0A000D0A3D3D3D2044454D4F201B
:1017EA00343A204932432053706565642054657346
:1017FA0074203D3D3D0D0A0054657374696E67207F
:10180A00646966666572656E742049324320636C4A
:10181A006F636B207370656564730D0A0D0A00545B
:10182A00657374696E672025732028545742523DA8
:10183A002575292E2E2E0D0A00202054696D653A31
:10184A00202575207469636B732C20537563636557
:10185A0073733A2025752F3130300D0A0D0A005363
:10186A0070656564207465737420636F6D706C6550
:10187A007465210D0A003530206B487A003130300A
:10188A00206B487A00323030206B487A003430308E
:10189A00206B487A00E29594E29590E29590E29561
:1018AA0090E29590E29590E29590E29590E295907B
:1018BA00E29590E29590E29590E29590E29590E219
:1018CA009590E29590E29590E29590E29590E29556
:1018DA0090E29590E29590E29590E29590E295904B
:1018EA00E29590E29590E29590E29590E29590E2E9
:1018FA009590E29590E29590E29590E29590E29526
:10190A0090E29590E29590E29590E29590E295901A
:10191A00E295970D0A00E295912020204932432F43
:10192A00545749204D41535445522042415349434B
:10193A00202D2041546D65676131323820202020E6
:10194A00E295910D0A00E2959AE29590E29590E26D
:10195A009590E29590E29590E29590E29590E295C5
:10196A0090E29590E29590E29590E29590E29590BA
:10197A00E29590E29590E29590E29590E29590E258
:10198A009590E29590E29590E29590E29590E29595
:10199A0090E29590E29590E29590E29590E295908A
:1019AA00E29590E29590E29590E29590E29590E228
:1019BA009590E29590E29590E29590E29590E29565
:1019CA0090E2959D0D0A0053656C65637420446529
:1019DA006D6F3A0D0A0020205B315D2049324320A9
:1019EA00427573205363616E6E65720D0A00202082
:1019FA005B325D2052656769737465722052656156
:101A0A00642F577269746520546573740D0A002037
:101A1A00205B335D204D756C74692D4279746520A5
:101A2A0053657175656E7469616C20526561640DE8
:101A3A000A0020205B345D204932432053706565DB
:101A4A006420546573740D0A00456E7465722073C0
:101A5A00656C656374696F6E2028312D34293A20CC
:101A6A00000D0A0D0A2A2A2A204932432F545749BF
:101A7A00204D617374657220436F6D6D756E696375
:101A8A006174696F6E202A2A2A0D0A0041546D6515
:101A9A00676131323820493243204C6561726E6980
:101AAA006E672053797374656D0D0A00446566612B
:101ABA00756C743A20313030206B487A2C20372DDF
:101ACA006269742061646472657373696E670D0A72
:101ADA000050696E733A205044303D53434C2C20D9
:101AEA005044313D53444120286E65656420342EAC
:101AFA00374B2070756C6C2D75707321290D0A0097
:101B0A00496E76616C69642073656C656374696F8C
:0E1B1A006E210D0A002575002530325800009E
:00000001FF
