:100000000C9446000C9465000C9465000C946500FB
:100010000C9465000C9465000C9465000C946500CC
:100020000C9465000C9465000C9465000C946500BC
:100030000C9465000C9465000C9465000C946500AC
:100040000C9465000C9465000C94A9080C94650050
:100050000C9465000C9465000C9465000C9465008C
:100060000C9465000C9465000C9465000C9465007C
:100070000C9465000C9465000C945E070C9465006C
:100080000C9465000C9465000C94650011241FBE4F
:10009000CFEFD0E1DEBFCDBF18E0A0E0B1E0E8E2F5
:1000A000F9E100E00BBF02C007900D92A432B10746
:1000B000D9F728E0A4E2B8E001C01D92A733B20747
:1000C000E1F70E94C4080C94920C0C940000E5E641
:1000D000F0E080818260808382E08A95F1F700C041
:1000E00080818D7F80838BE78A95F1F70895E5E61F
:1000F000F0E020818F7034E0839FC0011124237CC5
:10010000822B80830C946700CF93C82F8091650069
:10011000662311F0816001C08E7F809365008C2F73
:1001200082958F700E9477008C2F8F700E947700CD
:100130008BE78A95F1F7CF910895CF93C82F60E0B0
:100140000E948400C13029F486E69EE00197F1F711
:100150000000CF91089561E00C948400E4E6F0E0A3
:1001600080818F6380832FEF8FE191E02150804069
:100170009040E1F700C00000E5E6F0E080818E7F6E
:10018000808383E00E9477008FEF93E20197F1F77D
:1001900000C0000083E00E94770084E191E00197B5
:1001A000F1F7000083E00E94770084E191E001977D
:1001B000F1F7000082E00E94770084E191E001976E
:1001C000F1F7000088E20E949D008CE00E949D00F3
:1001D00081E00E949D0086E00C949D0081E00C94DB
:1001E0009D008111605C862F80680C949D00CF93E8
:1001F000DF93EC018991882319F00E94AB00FACFBC
:10020000DF91CF910895CF93DF93EA010E94F1002F
:10021000CE01DF91CF910C94F7008FE08ABB8FEF76
:100220008BBB089580E090E061E070E02BB32F601D
:100230002BBB3BB3AB01082E01C0440F0A94EAF775
:10024000242F209523232BBB2CE02A95F1F70000C7
:1002500049B3407F20E030E050E0F9013496DA0104
:1002600002C0B595A795EA95E2F7A0FD0BC0880FEF
:10027000991F880F991F865E9E4FFC01E20FF31FA6
:10028000808108952F5F3F4F2430310531F701966B
:100290008430910559F680E008950E941201882368
:1002A00011F190912408891317C0909129089F3F5C
:1002B00019F09F5F9093290890912908933088F056
:1002C0009091260891110DC091E09093260810920C
:1002D00028081092270808958093240881E08093CD
:1002E000290880E0089580912908882319F0815019
:1002F00080932908809129088111F3CF1092260854
:10030000109224080895CF930E944D01C82F8FEFBB
:1003100097E40197F1F700C00000CC23A9F30E94F5
:100320001201882339F08FEF97E40197F1F700C0AD
:100330000000F5CF10922408109226081092290888
:100340008C2FCF9108952F923F924F925F926F9290
:100350007F928F929F92AF92BF92CF92DF92EF9255
:10036000FF920F931F93CF93DF93CDB7DEB7CE5697
:10037000D1090FB6F894DEBF0FBECDBF8AE291E07F
:100380000E94F30684E591E00E94F3068BE791E07A
:100390000E94F3060E94EE004AEA51E060E080E02D
:1003A0000E940301212CE12CF12C00E010E089EBEC
:1003B000482E81E0582ECE0101965C0199EC692E01
:1003C00091E0792E6E0191E5C90ED11C21EE822EAD
:1003D00021E0922E0E941201382E8823D1F0281697
:1003E000C1F00F5F1F4F1F930F93832D032C000C41
:1003F000990B9F933F925F924F92BF92AF920E9450
:10040000A909C5010E94F3060FB6F894DEBF0FBE1E
:10041000CDBF0E944D01282E882309F46BC09FEFA9
:10042000E91AF90AFF92EF92822D022C000C990B27
:100430009F932F927F926F92DF92CF920E94A90991
:10044000C6010E94F30680EC0E949D00FF92EF928D
:100450001F930F939F928F92DF92CF920E94A909D0
:10046000C6010E94F7000FB6F894DEBF0FBECDBFE5
:1004700094E429123FC02FEF8FE39BE0215080408E
:100480009040E1F700C00000C8018E199F099F93BA
:100490008F93FF92EF921F930F938FEE91E09F93B4
:1004A0008F938E010F5F1F4F1F930F930E94A90917
:1004B000C8010E94F3060FB6F894DEBF0FBECDBF91
:1004C000C259DF4F0FB6F894DEBF0FBECDBFDF912C
:1004D000CF911F910F91FF90EF90DF90CF90BF9041
:1004E000AF909F908F907F906F905F904F903F90D4
:1004F0002F9008958FEF97E40197F1F700C0000067
:10050000232C68CF2F923F924F925F926F927F92EF
:100510008F929F92AF92BF92CF92DF92EF92FF9213
:100520000F931F93CF93DF93CDB7DEB7A8970FB686
:10053000F894DEBF0FBECDBF8DE192E00E94F306BE
:1005400086E492E00E94F30683E792E00E94F306BD
:100550000E94EE0049E852E060E080E00E94030162
:100560008E010F5F1F4F83ED482E82E0582E9CEEC8
:10057000692E92E0792E2AEAC22E22E0D22E39EBA1
:10058000A32E32E0B32E4AE9842E42E0942E0E943C
:100590001201282E30902408882309F455C0311008
:1005A0001FC080932408109228081092270880EC1E
:1005B0000E949D00822D022C000C990B9F932F927C
:1005C0009F928F921F930F930E94A909C8010E94C6
:1005D000F7000F900F900F900F900F900F90A3C007
:1005E0008311A1C0809127089091280801969093CB
:1005F0002808809327088436910509F094C080EC80
:100600000E949D00E22C022C000CFF08FF922F920A
:10061000DF92CF921F930F930E94A909C8010E94F5
:10062000F700FF922F92BF92AF921F930F930E94F9
:10063000A909C8010E94F3062FEF25BB0FB6F89455
:10064000DEBF0FBECDBF6FC0332009F46CC08091F8
:10065000270890912808E32C032C000CFF084AE09F
:10066000489F9001499F300D112484369105C8F4AC
:100670003F932F93FF923F925F924F921F930F935E
:100680000E94A90980EC0E949D00FF923F927F92F8
:100690006F921F930F930E94A909C8010E94F7004F
:1006A0000CC03F932F93FF923F928CEF92E09F9369
:1006B0008F931F930F930E94A9090FB6F894DEBF82
:1006C0000FBECDBFC8010E94F30694E4391228C0C2
:1006D0002FEF4FE38BE0215040408040E1F700C016
:1006E000000084E193E00E94F30610922408A8968B
:1006F0000FB6F894DEBF0FBECDBFDF91CF911F9133
:100700000F91FF90EF90DF90CF90BF90AF909F90B0
:100710008F907F906F905F904F903F902F900895B3
:100720001092240815BA8FEF97E40197F1F700C0F3
:1007300000002DCF2F923F924F925F926F927F9247
:100740008F929F92AF92BF92CF92DF92EF92FF92E1
:100750000F931F93CF93DF93CDB7DEB7EC970FB610
:10076000F894DEBF0FBECDBF88E293E00E94F3068F
:100770008DE493E00E94F30681E793E00E94F30684
:1007800085E0ECE8F4E0DE01D89601900D928A95C0
:10079000E1F77E0123E3E20EF11C85E0F7011192FF
:1007A0008A95E9F70E94EE0043E953E060E080E0BB
:1007B0000E940301412C512C8E010F5F1F4F3E01FF
:1007C000F7E36F0E711C83E0282E9FE5A92E94E0BD
:1007D000B92E6E012FE1C20ED11C2FE6822E24E02D
:1007E000922E80EC0E949D008EE993E00E94F7001B
:1007F000312C351429F08AE20E94AB003394F9CFF2
:10080000352C33E0331528F08FE50E94AB0033948C
:10081000F8CF88EF92E00E94F7000E948301382E03
:10082000832D032C000C990B9F933F9284EA93E055
:100830009F938F931F930F930E94A909C8010E9451
:10084000F30680ED830D0F900F900F900F900F9097
:100850000F908A3090F4F3E0F51508F4B9C081E008
:10086000850DF701E50DF11D3082982F9295990FB6
:10087000990F907C95BB582EABC02AE232120BC068
:100880001BAA1CAA1DAA1EAA1FAA15BA8EEA93E0CB
:100890000E94F3069CC033E233129AC044E0541223
:1008A00097C01FAAFF92EF928CEB93E09F938F93D8
:1008B0001F930F930E94A909C8010E94F306F70134
:1008C000DE01D8960F900F900F900F900F900F9021
:1008D00091918D91981335C06E167F06C9F70E94CD
:1008E000EE004AE154E060E080E00E9403014AE249
:1008F00054E060E081E00E94030185E394E00E94FF
:10090000F30685E09FEF95BBFFEF2FE332E0F15058
:1009100020403040E1F700C0000015BA4FEFEFE390
:10092000F2E04150E040F040E1F700C000008150AB
:1009300051F72FEF3FEF4CE2215030404040E1F7BC
:1009400085C043940E94EE0040E554E060E080E002
:100950000E9403011F922F921F924F92BF92AF925B
:10096000DF92CF920E94A909A60160E081E00E9477
:1009700003011F922F921F924F929F928F921F936B
:100980000F930E94A909C8010E94F3069FEF95BB2F
:10099000EFEFFFEB21E2E150F0402040E1F700C033
:1009A000000015BA0FB6F894DEBF0FBECDBF93E0BE
:1009B000491671F00E94EE0043E953E060E080E0E8
:1009C0000E9403011BAA1CAA1DAA1EAA1FAA512C21
:1009D0008FEF9FE3E2E081509040E040E1F700C0FC
:1009E0000000F2E0F41508F0FCCE0E94EE0040EDAD
:1009F00053E060E080E00E9403014FED53E060E0CF
:100A000081E00E9403018CEE93E00E94F3068AE0ED
:100A10009FEF95BB2FEF3FE744E02150304040402F
:100A2000E1F700C0000015BAEFEFFFE724E0E15066
:100A3000F0402040E1F700C00000815051F73FEF47
:100A40004FEF8CE2315040408040E1F700C00000A1
:100A5000EC960FB6F894DEBF0FBECDBFDF91CF91FD
:100A60001F910F91FF90EF90DF90CF90BF90AF90CC
:100A70009F908F907F906F905F904F903F902F90BE
:100A800008952F923F924F925F926F927F928F9232
:100A90009F92AF92BF92CF92DF92EF92FF920F930D
:100AA0001F93CF93DF93CDB7DEB7EE970FB6F894D1
:100AB000DEBF0FBECDBF81E994E00E94F30686EB56
:100AC00094E00E94F30683EE94E00E94F3068E0108
:100AD0000D5C1F4F8BE0F80111928A95E9F70E9497
:100AE000EE004EE055E060E080E00E940301312C12
:100AF00083EC482E85E0582E9E012F5F3F4F7901F1
:100B000097E5692E95E0792E4E013EE3830E911C08
:100B10002AE0C22ED12C3BE2A32E35E0B32E80EC8E
:100B20000E949D00C8010E94F700232C89E08215D5
:100B300028F08FE50E94AB002394F8CF8AEF92E073
:100B40000E94F7000E948301282E94E489131DC09F
:100B50008CE195E00E94F306EE960FB6F894DEBFA6
:100B60000FBECDBFDF91CF911F910F91FF90EF90FE
:100B7000DF90CF90BF90AF909F908F907F906F90BD
:100B80005F904F903F902F90089580ED820D8A30B6
:100B900058F5E9E0E31508F4A5C0F1E0F30DFEAF68
:100BA000F801E30DF11D2082822D022C000C990B1F
:100BB0009F932F92BF92AF92FF92EF920E94A9094A
:100BC000C7010E94F3063EAD2FEF329FC0011124F2
:100BD000B6010E94540965BB0F900F900F900F90C3
:100BE0000F900F903EAC9BCF8AE2281215C03320A5
:100BF00009F478C03A94F801E30DF11D10828DE3F9
:100C000095E00E94F306EFEF3E9EC0011124B6016D
:100C10000E94540965BB83CFF3E22F1263C02AE020
:100C2000321239C00E94EE0049E455E060E080E0F5
:100C30000E940301A80160E081E00E9403011F936C
:100C40000F937F926F92FF92EF920E94A909C701C2
:100C50000E94F3063FEF35BB8FEF9FEFECE2815030
:100C60009040E040E1F700C0000015BAF8010F9095
:100C70000F900F900F900F900F901192E815F905BB
:100C8000E1F70E94EE004EE055E060E080E00E9457
:100C90000301312C44CF0E94EE0042E755E060E0B2
:100CA00080E00E94030141E855E060E081E00E949D
:100CB000030189E895E00E94F306FFEFF5BB2FEFF3
:100CC0003FEB81E2215030408040E1F700C000005E
:100CD00015BA0E94EE004EE055E060E080E00E9410
:100CE00003011DCF0E94EE004AEA55E060E080E07B
:100CF0000E94030147EB55E060E081E00E940301A0
:100D0000822D022C000C990B9F932F925F924F9291
:100D1000FF92EF920E94A909C7010E94F3069FEF7C
:100D2000EFE7F6E19150E040F040E1F700C000004D
:100D30000E94EE004EE055E060E080E00E9403017A
:100D40000F900F900F900F900F900F90E8CE8EE8BD
:100D500093E00E94F30687EE95E00E94F30688E692
:100D600096E00E94F30688E996E00E94F30680E987
:100D700093E00E94F30689E197E00E94F30688E27F
:100D800097E00E94F30680E497E00E94F3068DE569
:100D900097E00E94F30686E797E00E94F30680E959
:100DA00093E00E94F3068FE897E00C94F30610920C
:100DB0009B0086E080939D0088E980939A008FE2F3
:100DC00090E09093340880933308109298008091BB
:100DD000330880939900089590919B0095FFFCCF74
:100DE00080939C000895CF93DF93EC018991882331
:100DF00019F00E94EC06FACFDF91CF91089580910F
:100E00009B0087FFFCCF80919C0008950F931F9358
:100E1000CF93DF9300D000D000D0CDB7DEB79F9343
:100E20008F938CE694E09F938F938E010F5F1F4FFB
:100E30001F930F930E94A909C8010E94F3060F9007
:100E40000F900F900F900F900F9026960FB6F8947A
:100E5000DEBF0FBECDBFDF91CF911F910F910895DF
:100E60000F931F93CF93DF9300D01F92CDB7DEB7C0
:100E70001F928F938FE198E09F938F938E010F5F66
:100E80001F4F1F930F930E94A909C8010E94F306E8
:100E90000F900F900F900F900F900F900F900F905A
:100EA0000F90DF91CF911F910F91089587E191E00D
:100EB0000C94F3060E94FF060C94EC061F920F920E
:100EC0000FB60F9211248F9380919C0080932F086E
:100ED00081E080932E0880912F08809332088F91B3
:100EE0000F900FBE0F901F90189580912E088823A9
:100EF00019F010922E0881E0089580912F0808952E
:100F0000CF93DF9360E177E20E944009EC01FB019F
:100F1000E050FF4F80810E94EC06CE0168EE73E046
:100F20000E944009EC01FB01E050FF4F80810E94CC
:100F3000EC06CE0164E670E00E944009EC01FB0182
:100F4000E050FF4F80810E94EC06CE016AE070E025
:100F50000E944009EC01FB01E050FF4F80810E949C
:100F6000EC06C050DF4F8881DF91CF910C94EC06E6
:100F7000CF9364E60E943409C92FE82FF0E0E050D7
:100F8000FF4F80810E94EC068C2F6AE00E9434099A
:100F9000C92FE82FF0E0E050FF4F80810E94EC065F
:100FA000EC2FF0E0E050FF4F8081CF910C94EC06E5
:100FB000CF93DF93EC0197FD02C08BE204C0D19583
:100FC000C195D1098DE20E94EC06CE0160E177E285
:100FD0000E945409EC01FB01E050FF4F80810E9408
:100FE000EC06CE0168EE73E00E945409EC01FB01AF
:100FF000E050FF4F80810E94EC06CE0164E670E075
:101000000E945409EC01FB01E050FF4F80810E94D7
:10101000EC06CE016AE070E00E945409EC01FB018D
:10102000E050FF4F80810E94EC06C050DF4F888166
:10103000DF91CF910C94EC064F925F926F927F926A
:101040008F929F92AF92BF92CF92DF92EF92FF92D8
:101050000F931F93CF93DF934B015C01C9E0D0E066
:10106000C12C9AECD92E9AE9E92E9BE3F92E2AE0BD
:10107000422E512C612C712C8C149D04AE04BF04A3
:1010800054F4C701B601A30192010E9468096901E5
:101090007A01219789F78AE0482E512C612C712C16
:1010A0001C141D041E041F04DCF4C501B401A701B7
:1010B00096010E9468098B01D82FC92FF901E050D1
:1010C000FF4F80810E94EC064801AD2EBC2EC70167
:1010D000B601A30192010E94680969017A01E0CF7B
:1010E000DF91CF911F910F91FF90EF90DF90CF9004
:1010F000BF90AF909F908F907F906F905F904F9038
:101100000895CF93C82FE82FE295EF70F0E0E050FC
:10111000FF4F80810E94EC06CF70EC2FF0E0E05092
:10112000FF4F8081CF910C94EC06E82FE295EF7091
:10113000F0E0E050FF4F208130E0322F2227E82FEF
:10114000EF70F0E0E050FF4F8081A901482BCA0109
:1011500008951F920F920FB60F9211248F93CF9381
:10116000DF931F92CDB7DEB78CB1898389810F9051
:10117000DF91CF918F910F900FBE0F901F90189518
:1011800008950895089508950E94D7060E94AE001C
:101190000E940D018FEF84BB15BA2FEF8FE39BE008
:1011A000215080409040E1F700C0000087EA97E0BE
:1011B0000E94F3068EEC97E00E94F3060E94EE0078
:1011C00048EE57E060E080E00E94030148EF57E0FE
:1011D00060E081E00E94030181E085BB2FEF8FEF8B
:1011E0009CE2215080409040E1F700C000000E9446
:1011F000A7060E94FF06C82F0E94EC0680E993E034
:101200000E94F306C23369F028F4C13381F40E94CE
:10121000A30122C0C33341F0C43349F40E94410505
:101220001BC00E94820218C00E949A0315C081E070
:1012300098E00E94F3060E94EE0046E158E060E06C
:1012400080E00E9403012FEF8FE796E1215080405C
:101250009040E1F700C000002FEF8FE39BE02150AA
:1012600080409040E1F7C1CF991B79E004C0991FFD
:10127000961708F0961B881F7A95C9F780950895F0
:10128000AA1BBB1B51E107C0AA1FBB1FA617B707AC
:1012900010F0A61BB70B881F991F5A95A9F78095C8
:1012A0009095BC01CD01089597FB072E16F400948C
:1012B00007D077FD09D00E94400907FC05D03EF415
:1012C000909581959F4F0895709561957F4F0895F2
:1012D000052E97FB1EF400940E947F0957FD07D04E
:1012E0000E94870907FC03D04EF40C947F095095A7
:1012F0004095309521953F4F4F4F5F4F0895909502
:101300008095709561957F4F8F4F9F4F0895A1E213
:101310001A2EAA1BBB1BFD010DC0AA1FBB1FEE1F6F
:10132000FF1FA217B307E407F50720F0A21BB30BBA
:10133000E40BF50B661F771F881F991F1A9469F736
:1013400060957095809590959B01AC01BD01CF0192
:1013500008950F931F93CF93DF93CDB7DEB72E97EA
:101360000FB6F894DEBF0FBECDBF0D891E8986E093
:101370008C831A8309838FEF9FE79E838D83AE0151
:10138000475E5F4F6F89788DCE0101960E94D80924
:10139000EF81F885E00FF11F10822E960FB6F894BA
:1013A000DEBF0FBECDBFDF91CF911F910F9108958A
:1013B0002F923F924F925F926F927F928F929F9265
:1013C000AF92BF92CF92DF92EF92FF920F931F9353
:1013D000CF93DF93CDB7DEB72B970FB6F894DEBF70
:1013E0000FBECDBF6C017B018A01FC011782168202
:1013F000838181FFCCC1CE0101963C01F60193812E
:10140000F70193FD859193FF81917F01882309F472
:10141000BAC1853239F493FD859193FF81917F01A3
:10142000853229F4B60190E00E94F80BE7CF912CA9
:10143000212C312CFFE1F315D8F08B3279F038F400
:10144000803279F08332A1F4232D20611DC08D32CA
:1014500061F0803369F4232D216016C0832D8260F2
:10146000382EE32DE4603E2E2AC0F32DF8601DC017
:1014700037FC2DC020ED280F2A3040F08E32B9F411
:1014800036FC81C1232D2064322E19C036FE06C0E1
:101490008AE0989E200D1124922E11C0EAE02E9E23
:1014A000200D1124222EF32DF0623F2E08C08C3621
:1014B00021F4832D8068382E02C0883641F4F7016C
:1014C00093FD859193FF81917F018111B3CF982F77
:1014D0009F7D9554933028F40C5F1F4F9FE39983B1
:1014E0000DC0833631F0833771F0833509F059C070
:1014F00021C0F801808189830E5F1F4F8824839467
:10150000912C530113C02801F2E04F0E511CF80139
:10151000A080B18036FE03C0692D70E002C06FEF7D
:101520007FEFC5010E94ED0B4C018201F32DFF7787
:101530003F2E16C0280122E0420E511CF801A08067
:10154000B18036FE03C0692D70E002C06FEF7FEFFF
:10155000C5010E94E20B4C01F32DF0683F2E820181
:1015600033FC1BC0822D90E088169906B0F4B601BA
:1015700080E290E00E94F80B2A94F4CFF50137FC4A
:10158000859137FE81915F01B60190E00E94F80BD2
:1015900021102A9421E0821A91088114910471F794
:1015A000E8C0843611F0893641F5F80137FE07C0EE
:1015B00060817181828193810C5F1F4F08C06081BF
:1015C0007181072E000C880B990B0E5F1F4FF32DB6
:1015D000FF763F2E97FF09C0909580957095619595
:1015E0007F4F8F4F9F4FF0683F2E2AE030E0A301DE
:1015F0000E94340C882E861845C0853731F4232D7F
:101600002F7EB22E2AE030E025C0932D997FB92E8F
:101610008F36C1F018F4883579F0B5C0803719F0ED
:10162000883721F0B0C0E92FE061BE2EB4FE0DC0B6
:10163000FB2DF460BF2E09C034FE0AC0292F26609E
:10164000B22E06C028E030E005C020E130E002C044
:1016500020E132E0F801B7FE07C06081718182812C
:1016600093810C5F1F4F06C06081718180E090E024
:101670000E5F1F4FA3010E94340C882E8618FB2D8D
:10168000FF773F2E36FE0DC0232D2E7FA22E89140C
:1016900058F434FE0BC032FC09C0832D8E7EA82E78
:1016A00005C0B82CA32C03C0B82C01C0B92CA4FED3
:1016B0000FC0FE01E80DF11D8081803321F49A2DC9
:1016C000997EA92E09C0A2FE06C0B394B39404C0AB
:1016D0008A2D867809F0B394A3FC11C0A0FE06C041
:1016E000B21488F4280C922C9B180EC0B21460F42B
:1016F000B60180E290E00E94F80BB394F7CFB214E9
:1017000018F42B1802C0982C212CA4FE10C0B6018E
:1017100080E390E00E94F80BA2FE17C0A1FC03C07A
:1017200088E790E002C088E590E0B6010CC08A2D01
:10173000867859F0A1FE02C08BE201C080E2A7FCCE
:101740008DE2B60190E00E94F80B891438F4B601DE
:1017500080E390E00E94F80B9A94F7CF8A94F3010B
:10176000E80DF11D8081B60190E00E94F80B811018
:10177000F5CF222009F442CEB60180E290E00E942B
:10178000F80B2A94F6CFF6018681978102C08FEF7D
:101790009FEF2B960FB6F894DEBF0FBECDBFDF9143
:1017A000CF911F910F91FF90EF90DF90CF90BF905E
:1017B000AF909F908F907F906F905F904F903F90F1
:1017C0002F900895FC010590615070400110D8F7EA
:1017D000809590958E0F9F1F0895FC016150704079
:1017E00001900110D8F7809590958E0F9F1F089556
:1017F0000F931F93CF93DF93FB01238121FD03C040
:101800008FEF9FEF2CC022FF16C0468157812481A5
:1018100035814217530744F4A081B1819D012F5FA8
:101820003F4F318320838C93268137812F5F3F4F39
:101830003783268314C08B01EC01FB010084F18502
:10184000E02D0995892BE1F6D80116968D919C9192
:101850001797019617969C938E931697CE01DF915A
:10186000CF911F910F910895FA01AA27283051F1C5
:10187000203181F1E8946F936E7F6E5F7F4F8F4FC1
:101880009F4FAF4FB1E03ED0B4E03CD0670F781F20
:10189000891F9A1FA11D680F791F8A1F911DA11D05
:1018A0006A0F711D811D911DA11D20D009F468943E
:1018B0003F912AE0269F11243019305D3193DEF6E6
:1018C000CF010895462F4770405D4193B3E00FD09C
:1018D000C9F7F6CF462F4F70405D4A3318F0495D87
:1018E00031FD4052419302D0A9F7EACFB4E0A6956A
:1018F0009795879577956795BA95C9F7009761058C
:10190000710508959B01AC010A2E069457954795E1
:1019100037952795BA95C9F7620F731F841F951FD6
:08192000A01D0895F894FFCF0B
:10192800303132333435363738394142434445460D
:1019380009000D0A0009000D0A003132334134351F
:101948003642373839432A3023440D0A3D3D3D207D
:1019580044454D4F20313A204465626F756E636986
:101968006E6720436F6D70617269736F6E203D3DC5
:101978003D0D0A0054657374696E672072617720A3
:101988007673206465626F756E636564206B657934
:101998002072656164696E670D0A00507265737321
:1019A800206B6579732072617069646C792C20747E
:1019B80068656E2070726573732027442720746FE2
:1019C80020657869740D0A0D0A004465626F756EAA
:1019D800636520546573743A005261773A20256331
:1019E8002028232575290D0A0020204465626F757B
:1019F8006E6365643A2025632028232575290D0A1E
:101A080000523A257520443A257520202020000DE3
:101A18000A526573756C74733A205261773D257567
:101A28002C204465626F756E6365643D25752C20B6
:101A3800426F756E6365733D25750D0A000D0A3D8D
:101A48003D3D2044454D4F20323A204C6F6E672073
:101A5800507265737320446574656374696F6E2092
:101A68003D3D3D0D0A0053686F72742070726573B6
:101A780073203D206E6F726D616C2C204C6F6E6709
:101A8800207072657373203D207370656369616CA3
:101A98000D0A0050726573732027442720746F2045
:101AA800657869740D0A0D0A004C6F6E67205072D4
:101AB80065737320546573743A0050726573733A92
:101AC8002025632E2E2E202020004C4F4E473A20F2
:101AD8002563212121202020004C6F6E6720707221
:101AE8006573732064657465637465643A2025635F
:101AF8000D0A0053686F72742070726573733A2010
:101B08002563202825756D73290D0A0053686F72A7
:101B1800743A202563202020202020004C6F6E6717
:101B28002070726573733A202563202825756D73BC
:101B3800290D0A000D0A45786974696E6720646585
:101B48006D6F2E2E2E0D0A000D0A3D3D3D20444599
:101B58004D4F20333A2050494E20456E74727920FB
:101B680053797374656D203D3D3D0D0A00456E74D3
:101B7800657220342D64696769742050494E2028A5
:101B880064656661756C743A2031323334290D0A04
:101B9800005072657373202320746F207375626D13
:101BA80069742C202A20746F20636C6561720D0A99
:101BB8000D0A00456E7465722050494E3A0050492E
:101BC8004E3A20004B65793A2025630D0A005049AA
:101BD8004E20636C65617265640D0A005375626D11
:101BE80069747465642050494E3A2025730D0A00C3
:101BF8002053595354454D204C4F434B45440020E6
:101C08002054727920416761696E21000D0A2A2AE1
:101C18002A2053595354454D204C4F434B4544209B
:101C28002D20546F6F206D616E7920617474656D1D
:101C3800707473202A2A2A0D0A00414343455353DE
:101C4800204752414E5445442100202057656C637B
:101C58006F6D6521000D0A2A2A2A20414343455306
:101C680053204752414E544544202A2A2A0D0A003F
:101C78004143434553532044454E4945442100417F
:101C88007474656D7074733A2025752F2575005727
:101C9800726F6E672050494E2120417474656D70D3
:101CA80074733A2025752F25750D0A0031323334A7
:101CB800000D0A3D3D3D2044454D4F20343A204912
:101CC8006E7075742056616C69646174696F6E20FA
:101CD8003D3D3D0D0A00456E7465722070686F6E5B
:101CE80065206E756D626572202864696769747312
:101CF800206F6E6C792C20313020636861727329F3
:101D08000D0A002320746F207375626D69742C208E
:101D18002A20746F206261636B73706163652C2085
:101D28004420746F20657869740D0A0D0A005068A4
:101D38006F6E65204E756D6265723A000D0A4578C2
:101D48006974696E672E2E2E0D0A004164646564FD
:101D58002064696769743A2025630D0A004261634B
:101D68006B73706163650D0A004E756D6265722054
:101D780053617665643A000D0A50686F6E65206E8F
:101D8800756D6265722073617665643A2025730DFE
:101D98000A004572726F723A204E656564203130D0
:101DA8000064696769747321004552524F523A20A2
:101DB80050686F6E65206D757374206265203130D0
:101DC800206469676974730D0A00496E76616C69ED
:101DD80064206B65792100446967697473206F6EAC
:101DE8006C7900496E76616C6964206B65793A207C
:101DF8002563202875736520646967697473206F8B
:101E08006E6C79290D0A00E29594E29590E295901E
:101E1800E29590E29590E29590E29590E29590E2B5
:101E28009590E29590E29590E29590E29590E295F2
:101E380090E29590E29590E29590E29590E29590E7
:101E4800E29590E29590E29590E29590E29590E285
:101E58009590E29590E29590E29590E29590E295C2
:101E680090E29590E29590E29590E29590E29590B7
:101E7800E29590E29590E29590E29590E29590E255
:101E88009590E295970D0A00E2959120204B65798F
:101E980070616420416476616E636564202D204121
:101EA800546D6567613132382020202020202020A1
:101EB8002020E295910D0A00E2959AE29590E2952C
:101EC80090E29590E29590E29590E29590E2959057
:101ED800E29590E29590E29590E29590E29590E2F5
:101EE8009590E29590E29590E29590E29590E29532
:101EF80090E29590E29590E29590E29590E2959027
:101F0800E29590E29590E29590E29590E29590E2C4
:101F18009590E29590E29590E29590E29590E29501
:101F280090E29590E29590E29590E29590E29590F6
:101F3800E29590E2959D0D0A0053656C65637420E7
:101F480044656D6F3A0D0A0020205B315D204465C1
:101F5800626F756E63696E6720546573740D0A004D
:101F680020205B325D204C6F6E6720507265737362
:101F780020446574656374696F6E0D0A0020205BE8
:101F8800335D2050494E20456E7472792053797321
:101F980074656D0D0A0020205B345D20496E7075F4
:101FA800742056616C69646174696F6E0D0A00452E
:101FB8006E7465722073656C656374696F6E202832
:101FC800312D34293A20000D0A0D0A2A2A2A204BDD
:101FD800657970616420416476616E63656420464A
:101FE80065617475726573202A2A2A0D0A00446592
:101FF800626F756E63696E6720262056616C69642E
:102008006174696F6E0D0A004B65797061642041D7
:102018006476616E6365640020205265616479218D
:1020280000496E76616C69642073656C65637469D8
:102038006F6E210D0A00496E76616C696421002576
:0420480030325800DA
:00000001FF
