:1000000045C0000060C000005EC000005CC0000091
:100010005AC0000058C0000056C0000054C0000084
:1000200052C0000050C0000088C500004CC0000055
:100030004AC0000048C0000046C0000044C00000A4
:1000400042C0000040C000003EC000003CC00000B4
:100050003AC0000038C0000036C0000034C00000C4
:1000600032C0000030C000002EC000002CC00000D4
:100070002AC0000028C0000026C0000024C00000E4
:1000800022C0000020C000001EC0000011241FBEBE
:10009000CFEFD0E1DEBFCDBF13E0A0E0B1E0ECE1F7
:1000A000FFE000E00BBF02C007900D92A233B10742
:1000B000D9F727E0A2E3B3E001C01D92AC33B20749
:1000C000E1F702D029C79CCF03D080E090E00895EB
:1000D0000ED53FD0A3D144EF52E060E080E06AD279
:1000E00049E053E060E081E065D240E051E060E04B
:1000F00082E060D224E148E26AE08EE1B6D229E2F1
:1001000048E26FE18EE152D345E151E065E084E0E1
:1001100051D245E067E383E266D36CE084E0D2D15C
:1001200083ED94E01DD44EE153E060E086E042D2DE
:100130002FEF81EE94E0215080409040E1F700C025
:100140000000089516B817B880E888B983EC86B91E
:1001500008952AE531E08091650080618093650013
:1001600085E690E045E04A95F1F700000197D1F768
:10017000809165008F7E8093650085E690E045E084
:100180004A95F1F700000197D1F72150310919F78D
:100190002DE431E0809165008061809365008AE5FF
:1001A00090E045E04A95F1F700000197D1F7809182
:1001B00065008F7E809365008AE590E045E04A9572
:1001C000F1F700000197D1F72150310919F725EB1C
:1001D00031E08091650080618093650080E590E06A
:1001E00045E04A95F1F700000197D1F7809165004D
:1001F0008F7E8093650080E590E045E04A95F1F7B9
:1002000000000197D1F72150310919F72AE831E0B0
:10021000809165008061809365008CE490E045E00A
:100220004A95F1F700000197D1F7809165008F7E24
:10023000809365008CE490E045E04A95F1F700007A
:100240000197D1F72150310919F722E032E080916E
:10025000650080618093650084E490E045E04A9504
:10026000F1F700000197D1F7809165008F7E8093B0
:10027000650084E490E045E04A95F1F700000197BD
:10028000D1F72150310919F72BEE31E0809165004B
:100290008061809365008DE390E045E04A95F1F739
:1002A00000000197D1F7809165008F7E80936500F3
:1002B0008DE390E045E04A95F1F700000197D1F712
:1002C0002150310919F728E832E0809165008061FA
:1002D0008093650086E390E045E04A95F1F70000E1
:1002E0000197D1F7809165008F7E8093650086E34A
:1002F00090E045E04A95F1F700000197D1F72150D1
:10030000310919F72CE432E0809165008061809317
:10031000650083E390E045E04A95F1F7000001971E
:10032000D1F7809165008F7E8093650083E390E034
:1003300045E04A95F1F700000197D1F721503109C6
:1003400019F70895982F9695969596958770A1F030
:10035000813009F457C0823009F458C0833009F461
:1003600053C0843009F454C0853009F453C086303A
:1003700009F452C080E801C081E020E8929FF001BA
:100380001124E75CFC4FE60FF11D2081822B808356
:1003900098549BBB1C981E9A1F9A1D9A1D9885E322
:1003A0008A95F1F700006034B0F06BBB1C981E9A80
:1003B0001F981D9A1D9825E32A95F1F7000080816A
:1003C0008BBB1C9A1E9A1F981D9A1D9885E38A95CF
:1003D000F1F700000895605C6BBB1C981E981F9A93
:1003E0001D9A1D9825E32A95F1F7000080818BBBAB
:1003F0001C9A1E981F9A1D9A1D9885E38A95F1F7FD
:100400000000089582E0B9CF88E0B7CF84E0B5CF8F
:1004100080E1B3CF80E2B1CF80E4AFCF98EB20E4AE
:100420009BBB1C981E9A1F9A1D9A1D9835E33A95FE
:10043000F1F700002BBB1C981E9A1F9A1D9A1D985D
:1004400085E38A95F1F7000080E41BBA1C9A1E9A96
:100450001F9A1D9A1D9835E33A95F1F700008150D7
:10046000A1F79F5F903CE1F608958FE38BBB1C984A
:100470001E9A1F9A1D9A1D9885E38A95F1F7000030
:1004800080EC8BBB1C981E9A1F9A1D9A1D9885E3C1
:100490008A95F1F7000088EB8BBB1C981E9A1F9A77
:1004A0001D9A1D9885E38A95F1F7000080E48BBBC7
:1004B0001C981E9A1F9A1D9A1D9885E38A95F1F73C
:1004C00000000895809336036093390788548BBBEE
:1004D0001C981E9A1F9A1D9A1D9885E38A95F1F71C
:1004E0000000809139078A3090F090E00A97982FA9
:1004F000990F890F880F805C8BBB1C981E9A1F98E0
:100500001D9A1D9885E38A95F1F700000895982FAC
:10051000990F890F880F8C5B8BBB1C981E981F9AB4
:100520001D9A1D9885E38A95F1F70000089590E0E3
:100530008097FC01EE0FFF1FEE0FFF1FE80FF91F62
:10054000E95EFE4F85E0909139079A30F0F4908192
:100550009BBB1C9A1E981F9A1D9A1D9895E39A950D
:10056000F1F70000815031968111EDCF809139076C
:100570001BBA1C9A8A30A8F01E9A1F981D9A1D98C3
:1005800095E39A95F1F70000089590819BBB1C9A22
:100590001E9A1F981D9A1D9895E39A95F1F70000F1
:1005A000E1CF1E981F9A1D9A1D9885E38A95F1F751
:1005B000000008951F93CF93DF93EA0180933603E1
:1005C0006093390788548BBB1C981E9A1F9A1D9AFA
:1005D0001D9885E38A95F1F70000809139078A30EC
:1005E000A0F190E00A97982F990F890F880F805CEF
:1005F0008BBB1C981E9A1F981D9A1D9885E38A959F
:10060000F1F7000088818823E1F09091390710E428
:100610000AC08DDF2196909139079F5F909339072B
:100620008881882371F09A30A1F71BBB1C981E9A11
:100630001F981D9A1D9885E38A95F1F7000088811F
:10064000E8CFDF91CF911F910895982F990F890FCF
:10065000880F8C5B8BBB1C981E981F9A1D9A1D9847
:1006600085E38A95F1F70000CDCF8F929F92AF92EC
:10067000BF92CF92DF92EF92FF920F931F93CF938F
:10068000DF93C62F621709F456C0621780F5D0E0D9
:10069000C22ED12CCC16DD06ECF0082F10E046015E
:1006A0008C1A9D0AE42EF12CE01AF10AA12CB12C2F
:1006B000C501B4010FD4CB01800F911F803420F409
:1006C000C7FD02C06C2F3EDE2196AE0CBF1CCC16BF
:1006D000DD0674F7DF91CF911F910F91FF90EF909E
:1006E000DF90CF90BF90AF909F908F900895D0E013
:1006F000C22ED12CCC15DD056CF3082F10E0E42EB2
:10070000F12CE01AF10A46018C1A9D0AA12CB12C99
:10071000C501B401DFD3CB01800F911F803420F4D9
:10072000C7FD02C06C2F0EDE2197AE18BF08CC1596
:10073000DD0574F7CFCF841739F1082F10E0E42ED0
:10074000F12C841780F4E016F10624F267FDC2CF85
:10075000003418F46C2F802FF5DD0F5F1F4FE0166B
:10076000F106B4F7B7CF0E151F050CF4B3CF67FD34
:10077000B1CF003418F46C2F802FE4DD0150110943
:100780000E151F05B4F7A6CF803408F0A3CF67FD80
:10079000A1CFDF91CF911F910F91FF90EF90DF904C
:1007A000CF90BF90AF909F908F90CCCD0F931F9321
:1007B000CF93DF93C82F062F142FD22F482F55DF4A
:1007C0002D2F412F602F812F50DF202F412F602FA1
:1007D0008C2F4BDF2D2F412F6D2F8C2FDF91CF9141
:1007E0001F910F9142CF3F924F925F926F927F92F3
:1007F0008F929F92AF92BF92CF92DF92EF92FF9231
:100800000F931F93CF93DF93E82E462E542EA62EE0
:10081000B12C842F90E06C01CC0CDD1CC80ED91ECD
:10082000E601D7FC9BC0D595C795D595C795002700
:1008300011270C1B1D0BE501C00FD11FD594C794C8
:10084000D594C79445018C0C9D1C8C169D060CF408
:100850003AC0559C300111240EC0C7FD08C06C2F52
:1008600071DD8E2D8F19803410F4632D6BDD219690
:100870008C169D0644F1CE018A199B09889F900130
:10088000899F300D300D1124B301621B730B072EAD
:10089000000C880B990B27D2B6D220E030E040E064
:1008A0005FE38FD1F2D1F62E3C2E8E2D8F0D80344A
:1008B000A0F28E2D8F198034D0F6C7FFD6CF2196A7
:1008C0008C169D06C4F6F12CE801CE0DDF1DCE0C72
:1008D000DF1CCC16DD0684F1559C80011124CE016D
:1008E0008E199F09889F9001899F300D300D11242A
:1008F000B801621B730B072E000C880B990BF3D108
:1009000082D2BC2E2FE32C1798F020E030E040E09C
:100910005FE357D1BAD1A62E642D6A0D67FD02C0E0
:100920008C2F10DD642D6A1967FD02C08B2D0ADD46
:100930002196CC16DD069CF6DF91CF911F910F9189
:10094000FF90EF90DF90CF90BF90AF909F908F90EF
:100950007F906F905F904F903F900895239663CF64
:10096000EF92FF920F931F93CF93DF93AC019C0103
:10097000329522952F7023273F702327A7E4B3E0F9
:10098000BCD2EC01D695C795D695C795D695C79597
:1009900020E137E2C29FC001C39F900DD29F900D0E
:1009A0001124EA01C81BD90B9E013695279536956F
:1009B000279536952795A5ECB0E29FD28C0112952C
:1009C00002950F7001271F70012701115CC080E2A2
:1009D000AEDD28EE33E0029FC001039F900D129F11
:1009E000900D1124C81BD90B8E01169507951695ED
:1009F00007959801ABE7B4E180D27C01F694E794C7
:100A00008E2DEE2009F459C0805D91DD9801ABE791
:100A1000B4E173D28C011695079524E6209FC0019E
:100A2000219F900D11248E01081B190B9801ADEC2C
:100A3000BCEC63D296958795969587959695879504
:100A4000805D75DD9801ADECBCEC57D2969587952D
:100A500096958795969587959C01220F331F880F51
:100A6000991F880F991F880F991F820F931F980154
:100A7000281B390BC901805DDF91CF911F910F9128
:100A8000FF90EF9054CD80E3800F51DD28EE33E0EE
:100A9000029FC001039F900D129F900D1124C81B4F
:100AA000D90B8E0116950795169507959801ABE71A
:100AB000B4E123D296958795A7CF80E238DD24E66E
:100AC0002E9DC0012F9D900D11248E01081B190B26
:100AD0009801ADECBCEC11D29695879596958795CB
:100AE000969587958111ACCF80E221DDABCFF8944C
:100AF0000ED006D01AD04FD025DBB7DC78940895FD
:100B00008AE080936A001ABE83E089BF08951BBA09
:100B10008FEF8ABB88BB87BB12BA11BA13B882B9F0
:100B20001092650080936400089515BC8AE184BD2D
:100B300083E085BD80E487BF08951F920F920FB6B2
:100B40000F9211242F933F938F939F938AE184BD3B
:100B500080913403909135030196909335038093EF
:100B600034032091F2023091F3028217930751F47B
:100B700081E090E090933303809332031092350329
:100B8000109234039F918F913F912F910F900FBE40
:100B90000F901F90189510929B0086E080939D0007
:100BA00088E980939A0087E690E090933B078093D2
:100BB0003A071092980080913A078093990008951F
:100BC0005058BB27AA270ED0E0C0D1D030F0D6D0E5
:100BD00020F031F49F3F11F41EF4C6C00EF4E095EE
:100BE000E7FBBCC0E92FE2D080F3BA1762077307B6
:100BF0008407950718F071F49EF5FAC00EF4E0959D
:100C00000B2EBA2FA02D0B01B90190010C01CA01C6
:100C1000A0011124FF27591B99F0593F50F4503E71
:100C200068F11A16F040A22F232F342F4427585F63
:100C3000F3CF469537952795A795F0405395C9F77B
:100C40007EF41F16BA0B620B730B840BBAF0915033
:100C5000A1F0FF0FBB1F661F771F881FC2F70EC0D2
:100C6000BA0F621F731F841F48F4879577956795A5
:100C7000B795F7959E3F08F0B3CF9395880F08F08E
:100C80009927EE0F97958795089598D088F09F57EC
:100C900090F0B92F9927B751A0F0D1F0660F771FC8
:100CA000881F991F1AF0BA95C9F712C0B13081F0A8
:100CB0009FD0B1E008959CC0672F782F8827B85F38
:100CC00039F0B93FCCF3869577956795B395D9F709
:100CD0003EF490958095709561957F4F8F4F9F4F13
:100CE0000895E89409C097FB3EF49095809570951F
:100CF00061957F4F8F4F9F4F9923A9F0F92F96E968
:100D0000BB279395F695879577956795B795F111DC
:100D1000F8CFFAF4BB0F11F460FF1BC06F5F7F4F79
:100D20008F4F9F4F16C0882311F096E911C077238B
:100D300021F09EE8872F762F05C0662371F096E894
:100D4000862F70E060E02AF09A95660F771F881F63
:100D5000DAF7880F9695879597F9089597F99F6721
:100D600080E870E060E008959FEF80EC0895002433
:100D70000A941616170618060906089500240A9400
:100D800012161306140605060895092E0394000C86
:100D900011F4882352F0BB0F40F4BF2B11F460FF15
:100DA00004C06F5F7F4F8F4F9F4F089557FD90583E
:100DB000440F551F59F05F3F71F04795880F97FB1F
:100DC000991F61F09F3F79F08795089512161306D9
:100DD0001406551FF2CF4695F1DF08C01616170608
:100DE0001806991FF1CF869571056105089408953D
:100DF000E894BB2766277727CB0197F9089511F46C
:100E00000EF4B2CF3EC0DADFD0F39923D9F3CEF39C
:100E10009F57550B87FF43D00024A0E640EA90017E
:100E200080585695979528F4805C660F771F881F29
:100E300020F026173707480730F4621B730B840B2A
:100E4000202931294A2BA69517940794202531256E
:100E50004A2758F7660F771F881F20F02617370795
:100E6000480730F4620B730B840B200D311D411DBC
:100E7000A09581F7B901842F9158880F9695879591
:100E800008959F3F31F0915020F4879577956795AD
:100E9000B795880F911D9695879597F9089591506C
:100EA0005040660F771F881FD2F70895AA1BBB1BFF
:100EB00051E107C0AA1FBB1FA617B70710F0A61B5A
:100EC000B70B881F991F5A95A9F780959095BC017B
:100ED000CD01089597FB072E16F4009406D077FDF8
:100EE00008D0E4DF07FC05D03EF4909581959F4F34
:100EF0000895709561957F4F0895A29FB001B39FAB
:100F0000C001A39F700D811D1124911DB29F700D12
:0C0F1000811D1124911D0895F894FFCF5D
:100F1C00232425262728292A2B2C2D2E2F3031321D
:100F2C0033343536004F00000000000000004F0045
:100F3C00000007000700147F147F14242A7F2A1254
:100F4C002313086462364955225000050300000043
:100F5C001C2241000041221C0014083E0814080801
:100F6C003E080800503000000808080808006060BF
:100F7C00000020100804023E5149453E00427F40CB
:100F8C000042615149462141454B311814127F10E2
:100F9C0027454545393C4A49493001710905033615
:100FAC0049494936064949291E0036360000005683
:100FBC0036000008142241001414141414004122A9
:100FCC0014080201510906324979413E7E11111172
:100FDC007E7F494949363E414141227F4141221C95
:100FEC007F494949417F090909013E4149497A7FB5
:100FFC000808087F00417F41002040413F017F08E5
:10100C001422417F404040407F020C027F7F040845
:10101C00107F3E4141413E7F090909063E41512165
:10102C005E7F09192946264949493201017F010190
:10103C003F4040403F1F2040201F3F4038403F630F
:10104C001408146307087008076151494543007F71
:10105C0041410002040810200041417F00040201BC
:10106C00020440404040400001020400205454540B
:10107C00787F484444383844444420384444487FBA
:10108C003854545418087E0901020C5252523E7FB7
:10109C000804047800047D00002040443D007F10CB
:1010AC0028440000417F40007C0418047C7C080428
:1010BC00047838444444387C141414080814141864
:1010CC007C7C080404084854545420043F444020B9
:1010DC003C4040207C1C2040201C3C4030403C4488
:1010EC00281028440C5050503C4464544C44000884
:1010FC003641000000770000004136080008040863
:10110C001008F4013D3D3D3D3D3D3D3D3D3D3D3DEA
:10111C003D3D3D3D3D3D3D3D0020202041546D6514
:10112C00676131323820474C434420202000534F14
:10113C00433330353020486F6E67204A656F6E67D9
:02114C000000A1
:00000001FF
