:100000000C9446000C9465000C9465000C946500FB
:100010000C9465000C9465000C9465000C946500CC
:100020000C9465000C9465000C9465000C946500BC
:100030000C9465000C9465000C9465000C946500AC
:100040000C9465000C9465000C948B080C9465006E
:100050000C9465000C9465000C9465000C9465008C
:100060000C9465000C9465000C9465000C9465007C
:100070000C9465000C9465000C9440070C9465008A
:100080000C9465000C9465000C94650011241FBE4F
:10009000CFEFD0E1DEBFCDBF16E0A0E0B1E0E4E4F9
:1000A000F9E100E00BBF02C007900D92A43DB1073B
:1000B000D9F726E0A4EDB6E001C01D92A23EB2073A
:1000C000E1F70E94A6080C94A00C0C940000E5E651
:1000D000F0E080818260808382E08A95F1F700C041
:1000E00080818D7F80838BE78A95F1F70895E5E61F
:1000F000F0E020818F7034E0839FC0011124237CC5
:10010000822B80830C946700CF93C82F8091650069
:10011000662311F0816001C08E7F809365008C2F73
:1001200082958F700E9477008C2F8F700E947700CD
:100130008BE78A95F1F7CF910895CF93C82F60E0B0
:100140000E948400C13029F486E69EE00197F1F711
:100150000000CF91089561E00C948400E4E6F0E0A3
:1001600080818F6380832FEF8FE191E02150804069
:100170009040E1F700C00000E5E6F0E080818E7F6E
:10018000808383E00E9477008FEF93E20197F1F77D
:1001900000C0000083E00E94770084E191E00197B5
:1001A000F1F7000083E00E94770084E191E001977D
:1001B000F1F7000082E00E94770084E191E001976E
:1001C000F1F7000088E20E949D008CE00E949D00F3
:1001D00081E00E949D0086E00C949D0081E00C94DB
:1001E0009D008111605C862F80680C949D00CF93E8
:1001F000DF93EC018991882319F00E94AB00FACFBC
:10020000DF91CF910895CF93DF93EA010E94F1002F
:10021000CE01DF91CF910C94F7008FE08ABB8FEF76
:100220008BBB089580E090E061E070E02BB32F601D
:100230002BBB3BB3AB01082E01C0440F0A94EAF775
:10024000242F209523232BBB2CE02A95F1F70000C7
:1002500049B3407F20E030E050E0F9013496DA0104
:1002600002C0B595A795EA95E2F7A0FD0BC0880FEF
:10027000991F880F991F8C5D9E4FFC01E20FF31FA1
:10028000808108952F5F3F4F2430310531F701966B
:100290008430910559F680E00895CF930E941201B1
:1002A000C82F8823D9F38FEF9FE80197F1F700C09B
:1002B00000000E941201882329F08FEF97E4019734
:1002C000F1F7F5CF8FEF9FE80197F1F700C000003D
:1002D0008C2FCF910895CF93DF93CDB7DEB7AD9735
:1002E0000FB6F894DEBF0FBECDBF84E391E00E944D
:1002F000D50689E591E00E94D5060E94EE004EE702
:1003000051E060E080E00E94030149E854E060E0D1
:1003100081E00E9403011AA61BA619A6812C912C2C
:100320005401412C512C3201C12CD12C7601CE012B
:1003300001961C010E944D01182F082E000C990BEC
:100340009DA78CA79F931F9389E891E09F938F931C
:100350003F922F920E94B709C1010E94D50680EDFD
:10036000810F0F900F900F900F900F900F908A3089
:1003700008F08CC00CA51DA5005311098AA5811198
:1003800004C09BA591113EC007C019A6412C512C59
:100390003201C12CD12C7601AAE0B0E0A701960170
:1003A0000E947B09012E000C220B330B680179019E
:1003B000C60ED71EE81EF91E20E1C21627E2D2069D
:1003C000E104F10434F09FE0C92E97E2D92EE12C2C
:1003D000F12C80EC0E949D00FF92EF92DF92CF9271
:1003E00083E991E09F938F933F922F920E94B709E8
:1003F000C1010E94F7000FB6F894DEBF0FBECDBF5B
:100400001BA639C0AAE0B0E0A30192010E947B09BB
:100410002801110F66087708460E571E681E791EC0
:1004200090E1491697E259066104710434F08FE0B7
:10043000482E87E2582E612C712C80EC0E949D0082
:100440007F926F925F924F921F9229A52F93FF92F6
:10045000EF92DF92CF928EE991E09F938F933F923C
:100460002F920E94B709C1010E94F7000FB6F894BD
:10047000DEBF0FBECDBF85B3880F816085BB85B35E
:10048000803108F42DC181E085BB2AC18FEB810F3B
:100490008430C0F59AA5992311F0750164011134D7
:1004A00031F0123439F0133441F02FE207C08BE2FF
:1004B00089A705C09DE299A702C02AE229A780EC7E
:1004C0000E949D001F9289A58F93FF92EF92DF9269
:1004D000CF928BEA91E09F938F933F922F920E944D
:1004E000B709C1010E94F70083E085BB0FB6F894FD
:1004F000DEBF0FBECDBF1AA691E09BA7412C512CA9
:100500003201EFC0133209F0C9C029A5222309F432
:10051000E8C08BA5882309F4E4C02B3299F064F479
:100520002A3209F05EC0A7019601C301B2010E9400
:1005300018094B015C0155C099A59D3251F09F32BD
:1005400079F04FC046015701840C951CA61CB71CBE
:1005500048C04601570184189508A608B70841C04D
:100560004114510461047104A1F50E94EE0048EBAE
:1005700051E060E080E00E9403014FEB51E060E059
:1005800081E00E9403018FEC91E00E94D5062FEFDD
:1005900025BB8FEF9FEF2CE2815090402040E1F788
:1005A00000C000000E94EE004EE751E060E080E0F5
:1005B0000E94030149E854E060E081E00E940301E9
:1005C0001BA619A6812C912C5401C12CD12C76018B
:1005D000B1CEC701B601A30192010E945C09490195
:1005E0005A0180E80E949D007F926F925F924F9225
:1005F00089A5082F082E000C110B1F938F93FF92D3
:10060000EF92DF92CF928AEE91E09F938F933F9289
:100610002F920E94B709C1010E94F70080EC0E944E
:100620009D00BF92AF929F928F9283E991E09F933A
:100630008F933F922F920E94B709C1010E94F70049
:10064000BF92AF929F928F927F926F925F924F92E2
:100650001F9389A58F93FF92EF92DF92CF928AEF3B
:1006600091E09F938F933F922F920E94B7090FB60C
:10067000F894DEBF0FBECDBFC1010E94D5069FEF2B
:1006800095BB2FEF8FE39BE0215080409040E1F736
:1006900000C0000015BA21E02AA723C01A3209F5CC
:1006A0000E94EE004EE751E060E080E00E9403010E
:1006B00049E854E060E081E00E9403018AE192E0B1
:1006C0000E94D50615BA1AA61BA619A6812C912C34
:1006D0005401412C512C3201C12CD12C760101C086
:1006E0001AA68FEF9FE322E0815090402040E1F76F
:1006F00000C000001FCE7F928F929F92AF92BF9258
:10070000CF92DF92EF92FF920F931F93CF93DF93DD
:10071000CDB7DEB7EC970FB6F894DEBF0FBECDBFF6
:1007200084E292E00E94D50689E492E00E94D50618
:100730008AE0EAE1F1E0DE01D39601900D928A951C
:10074000E1F710E09E012F5F3F4F7901AA24A394A7
:10075000B12C33E7C32E32E0D32E77247A940E9453
:10076000EE0080E80E949D00812E912C153048F407
:10077000F401EE0FFF1FEE0DFF1D82A993A90E9449
:10078000F70080EC0E949D0034E08316910454F43D
:10079000F4013196EE0FFF1FEE0DFF1D82A993A904
:1007A0000E94F700812F8770950102C0220F331F2E
:1007B0008A95E2F725BB0E944D01823311F0883300
:1007C00031F433E08316910454F61E5FC8CF982F9E
:1007D0009D7F943331F4123010F410E0C0CF1250EA
:1007E000BECF0FEC080F053008F0B9CF0E94EE0025
:1007F00049E652E060E080E00E940301F701E00F6B
:10080000F11DE00FF11D82A893A8A4014E5F5F4F78
:1008100060E081E00E9403019F928F92DF92CF926D
:10082000FF92EF920E94B709C7010E94D5060F9070
:100830000F900F900F900F900F90043009F58FEFED
:100840009FE726E1815090402040E1F700C0000082
:1008500088E892E00E94D506EC960FB6F894DEBFC9
:100860000FBECDBFDF91CF911F910F91FF90EF9001
:10087000DF90CF90BF90AF909F908F907F90089522
:1008800075BA3FEF8FEF9CE2315080409040E1F726
:1008900000C0000015BA63CF6F927F928F929F9233
:1008A000AF92BF92CF92DF92EF92FF920F931F937E
:1008B000CF93DF93CDB7DEB7E5970FB6F894DEBFE1
:1008C0000FBECDBF88EC92E00E94D50681EF92E08A
:1008D0000E94D5068DE093E00E94D5060E94EE00AE
:1008E00049E253E060E080E00E94030185E393E089
:1008F0000E94D50600E087E6A82E83E0B82E9E0170
:100900002F5F3F4F79019BEDC92E93E0D92E20EF49
:10091000722E3FE0632E1BAA1CAA1DAA80EC0E9427
:100920009D008CE593E00E94F700912C0E944D0100
:1009300090ED980F9A30C8F431E03915B8F311E012
:10094000190DE3E3F0E0EC0FFD1FE90DF11D8083CD
:1009500080EC0E949D00CE01C3960E94F7008EE5B8
:1009600093E00E94F700912EE1CF8A3219F41BAA7E
:100970001CAAD4CF8332D1F69920C1F21BA941E041
:10098000941202C0105309C0110F1056812F880F06
:10099000880F180F8CA98053180F0F5F912C1F928E
:1009A0001F931F920F93BF92AF92FF92EF920E94FC
:1009B000B709C7010E94D5060FB6F894DEBF0FBE77
:1009C000CDBF1A3209F06CC00E94EE0047E753E039
:1009D00060E080E00E9403019F920F9380E893E023
:1009E0009F938F93FF92EF920E94B709A70160E057
:1009F00081E00E9403011F921F938CE893E09F9374
:100A00008F93FF92EF920E94B709C7010E94D5060B
:100A10009F920F9381EB93E09F938F93FF92EF92BE
:100A20000E94B709C7010E94D5060FB6F894DEBF31
:100A30000FBECDBF85E09FEF95BB3FEF4FE724E0B2
:100A4000315040402040E1F700C0000015BA3FEFB0
:100A50004FE724E0315040402040E1F700C0000063
:100A6000815051F73FEF4FEF8CE2315040408040D2
:100A7000E1F700C00000E5960FB6F894DEBF0FBEA8
:100A8000CDBFDF91CF911F910F91FF90EF90DF903D
:100A9000CF90BF90AF909F908F907F906F90089570
:100AA0001A32D8F40E94EE0042ED53E060E080E09C
:100AB0000E9403019F920F93DF92CF92FF92EF92D9
:100AC0000E94B709A70160E081E00E94030182EE65
:100AD00093E00E94D50665BA1AC00E94EE0040E07D
:100AE00054E060E080E00E9403019F920F93DF9248
:100AF000CF92FF92EF920E94B709A70160E081E0D8
:100B00000E9403018AE094E00E94D50675BA0F9016
:100B10000F900F900F900F900F909FEF2FEB31E2FF
:100B2000915020403040E1F700C000000E94EE00EC
:100B300049E253E060E080E00E940301ECCE2F9296
:100B40003F924F925F926F927F928F929F92AF925D
:100B5000BF92CF92DF92EF92FF920F931F93CF93AA
:100B6000DF93CDB7DEB76E970FB6F894DEBF0FBE3A
:100B7000CDBF88E394E00E94D50686E594E00E940C
:100B8000D5060E94EE0048E754E060E080E00E9455
:100B9000030143E854E060E081E00E940301D12CAE
:100BA00000E010E08AE0282E312C9CE3492E512CE5
:100BB00020E7622E27E1722E9E012F5F3F4F7901C1
:100BC00032E3832E912C43E8A42E42E0B42E0E94FF
:100BD0001201882309F45BC09091D406891709F4A7
:100BE00058C08093D406813311F581E0CD2CC826FE
:100BF000DD2019F080E394E002C088E294E09F9346
:100C00008F93BF92AF92FF92EF920E94B709C701F4
:100C10000E94D5068D2D80958170819585BB0F90A2
:100C20000F900F900F900F900F90DC2C32C08233FA
:100C300079F443E854E060E081E00E9403018BE82E
:100C400094E00E94D50615BAD12C00E010E05AC0FD
:100C50008A32F9F483E994E00E94D5066E960FB6C5
:100C6000F894DEBF0FBECDBFDF91CF911F910F91E2
:100C7000FF90EF90DF90CF90BF90AF909F908F90BC
:100C80007F906F905F904F903F902F9008951092BB
:100C9000D406DD20B9F10F5F1F4FC80164E670E094
:100CA0000E9434099B01B1010E9434097F936F9324
:100CB000C901B2010E9434099F938F93C801B30107
:100CC0000E9434097F936F938AEA94E09F938F93F5
:100CD000FF92EF920E94B709A70160E081E00E94B5
:100CE0000301C801B4010E9434090FB6F894DEBFB5
:100CF0000FBECDBF892B21F495B381E0892785BB39
:100D0000DD24D3948FEF97E40197F1F700C0000042
:100D10005ECF89E791E00E94D50687EB94E00E94C0
:100D2000D50688E395E00E94D50688E695E00E9406
:100D3000D5068BE791E00E94D50689EE95E00E94EA
:100D4000D50688EF95E00E94D50681E196E00E94E5
:100D5000D50685E296E00E94D5068BE396E00E94D8
:100D6000D5068BE791E00E94D5068DE496E00C94C1
:100D7000D50610929B0086E080939D0088E98093C1
:100D80009A008FE290E09093DF068093DE06109247
:100D900098008091DE0680939900089590919B00C1
:100DA00095FFFCCF80939C000895CF93DF93EC01D7
:100DB0008991882319F00E94CE06FACFDF91CF9156
:100DC000089580919B0087FFFCCF80919C0008953F
:100DD0000F931F93CF93DF9300D000D000D0CDB7F7
:100DE000DEB79F938F9384EB94E09F938F938E0154
:100DF0000F5F1F4F1F930F930E94B709C8010E94F6
:100E0000D5060F900F900F900F900F900F90269691
:100E10000FB6F894DEBF0FBECDBFDF91CF911F910B
:100E20000F9108950F931F93CF93DF9300D01F92DC
:100E3000CDB7DEB71F928F938EEC96E09F938F9382
:100E40008E010F5F1F4F1F930F930E94B709C801B8
:100E50000E94D5060F900F900F900F900F900F905B
:100E60000F900F900F90DF91CF911F910F910895E8
:100E700087E191E00C94D5060E94E1060C94CE0621
:100E80001F920F920FB60F9211248F9380919C00A6
:100E90008093DA0681E08093D9068091DA06809308
:100EA000DD068F910F900FBE0F901F9018958091C7
:100EB000D906882319F01092D90681E0089580910F
:100EC000DA060895CF93DF9360E177E20E94340958
:100ED000EC01FB01E050FF4F80810E94CE06CE0165
:100EE00068EE73E00E943409EC01FB01E050FF4F13
:100EF00080810E94CE06CE0164E670E00E94340933
:100F0000EC01FB01E050FF4F80810E94CE06CE0134
:100F10006AE070E00E943409EC01FB01E050FF4FF1
:100F200080810E94CE06C050DF4F8881DF91CF9133
:100F30000C94CE06CF9364E60E942809C92FE82FAF
:100F4000F0E0E050FF4F80810E94CE068C2F6AE0D7
:100F50000E942809C92FE82FF0E0E050FF4F808160
:100F60000E94CE06EC2FF0E0E050FF4F8081CF9141
:100F70000C94CE06CF93DF93EC0197FD02C08BE279
:100F800004C0D195C195D1098DE20E94CE06CE0153
:100F900060E177E20E944809EC01FB01E050FF4F5D
:100FA00080810E94CE06CE0168EE73E00E9448095F
:100FB000EC01FB01E050FF4F80810E94CE06CE0184
:100FC00064E670E00E944809EC01FB01E050FF4F2D
:100FD00080810E94CE06CE016AE070E00E9448093E
:100FE000EC01FB01E050FF4F80810E94CE06C05013
:100FF000DF4F8881DF91CF910C94CE064F925F92A4
:101000006F927F928F929F92AF92BF92CF92DF9218
:10101000EF92FF920F931F93CF93DF934B015C01ED
:10102000C9E0D0E0C12C9AECD92E9AE9E92E9BE3D5
:10103000F92E2AE0422E512C612C712C8C149D0427
:10104000AE04BF0454F4C701B601A30192010E948B
:101050005C0969017A01219789F78AE0482E512CB1
:10106000612C712C1C141D041E041F04DCF4C5012A
:10107000B401A70196010E945C098B01D82FC92FEA
:10108000F901E050FF4F80810E94CE064801AD2E4D
:10109000BC2EC701B601A30192010E945C0969013F
:1010A0007A01E0CFDF91CF911F910F91FF90EF90E8
:1010B000DF90CF90BF90AF909F908F907F906F9078
:1010C0005F904F900895CF93C82FE82FE295EF706F
:1010D000F0E0E050FF4F80810E94CE06CF70EC2FF1
:1010E000F0E0E050FF4F8081CF910C94CE06E82FC6
:1010F000E295EF70F0E0E050FF4F208130E0322FBA
:101100002227E82FEF70F0E0E050FF4F8081A90127
:10111000482BCA0108951F920F920FB60F92112407
:101120008F93CF93DF931F92CDB7DEB78CB18983B6
:1011300089810F90DF91CF918F910F900FBE0F900B
:101140001F90189508950895089508950E94B9066E
:101150000E94AE000E940D018FEF84BB15BA2FEFE5
:101160008FE39BE0215080409040E1F700C00000F9
:1011700085E696E00E94D5068CE896E00E94D506AA
:101180000E94EE004EE751E060E080E00E94030123
:1011900047EA56E060E081E00E9403018FE085BBF2
:1011A0002FEF8FEF9CE2215080409040E1F700C08C
:1011B000000015BA0E9489060E94E106C82F0E940D
:1011C000CE068BE791E00E94D506C23361F020F491
:1011D000C13379F40E946B01C33341F0C43349F445
:1011E0000E949F051BC00E947B0318C00E944C04F4
:1011F00015C080EB96E00E94D5060E94EE0045ECFB
:1012000056E060E080E00E9403012FEF8FE796E157
:10121000215080409040E1F700C000002FEF8FE3A5
:101220009BE0215080409040E1F700C00000C2CF19
:10123000DB018F939F930E947B09BF91AF91A29F87
:10124000800D911DA39F900DB29F900D11240895C4
:10125000991B79E004C0991F961708F0961B881F08
:101260007A95C9F780950895AA1BBB1B51E107C069
:10127000AA1FBB1FA617B70710F0A61BB70B881F26
:10128000991F5A95A9F780959095BC01CD010895B5
:1012900097FB072E16F4009407D077FD09D00E9423
:1012A000340907FC05D03EF4909581959F4F089531
:1012B000709561957F4F0895052E97FB1EF400945D
:1012C0000E94730957FD07D00E94860907FC03D0CE
:1012D0004EF40C94730950954095309521953F4FED
:1012E0004F4F5F4F089590958095709561957F4F12
:1012F0008F4F9F4F08950E94A809A59F900DB49FFE
:10130000900DA49F800D911D11240895A1E21A2E25
:10131000AA1BBB1BFD010DC0AA1FBB1FEE1FFF1F99
:10132000A217B307E407F50720F0A21BB30BE40BE9
:10133000F50B661F771F881F991F1A9469F7609530
:101340007095809590959B01AC01BD01CF010895EA
:10135000A29FB001B39FC001A39F700D811D1124F6
:10136000911DB29F700D811D1124911D08950F9341
:101370001F93CF93DF93CDB7DEB72E970FB6F894B8
:10138000DEBF0FBECDBF0D891E8986E08C831A8318
:1013900009838FEF9FE79E838D83AE01475E5F4F8A
:1013A0006F89788DCE0101960E94E609EF81F8855C
:1013B000E00FF11F10822E960FB6F894DEBF0FBE1D
:1013C000CDBFDF91CF911F910F9108952F923F9242
:1013D0004F925F926F927F928F929F92AF92BF9245
:1013E000CF92DF92EF92FF920F931F93CF93DF93F1
:1013F000CDB7DEB72B970FB6F894DEBF0FBECDBFCB
:101400006C017B018A01FC0117821682838181FFB6
:10141000CCC1CE0101963C01F6019381F70193FD09
:10142000859193FF81917F01882309F4BAC18532A8
:1014300039F493FD859193FF81917F01853229F4E1
:10144000B60190E00E94060CE7CF912C212C312CA4
:10145000FFE1F315D8F08B3279F038F4803279F06F
:101460008332A1F4232D20611DC08D3261F08033C1
:1014700069F4232D216016C0832D8260382EE32D60
:10148000E4603E2E2AC0F32DF8601DC037FC2DC04D
:1014900020ED280F2A3040F08E32B9F436FC81C19D
:1014A000232D2064322E19C036FE06C08AE0989E95
:1014B000200D1124922E11C0EAE02E9E200D112441
:1014C000222EF32DF0623F2E08C08C3621F4832D9E
:1014D0008068382E02C0883641F4F70193FD85916B
:1014E00093FF81917F018111B3CF982F9F7D9554F8
:1014F000933028F40C5F1F4F9FE399830DC0833610
:1015000031F0833771F0833509F059C021C0F801FB
:10151000808189830E5F1F4F88248394912C53010F
:1015200013C02801F2E04F0E511CF801A080B180D9
:1015300036FE03C0692D70E002C06FEF7FEFC5017A
:101540000E94FB0B4C018201F32DFF773F2E16C04A
:10155000280122E0420E511CF801A080B18036FE25
:1015600003C0692D70E002C06FEF7FEFC5010E94DC
:10157000F00B4C01F32DF0683F2E820133FC1BC0B1
:10158000822D90E088169906B0F4B60180E290E0D2
:101590000E94060C2A94F4CFF50137FC859137FEA2
:1015A00081915F01B60190E00E94060C21102A94FF
:1015B00021E0821A91088114910471F7E8C0843601
:1015C00011F0893641F5F80137FE07C0608171815D
:1015D000828193810C5F1F4F08C060817181072E4B
:1015E000000C880B990B0E5F1F4FF32DFF763F2EDB
:1015F00097FF09C090958095709561957F4F8F4FAB
:101600009F4FF0683F2E2AE030E0A3010E94420C79
:10161000882E861845C0853731F4232D2F7EB22EB3
:101620002AE030E025C0932D997FB92E8F36C1F086
:1016300018F4883579F0B5C0803719F0883721F073
:10164000B0C0E92FE061BE2EB4FE0DC0FB2DF460EA
:10165000BF2E09C034FE0AC0292F2660B22E06C054
:1016600028E030E005C020E130E002C020E132E0B7
:10167000F801B7FE07C060817181828193810C5FA0
:101680001F4F06C06081718180E090E00E5F1F4FA8
:10169000A3010E94420C882E8618FB2DFF773F2E57
:1016A00036FE0DC0232D2E7FA22E891458F434FE51
:1016B0000BC032FC09C0832D8E7EA82E05C0B82C2D
:1016C000A32C03C0B82C01C0B92CA4FE0FC0FE018E
:1016D000E80DF11D8081803321F49A2D997EA92E89
:1016E00009C0A2FE06C0B394B39404C08A2D8678C4
:1016F00009F0B394A3FC11C0A0FE06C0B21488F494
:10170000280C922C9B180EC0B21460F4B60180E233
:1017100090E00E94060CB394F7CFB21418F42B1883
:1017200002C0982C212CA4FE10C0B60180E390E0EA
:101730000E94060CA2FE17C0A1FC03C088E790E03F
:1017400002C088E590E0B6010CC08A2D867859F079
:10175000A1FE02C08BE201C080E2A7FC8DE2B601CF
:1017600090E00E94060C891438F4B60180E390E002
:101770000E94060C9A94F7CF8A94F301E80DF11DAC
:101780008081B60190E00E94060C8110F5CF2220E6
:1017900009F442CEB60180E290E00E94060C2A9441
:1017A000F6CFF6018681978102C08FEF9FEF2B96CF
:1017B0000FB6F894DEBF0FBECDBFDF91CF911F9162
:1017C0000F91FF90EF90DF90CF90BF90AF909F90E0
:1017D0008F907F906F905F904F903F902F900895E3
:1017E000FC010590615070400110D8F780959095EC
:1017F0008E0F9F1F0895FC016150704001900110F1
:10180000D8F7809590958E0F9F1F08950F931F9383
:10181000CF93DF93FB01238121FD03C08FEF9FEF67
:101820002CC022FF16C04681578124813581421782
:10183000530744F4A081B1819D012F5F3F4F318355
:1018400020838C93268137812F5F3F4F37832683F8
:1018500014C08B01EC01FB010084F185E02D09959A
:10186000892BE1F6D80116968D919C9117970196D8
:1018700017969C938E931697CE01DF91CF911F916F
:101880000F910895FA01AA27283051F1203181F1F2
:10189000E8946F936E7F6E5F7F4F8F4F9F4FAF4F78
:1018A000B1E03ED0B4E03CD0670F781F891F9A1F8B
:1018B000A11D680F791F8A1F911DA11D6A0F711D3F
:1018C000811D911DA11D20D009F468943F912AE04B
:1018D000269F11243019305D3193DEF6CF01089533
:1018E000462F4770405D4193B3E00FD0C9F7F6CF64
:1018F000462F4F70405D4A3318F0495D31FD40522C
:10190000419302D0A9F7EACFB4E0A69597958795C1
:1019100077956795BA95C9F70097610571050895A0
:101920009B01AC010A2E069457954795379527954C
:10193000BA95C9F7620F731F841F951FA01D0895E4
:04194000F894FFCF49
:1019440030313233343536373839414243444546F1
:1019540009000D0A0009000D0A009A02A502AF024F
:10196400B902C10231323341343536423738394352
:101974002A3023440D0A3D3D3D2044454D4F20313E
:101984003A2042617369632043616C63756C6174CE
:101994006F72203D3D3D0D0A00413D2B2C20423D00
:1019A4002D2C20433D2A2C20443D2F2C20233D3D2B
:1019B4002C202A3D436C6561720D0A0D0A004361B7
:1019C4006C63756C61746F72004B65793A202563A2
:1019D4000D0A00256C642020202020202000256C86
:1019E400642563256C642020202000256C64256315
:1019F40020202020202020004572726F723A00447B
:101A04006976696465206279207A65726F21004580
:101A140052524F523A204469766973696F6E20625C
:101A240079207A65726F210D0A00256C642563257F
:101A34006C643D2020202020200043616C63756C81
:101A44006174696F6E3A20256C6420256320256CCF
:101A540064203D20256C640D0A00436C6561726549
:101A6400640D0A000D0A3D3D3D2044454D4F203292
:101A74003A20496E746572616374697665204D65B8
:101A84006E75203D3D3D0D0A00557365206B6579EB
:101A940070616420746F206E61766967617465207B
:101AA4006D656E750D0A0D0A0053656C656374658A
:101AB400643A004D656E752073656C656374696F77
:101AC4006E3A2025730D0A0045786974696E6720A3
:101AD4006D656E752E2E2E0D0A00312E53657474AD
:101AE400696E677300322E446973706C61790033D8
:101AF4002E53656E736F727300342E41626F75746A
:101B040000352E45786974000D0A3D3D3D2044455D
:101B14004D4F20333A204E756D62657220477565CE
:101B24007373696E672047616D65203D3D3D0D0A05
:101B3400004775657373206E756D6265722062650A
:101B4400747765656E20302D39390D0A00232074B1
:101B54006F207375626D69742C202A20746F206362
:101B64006C6561720D0A0D0A004775657373203048
:101B74002D39393A00536563726574206E756D6250
:101B840065722073657421205374617274206775C3
:101B9400657373696E672E2E2E0D0A005F5F202019
:101BA400202020202020004775657373202325758D
:101BB4003A2025750D0A00436F7272656374210023
:101BC400496E202575207472696573002A2A2A20BB
:101BD400434F52524543542120546865206E756D1D
:101BE40062657220776173202575202A2A2A0D0ADE
:101BF40000596F7520677565737365642069742077
:101C0400696E20257520617474656D707473210D7F
:101C14000A00546F6F204C6F7721005472793A2573
:101C2400750020202D3E20546F6F206C6F7721208B
:101C34004775657373206869676865722E0D0A00BD
:101C4400546F6F2048696768210020202D3E20547E
:101C54006F6F206869676821204775657373206C0E
:101C64006F7765722E0D0A00537461727465640097
:101C740053746F70706564000D0A3D3D3D2044450A
:101C84004D4F20343A2053746F7077617463682029
:101C94003D3D3D0D0A00313D53746172742F537400
:101CA4006F702C20323D52657365742C202A3D459B
:101CB4007869740D0A0D0A0053746F707761746348
:101CC400683A0030303A30302E3000526573657413
:101CD4000D0A0045786974696E672073746F7077B4
:101CE400617463682E2E2E0D0A00253032753A2554
:101CF4003032752E257500E29594E29590E2959028
:101D0400E29590E29590E29590E29590E29590E2CA
:101D14009590E29590E29590E29590E29590E29507
:101D240090E29590E29590E29590E29590E29590FC
:101D3400E29590E29590E29590E29590E29590E29A
:101D44009590E29590E29590E29590E29590E295D7
:101D540090E29590E29590E29590E29590E29590CC
:101D6400E29590E29590E29590E29590E29590E26A
:101D74009590E295970D0A00E2959120204B6579A4
:101D84007061642043616C63756C61746F72202DA3
:101D94002041546D65676131323820202020202095
:101DA4002020E295910D0A00E2959AE29590E29541
:101DB40090E29590E29590E29590E29590E295906C
:101DC400E29590E29590E29590E29590E29590E20A
:101DD4009590E29590E29590E29590E29590E29547
:101DE40090E29590E29590E29590E29590E295903C
:101DF400E29590E29590E29590E29590E29590E2DA
:101E04009590E29590E29590E29590E29590E29516
:101E140090E29590E29590E29590E29590E295900B
:101E2400E29590E2959D0D0A0053656C65637420FC
:101E340044656D6F3A0D0A0020205B315D204261DC
:101E44007369632043616C63756C61746F720D0A0E
:101E54000020205B325D204D656E752053797374CC
:101E6400656D0D0A0020205B335D20477565737333
:101E7400696E672047616D650D0A0020205B345D43
:101E84002053746F7077617463680D0A00456E7433
:101E940065722073656C656374696F6E2028312DDB
:101EA40034293A20000D0A0D0A2A2A2A204B657982
:101EB4007061642043616C63756C61746F7220534C
:101EC400797374656D202A2A2A0D0A00496E746597
:101ED40072616374697665204170706C69636174C2
:101EE400696F6E730D0A00202052656164792100C8
:101EF400496E76616C69642073656C656374696F9F
:101F04006E210D0A00496E76616C696421002530EA
:041F1400325800003F
:00000001FF
