:100000000C9446000C9465000C9465000C946500FB
:100010000C9465000C9465000C9465000C946500CC
:100020000C9465000C94A60D0C94790D0C944A0D5B
:100030000C94F00C0C941D0D0C94C30C0C94960CA9
:100040000C94690C0C9465000C9465000C9465008C
:100050000C9465000C9432060C9465000C946500B9
:100060000C9465000C9465000C94000E0C942D0EFD
:100070000C9465000C94D30D0C9465000C946500F1
:100080000C9465000C9465000C94650011241FBE4F
:10009000CFEFD0E1DEBFCDBF1AE0A0E0B1E0E0ECF1
:1000A000FCE300E00BBF02C007900D92A639B10738
:1000B000D9F72BE0A6E9BAE001C01D92A43AB20735
:1000C000E1F70E9401190C94571E0C94000087B3AD
:1000D000806C87BB48EE53E060E070E081E090E028
:1000E0000E941B1388B38F7388BB0895682F81E02B
:1000F00090E00C941F13811529F024F0C69AC7983C
:100100000C94760021F0C698C79A8195F9CF88B3F0
:100110008F7388BB80E0F4CFEF92FF920F931F9311
:10012000CF93DF93CDB7DEB764970FB6F894DEBFF9
:100130000FBECDBF8DE194E00E944A0785E494E0B4
:100140000E944A0781E594E00E944A0784E794E010
:100150000E944A0789E994E00E944A0706E610E0F7
:100160007E012FEFE21AF20A80919B0087FF26C0E2
:1001700080919C0090ED980F9A30D8F58AE0989F76
:10018000102D1124812F063671F50E947B0081EB22
:1001900094E00E944A071F921F938DE995E09F9378
:1001A0008F93FF92EF920E94381BC7010E944A076B
:1001B0000F900F900F900F900F900F908091970AD3
:1001C0009091980A01968093970A9093980A8131AA
:1001D000974250F285B391E0892785BB1092970A28
:1001E0001092980AC1CF81950E947B008CEB94E01D
:1001F000D0CF8F7D863449F4812F0E947B0087EC1D
:1002000094E00E944A0706E6D9CF823551F4812F47
:1002100081950E947B008CED94E00E944A0702E7E2
:10022000CDCF823449F480E00E947B0081EF94E0DE
:100230000E944A0710E0C2CF813509F0BFCF80E0AD
:1002400064960FB6F894DEBF0FBECDBFDF91CF919D
:100250001F910F91FF90EF900C947B00EF92FF9213
:100260000F931F93CF93DF93CDB7DEB76E970FB683
:10027000F894DEBF0FBECDBF8AEF94E00E944A071C
:100280008CE195E00E944A0781E595E00E944A07CB
:100290008E010F5F1F4F8CE795E00E944A07C69AB8
:1002A000C798E12CF12C8E2D0E947600FF92EF92E0
:1002B00086E995E09F938F931F930F930E94381BBD
:1002C000C8010E944A078FEF9FE724E081509040C9
:1002D0002040E1F700C0000080919B000F900F903C
:1002E0000F900F900F900F9087FF15C080919C008A
:1002F0008F7D813581F480E00E947B006E960FB681
:10030000F894DEBF0FBECDBFDF91CF911F910F914B
:10031000FF90EF90089585E0E80EF11C99E6E9164C
:10032000F10409F62FEF8FE796E1215080409040CD
:10033000E1F700C0000084EA95E00E944A0794E6D5
:10034000E92EF12C8E2D0E947600FF92EF9286E925
:1003500095E09F938F931F930F930E94381BC801C2
:100360000E944A078FEF9FE724E081509040204091
:10037000E1F700C0000080919B000F900F900F905C
:100380000F900F900F9087FF06C080919C008F7D8B
:10039000813509F4B0CF85E0E81AF1089BEFE91642
:1003A0009FEFF90679F688B38F7388BB2FEF8FE73D
:1003B00096E1215080409040E1F700C0000086EBBC
:1003C00095E00E944A07C698C79AE12CF12C8E2D21
:1003D0000E947600FF92EF9286E995E09F938F93BB
:1003E0001F930F930E94381BC8010E944A078FEF8A
:1003F0009FE724E0815090402040E1F700C00000DA
:1004000080919B000F900F900F900F900F900F9086
:1004100087FF06C080919C008F7D813509F46BCFEA
:1004200085E0E80EF11C99E6E916F10481F62FEF5C
:100430008FE796E1215080409040E1F700C0000036
:1004400084EA95E00E944A0784E6F82E8F2D0E94E8
:1004500076002FEF8FE794E0215080409040E1F745
:1004600000C000002BEFF20EF212F0CF88B38F73B2
:1004700088BB80ED95E00E944A078FEF9FEF2CE24A
:10048000815090402040E1F700C0000004CFCF929F
:10049000DF92EF92FF920F931F93CF93DF93CDB72D
:1004A000DEB7EE970FB6F894DEBF0FBECDBF86EE77
:1004B00095E00E944A078DE096E00E944A0781E39A
:1004C00096E00E944A0781E595E00E944A078CE089
:1004D000E0E2F1E0DE01D39601900D928A95E1F71A
:1004E000C69AC79882E30E9476008E010D5C1F4F6A
:1004F0006E012FE3C20ED11C7E013FEFE31AF30A17
:10050000F801219131918F0140E050E083E0220F0A
:10051000331F441F551F8A95D1F760E070E880E7CC
:1005200090E00E94DC192150310937BD26BDC90178
:10053000969587959BBD8ABD3F932F93F80132977F
:1005400081818F9380818F9321E536E03F932F93B4
:10055000FF92EF920E94381BC7010E944A079FEF4B
:10056000EFE7F3E49150E040F040E1F700C0000015
:1005700080919B000FB6F894DEBF0FBECDBF87FF02
:100580001BC080919C008F7D8135B1F480E00E947A
:100590007B0087EE93E097BD86BDEE960FB6F8948C
:1005A000DEBF0FBECDBFDF91CF911F910F91FF90A6
:1005B000EF90DF90CF900895C016D10609F0A0CF3C
:1005C00080E00E947B0087EE93E097BD86BD8DE6BC
:1005D00096E00E944A07E1CFEF92FF920F931F939C
:1005E000CF93DF93CDB7DEB7EE970FB6F894DEBFAB
:1005F0000FBECDBF82E996E00E944A0782EC96E0EA
:100600000E944A0786EF96E00E944A078EE197E033
:100610000E944A070E94830516E67E012FEFE21A28
:10062000F20A80E00E948E058DAF9EAF9C01A4E689
:10063000B0E00E9489192FEF33E040E050E00E94C3
:10064000DC19022F822F163609F044C00E947B006D
:100650008091960A8F5F8093960A8A3008F12AE883
:1006600036E0163611F02EE836E0C9019F932F933D
:100670001F920F933EAD3F938DAD8F932DE437E0E6
:100680003F932F93FF92EF920E94381BC7010E9465
:100690004A071092960A0FB6F894DEBF0FBECDBF80
:1006A00080919B0087FF0CC080919C008F7D8434DB
:1006B000A9F4163689F412E78FE697E00E944A07FC
:1006C0003FEF8FE191E0315080409040E1F700C072
:1006D0000000A7CF8195BACF16E6EECF813581F71E
:1006E00080E0EE960FB6F894DEBF0FBECDBFDF916F
:1006F000CF911F910F91FF90EF900C947B0083E8B6
:1007000097E00E944A0788E897E00E944A078EE136
:1007100098E00E944A078BE498E00E944A0785E827
:1007200097E00E944A0781EE98E00E944A0780EF16
:1007300098E00E944A0783E199E00E944A0783E318
:1007400099E00E944A078EE499E00E944A0785E8F2
:1007500097E00E944A0780E799E00C944A078FEFE0
:100760008ABB1BBA87BB88BB9FE094BB20EF25BB2D
:1007700011BA82BB22B993B9109261001092620043
:1007800080936400109265000895883048F498B30F
:1007900021E001C0220F8A95EAF72095292328BB82
:1007A0000895883040F498B321E001C0220F8A9563
:1007B000EAF7922B98BB0895883040F498B321E073
:1007C00001C0220F8A95EAF7922798BB0895809579
:1007D00088BB08958FEF88BB089518BA08958830B4
:1007E00058F420B330E002C0359527958A95E2F79A
:1007F0002095822F8170089580E0089580B38095C0
:10080000089580B38F3F69F480B38F3F89F09FEFE5
:100810002FE181E0915020408040E1F700C00000CE
:1008200008958FEF97E40197F1F700C00000E9CF3A
:100830008FEF97E40197F1F700C00000E5CF90E05B
:10084000981301C00895292F209528BB2FEF3FE36F
:100850004BE0215030404040E1F700C000009F5F76
:10086000EFCF1F93CF93DF9300D00F92CDB7DEB7BA
:1008700089831B821FEF9B812981921307C00F90F0
:100880000F900F90DF91CF911F9108951A8218BB9E
:100890008A810E94C5032FEF8FE794E021508040AA
:1008A0009040E1F700C000002A812F5F2A832830A2
:1008B00071F78B818F5F8B83DECF1F93CF93DF9395
:1008C00000D00F92CDB7DEB789831B821FEF9B81CB
:1008D0002981921307C00F900F900F90DF91CF9155
:1008E0001F9108951A8218BB8A810E94C5032FEFB9
:1008F0008FE593E0215080409040E1F700C0000078
:100900002A812F5F2A83283071F787E08A8318BBFA
:100910009A8191509A83892F0E94C5032FEF8FE50A
:1009200093E0215080409040E1F700C000002A8110
:100930002111EDCF8B818F5F8B83C9CFCF93DF9355
:10094000C0E0DFEFD8BB8C2F0E94C5032FEF8FEBE9
:1009500096E0215080409040E1F700C00000CF5F5A
:10096000C83081F7D8BBDF91CF91089580B388BBA1
:10097000811551F02FEF8FE191E0215080409040A0
:10098000E1F700C00000F2CF8FEF88BB08958830F8
:1009900078F421E001C0220F8A95EAF790B38091A4
:1009A0000001811107C080B3982B922381E091113F
:1009B00080E008958150E3E3F7E03197F1F7F1CF5C
:1009C000883080F491E001C0990F8A95EAF7892F69
:1009D00090B3982341F09091000191110BC090B316
:1009E000982371F00895EFEFF7E43197F1F700C025
:1009F0000000EECF9150E3E3F7E03197F1F7EDCF50
:100A0000EFEFF7E43197F1F700C00000E8CF88304E
:100A100040F492B321E001C0220F8A95EAF7922BAD
:100A200092BB0895883048F492B321E001C0220FB0
:100A30008A95EAF72095292322BB0895CF93DF9367
:100A40000F92CDB7DEB78983898186230F90DF911E
:100A5000CF910895FC019081862F8095892364238E
:100A6000682B60830895853620F084E6809300012A
:100A700008958530D8F785E0F9CF80910001089579
:100A80001F93CF93DF93C0E0D0E010E08C2F0E9443
:100A9000C704811539F081E00C2E01C0880F0A943B
:100AA000EAF7182B2196C830D10581F7812FDF9105
:100AB000CF911F910895CF93C0E08C2F0E94C7045F
:100AC00081110AC0CF5FC830C1F78FEF97E401975B
:100AD000F1F700C00000F0CF8C2F0E94E0048C2FB3
:100AE000CF910895F8940E94AF03789408958FB73A
:100AF00087FB882780F90895F8940E94AF030E942D
:100B0000FF147894089516B880E487B980E888B90E
:100B100087E886B9369A3699FECF0895282F8F71C7
:100B2000806487B987E886B9369A3699FECF34B1A2
:100B300085B1982F832F90939E0A80939D0A2093CE
:100B40009C0A0895CF92DF92EF92FF92CF93DF93AA
:100B500000D00F92CDB7DEB789836A831B82E12C68
:100B6000F12C67018B819A81891313C0282F30E003
:100B700040E050E0B601C7010E94DC19C9010F90A6
:100B80000F900F90DF91CF91FF90EF90DF90CF907B
:100B9000089589810E948E05C80ED91EE11CF11CA2
:100BA00086EF8A95F1F79B819F5F9B83DBCF0E9445
:100BB0008E059C01A8E8B3E10E948919A92F982FFE
:100BC000872FA69597958795A695979587950895CC
:100BD0000E94D7056AE070E00E94B41980919A0AD9
:100BE00090919B0A860F971F089568E00E94A205C6
:100BF0009C01A4E6B0E00E9489192FEF33E040E0A9
:100C000050E00E94DC19C90108950F931F93CF9300
:100C1000DF93C62F8C01D42FD60FCD1305C0DF91E3
:100C2000CF911F910F9108958C2F0E948E05F8018E
:100C3000819391938F0183E397E00197F1F7CF5F61
:100C4000ECCF8EED87B9369A3699FECF84B125B1B7
:100C5000322F282F2059314081E02135310508F00D
:100C600080E008952F938F939F9324B185B1982F9F
:100C7000822F90939E0A80939D0A81E08093990A27
:100C80009F918F912F9118958F71806487B9339AB6
:100C90001092990A369A08958091990A0895CF93EF
:100CA000DF9300D000D0CDB7DEB789839A8380E090
:100CB0000E948E058B839C83809101018130F1F528
:100CC00029813A81AFEFB3E00E94891928E833E126
:100CD00040E050E00E94DC194B815C8141155105D8
:100CE00031F1CA01821B930B2417350728F0C90183
:100CF000EB81FC818E1B9F0B80939A0A90939B0A39
:100D0000B90190E0872F722F60E022E0660F771F15
:100D1000881F991F2A95D1F7EB81FC819F0140E044
:100D200050E00E94DC1920930301309304010F90DE
:100D30000F900F900F90DF91CF9108958230B9F707
:100D400029813A81AFEFB3E00E94891920E03AE0AF
:100D500040E050E0BFCF883021F43D9A80930201FB
:100D600008953D988AE0FACF80910201089597B1E5
:100D70008F71907E892B87B9359A339A369A089568
:100D800035983398089580919D0A90919E0A089510
:100D9000811117C0613039F5413021F04A30E9F056
:100DA000483CE9F040E187B1807E842B87B9369AD0
:100DB0003699FECF84B125B1922F21FF16C09C6FCA
:100DC0000895823081F4633071F4413021F04A306B
:100DD00051F3483C31F041E1E6CF48E0E4CF49E04F
:100DE000E2CF4BE0E0CF80E090E0089597B19F73B1
:100DF00097B9813069F0823079F0811102C0109288
:100E000001018FEF97E40197F1F700C0000008950A
:100E10003E9A80930101F5CF97B1906C97B9F9CFC5
:100E200080910101089580910101813029F0823083
:100E300031F080E090E0089588E893E1089580E043
:100E40009AE0089510929A0A10929B0A94E01092E8
:100E500003019093040108958EE491E108951092A6
:100E60009B0086E080939D0088E980939A008FE242
:100E70008093A70A1092A80A109298008091A70A5E
:100E800080939900089590919B0095FFFCCF8093EB
:100E90009C000895CF93DF93EC018881811103C0FA
:100EA000DF91CF91089521960E944307F6CF80915C
:100EB0009B0087FFFCCF80919C0008950F931F93A8
:100EC000CF93DF9300D000D000D0CDB7DEB79F9393
:100ED0008F9380EF99E09F938F938E010F5F1F4F49
:100EE0001F930F930E94381BC8010E944A070F905E
:100EF0000F900F900F900F900F900F900F900F90FA
:100F00000F900F900F90DF91CF911F910F91089547
:100F10000F931F93CF93DF9300D00F92CDB7DEB71F
:100F20001F928F9383EF99E09F938F938E010F5FB2
:100F30001F4F1F930F930E94381BC8010E944A073E
:100F40000F900F900F900F900F900F900F900F90A9
:100F50000F90DF91CF911F910F9108958DE191E056
:100F60000C944A070E9457070C94430780919C00F9
:100F70008093A60A81E08093A50A8091A60A8093B7
:100F8000AB0A08958091A50A811519F01092A50A5F
:100F900081E008958091A60A0895CF93DF9300D051
:100FA000CDB7DEB760E177E20E94B41989839A83F6
:100FB0006A5F7E4FFB0180810E94430789819A818D
:100FC00068EE73E00E94B41989839A836A5F7E4F4A
:100FD000FB0180810E94430789819A8164E670E069
:100FE0000E94B41989839A836A5F7E4FFB018081D6
:100FF0000E94430789819A816AE070E00E94B419D7
:1010000089839A836A5F7E4FFB0180810E94430738
:10101000E981FA81EA5FFE4F80810F900F90DF91A6
:10102000CF910C944307CF93DF930F92CDB7DEB7E8
:1010300064E60E94A8199983E82FF0E0EA5FFE4F6A
:1010400080810E94430789816AE00E94A8199983E0
:10105000E82FF0E0EA5FFE4F80810E94430789811C
:10106000E82FF0E0EA5FFE4F80810F90DF91CF9193
:101070000C944307CF93DF93EC0197FD3AC08BE2CA
:101080000E944307CE0160E177E20E94C819EC019B
:101090006A5F7E4FFB0180810E944307CE0168EEAC
:1010A00073E00E94C819EC016A5F7E4FFB018081EA
:1010B0000E944307CE0164E670E00E94C819EC016B
:1010C0006A5F7E4FFB0180810E944307CE016AE088
:1010D00070E00E94C819EC016A5F7E4FFB018081BD
:1010E0000E944307CA5FDE4F8881DF91CF910C9445
:1010F00043078DE20E944307882799278C1B9D0B8D
:10110000C2CF8F929F92AF92BF92CF92DF92EF9217
:10111000FF92CF93DF9300D000D00F92CDB7DEB710
:101120006B017C0189E08B831C82812C8AEC982ED8
:101130008AE9A82E8BE3B82EC814D904EA04FB046C
:101140008CF4B401C5012AE030E040E050E00E9498
:10115000FE1949015A018B819C8101978B839C83E5
:10116000892B51F781149104A104B10481F40F90EB
:101170000F900F900F900F90DF91CF91FF90EF9015
:10118000DF90CF90BF90AF909F908F900895B60161
:10119000C7019401A5010E94FE1969837A838D839A
:1011A0009B83F901EA5FFE4F80810E944307C9805B
:1011B000DA80ED80FB80B401C5012AE030E040E038
:1011C00050E00E94FE1949015A01CCCFCF93C82F9D
:1011D000E82FE295EF70F0E0EA5FFE4F80810E9419
:1011E0004307CF70EC2FF0E0EA5FFE4F8081CF9194
:1011F0000C944307E82FE295EF70F0E0EA5FFE4FB2
:1012000020818F70E82FF0E0EA5FFE4F8081922FFF
:10121000089508950895089508958091AC0A9091D5
:10122000AD0AA091AE0AB091AF0A0196A11DB11D01
:101230008093AC0A9093AD0AA093AE0AB093AF0A24
:1012400008958230910509F461C078F44770892BC4
:1012500039F513BE12BE62307105C9F050F4672B28
:1012600081F483B7877B83BF07C0039709F472C0FB
:1012700008956330710571F083B7887F482B43BFB1
:10128000089583B7886083BF83B78F7BECCF83B724
:101290008864E9CF83B7877F83BF83B78064E3CF58
:1012A0001EBC1DBC1CBC62307105D9F048F4672B14
:1012B00079F48FB58C7F8FBD8EB5877E8EBD03C0D0
:1012C00063307105B9F08EB5887F482B4EBD089507
:1012D0008FB58C7F8FBD8EB58F7E8EBD8EB58860AD
:1012E000EDCF8FB582608FBD8FB58E7F8FBD8EB5F0
:1012F0008861E4CF8FB582608FBD8FB58E7F8FBD43
:101300008EB580618EBD8EB5877FD8CF15BC14BCDD
:1013100062307105B1F030F4672B69F485B5877BD5
:1013200085BD03C06330710579F085B5887F47704E
:10133000842B85BD089585B5886085BD85B58F7B77
:10134000EFCF85B58864ECCF85B5877F85BD85B542
:101350008064E6CF10928A00109289001092880073
:101360006230710539F168F4672BB1F480918B001C
:101370008C7F80938B0080918A00877E80938A0087
:1013800003C06330710521F180918A00887F477026
:10139000842B80938A00089580918B008C7F8093AA
:1013A0008B0080918A008F7E80938A0080918A00D2
:1013B0008860E4CF80918B00826080938B00809165
:1013C0008B008E7F80938B0080918A008861D6CFBE
:1013D00080918B00826080938B0080918B008E7F48
:1013E00080938B0080918A00806180938A00809135
:1013F0008A00877FC3CF8230910589F040F46770FF
:10140000892B41F483B7887F862B83BF0895039788
:1014100061F008958EB5887F862B8EBD089585B5C1
:10142000887F6770862B85BD089580918A00887FAC
:101430006770862B80938A0008958230910571F041
:1014400030F4892B39F483B7887F83BF08950397DD
:1014500049F008958EB5887F8EBD089585B5887F43
:1014600085BD089580918A00887F80938A000895C1
:101470008230910559F020F4892B29F412BE089589
:10148000039731F008951DBC1CBC089514BC089549
:10149000109289001092880008958230910571F0B1
:1014A00028F4892B41F482B790E00895039741F026
:1014B00080E090E008958CB59DB5089584B5F4CF93
:1014C000809188009091890008958230910559F0AB
:1014D00020F4892B29F462BF0895039731F0089511
:1014E0007DBD6CBD089564BD0895709389006093BF
:1014F000880008958230910579F040F4892B51F4E9
:1015000093B7977081E0911519F00895039731F022
:1015100080E008959EB5F5CF95B5F3CF90918A0000
:10152000F0CF82309105E9F030F4892B39F4672B44
:1015300091F541BF08950397C1F008956130710599
:1015400041F06230710541F0672B29F55BBD4ABD62
:10155000089559BD48BD089550937900409378008F
:101560000895672BC1F443BD08956130710551F0B2
:101570006230710561F0672B71F4509387004093DE
:1015800086000895509385004093840008955093F9
:10159000830040938200089582309105F1F028F491
:1015A000892B41F481B790E008950397C1F080E062
:1015B00090E008956130710541F06230710541F0AD
:1015C000672BA9F78AB59BB5089588B599B5089595
:1015D0008091780090917900089583B5E4CF6130CF
:1015E000710551F06230710561F0672B01F7809150
:1015F00086009091870008958091840090918500E5
:101600000895809182009091830008958230910521
:10161000F9F048F4892B51F483B7429540738F7CDD
:10162000482B43BF08950397D1F0089561307105A9
:1016300048F48FB58F734295440F440F407C482B7C
:101640004FBD0895C9F48FB5429540738F7CF7CF95
:1016500085B5429540738F7C482B45BD0895613018
:10166000710558F480918B008F734295440F440F9D
:10167000407C482B40938B000895F1F780918B00BC
:10168000429540738F7CF5CF019749F48EB5806405
:101690008EBD8EB5611531F080688EBD08958EB512
:1016A0008F7BF6CF8F77F9CF86B597B508950197E1
:1016B00021F48EB580648EBD08958EB58F7BFBCFEF
:1016C00086B7806286BF06B605FEFDCF46B557B524
:1016D00086B7806286BF06B605FEFDCF26B537B554
:1016E0004217530758F4241B350B40E050E060E0EC
:1016F00070E880E790E00E94DC1909C0C9010197F9
:10170000841B950B9C0140E050E0892B81F7B901C7
:10171000CA010895CF93DF938EB580648EBD86B7DE
:10172000806286BF06B605FEFDCFC6B5D7B580E0A0
:1017300090E00E94570B86B7806286BF06B605FE12
:10174000FDCFA6B5B7B5CA17DB0790F4AC1BBD0B30
:1017500020E432E44FE050E00E94261A20E030E816
:1017600040E70E94DC19B901CA01DF91CF910895C9
:101770001197ECCF8230910569F030F4892B39F460
:1017800087B7816087BF0895039739F0089587B7B9
:101790008460F8CF87B78064F5CF80917D00846046
:1017A00080937D0008958230910569F030F4892B93
:1017B00039F487B78E7F87BF0895039739F008956E
:1017C00087B78B7FF8CF87B78F7BF5CF80917D0070
:1017D0008B7F80937D00089582309105A1F030F4D5
:1017E000892B39F487B7826087BF0895039771F01A
:1017F00008956130710518F487B78061F5CF71F4F1
:1018000087B78860F1CF87B78068EECF6130710508
:1018100030F480917D00806180937D000895F1F720
:1018200080917D008860F8CF82309105A1F030F47E
:10183000892B39F487B78D7F87BF0895039771F09F
:1018400008956130710518F487B78F7EF5CF71F474
:1018500087B7877FF1CF87B78F77EECF613071057C
:1018600030F480917D008F7E80937D000895F1F7A4
:1018700080917D00877FF8CF87B7806287BF08950A
:1018800087B78F7D87BF08958430910538F4880F1E
:10189000991FFC01E55EF44F6083718308958430E5
:1018A000910588F46130710538F069F4880F991F4B
:1018B000FC01E55FF44F05C0880F991FFC01ED5E48
:1018C000F44F4083518308958093090B90930A0B42
:1018D00008951F920F920FB60F9211240BB60F921C
:1018E0002F933F934F935F936F937F938F939F9328
:1018F000AF93BF93EF93FF93E0911B0BF0911C0B01
:10190000309709F00995FF91EF91BF91AF919F91A9
:101910008F917F916F915F914F913F912F910F9098
:101920000BBE0F900FBE0F901F9018951F920F9235
:101930000FB60F9211240BB60F922F933F934F9334
:101940005F936F937F938F939F93AF93BF93EF9327
:10195000FF93E091130BF091140B309709F0099568
:10196000FF91EF91BF91AF919F918F917F916F9177
:101970005F914F913F912F910F900BBE0F900FBE33
:101980000F901F9018951F920F920FB60F9211246F
:101990000BB60F922F933F934F935F936F937F9369
:1019A0008F939F93AF93BF93EF93FF93E0911D0BA2
:1019B000F0911E0B309709F00995FF91EF91BF91BF
:1019C000AF919F918F917F916F915F914F913F91D7
:1019D0002F910F900BBE0F900FBE0F901F90189578
:1019E0001F920F920FB60F9211240BB60F922F93E6
:1019F0003F934F935F936F937F938F939F93AF9397
:101A0000BF93EF93FF93E091150BF091160B309776
:101A100009F00995FF91EF91BF91AF919F918F913F
:101A20007F916F915F914F913F912F910F900BBEDE
:101A30000F900FBE0F901F9018951F920F920FB628
:101A40000F9211240BB60F922F933F934F935F93F6
:101A50006F937F938F939F93AF93BF93EF93FF9376
:101A6000E0910D0BF0910E0B309709F00995FF9165
:101A7000EF91BF91AF919F918F917F916F915F9106
:101A80004F913F912F910F900BBE0F900FBE0F9073
:101A90001F9018951F920F920FB60F9211240BB63C
:101AA0000F922F933F934F935F936F937F938F93F7
:101AB0009F93AF93BF93EF93FF93E091090BF09146
:101AC0000A0B309719F086B597B50995FF91EF91FC
:101AD000BF91AF919F918F917F916F915F914F9146
:101AE0003F912F910F900BBE0F900FBE0F901F9044
:101AF00018951F920F920FB60F9211240BB60F92EA
:101B00002F933F934F935F936F937F938F939F9305
:101B1000AF93BF93EF93FF93E0911F0BF091200BD6
:101B2000309709F00995FF91EF91BF91AF919F9187
:101B30008F917F916F915F914F913F912F910F9076
:101B40000BBE0F900FBE0F901F9018951F920F9213
:101B50000FB60F9211240BB60F922F933F934F9312
:101B60005F936F937F938F939F93AF93BF93EF9305
:101B7000FF93E091170BF091180B309709F009953E
:101B8000FF91EF91BF91AF919F918F917F916F9155
:101B90005F914F913F912F910F900BBE0F900FBE11
:101BA0000F901F9018951F920F920FB60F9211244D
:101BB0000BB60F922F933F934F935F936F937F9347
:101BC0008F939F93AF93BF93EF93FF93E091210B7C
:101BD000F091220B309709F00995FF91EF91BF9199
:101BE000AF919F918F917F916F915F914F913F91B5
:101BF0002F910F900BBE0F900FBE0F901F90189556
:101C00001F920F920FB60F9211240BB60F922F93C3
:101C10003F934F935F936F937F938F939F93AF9374
:101C2000BF93EF93FF93E091190BF0911A0B30974C
:101C300009F00995FF91EF91BF91AF919F918F911D
:101C40007F916F915F914F913F912F910F900BBEBC
:101C50000F900FBE0F901F9018951F920F920FB606
:101C60000F9211240BB60F922F933F934F935F93D4
:101C70006F937F938F939F93AF93BF93EF93FF9354
:101C8000E091110BF091120B309709F00995FF913B
:101C9000EF91BF91AF919F918F917F916F915F91E4
:101CA0004F913F912F910F900BBE0F900FBE0F9051
:101CB0001F9018952F923F924F925F926F927F9252
:101CC0008F929F92AF92BF92CF92DF92EF92FF924C
:101CD0000F931F93CF93DF93CDB7DEB72A970FB63D
:101CE000F894DEBF0FBECDBF6A017B012AE0ECE2B3
:101CF000F1E0DE01119601900D922A95E1F79E0127
:101D00002F5F3F4F2901E1E06E2E712CFFEFBF2EB8
:101D1000AB2C450100E010E01C01E89421F8F20131
:101D2000219131912F0140E050E060E070E880E7C0
:101D300090E00E94DC19CA01A0E0B0E02114310457
:101D400021F4832F942FA52FB0E08C159D05AE05AF
:101D5000BF0578F081F178F18C199D09AE09BF09B2
:101D600088159905AA05BB0520F44C015D01162DC7
:101D7000072DFFEF6F1A7F0A26E06216710479F6CD
:101D8000812F902F2A960FB6F894DEBF0FBECDBFDD
:101D9000DF91CF911F910F91FF90EF90DF90CF9047
:101DA000BF90AF909F908F907F906F905F904F907B
:101DB0003F902F90089580E090E0A0E0D1CFCF93A6
:101DC000DF93CDB7DEB762970FB6F894DEBF0FBED4
:101DD000CDBF8D879E872F87388B498B5A8B8CE0A0
:101DE000E6E3F1E0DE01119601900D928A95E1F7AC
:101DF00066307105A8F5660F771FFE013196E60F74
:101E0000F71F2081318140E050E060E070E880E71A
:101E100090E00E94DC196F85788989899A890E94EF
:101E200098192D853E852D7F21153105A9F4783E21
:101E300043E08407910530F428EE33E040E050E0C1
:101E40000E94DC19C90162960FB6F894DEBF0FBE7E
:101E5000CDBFDF91CF910895883E23E0920760F3D4
:101E600020E030E0EFCF0F931F93CF93DF93CDB7F8
:101E7000DEB72C970FB6F894DEBF0FBECDBF8A0138
:101E80008CE0E6E3F1E0DE01119601900D928A9577
:101E9000E1F76630710530F5452B21F1660F771FAC
:101EA000FE013196E60FF71F2081318140E050E0BE
:101EB00060E070E880E790E00E94DC19B901CA0197
:101EC000980140E050E00E94DC19B901CA012C964B
:101ED0000FB6F894DEBF0FBECDBFDF91CF911F913B
:101EE0000F91089560E070E0CB01F1CFCF93DF93C5
:101EF000CDB7DEB72C970FB6F894DEBF0FBECDBFBF
:101F00008CE0E6E3F1E0DE01119601900D928A95F6
:101F1000E1F740E050E09A016630710500F5660F88
:101F2000771FFE013196E60FF71F6081718180E017
:101F300090E00E94A31A9B01AC0160E070E081EE8A
:101F40009AE40E94311A9B01AC0160E074E284E7DC
:101F500099E40E94311A562F472F382F292F652FC9
:101F6000742F832F922F2C960FB6F894DEBF0FBEDE
:101F7000CDBFDF91CF91089543E050E061E070E084
:101F800080E090E00E94210989EF81BF8DE099E017
:101F90008093130B9093140B87B7826087BF1092C6
:101FA000AC0A1092AD0A1092AE0A1092AF0A0895D0
:101FB0002FB7F8946091AC0A7091AD0A8091AE0A87
:101FC0009091AF0A2FBF08958FB7F8942091AC0A73
:101FD0003091AD0A4091AE0A5091AF0AE2B78FBF7F
:101FE000AAEFB0E00E94261A6E0F711D811D911D8F
:101FF00022E0660F771F881F991F2A95D1F7089551
:10200000CF93DF93CDB7DEB728970FB6F894DEBF36
:102010000FBECDBF69837A838B839C830E94D80FC8
:102020006D837E838F8398870E94D80F2D813E8198
:102030004F815885621B730B840B950B29813A8164
:102040004B815C81621773078407950768F32896B4
:102050000FB6F894DEBF0FBECDBFDF91CF910895CC
:10206000E1EBFAE01082118212863B968BE0E930B8
:10207000F807C1F781E08093B00A08951F93CF93CA
:10208000DF932091B00A211551F1E1EBFAE020E055
:1020900030E0A081B181AB2BE1F4122FEBE0E29FA5
:1020A000E001E39FD00D1124CF54D54F888399834D
:1020B0004A835B836C837D830E94D80F6E837F830A
:1020C0008887998781E08A87812FDF91CF911F913F
:1020D00008952F5F3F4F3B9628303105D1F61FEF13
:1020E000F3CF883048F49BE0899FF0011124EF542E
:1020F000F54F1082118212860895883040F49BE0DB
:10210000899FF0011124EF54F54F81E082870895F3
:10211000883038F49BE0899FF0011124EF54F54F8B
:1021200012860895CF92DF92EF92FF92CF93DF93C2
:102130000E94D80F6B017C01C1EBDAE0E881F981E4
:102140003097D9F08A858115C1F08E819F81A8854D
:10215000B985A601B701481B590B6A0B7B0B8A8115
:102160009B81AC81BD81481759076A077B0728F01E
:102170000995CE82DF82E886F9862B968BE0C930FE
:10218000D807E1F6DF91CF91FF90EF90DF90CF90ED
:1021900008958F929F92AF92BF92CF92DF92EF926B
:1021A000FF920F931F93CF93DF937C014A015B0152
:1021B000690188E0E816F10408F07CC0F701319766
:1021C000E730F10508F06CC0E75AF14E0C941D1A87
:1021D000159A02E0C3E0D0E062E070E0C114D104DF
:1021E00011F063E070E043E050E0CE010E9421096D
:1021F000CE018D7F0197D1F460E072EC81E090E038
:102200009401A5010E94DC1921503109C130D1058A
:1022100009F04BC037BD26BD8FE08E9DF0018F9D2C
:10222000F00D1124ED5DF44F248735878FE08E9DEE
:10223000F0018F9DF00D1124ED5DF44F81E080835E
:10224000118282829382A482B582C682D782C0879D
:10225000D187028713861686DF91CF911F910F9148
:10226000FF90EF90DF90CF90BF90AF909F908F90B6
:102270000895149A01E0AECF139A00E0ABCFBF9A55
:1022800000E0C2E0D0E0A8CFBF9A02E0C1E0D0E019
:10229000A3CFBE9A01E0FACFBD9AE70100E09CCF40
:1022A000BC9A00E010E0E80197CF309381002093C2
:1022B0008000B2CF80E0D0CFCF93DF9388309105FC
:1022C000A8F42FE0289FE001299FD00D1124CD5DB7
:1022D000D44F8881811551F06A857B8542E050E0BA
:1022E000888599850E94060B81E08983DF91CF91D3
:1022F0000895CF93DF938830910588F42FE0289FCD
:10230000E001299FD00D1124CD5DD44F6A857B85D6
:1023100040E050E0888599850E94060B1982DF9184
:10232000CF910895EF92FF920F931F93CF93DF9376
:1023300000D00F92CDB7DEB78C01089708F040C0EF
:102340008FE0809FF001819FF00D1124ED5DF44F2F
:1023500080818115A9F16B83653610F024E62B830B
:102360008FE0809FF001819FF00D1124ED5DF44F0F
:10237000E084F1848285938589839A832B81822FDF
:1023800090E097012D7F232B29F59C01AFEFB0E062
:102390000E94891924E630E040E050E00E94DC19F8
:1023A000A90169817A81C7010E94910A8FE0809F0B
:1023B000F001819FF00D1124ED5DF44F8B81868734
:1023C0000F900F900F90DF91CF911F910F91FF9081
:1023D000EF900895248535852115310511F42FEFEF
:1023E0003FEFDC01D5CFAB018830910588F42FE0B9
:1023F000289FF001299FF00D1124ED5DF44F80819D
:10240000811531F062857385808591850C94910AE0
:1024100008958830910558F44FE0489F9001499FF6
:10242000300D11242D5D344FF9018685089580E02B
:1024300008958830910578F42FE0289FF001299FB6
:10244000F00D1124ED5DF44F2081211521F026813E
:1024500037810C94C91080E008958830910570F49C
:102460004FE0489F9001499F300D11242D5D344F5E
:10247000F9016281738184819581089580E090E003
:10248000BC01089520E030E0B90142E350E00C9433
:10249000C9100F931F93CF93DF9300D000D000D0CB
:1024A0000F92CDB7DEB78E839F839B01089708F00C
:1024B00046C08FE04E815F81849F8001859F100D13
:1024C00011240D5D144FD8018C918115C1F1CB0100
:1024D000B0E06A839B831C821D82A4E60E94891956
:1024E00020E23EE440E050E00E94DC192983D8015C
:1024F00018968D919D918D7F019761F52A813B8181
:102500004C815D8160E072EC81E090E00E9498195E
:1025100020E432E44FE050E00E94DC19B9018E81E2
:102520009F810E94F3118FE02E813F81829FF001F5
:10253000839FF00D1124ED5DF44F39813687279686
:102540000FB6F894DEBF0FBECDBFDF91CF911F91C4
:102550000F91089569818E819F810E949211E3CF2E
:10256000CF93DF9300D0CDB7DEB789839A83653BE5
:1025700008F064EB262F30E0A0E4B7E00E94891950
:1025800024EB40E050E00E94DC19B901605E7D4F11
:1025900089819A810F900F90DF91CF910C9449120D
:1025A0000F931F93CF93DF9300D000D0CDB7DEB74A
:1025B00089839A836B834C8389014617F8F06B817A
:1025C00089819A810E94B01280E090E08017910783
:1025D00079F4FB81FF5FFB838C818F1780F70F906D
:1025E0000F900F900F90DF91CF911F910F91089551
:1025F000E3E3F7E03197F1F70196E8CF6B8189814A
:102600009A810E94B01280E090E08017910749F40F
:10261000FB81F11521F3F150FB838C81F81770F7E2
:10262000DECFE3E3F7E03197F1F70196EECF60EC10
:1026300075E00C94491220E030E00C94C9100C9421
:1026400092110F931F93CF93DF9300D000D0CDB79B
:10265000DEB789839A836C838A010E9409128B8377
:1026600061E070E00A30110528F0C8016AE070E00E
:102670000E94B4198C814B81841B990B9C010E9490
:10268000B4198B01672BE9F401E010E01216130670
:10269000C4F00FEF1FEF15C08B81800F10161106CD
:1026A000ECF49C819B83891708F48B836B8189816F
:1026B0009A810E9492118FEF97E40197F1F700C081
:1026C00000009B814C819413E7CF0F900F900F90E7
:1026D0000F90DF91CF911F910F9108954C814B8303
:1026E0004817E2CF60E00C94921164E60C949211CA
:1026F0000C941B130C949211CF93DF9300D0CDB7A1
:10270000DEB789839A83653608F064E6262F30E0C9
:10271000AFEFB0E00E94891924E640E050E00E944B
:10272000DC19F901EE5BFE4F208130E0A4E6B0E059
:102730000E9489192FEF40E050E00E94DC19622FBF
:1027400089819A810F900F90DF91CF910C94921113
:102750000C942113EF92FF920F931F93CF93DF936B
:1027600000D000D0CDB7DEB789839A837A01CB0140
:10277000969587958B839C8300E010E0E114F1042B
:1027800071F00E151F0558F00F900F900F900F90DD
:10279000DF91CF911F910F91FF90EF9008954B81A2
:1027A0005C8164E689819A810E9421134B815C815E
:1027B00060E089819A810E9421130F5F1F4FDECF55
:1027C0008830910580F44FE0489F9001499F300D7B
:1027D00011242D5D344FF901808591858D7F892BE2
:1027E00021F080E1089580E0089588E00895883020
:1027F000910560F44FE0489F9001499F300D1124EE
:102800002D5D344FF90180859185089580E090E039
:1028100008958830910558F44FE0489F9001499FF2
:10282000300D11242D5D344FF9018181089580E030
:10283000089508951F93CF93DF9300D000D000D068
:102840000F92CDB7DEB769832A833B834C835D83C8
:102850008E839F8310E0998119130BC081E0279626
:102860000FB6F894DEBF0FBECDBFDF91CF911F91A1
:10287000089520E030E04A815B816C817D81EE81AA
:10288000FF81808191810E94C910811541F38E8161
:102890009F8102968E839F831F5FDDCF08956830EE
:1028A00029F460E870E780E090E0089560E770E068
:1028B00080E090E0089508958BBB6115E1F01C9ACB
:1028C00040FF1BC01F9A41FF1AC01E9A82E08A95E2
:1028D000F1F700C01D9A82E08A95F1F700C01D98BB
:1028E00085E08A95F1F783B18F7383B988E18A9582
:1028F000F1F700C008951C98E3CF1F98E4CF1E980D
:10290000E5CF462F60E00C945C14CF93DF93C82F83
:10291000D62F886B0E948114D0FDC0939D0BD1FDF2
:10292000C0939E0BDF91CF910895462F61E00C94E8
:102930005C1480E00895883010F40C948514089598
:10294000CF93DF93C82FD62F803448F480640E9441
:102950008114D0FDC0939F0BD1FDC093A00BDF91DC
:10296000CF910895CF93DF93C62F883080F467FD11
:102970000EC0D1E0603410F0C054D2E06D2F0E9440
:102980009B146D2F8C2FDF91CF910C94A014DF91AD
:10299000CF910895CF93C82F8FE3C11101C08EE36B
:1029A00063E00E948114C093A10BCF910895CF934F
:1029B000DF93C0E063E08C2F0E949B1463E080E40F
:1029C0000E94811410929F0B1092A00BD0E463E040
:1029D00080E00E949514D150D1F7CF5FC83051F7F5
:1029E00061E080E00E94851461E080E00E94A01414
:1029F00010929C0B10929B0BDF91CF910895CF9377
:102A0000DF938FEF8ABB82B1806F82B983B18F7001
:102A100083B92FEF8FE392E0215080409040E1F79F
:102A200000C00000CDE9DBE087E0FE0111928A954D
:102A3000E9F763E08EE30E9481148FEF97E401973A
:102A4000F1F700C0000063E08FE30E94811481E091
:102A50008C8363E080EC0E94811463E088EB0E9429
:102A600081141882198263E080E40E9481141A8222
:102A70001B820E94D71410929C0B10929B0BDF912B
:102A8000CF910895CF93DF93C0E063E08C2F0E9435
:102A90009B1463E080E40E94811410929F0B1092BB
:102AA000A00BD0E463E08FEF0E949514D150D1F7D2
:102AB000CF5FC83051F7DF91CF910895CF93DF9367
:102AC000C82FD62F803448F4806C0E948114D0FD2A
:102AD000C093A20BD1FDC093A30BDF91CF910895BA
:102AE000CF93DF9300D00F92CDB7DEB76A834983CF
:102AF00087FD24C0603410F5962F9695969596958F
:102B000021E0803408F022E02B83682F892F0E9477
:102B1000B2148981813081F49A8181E091FD84E051
:102B200090FD880F92FD82956B810F900F900F9012
:102B3000DF91CF910C94951480E0F6CF0F900F9019
:102B40000F90DF91CF91089580E008951F93CF9368
:102B5000DF9300D000D00F92CDB7DEB7182F698376
:102B60004A832B8390E08C839D838C81811B9A8187
:102B7000891748F00F900F900F900F900F90DF91F2
:102B8000CF911F9108958C819D81803891052CF4FF
:102B90004B8169818C810E9470158C819D81019689
:102BA000E2CF1F93CF93DF9300D000D00F92CDB729
:102BB000DEB78983162F4A832B83862F90E08C8380
:102BC0009D838C81811B9A81891748F00F900F900B
:102BD0000F900F900F90DF91CF911F9108958C81EE
:102BE0009D81803491052CF44B816C8189810E94F8
:102BF00070158C819D810196E2CF2F923F924F926A
:102C00005F926F927F928F929F92AF92BF92CF927C
:102C1000DF92EF92FF920F931F93CF93DF9300D039
:102C20000F92CDB7DEB7342E222E0983C82ED12CB9
:102C3000242F281B330B790137FF03C07601E41AD8
:102C4000F108062F10E0222D261B330B490137FF18
:102C500003C048018218910871E0672E712C83151A
:102C600018F05FEF752E672C41E0442E512C621551
:102C700018F03FEF532E452CC701881999098A8314
:102C80009B83AA24BB24A818B9084981602F8C2DE6
:102C90000E9470153C141D0419F420161106D9F079
:102CA0008A819B81880F991FA816B90644F42A814E
:102CB0003B81281939092A833B83C60CD71C8E1502
:102CC0009F051CF78A819B818E0D9F1D8A839B83A4
:102CD000040D151DDACF0F900F900F90DF91CF915B
:102CE0001F910F91FF90EF90DF90CF90BF90AF902A
:102CF0009F908F907F906F905F904F903F902F901C
:102D000008950F93CF93DF9300D000D0CDB7DEB7F7
:102D100089836A834B832C83202F0E94A6156C81A4
:102D200061508A81680F202F4B8189810E94A615EE
:102D3000202F4C816A8189810E94D1158B8181501D
:102D4000202F4C816A819981890F0F900F900F90ED
:102D50000F90DF91CF910F910C94D1150F93CF93DA
:102D6000DF9300D000D0CDB7DEB789836B834A8371
:102D7000862F820F8C838B819C81891308C00F90D2
:102D80000F900F900F90DF91CF910F910895202F0A
:102D90004A816B8189810E94A6159B819F5F9B83DD
:102DA000EACFCF92DF92EF92FF920F931F93CF93D0
:102DB000DF93CDB7DEB728970FB6F894DEBF0FBE0E
:102DC000CDBFD82EC62E2B834F831886E12CF12C35
:102DD00087014B819C2D900F9A83692F8F818D0DD8
:102DE0008C830E9470154B819F819C0D9983692F64
:102DF0008D2D800F8D830E9470154B8169819D2DD3
:102E0000901B9E83892F0E9470154B816A818D2DA6
:102E10009F81891B89830E9470154B818C2D801B9B
:102E20008A83682F89810E9470154B819C2D8F8128
:102E3000981B9983692F8E810E9470154B8169813F
:102E40008D810E9470154B816A818C810E94701562
:102E50001E141F045CF00F5F1F4FC801880F991FDD
:102E60000196E80EF91E1E141F0454F48F819885F4
:102E700001978F839887880F991F0196E81AF90A9E
:102E80008F819885801791070CF0A3CF28960FB6F5
:102E9000F894DEBF0FBECDBFDF91CF911F910F9190
:102EA000FF90EF90DF90CF9008958F929F92AF9216
:102EB000BF92CF92DF92EF92FF920F931F93CF9327
:102EC000DF9300D000D000D0CDB7DEB78A836B830C
:102ED0002C83C42ED12C882499248C189D08449FBF
:102EE000700111248D829E828D819E81889F500168
:102EF000899FB00CB00C112484019B81980F998399
:102F0000009FC001019F900D900D11248A0D9B1D03
:102F1000E816F90634F04C8169818A81800F0E949D
:102F200070150F5F1F4FC016D10654F78D819E811B
:102F300001968D839E83C816D906B4F60F900F9024
:102F40000F900F900F900F90DF91CF911F910F91E5
:102F5000FF90EF90DF90CF90BF90AF909F908F90B9
:102F60000895883030F4653120F480939C0B609391
:102F70009B0B08950F931F93CF93DF9300EE080FE1
:102F80000F3578F580919B0BC82FCC0FC80FCC0F55
:102F90006C2F80919C0B0E94B21485E0089F8001E9
:102FA00011240E5B1D4FD0E08C2F8D0F61E080341B
:102FB00008F062E0F80181918F010E949514DF5FB3
:102FC000D53091F7CB5F61E0C03408F062E080E07B
:102FD0000E94951480919B0B8F5F853138F480930C
:102FE0009B0BDF91CF911F910F91089510929B0B36
:102FF00080919C0B8F5F883018F480939C0BF1CFED
:1030000010929C0BEECFCF93DF93EC01888181115E
:1030100003C0DF91CF91089521960E94BA17F6CF91
:10302000CF93DF9300D0CDB7DEB749835A830E9498
:10303000B11789819A810F900F90DF91CF910C94F5
:103040000318CF93DF93CDB7DEB7C058D1090FB6C1
:10305000F894DEBF0FBECDBF9E012B573F4FF90145
:10306000419151919F0160E870E0CE0101960E946C
:10307000651BCE0101960E940318C058DF4F0FB6A2
:10308000F894DEBF0FBECDBFDF91CF9108958DE9DB
:103090009BE008950F930E94D7142FEF8FE796E1DE
:1030A000215080409040E1F700C000000E9442158E
:1030B0002FEF8FE796E1215080409040E1F700C06C
:1030C00000000E94D71448EF59E060E080E00E94C1
:1030D00010184CE05AE060E081E00E94101848E1CE
:1030E0005AE060E082E00E9410182FEF8FEF9CE220
:1030F000215080409040E1F700C000000E94D714AA
:1031000001E024E148E26AE08AE00E94811624E1BD
:1031100044E16AE08CE30E94AE1621E04FE06DE2EC
:1031200080E40E94D1162FE34FE760E080E00E9428
:10313000FD152FEF8FEF9CE2215080409040E1F78A
:1031400000C000000E94D71448E25AE060E080E02E
:103150000F910C9410180E94D7144DE35AE060E0D0
:1031600080E00E94101841E55AE060E081E00E9492
:10317000101842E65AE060E082E00E94101846E72C
:103180005AE060E083E00E94101884E080939C0B7A
:1031900010929B0B8091A10B811579F086E39AE048
:1031A0009F938F938AE89AE09F938F930E942118B0
:1031B0000F900F900F900F90089589E39AE0F0CF51
:1031C000CF93DF93CDB7DEB768970FB6F894DEBF25
:1031D0000FBECDBF8F8B688FBA01CE0101960E94C2
:1031E000311BAE014F5F5F4F688D8F890E941018B1
:1031F00068960FB6F894DEBF0FBECDBFDF91CF91BA
:103200000895CDB7DEB76E970FB6F894DEBF0FBE48
:10321000CDBF0E942F070E9467008FEF84BB15BAB5
:103220002FEF8FE39BE0215080409040E1F700C0FA
:10323000000088E899E00E944A0782EB99E00E942A
:103240004A071F9280E78F9380E88F931F928FEB3E
:1032500099E09F938F938E010F5F1F4F1F930F93E2
:103260000E94381BC8010E944A0785ED99E00E9420
:103270004A071F921F9283E08F9389E98F9383EC13
:1032800099E09F938F931F930F930E94381BC8015F
:103290000E944A070FB6F894DEBF0FBECDBF0E9452
:1032A0007F030E945707182F0E94430785E897E085
:1032B0000E944A07133351F190F41133A9F01233ED
:1032C00011F18BED99E00E944A079FEF2FE786E10D
:1032D000915020408040E1F700C0000007C0143347
:1032E00081F70E94EC0202C00E948C0080E00E94E4
:1032F0007B009FEF2FE38BE0915020408040E1F76F
:1033000000C00000CCCF0E942E01F0CF0E944702E7
:10331000EDCFA29FB001B39FC001A39F700D811D8F
:103320001124911DB29F700D811D1124911D0895CE
:10333000DB018F939F930E94261ABF91AF91A29FAA
:10334000800D911DA39F900DB29F900D11240895A3
:10335000992778E0880F991F961708F0961B881F09
:103360007A95C9F780950895AA1BBB1B51E107C048
:10337000AA1FBB1FA617B70710F0A61BB70B881F05
:10338000991F5A95A9F780959095BC01CD01089594
:1033900097FB072E16F4009407D077FD09D00E9402
:1033A000B41907FC05D03EF4909581959F4F089580
:1033B000709561957F4F0895A1E21A2EAA1BBB1B41
:1033C000FD010DC0AA1FBB1FEE1FFF1FA217B307F1
:1033D000E407F50720F0A21BB30BE40BF50B661F07
:1033E000771F881F991F1A9469F7609570958095CB
:1033F00090959B01AC01BD01CF010895052E97FB6F
:103400001EF400940E94151A57FD07D00E94DC1983
:1034100007FC03D04EF40C94151A50954095309546
:1034200021953F4F4F4F5F4F089590958095709530
:1034300061957F4F8F4F9F4F0895EE0FFF1F002420
:10344000001C0BBE0790F691E02D09940E9489198B
:10345000A59F900DB49F900DA49F800D911D1124E8
:1034600008950E94451A0C94F71A0E94F01A58F019
:103470000E94E91A40F029F45F3F29F00C94E01A09
:1034800051110C942B1B0C94E61A0E94081B68F334
:103490009923B1F3552391F3951B550BBB27AA270D
:1034A00062177307840738F09F5F5F4F220F331F47
:1034B000441FAA1FA9F335D00E2E3AF0E0E832D00F
:1034C00091505040E695001CCAF72BD0FE2F29D012
:1034D000660F771F881FBB1F261737074807AB07E4
:1034E000B0E809F0BB0B802DBF01FF2793585F4F59
:1034F0003AF09E3F510578F00C94E01A0C942B1B87
:103500005F3FE4F3983ED4F3869577956795B7953A
:10351000F7959F5FC9F7880F911D9695879597F945
:103520000895E1E0660F771F881FBB1F62177307BE
:103530008407BA0720F0621B730B840BBA0BEE1FD3
:1035400088F7E0950895E89409C097FB3EF49095BC
:103550008095709561957F4F8F4F9F4F9923A9F06C
:10356000F92F96E9BB279395F695879577956795FB
:10357000B795F111F8CFFAF4BB0F11F460FF1BC03F
:103580006F5F7F4F8F4F9F4F16C0882311F096E9D2
:1035900011C0772321F09EE8872F762F05C0662380
:1035A00071F096E8862F70E060E02AF09A95660F39
:1035B000771F881FDAF7880F9695879597F90895F2
:1035C00097F99F6780E870E060E008959FEF80ECD6
:1035D000089500240A941616170618060906089579
:1035E00000240A9412161306140605060895092EDF
:1035F0000394000C11F4882352F0BB0F40F4BF2B4E
:1036000011F460FF04C06F5F7F4F8F4F9F4F08958D
:1036100057FD9058440F551F59F05F3F71F0479583
:10362000880F97FB991F61F09F3F79F08795089568
:10363000121613061406551FF2CF4695F1DF08C087
:10364000161617061806991FF1CF869571056105A4
:1036500008940895E894BB2766277727CB0197F94C
:103660000895FB01DC0105900D920020E1F708951B
:10367000CF93DF93CDB7DEB72E970FB6F894DEBFAA
:103680000FBECDBF86E08C832B893C8929833A838A
:103690008FEF9FE78D839E83AE01495E5F4F6D89FB
:1036A0007E89CE0101960E949F1BEF81F8852B89B0
:1036B0003C89E20FF31F10822E960FB6F894DEBFFE
:1036C0000FBECDBFDF91CF9108950F931F93CF937E
:1036D000DF93CDB7DEB72E970FB6F894DEBF0FBEDF
:1036E000CDBF8C01CA0146E04C8309831A83FB01DC
:1036F0006130704810F0E0E0F0E83197ED83FE8330
:10370000A901BC01CE0101960E949F1B4D815E81E3
:1037100057FD0AC02F813885421753070CF49A01D0
:10372000020F131FF80110822E960FB6F894DEBF19
:103730000FBECDBFDF91CF911F910F9108955F9282
:103740006F927F928F929F92AF92BF92CF92DF92B1
:10375000EF92FF920F931F93CF93DF93CDB7DEB716
:103760002B970FB6F894DEBF0FBECDBF6C017B0167
:103770008A01FC0116821782838181FFF1C13AE040
:10378000532EF6012381F70123FD859123FF8191BB
:103790007F01811509F437C1853239F423FD9591F4
:1037A00023FF91917F01953229F4B60190E00E94A8
:1037B000C91DE7CF30E0912C612C712CF0E27F160F
:1037C00040F59B32D9F058F49032D1F09332F1F0B9
:1037D0009E3291F576FC17C1689476F806C09D324A
:1037E00091F09033C1F4689470F8F70123FD95913E
:1037F00023FF91917F019111E1CF28C0689471F866
:10380000689472F8F2CF689473F8EFCF689474F804
:10381000ECCF77FC1BC080ED890F8A30C8F676FEAE
:1038200005C0959C800D1124982EDFCF659C800DDE
:103830001124682E7F2AD9CF9C3619F4689477F822
:10384000D4CF9C3409F445C0983679F2892F8F7D06
:103850008554833008F43FC0933609F461C0933730
:1038600009F46BC0933509F477C0943619F0993692
:1038700009F0A4C0F80177FE9AC06191719181911D
:1038800091918F01272D2F76822E97FF04C00E94E1
:10389000151A689487F82AE030E05E014FEFA41A09
:1038A000B40AA5010E94F91D782E7A1886FEE1C09F
:1038B000882D8E7F791408F0DBC084FE2FC182FC36
:1038C00023C12EEE8222B92C882D867809F4DDC022
:1038D00020C131E08ACF311501F1085F1F4F8FE31E
:1038E000898321E0822E912C5E012FEFA21AB20A69
:1038F000E89477F873FC03C086149104F0F1811406
:10390000910409F041C0611409F43BCFB60180E293
:1039100090E00E94C91D6A94F6CF0C5F1F4FDFCF65
:10392000F801808189830E5F1F4F91E0892E912CD1
:103930005E01FFEFAF1ABF0ADBCFF801A190B19093
:103940008F01692D70E076FC02C06FEF7FEFC5013B
:103950000E94BE1D4C01CCCFF801A190B1908F0107
:10396000692D70E076FC02C06FEF7FEFC5010E9409
:10397000B31D4C01689477F8BDCFB60180E290E0AA
:103980000E94C91D6A94B8CFF50177FC859177FE36
:1039900081915F01B60190E00E94C91D81E0611034
:1039A00001C080E0681AF1E08F1A9108A8CF6191F8
:1039B0007191872F880F880B982F63CF9537C9F4A3
:1039C000872CE89484F82AE030E0F80187FE4BC0A9
:1039D00061917191819191918F015E01FFEFAF1A19
:1039E000BF0AA5010E94F91D782E7A18E89487F87D
:1039F0005DCF872D897F882E903729F1E8F498359F
:103A000039F19F3669F1F601868197812B960FB6C1
:103A1000F894DEBF0FBECDBFDF91CF911F910F9104
:103A2000FF90EF90DF90CF90BF90AF909F908F90DE
:103A30007F906F905F900895983729F774FC05C0C8
:103A400020E130E0C2CF689484F8689482F8F8CF1F
:103A500074FE03C0E72DE6608E2E20E132E0B5CF84
:103A600028E030E0B2CF6191719180E090E0B4CF76
:103A7000882EB72C84FE28CFFE01E70DF11D808132
:103A8000803309F044C049EE842283FC0EC080FEDE
:103A900051C0972CB61418F4960C9B18B62C862D92
:103AA0008B196B1408F480E0B80EB61408F044C00B
:103AB0006B1884FE43C0B60180E390E00E94C91DEC
:103AC00082FE09C088E590E081FC02C088E790E0B2
:103AD000B6010E94C91D7914E0F15E018FEFA81AAA
:103AE000B80A7A9482E0882E912C8C0E9D1E870C49
:103AF000911CF40182914F01B60190E00E94C91D12
:103B00008A149B04B1F7FFCEB92C882EB5CF82FC66
:103B100002C0B394BACFB394B394B7CFB92C882E64
:103B2000D3CEB60180E290E00E94C91DA394A614F2
:103B3000C0F3B5CFAB2CFBCF612CBBCF882D8678E3
:103B400051F280E281FC8BE287FC8DE2B60190E0CD
:103B5000C0CFB60180E390E00E94C91D9A94BBCF0C
:103B60008FEF9FEF53CFFC01059061507040011023
:103B7000D8F7809590958E0F9F1F0895FC01615096
:103B8000704001900110D8F7809590958E0F9F1F7F
:103B900008950F931F93CF93DF93182F092FEB01F5
:103BA0008B8181FD09C00FEF1FEF812F902FDF91D7
:103BB000CF911F910F91089582FF14C02E813F81F4
:103BC0008C819D81281739073CF4E881F981CF0168
:103BD00001968883998310838E819F8101968E83BD
:103BE0009F83E3CFE885F985812F0995892BA1F380
:103BF000DACFFA01AA27283051F1203181F1E89477
:103C00006F936E7F6E5F7F4F8F4F9F4FAF4FB1E0CF
:103C10003ED0B4E03CD0670F781F891F9A1FA11DCA
:103C2000680F791F8A1F911DA11D6A0F711D811DCB
:103C3000911DA11D20D009F468943F912AE0269F90
:103C400011243019305D3193DEF6CF010895462FEF
:103C50004770405D4193B3E00FD0C9F7F6CF462FD0
:103C60004F70405D4A3318F0495D31FD4052419339
:103C700002D0A9F7EACFB4E0A695979587957795F6
:103C80006795BA95C9F700976105710508959B017D
:103C9000AC010A2E06945795479537952795BA9506
:103CA000C9F7620F731F841F951FA01D0895F89414
:103CB000FFCF4C11491144113F113C113911E8104B
:103CC00014010A00040130313233343536373839C3
:103CD00041424344454609000D0A0009000D0A000F
:103CE0006400F401E803D0078813102701000800DE
:103CF0004000000100040000010008004000000135
:103D000000040000000000000000000000000000AF
:103D100000000000000000000000000000000101A1
:103D2000010101010101010101010102020202027E
:103D3000020202030303030303030404040404054F
:103D40000505050606060607070707080808090906
:103D5000090A0A0A0B0B0B0C0C0D0D0D0E0E0F0FA2
:103D6000101011111212131314141515161617181A
:103D70001819191A1B1B1C1D1D1E1F202021222370
:103D800023242526272728292A2B2C2D2E2F303196
:103D900032323334363738393A3B3C3D3E3F40428D
:103DA0004344454648494A4B4D4E4F515253555650
:103DB00057595A5C5D5F606263656668696B6D6EDA
:103DC0007072737577787A7C7E7F81838587898A24
:103DD0008C8E90929496989A9C9EA0A2A4A7A9AB30
:103DE000ADAFB1B4B6B8BABDBFC1C4C6C8CBCDD0F3
:103DF000D2D5D7DADCDFE1E4E7E9ECEFF1F4F7F96B
:103E0000FCFF000000000000004F0000000700075A
:103E100000147F147F14242A7F2A1223130864625B
:103E200036495522500005030000001C22410000C5
:103E300041221C0014083E081408083E08080050DF
:103E40003000000808080808006060000020100822
:103E500004023E5149453E00427F400042615149C3
:103E6000462141454B311814127F102745454539ED
:103E70003C4A49493001710905033649494936062A
:103E80004949291E00363600000056360000081445
:103E90002241001414141414004122140802015188
:103EA0000906324979413E7E1111117E7F49494907
:103EB000363E414141227F4141221C7F49494941CF
:103EC0007F090909013E4149497A7F0808087F00B6
:103ED000417F41002040413F017F081422417F4043
:103EE0004040407F020C027F7F0408107F3E41412A
:103EF000413E7F090909063E4151215E7F0919298A
:103F000046464949493101017F01013F4040403F58
:103F10001F2040201F3F4038403F631408146307B0
:103F2000087008076151494543007F414100020480
:103F30000810200041417F0004020102044040407B
:103F40004040000102040020545454787F48444407
:103F5000383844444420384444487F385454541832
:103F6000087E0901020C5252523E7F080404780078
:103F7000447D40002040443D007F10284400004123
:103F80007F40007C041804787C080404783844449A
:103F900044387C14141408081414187C7C08040495
:103FA000084854545420043F4440203C4040207C66
:103FB0001C2040201C3C4030403C44281028440C2D
:103FC0005050503C4464544C4400083641000000BA
:103FD0007F0000004136080008040810080D0A3D63
:103FE0003D3D2044454D4F20313A20426173696385
:103FF00020537065656420436F6E74726F6C203D52
:104000003D3D0D0A00436F6D6D616E64733A0D0A9C
:10401000002020302D393A20536574207370656577
:10402000642028303D73746F702C20393D6D6178A9
:10403000290D0A002020663A20466F72776172646B
:104040002020723A20526576657273652020623AAC
:10405000204272616B650D0A002020713A20526582
:104060007475726E20746F206D656E750D0A0D0A81
:1040700000466F7277617264204020005265766559
:1040800072736520402000446972656374696F6EC5
:104090003A20464F52574152440D0A004469726516
:1040A0006374696F6E3A20524556455253450D0A66
:1040B000004252414B45440D0A000D0A3D3D3D2052
:1040C00044454D4F20323A2053706565642052615B
:1040D0006D70696E67203D3D3D0D0A0044656D6F52
:1040E0006E7374726174696E6720736D6F6F74683C
:1040F00020616363656C65726174696F6E20616EC7
:104100006420646563656C65726174696F6E0D0A25
:1041100000507265737320616E79206B657920742D
:104120006F20636F6E74696E75652C202771272070
:10413000746F20717569740D0A0D0A0052616D70FB
:10414000696E672055502028466F72776172642926
:104150002E2E2E0D0A0053706565643A20256425C5
:10416000250D0A0052616D70696E6720444F574EED
:104170002E2E2E0D0A0052616D70696E672055500B
:10418000202852657665727365292E2E2E0D0A0041
:104190000D0A4379636C6520636F6D706C6574659F
:1041A000210D0A0D0A000D0A3D3D3D2044454D4FAD
:1041B00020333A2050574D204672657175656E6305
:1041C000792054657374203D3D3D0D0A005465739C
:1041D00074696E6720646966666572656E742050E6
:1041E000574D206672657175656E636965730D0A5A
:1041F000004C697374656E20746F206D6F746F72FC
:1042000020736F756E64206368616E6765730D0A55
:10421000004672657175656E63793A202575204890
:104220007A2C20544F503A2025750D0A000D0A466D
:1042300072657175656E6379207465737420636F40
:104240006D706C657465210D0A0046574400524537
:1042500056000D0A3D3D3D2044454D4F20343A2047
:10426000506F74656E74696F6D65746572205370FC
:1042700065656420436F6E74726F6C203D3D3D0D2B
:104280000A005573696E672041444320746F2072A1
:1042900065616420706F74656E74696F6D657465B7
:1042A0007220666F7220737065656420636F6E7430
:1042B000726F6C0D0A00414443303A2053706565BB
:1042C0006420636F6E74726F6C2028302D31303231
:1042D00033203F3F302D31303025290D0A005072F8
:1042E0006573732027642720746F20746F67676C71
:1042F0006520646972656374696F6E2C202771276D
:1043000020746F20717569740D0A0D0A00414443D1
:104310003A20253475202053706565643A20253392
:1043200064252520204469723A2025730D0A000D6A
:104330000A446972656374696F6E20746F67676C95
:104340006564210D0A0D0A003FEBB6B4EBB8A73F38
:10435000EBA8A5EBB8A73FEBA8A5EBB8A73FEBA848
:10436000A5EBB8A73FEBA8A5EBB8A73FEBA8A5EB3B
:10437000B8A73FEBA8A5EBB8A73FEBA8A5EBB8A75C
:104380003FEBA8A5EBB8A73FEBA8A5EBB8A73FEB81
:10439000A8A5EBB8A73FEBA8A5EBB8A73FEBA8A54E
:1043A000EBB8A73FEBA8A5EBB8A73FEBA8A5EBB8E8
:1043B000A73FEBA8A5EBB8A73FEBA8A5EBB8A73F95
:1043C000EBA8A5EBB8A73FEBA8A5EBB8A73FEBA8D8
:1043D000A5EBB8A73FEBA8A5EBB8AE0D0A003F3F91
:1043E00020204443204D4F544F522050574D2043DE
:1043F0004F4E54524F4C202D2041546D6567613112
:104400003238202020203F3F720A003FEC8BA2EB85
:10441000B8A73FEBA8A5EBB8A73FEBA8A5EBB8A7BB
:104420003FEBA8A5EBB8A73FEBA8A5EBB8A73FEBE0
:10443000A8A5EBB8A73FEBA8A5EBB8A73FEBA8A5AD
:10444000EBB8A73FEBA8A5EBB8A73FEBA8A5EBB847
:10445000A73FEBA8A5EBB8A73FEBA8A5EBB8A73FF4
:10446000EBA8A5EBB8A73FEBA8A5EBB8A73FEBA837
:10447000A5EBB8A73FEBA8A5EBB8A73FEBA8A5EB2A
:10448000B8A73FEBA8A5EBB8A73FEBA8A5EBB8A74B
:104490003FEBA8A5EBB8A73FEBA8A5EBB8B40D0A76
:1044A0000053656C6563742044656D6F3A0D0A00B6
:1044B00020205B315D204261736963205370656524
:1044C0006420436F6E74726F6C20285541525429DA
:1044D0000D0A0020205B325D204175746F6D6174A0
:1044E00069632053706565642052616D70696E6701
:1044F0000D0A0020205B335D2050574D2046726529
:104500007175656E637920546573740D0A002020FF
:104510005B345D2041444320506F74656E74696F55
:104520006D6574657220436F6E74726F6C0D0A0056
:10453000456E7465722073656C656374696F6E2077
:1045400028312D34293A20000D0A0D0A2A2A2A2062
:104550004443204D6F746F722050574D20436F6E4F
:1045600074726F6C2053797374656D202A2A2A0D3A
:104570000A0041546D6567613132382040200025C2
:104580006C750050574D204672657175656E637984
:104590003A20256C7520487A0D0A00496E76616CC8
:1045A00069642073656C656374696F6E210D0A0020
:1045B00025750025303258004B5330313038204CAF
:1045C000696272617279205465737400313238788F
:1045D000363420474C434400436F6D706C657465FE
:1045E00020447269766572005465737420436F6D60
:1045F000706C657465004F4E004F4646004B53305B
:1046000031303820436F6D706C657465204C696281
:1046100000313238783634204475616C204374722E
:104620006C0053696D756C49444520436F6D706132
:104630007469626C650041546D6567613132382080
:104640004F7074696D697A656400446973706C6158
:06465000793A20257300F9
:00000001FF
