:100000000C9446000C9465000C9465000C946500FB
:100010000C9465000C9465000C9465000C946500CC
:100020000C9465000C9465000C947E000C946500A3
:100030000C9465000C9465000C9465000C946500AC
:100040000C9465000C9465000C9406070C946500F4
:100050000C9465000C9467000C9465000C9465008A
:100060000C9465000C9465000C9465000C9465007C
:100070000C9465000C9465000C94BB050C94650011
:100080000C9465000C9465000C94650011241FBE4F
:10009000CFEFD0E1DEBFCDBF17E0A0E0B1E0E2EBF3
:1000A000F6E100E00BBF02C007900D92AA3CB10739
:1000B000D9F727E0AAECB7E001C01D92AC3DB2072A
:1000C000E1F70E9421070C94570B0C9400001F923B
:1000D0000F920FB60F9211248F939F9384B195B115
:1000E0009093CD078093CC0781E08093CE079F91BA
:1000F0008F910F900FBE0F901F9018951F920F9227
:100100000FB60F9211248F939F938091CA079091FD
:10011000CB0701969093CB078093CA079F918F914D
:100120000F900FBE0F901F90189580E487B98FE84D
:1001300086B9089597B1907E8F71892B87B985B75D
:10014000837E886085BF1092CE07369A85B780621D
:1001500085BF7894889585B78F7D85BF8091CE07C0
:100160008823E1F38091CC079091CD07089585BD58
:1001700087B7806487BF14BC0895479A6E98E4E7F8
:10018000F0E080818B7F80838EE191E00C945005BC
:100190004F925F926F927F928F929F92AF92BF9297
:1001A000CF92DF92EF92FF920F931F93CF93DF9343
:1001B000CDB7DEB7C055D1090FB6F894DEBF0FBE7C
:1001C000CDBF8EE491E00E9450058AE791E00E9445
:1001D00050058AEA91E00E9450050E94BD0084EC1F
:1001E00091E00E94500500E010E089EEC82E81E009
:1001F000D82E9E012F5F3F4F790192E0792E24E0A7
:10020000622E5524539436EE432E4FE1A42E42E045
:10021000B42E80E00E949A004C010F5F1F4F9F9206
:100220008F931F930F93DF92CF92FF92EF920E94D2
:100230004C08C7010E9450050FB6F894DEBF0FBEF0
:10024000CDBF94E68916910430F481E092E00E94DB
:10025000500555BA10C025E8821623E0920630F00A
:100260008BE092E00E94500565BA05C085E192E0FE
:100270000E94500575BA1F924F92BF92AF92FF92A3
:10028000EF920E944C08C7010E9450053FEF8FE398
:1002900092E0315080409040E1F700C0000015BA74
:1002A0008DE292E00E9450052FEF3FE181E0215066
:1002B00030408040E1F700C0000085B7837E806158
:1002C00085BF85B7806285BF78940F900F900F909F
:1002D0000F900F900F908AE09FEF2FE332E0915044
:1002E00020403040E1F700C0000090919B0097FF54
:1002F00006C00E945C0585B78F7D85BF09C081500F
:1003000059F785B78F7D85BF0E31110509F081CF73
:100310008BE392E00E9450051F930F9383E592E0D8
:100320009F938F93FF92EF920E944C08C7010E9407
:10033000500515BA0F900F900F900F900F900F90DF
:10034000C05BDF4F0FB6F894DEBF0FBECDBFDF91AD
:10035000CF911F910F91FF90EF90DF90CF90BF90C2
:10036000AF909F908F907F906F905F904F90089587
:100370006F927F928F929F92AF92BF92CF92DF92B5
:10038000EF92FF920F931F93CF93DF93CDB7DEB71A
:10039000C055D1090FB6F894DEBF0FBECDBF88E6B9
:1003A00092E00E94500584E992E00E9450058AEA9A
:1003B00091E00E9450050E94BD0087E00E94B700B6
:1003C0001092CB071092CA0782EC92E00E9450056F
:1003D00000E010E098EE692E92E0792ECE010196B1
:1003E0004C012091CA073091CB078091CA079091A8
:1003F000CB07821B930B4C9798F485B7837E88615B
:1004000085BF85B7806285BF7894889585B78F7DD5
:1004100085BF80919B0087FFE8CF0E945C0569C083
:1004200080E00E949A005C0181E00E949A006C01C9
:1004300082E00E949A007C010F5F1F4FFF928F9312
:10044000DF92CF92BF92AF921F930F937F926F92E2
:100450009F928F920E944C08C4010E9450050FB6D3
:10046000F894DEBF0FBECDBF95E8A91693E0B9069C
:1004700038F081E093E00E94500584E0B82E01C07E
:10048000B12C24EFC21621E0D20668F48AE093E092
:100490000E9450058B2D8260B82E9CE2E91691E0F7
:1004A000F906A0F405C02CE2E21621E0F20640F4C1
:1004B00083E193E00E9450058B2D8160B82E06C029
:1004C000B11004C08BE193E00E94500585E195E0F6
:1004D0000E945005B5BA9FEF2FE784E0915020406D
:1004E0008040E1F700C0000015BA0431110509F0A1
:1004F00078CF15BC87B78F7B87BF80E293E00E94DF
:1005000050051F930F9385E493E09F938F938E0183
:100510000F5F1F4F1F930F930E944C08C8010E944A
:1005200050058091CA079091CB079F938F938DE5DB
:1005300093E09F938F931F930F930E944C08C801E1
:100540000E94500515BA0FB6F894DEBF0FBECDBF9E
:10055000C05BDF4F0FB6F894DEBF0FBECDBFDF919B
:10056000CF911F910F91FF90EF90DF90CF90BF90B0
:10057000AF909F908F907F906F9008952F923F92B1
:100580004F925F926F927F928F929F92AF92BF92A3
:10059000CF92DF92EF92FF920F931F93CF93DF934F
:1005A000CDB7DEB7C055D1090FB6F894DEBF0FBE88
:1005B000CDBF8FE693E00E94500587E993E00E944B
:1005C00050058AEA91E00E9450050E94BD0087E034
:1005D0000E94B7001092CB071092CA0785EC93E0F7
:1005E0000E9450058EED93E00E94500508EE13E046
:1005F000E12CF12C95E0692E712C24E6822E912CB1
:100600003DEFC32E33E0D32ECE0101965C01209145
:10061000CA073091CB078091CA079091CB07821B04
:10062000930B8435910598F485B7837E886185BFE7
:1006300085B7806285BF7894889585B78F7D85BFA3
:1006400080919B0087FFE7CF0E945C0558C080E047
:100650000E949A00582E492E81E00E949A00382E5E
:10066000292E0E943D08B3010E949D070196081B98
:10067000190B2091CA073091CB07C801B4010E9421
:1006800089079F938F937F936F932F923F924F92FF
:100690005F923F932F93DF92CF92BF92AF920E94CF
:1006A0004C08C5010E9450059FEFE91AF90A0FB6E0
:1006B000F894DEBF0FBECDBF0C3B92E0190750F49B
:1006C0002FEF25BB8FEF9FE322E081509040204029
:1006D000E1F709C081E085BB8FEF9FE121E0815008
:1006E00090402040E1F700C0000015BA093582E0D3
:1006F000180728F09EE1E916F10409F088CF15BC2F
:1007000087B78F7B87BF093522E0120718F483E192
:1007100094E002C08AE394E00E945005FF92EF92B9
:1007200087E594E09F938F93CE0101967C019F9380
:100730008F930E944C08C7010E94500584E6C82E82
:10074000D12CC801B6010E9489079F938F937F9394
:100750006F9389E694E09F938F93FF92EF920E94AC
:100760004C08C7010E94500588EE93E0801B910B56
:10077000B6010E9489079F938F937F936F9383E8BD
:1007800094E09F938F93FF92EF920E944C08C701D1
:100790000E94500515BA0FB6F894DEBF0FBECDBF4C
:1007A000C05BDF4F0FB6F894DEBF0FBECDBFDF9149
:1007B000CF911F910F91FF90EF90DF90CF90BF905E
:1007C000AF909F908F907F906F905F904F903F90F1
:1007D0002F9008952F923F924F925F926F927F9247
:1007E0008F929F92AF92BF92CF92DF92EF92FF9241
:1007F0000F931F93CF93DF93CDB7DEB7C055D109C9
:100800000FB6F894DEBF0FBECDBF8BE994E00E9417
:10081000500586EC94E00E9450058AEA91E00E941F
:1008200050050E94BD0087E00E94B7001092CB07E0
:100830001092CA0785EF94E00E9450053CE1E32E38
:10084000F12C812C42E0942E00E010E058E1652E5E
:1008500055E0752ECE0101966C0163E0262E77E0FF
:10086000372EE4E54E2EE5E05E2E2091CA0730914A
:10087000CB078091CA079091CB07821B930B8E15F3
:100880009F0598F485B7837E886185BF85B78062B0
:1008900085BF7894889585B78F7D85BF80919B00B3
:1008A00087FFE7CF0E945C0566C080E00E949A0047
:1008B0005C017C01E818F908F7FE03C0F194E194AB
:1008C000F1080F5F1F4FFF92EF92BF92AF921F93FD
:1008D0000F937F926F92DF92CF920E944C08C601D5
:1008E0000E9450050FB6F894DEBF0FBECDBF93E354
:1008F000E916F1044CF080E395E00E94500535BA0A
:100900002AE0E22EF12C17C025E1E216F1044CF0AA
:100910008CE395E00E94500525BA9CE1E92EF12C6C
:100920000AC088E495E00E94500581E085BB88E11B
:10093000E82EFF24F394FF92EF925F924F92DF92A2
:10094000CF920E944C08C6010E9450059FEF2FE3F2
:1009500082E0915020408040E1F700C0000015BACD
:100960000F900F900F900F900F900F90083211057D
:1009700011F045017ACF15BC87B78F7B87BF8DE516
:1009800095E00E9450051F930F938CE795E09F938D
:100990008F938E010F5F1F4F1F930F930E944C0880
:1009A000C8010E9450058091CA079091CB079F9380
:1009B0008F938DE593E09F938F931F930F930E94E6
:1009C0004C08C8010E94500515BA0FB6F894DEBF56
:1009D0000FBECDBFC05BDF4F0FB6F894DEBF0FBEBA
:1009E000CDBFDF91CF911F910F91FF90EF90DF90DE
:1009F000CF90BF90AF909F908F907F906F905F90BF
:100A00004F903F902F90089583E195E00E9450050C
:100A100080E995E00E94500581E196E00E94500532
:100A200081E496E00E94500585E195E00E94500522
:100A300082EC96E00E94500581ED96E00E94500500
:100A400081EF96E00E94500581E197E00E945005F9
:100A50008DE297E00E94500585E195E00E945005E7
:100A60008CE497E00C94500510929B0086E08093F4
:100A70009D0088E980939A008FE290E09093D907D7
:100A80008093D807109298008091D807809399009E
:100A9000089590919B0095FFFCCF80939C00089552
:100AA000CF93DF93EC018991882319F00E944905C7
:100AB000FACFDF91CF91089580919B0087FFFCCF03
:100AC00080919C0008950F931F93CF93DF9300D0E4
:100AD00000D000D0CDB7DEB79F938F9381EC97E025
:100AE0009F938F938E010F5F1F4F1F930F930E9451
:100AF0004C08C8010E9450050F900F900F900F9066
:100B00000F900F9026960FB6F894DEBF0FBECDBFA4
:100B1000DF91CF911F910F9108950F931F93CF9362
:100B2000DF9300D01F92CDB7DEB71F928F9384EC76
:100B300097E09F938F938E010F5F1F4F1F930F932B
:100B40000E944C08C8010E9450050F900F900F9012
:100B50000F900F900F900F900F900F90DF91CF910B
:100B60001F910F91089587E191E00C9450050E9428
:100B70005C050C9449051F920F920FB60F92112439
:100B80008F9380919C008093D40781E08093D3075A
:100B90008091D4078093D7078F910F900FBE0F904D
:100BA0001F9018958091D307882319F01092D307CE
:100BB00081E008958091D4070895CF93DF9360E199
:100BC00077E20E948907EC01FB01E050FF4F808132
:100BD0000E944905CE0168EE73E00E948907EC018E
:100BE000FB01E050FF4F80810E944905CE0164E681
:100BF00070E00E948907EC01FB01E050FF4F80810B
:100C00000E944905CE016AE070E00E948907EC016C
:100C1000FB01E050FF4F80810E944905C050DF4F2B
:100C20008881DF91CF910C944905CF9364E60E94AF
:100C30007D07C92FE82FF0E0E050FF4F80810E9430
:100C400049058C2F6AE00E947D07C92FE82FF0E04C
:100C5000E050FF4F80810E944905EC2FF0E0E0500A
:100C6000FF4F8081CF910C944905CF93DF93EC0126
:100C700097FD02C08BE204C0D195C195D1098DE2E8
:100C80000E944905CE0160E177E20E949D07EC01D8
:100C9000FB01E050FF4F80810E944905CE0168EEC4
:100CA00073E00E949D07EC01FB01E050FF4F808143
:100CB0000E944905CE0164E670E00E949D07EC01A8
:100CC000FB01E050FF4F80810E944905CE016AE0A0
:100CD00070E00E949D07EC01FB01E050FF4F808116
:100CE0000E944905C050DF4F8881DF91CF910C945D
:100CF00049054F925F926F927F928F929F92AF922F
:100D0000BF92CF92DF92EF92FF920F931F93CF93F8
:100D1000DF934B015C01C9E0D0E0C12C9AECD92EE5
:100D20009AE9E92E9BE3F92E2AE0422E512C612C00
:100D3000712C8C149D04AE04BF0454F4C701B60199
:100D4000A30192010E94B10769017A01219789F7F5
:100D50008AE0482E512C612C712C1C141D041E0499
:100D60001F04DCF4C501B401A70196010E94B1077C
:100D70008B01D82FC92FF901E050FF4F80810E94CD
:100D800049054801AD2EBC2EC701B601A301920151
:100D90000E94B10769017A01E0CFDF91CF911F91E5
:100DA0000F91FF90EF90DF90CF90BF90AF909F900A
:100DB0008F907F906F905F904F900895CF93C82F42
:100DC000E82FE295EF70F0E0E050FF4F80810E9445
:100DD0004905CF70EC2FF0E0E050FF4F8081CF91BC
:100DE0000C944905E82FE295EF70F0E0E050FF4FDA
:100DF000208130E0322F2227E82FEF70F0E0E05022
:100E0000FF4F8081A901482BCA0108951F920F92BC
:100E10000FB60F9211248F93CF93DF931F92CDB70C
:100E2000DEB78CB1898389810F90DF91CF918F914B
:100E30000F900FBE0F901F90189508950895089574
:100E400008950E9434050E9495008FEF84BB15BA67
:100E500078942FEF8FE39BE0215080409040E1F7A2
:100E600000C0000084E697E00E9450058EE897E0FD
:100E70000E94500581E085BB2FEF8FE796E121505E
:100E800080409040E1F700C0000015BA0E940405C0
:100E90000E945C05C82F0E94490585E195E00E94EB
:100EA0005005C23369F028F4C13381F40E94C800B0
:100EB0001AC0C33341F0C43349F40E94EA0313C09B
:100EC0000E94B80110C00E94BE020DC08CEA97E0DB
:100ED0000E9450052FEF8FE796E12150804090400F
:100EE000E1F700C000002FEF8FE39BE0215080402E
:100EF0009040E1F700C00000C9CF991B79E004C021
:100F0000991F961708F0961B881F7A95C9F7809548
:100F10000895AA1BBB1B51E107C0AA1FBB1FA61740
:100F2000B70710F0A61BB70B881F991F5A95A9F792
:100F300080959095BC01CD01089597FB072E16F47E
:100F4000009407D077FD09D00E94890707FC05D0DF
:100F50003EF4909581959F4F0895709561957F4FD0
:100F60000895052E97FB1EF400940E94C80757FDB4
:100F700007D00E94D00707FC03D04EF40C94C8079A
:100F800050954095309521953F4F4F4F5F4F0895B5
:100F900090958095709561957F4F8F4F9F4F0895E5
:100FA000A1E21A2EAA1BBB1BFD010DC0AA1FBB1F6D
:100FB000EE1FFF1FA217B307E407F50720F0A21BDF
:100FC000B30BE40BF50B661F771F881F991F1A944C
:100FD00069F760957095809590959B01AC01BD0176
:100FE000CF0108958F929F92AF92BF92CF92DF92DE
:100FF000EF92FF92CF93DF93EC01688179818A8130
:101000009B81611571058105910521F464E279EDFB
:101010008BE597E02DE133EF41E050E00E94B1070E
:1010200049015A019B01AC01A7EAB1E40E94350BCA
:101030006B017C01ACEEB4EFA50194010E94430B5F
:10104000DC01CB018C0D9D1DAE1DBF1DB7FF03C084
:101050000197A109B04888839983AA83BB839F77AE
:10106000DF91CF91FF90EF90DF90CF90BF90AF9046
:101070009F908F9008950C94F2078AE191E00C9470
:10108000F207A0E0B0E080931A0190931B01A093B7
:101090001C01B0931D0108950F931F93CF93DF930D
:1010A000CDB7DEB72E970FB6F894DEBF0FBECDBF1B
:1010B0000D891E8986E08C831A8309838FEF9FE751
:1010C0009E838D83AE01475E5F4F6F89788DCE0121
:1010D00001960E947B08EF81F885E00FF11F1082D6
:1010E0002E960FB6F894DEBF0FBECDBFDF91CF9125
:1010F0001F910F9108952F923F924F925F926F929E
:101100007F928F929F92AF92BF92CF92DF92EF9297
:10111000FF920F931F93CF93DF93CDB7DEB72B973B
:101120000FB6F894DEBF0FBECDBF6C017B018A0104
:10113000FC0117821682838181FFCCC1CE0101960A
:101140003C01F6019381F70193FD859193FF819115
:101150007F01882309F4BAC1853239F493FD859162
:1011600093FF81917F01853229F4B60190E00E94BE
:101170009B0AE7CF912C212C312CFFE1F315D8F0FD
:101180008B3279F038F4803279F08332A1F4232D58
:1011900020611DC08D3261F0803369F4232D216000
:1011A00016C0832D8260382EE32DE4603E2E2AC0C7
:1011B000F32DF8601DC037FC2DC020ED280F2A301C
:1011C00040F08E32B9F436FC81C1232D2064322EDA
:1011D00019C036FE06C08AE0989E200D1124922E7A
:1011E00011C0EAE02E9E200D1124222EF32DF06274
:1011F0003F2E08C08C3621F4832D8068382E02C023
:10120000883641F4F70193FD859193FF81917F0129
:101210008111B3CF982F9F7D9554933028F40C5FA4
:101220001F4F9FE399830DC0833631F0833771F0F0
:10123000833509F059C021C0F801808189830E5F90
:101240001F4F88248394912C530113C02801F2E08E
:101250004F0E511CF801A080B18036FE03C0692DED
:1012600070E002C06FEF7FEFC5010E94900A4C0151
:101270008201F32DFF773F2E16C0280122E0420E97
:10128000511CF801A080B18036FE03C0692D70E0CA
:1012900002C06FEF7FEFC5010E94850A4C01F32D5C
:1012A000F0683F2E820133FC1BC0822D90E088162F
:1012B0009906B0F4B60180E290E00E949B0A2A945D
:1012C000F4CFF50137FC859137FE81915F01B601BE
:1012D00090E00E949B0A21102A9421E0821A910832
:1012E0008114910471F7E8C0843611F0893641F514
:1012F000F80137FE07C060817181828193810C5FA4
:101300001F4F08C060817181072E000C880B990B5C
:101310000E5F1F4FF32DFF763F2E97FF09C090956C
:101320008095709561957F4F8F4F9F4FF0683F2E4E
:101330002AE030E0A3010E94D70A882E861845C013
:10134000853731F4232D2F7EB22E2AE030E025C0E0
:10135000932D997FB92E8F36C1F018F4883579F026
:10136000B5C0803719F0883721F0B0C0E92FE061AF
:10137000BE2EB4FE0DC0FB2DF460BF2E09C034FE9E
:101380000AC0292F2660B22E06C028E030E005C032
:1013900020E130E002C020E132E0F801B7FE07C0F2
:1013A00060817181828193810C5F1F4F06C06081D3
:1013B000718180E090E00E5F1F4FA3010E94D70A69
:1013C000882E8618FB2DFF773F2E36FE0DC0232D6D
:1013D0002E7FA22E891458F434FE0BC032FC09C0B3
:1013E000832D8E7EA82E05C0B82CA32C03C0B82C4C
:1013F00001C0B92CA4FE0FC0FE01E80DF11D8081D3
:10140000803321F49A2D997EA92E09C0A2FE06C030
:10141000B394B39404C08A2D867809F0B394A3FCE6
:1014200011C0A0FE06C0B21488F4280C922C9B18A0
:101430000EC0B21460F4B60180E290E00E949B0AF4
:10144000B394F7CFB21418F42B1802C0982C212CA7
:10145000A4FE10C0B60180E390E00E949B0AA2FEA9
:1014600017C0A1FC03C088E790E002C088E590E0C7
:10147000B6010CC08A2D867859F0A1FE02C08BE21D
:1014800001C080E2A7FC8DE2B60190E00E949B0AB9
:10149000891438F4B60180E390E00E949B0A9A9484
:1014A000F7CF8A94F301E80DF11D8081B60190E039
:1014B0000E949B0A8110F5CF222009F442CEB6018A
:1014C00080E290E00E949B0A2A94F6CFF601868182
:1014D000978102C08FEF9FEF2B960FB6F894DEBF77
:1014E0000FBECDBFDF91CF911F910F91FF90EF9075
:1014F000DF90CF90BF90AF909F908F907F906F9034
:101500005F904F903F902F900895FC01059061509F
:1015100070400110D8F7809590958E0F9F1F089509
:10152000FC016150704001900110D8F780959095B2
:101530008E0F9F1F08950F931F93CF93DF93FB018F
:10154000238121FD03C08FEF9FEF2CC022FF16C027
:1015500046815781248135814217530744F4A08185
:10156000B1819D012F5F3F4F318320838C93268172
:1015700037812F5F3F4F3783268314C08B01EC01E7
:10158000FB010084F185E02D0995892BE1F6D80156
:1015900016968D919C911797019617969C938E9312
:1015A0001697CE01DF91CF911F910F910895FA0107
:1015B000AA27283051F1203181F1E8946F936E7F92
:1015C0006E5F7F4F8F4F9F4FAF4FB1E03ED0B4E083
:1015D0003CD0670F781F891F9A1FA11D680F791FC4
:1015E0008A1F911DA11D6A0F711D811D911DA11DD5
:1015F00020D009F468943F912AE0269F11243019E5
:10160000305D3193DEF6CF010895462F4770405D7F
:101610004193B3E00FD0C9F7F6CF462F4F70405D2E
:101620004A3318F0495D31FD4052419302D0A9F789
:10163000EACFB4E0A6959795879577956795BA9583
:10164000C9F700976105710508959B01AC010A2E49
:1016500006945795479537952795BA95C9F7620F20
:10166000731F841F951FA01D08950E94480BA59FFE
:10167000900DB49F900DA49F800D911D112408958D
:10168000B7FF0C94350B0E94350B821B930B08950A
:10169000A29FB001B39FC001A39F700D811D1124B3
:1016A000911DB29F700D811D1124911D0895F89414
:0216B000FFCF6A
:1016B2003031323334353637383941424344454686
:1016C20009000D0A0009000D0A0001000000556E14
:1016D20075736564207065726970686572616C7398
:1016E2002064697361626C656420666F7220706F3A
:1016F20077657220736176696E67730D0A000D0A51
:101702003D3D3D2044454D4F20313A204C6F772DD1
:10171200506F7765722053696E676C652053656EF2
:10172200736F72203D3D3D0D0A0052656164696E22
:10173200672074656D70657261747572652073657A
:101742006E736F722077697468206D696E696D615E
:101752006C20706F7765720D0A005072657373208A
:10176200616E79206B657920746F2073746F700DD0
:101772000A0D0A005374617274696E67206C6F7788
:101782002D706F776572206D6F6E69746F72696EFE
:10179200672E2E2E0D0A0D0A005B25755D205465FD
:1017A2006D70657261747572653A202534752020FA
:1017B200005B434F4C445D202020005B484F545D4A
:1017C20020202020005B4E4F524D414C5D200041B5
:1017D20044433A20257520C2B5410D0A00536C6579
:1017E2006570696E672E2E2E0D0A000D0A4D6F6E02
:1017F20069746F72696E672073746F707065642E9E
:101802000D0A00546F74616C2072656164696E67C1
:10181200733A2025750D0A000D0A3D3D3D204445D1
:101822004D4F20323A204D756C74692D53656E739D
:101832006F72204D6F6E69746F72696E67203D3DE5
:101842003D0D0A004D6F6E69746F72696E67207488
:10185200656D70657261747572652C206C6967685C
:10186200742C20616E64206D6F6973747572650DDE
:101872000A004D756C74692D73656E736F72206DFD
:101882006F6E69746F72696E6720616374697665E1
:101892002E2E2E0D0A0D0A005B25755D20543A2569
:1018A2003475204C3A253475204D3A253475202064
:1018B200005B54454D50215D20005B4441524B2159
:1018C2005D20005B445259215D20005B4F4B5D005F
:1018D2000D0A4D756C74692D73656E736F72206D90
:1018E2006F6E69746F72696E672073746F70706562
:1018F200642E0D0A004D6F6E69746F72696E6720F7
:101902006379636C65733A2025750D0A0054696D1D
:101912006572207469636B733A2025750D0A000D98
:101922000A3D3D3D2044454D4F20333A20426174EB
:10193200746572792044617461204C6F67676572C7
:10194200203D3D3D0D0A004C6F6767696E6720734D
:10195200656E736F722064617461207769746820A8
:1019620062617474657279206D6F6E69746F7269E9
:101972006E670D0A0044617461206C6F676765725F
:1019820020737461727465642E2E2E0D0A005469E0
:101992006D652C2054656D702C204C696768742C21
:1019A20020426174746572790D0A0D0A0025752C46
:1019B2002025752C2025752C2025752E2530327575
:1019C2000D0A000D0AE29AA0204241545445525990
:1019D200204C4F57202D204C6F6767696E6720732C
:1019E200746F70706564210D0A000D0A4C6F676791
:1019F200696E672073746F707065642062792075F8
:101A02007365722E0D0A004C6F6720656E747269E1
:101A120065733A2025750D0A0046696E616C206275
:101A22006174746572793A2025752E2530327556A7
:101A32000D0A00456E6572677920757365643A20F8
:101A420025752E25303275560D0A000D0A3D3D3D95
:101A52002044454D4F20343A2041646170746976C8
:101A6200652053616D706C696E67205261746520E8
:101A72003D3D3D0D0A0053616D706C6520726174CD
:101A820065206368616E67657320626173656420B7
:101A92006F6E2073656E736F72206163746976690D
:101AA20074790D0A004164617074697665206D6F06
:101AB2006E69746F72696E672073746172746564A3
:101AC2002E2E2E0D0A0D0A005B25755D2054656DC4
:101AD200703A2534752020CE943A253364202000B4
:101AE200526174653A464153542020005261746534
:101AF2003A4E4F524D202000526174653A534C4F7A
:101B020057202000496E743A25750D0A000D0A41CE
:101B1200646170746976652073616D706C696E675B
:101B22002073746F707065642E0D0A00546F7461B7
:101B32006C2073616D706C65733A2025750D0A0017
:101B4200E29594E29590E29590E29590E29590E28A
:101B52009590E29590E29590E29590E29590E295CB
:101B620090E29590E29590E29590E29590E29590C0
:101B7200E29590E29590E29590E29590E29590E25E
:101B82009590E29590E29590E29590E29590E2959B
:101B920090E29590E29590E29590E29590E2959090
:101BA200E29590E29590E29590E29590E29590E22E
:101BB2009590E29590E29590E29590E295970D0AC4
:101BC20000E2959120204C6F772D506F776572203F
:101BD20053656E736F7273202D2041546D6567617A
:101BE2003132382020202020202020E295910D0A39
:101BF20000E2959AE29590E29590E29590E29590B6
:101C0200E29590E29590E29590E29590E29590E2CD
:101C12009590E29590E29590E29590E29590E2950A
:101C220090E29590E29590E29590E29590E29590FF
:101C3200E29590E29590E29590E29590E29590E29D
:101C42009590E29590E29590E29590E29590E295DA
:101C520090E29590E29590E29590E29590E29590CF
:101C6200E29590E29590E29590E29590E2959D0D35
:101C72000A0053656C6563742044656D6F3A0D0A02
:101C82000020205B315D204C6F772D506F7765729D
:101C92002053696E676C652053656E736F720D0A0F
:101CA2000020205B325D204D756C74692D53656E8A
:101CB200736F72204D6F6E69746F72696E670D0A71
:101CC2000020205B335D2042617474657279204488
:101CD200617461204C6F676765720D0A0020205B9A
:101CE200345D2041646170746976652053616D7062
:101CF2006C696E6720526174650D0A00456E7465E9
:101D0200722073656C656374696F6E2028312D349F
:101D1200293A20000D0A0D0A2A2A2A204C6F772D13
:101D2200506F7765722053656E736F72204D6F6EC0
:101D320069746F72696E67202A2A2A0D0A0042614D
:101D420074746572792D4F7074696D697A65642057
:101D52004F7065726174696F6E0D0A00496E76612B
:101D62006C69642073656C656374696F6E210D0A1A
:0A1D720000257500253032580000EE
:00000001FF
