:100000000C9446000C9465000C9465000C946500FB
:100010000C9465000C9465000C9465000C946500CC
:100020000C9465000C9465000C9465000C946500BC
:100030000C9465000C9465000C9465000C946500AC
:100040000C9465000C9465000C94AF050C9465004D
:100050000C9465000C9465000C9465000C9465008C
:100060000C9465000C9465000C9465000C9465007C
:100070000C9465000C9465000C9464040C94650069
:100080000C9465000C9465000C94650011241FBE4F
:10009000CFEFD0E1DEBFCDBF17E0A0E0B1E0E6E4F6
:1000A000F3E100E00BBF02C007900D92AE38B1073C
:1000B000D9F727E0AEE8B7E001C01D92AB39B2072F
:1000C000E1F70E94CA050C94A1090C94000087B3C3
:1000D000876087BBBB98C09A81E58DB908958FB9B9
:1000E000779BFECF8FB108950F931F93CF93DF932C
:1000F000EC018C01060F171FC017D10721F0899161
:100100000E946F00F9CFDF91CF911F910F91089559
:100110000F931F93CF93DF93EC018C01060F171FF2
:10012000C017D10729F08FEF0E946F008993F8CF95
:10013000DF91CF911F910F9108959DB19C7F9DB943
:10014000813041F028F0823039F0833039F0089561
:10015000709A0895689A0895699A08958DB1836098
:100160008DB908958F929F92AF92BF92CF92DF92F6
:10017000EF92FF920F931F93CF93DF93CDB7DEB72C
:10018000C655D1090FB6F894DEBF0FBECDBF88E3C8
:1001900091E00E94F90383E691E00E94F90383E86D
:1001A00091E00E94F9038EEA91E00E94F90386E053
:1001B000EAE1F1E0DE01AF5ABF4F01900D928A955E
:1001C000E1F781E5A82EB12CAC0EBD1E26E0A20EF3
:1001D000B11C9EECE92E91E0F92ECE0101966C0146
:1001E0008E010F5A1F4FC09892E09A95F1F700C008
:1001F0004801F80181918F010E946F00F2E0FA95A9
:10020000F1F700C0C09A1F928F93F40180811F9272
:100210008F93FF92EF92DF92CF920E94B806C601B1
:100220000E94F903FFEF2FE33BE0F1502040304004
:10023000E1F700C0000080919B000FB6F894DEBF8C
:100240000FBECDBF87FF1AC00E9405048F7D813588
:10025000A9F4C09ACA5ADF4F0FB6F894DEBF0FBE9A
:10026000CDBFDF91CF911F910F91FF90EF90DF9065
:10027000CF90BF90AF909F908F9008950A151B0567
:1002800009F0B1CF84E693E00E94F903A9CF8F92E1
:100290009F92AF92BF92CF92DF92EF92FF920F9315
:1002A0001F93CF93DF93CDB7DEB7C055D1090FB6FB
:1002B000F894DEBF0FBECDBF8FEE91E00E94F90330
:1002C00085E192E00E94F90384E492E00E94F90340
:1002D0008EEA91E00E94F90300E0F12C10E080E842
:1002E000E82E992493949AE0892E2BE6C22E22E0E0
:1002F000D22ECE0101965C01C09892E09A95F1F75A
:1003000000C0812F0E946F00282F82E08A95F1F7AC
:1003100000C0C09A121303C00F5F95BA02C0F394D5
:10032000E5BA812F682D0E944306911116C01F92D5
:100330002F931F92FF921F920F931F921F93DF9292
:10034000CF92BF92AF920E94B806C5010E94F903F6
:100350000FB6F894DEBF0FBECDBF1F5F9FEF2FE338
:1003600082E0915020408040E1F700C00000809181
:100370009B0087FFC1CF0E9405048F7D813509F066
:10038000BBCF81EA92E00E94F903612F70E024E67E
:10039000029FC00111240E9463067F936F931F92F6
:1003A000FF921F920F931F921F938DEB92E09F93EA
:1003B0008F938E010F5F1F4F1F930F930E94B806FC
:1003C000C8010E94F903C09A0FB6F894DEBF0FBEB1
:1003D000CDBFC05BDF4F0FB6F894DEBF0FBECDBF01
:1003E000DF91CF911F910F91FF90EF90DF90CF9011
:1003F000BF90AF909F908F9008954F925F926F92B1
:100400007F928F929F92AF92BF92CF92DF92EF92A4
:10041000FF920F931F93CF93DF93CDB7DEB7C05EEC
:10042000D1090FB6F894DEBF0FBECDBF8EEE92E0BD
:100430000E94F90387E193E00E94F9038CE393E0C3
:100440000E94F90388E0E0E2F1E0DE01A752BF4F2D
:1004500001900D928A95E1F780E1E8E2F1E0DE019A
:10046000A753BF4F01900D928A95E1F78E01075374
:100470001F4FCE0187529F4F7C01712C97E6A92E0A
:1004800093E0B92EFE0131966F01872D0E949D00E9
:10049000FE01EB59FF4F80E05E2E6F2E81938F5F40
:1004A0008436E1F7C0988CB49DB48AE0482E64E6A7
:1004B00070E0852D962D0E9474004A944110F7CF6C
:1004C0008CB59DB5C09AF8014081518162817381DC
:1004D0000C5F1F4FF70120813181F2E0EF0EF11C1C
:1004E000881999099F938F937F936F935F934F938D
:1004F0003F932F93BF92AF92DF92CF920E94B806A4
:10050000C6010E94F9032FEF8FE39BE0215080404A
:100510009040E1F700C0000073940FB6F894DEBF7E
:100520000FBECDBFF4E07F12B0CF85E993E00E940B
:10053000F90384EB93E00E94F9030E940504C05282
:10054000DF4F0FB6F894DEBF0FBECDBFDF91CF9166
:100550001F910F91FF90EF90DF90CF90BF90AF90E1
:100560009F908F907F906F905F904F9008956F92C3
:100570007F928F929F92AF92BF92CF92DF92EF9233
:10058000FF920F931F93CF93DF93CDB7DEB7C6547F
:10059000D1090FB6F894DEBF0FBECDBF85EF93E053
:1005A0000E94F90382E294E00E94F9038EE294E053
:1005B0000E94F90383E594E00E94F90384E794E044
:1005C0000E94F9038EE894E00E94F90310E077247A
:1005D00073946624639488EBC82E84E0D82ECE01F1
:1005E00001967C019DE3892E912C8C0E9D1E93E03B
:1005F000890E911C26EAA22E24E0B22E80919B0047
:1006000087FFFCCF0E940504082F0E94F2030D30E3
:1006100019F00A3009F088C0EDE3F0E0EC0FFD1F9F
:10062000E10FF11D108284E693E00E94F90311238B
:1006300029F38DAD8F7D8335A9F5133010F410E0CB
:10064000DDCFFE01FE9610E081911295107F90EDB6
:10065000980F9A3010F4192B0CC09FEB980F96301E
:1006600010F4875305C09FE9980F963010F4875512
:10067000182B8E169F0641F7812F0E946F001F9244
:100680008F931F921F93BF92AF92FF92EF920E949F
:10069000B806C7010E94F9030FB6F894DEBF0FBE7B
:1006A000CDBFCDCF8235A9F48FEF0E946F001F928E
:1006B0008F93DF92CF92FF92EF920E94B806C7010C
:1006C0000E94F9030F900F900F900F900F900F90D2
:1006D000B6CF833479F4172D1625711004C0C09A53
:1006E0008FEC94E003C0C09887EE94E00E94F90379
:1006F000712EA5CF813509F0A2CFC09ACA5BDF4F1A
:100700000FB6F894DEBF0FBECDBFDF91CF911F9122
:100710000F91FF90EF90DF90CF90BF90AF909F90A0
:100720008F907F906F900895083011F00F3749F443
:10073000112309F463CF11508CEF94E00E94F90368
:100740005DCF193008F05ACFEDE3F0E0EC0FFD1F5C
:10075000E10FF11D00831F5F51CF82E693E00E94FD
:10076000F9038FEF94E00E94F90380E895E00E947E
:10077000F90380EB95E00E94F90384E693E00E9480
:10078000F90381E396E00E94F90380E496E00E9479
:10079000F9038FE596E00E94F90383E896E00E9452
:1007A000F9038CE996E00E94F90384E693E00E9445
:1007B000F9038DEB96E00C94F90310929B0086E010
:1007C00080939D0088E980939A008FE290E0909357
:1007D00098078093970710929800809197078093CD
:1007E0009900089590919B0095FFFCCF80939C0009
:1007F0000895CF93DF93EC018991882319F00E942B
:10080000F203FACFDF91CF91089580919B0087FF8B
:10081000FCCF80919C0008950F931F93CF93DF939B
:1008200000D000D000D0CDB7DEB79F938F9386E87D
:1008300097E09F938F938E010F5F1F4F1F930F932E
:100840000E94B806C8010E94F9030F900F900F9004
:100850000F900F900F9026960FB6F894DEBF0FBE44
:10086000CDBFDF91CF911F910F9108950F931F93EB
:10087000CF93DF9300D01F92CDB7DEB71F928F9337
:1008800089E897E09F938F938E010F5F1F4F1F930F
:100890000F930E94B806C8010E94F9030F900F90B1
:1008A0000F900F900F900F900F900F900F90DF917F
:1008B000CF911F910F91089587E191E00C94F90376
:1008C0000E9405040C94F2031F920F920FB60F9230
:1008D00011248F9380919C008093930781E08093F3
:1008E000920780919307809396078F910F900FBE88
:1008F0000F901F90189580919207882319F01092FD
:10090000920781E00895809193070895CF93DF9334
:1009100060E177E20E944F06EC01FB01E050FF4FDF
:1009200080810E94F203CE0168EE73E00E944F06C0
:10093000EC01FB01E050FF4F80810E94F203CE01E9
:1009400064E670E00E944F06EC01FB01E050FF4FAF
:1009500080810E94F203CE016AE070E00E944F069F
:10096000EC01FB01E050FF4F80810E94F203C05078
:10097000DF4F8881DF91CF910C94F203CF9364E62F
:100980000E944306C92FE82FF0E0E050FF4F80811E
:100990000E94F2038C2F6AE00E944306C92FE82FC1
:1009A000F0E0E050FF4F80810E94F203EC2FF0E076
:1009B000E050FF4F8081CF910C94F203CF93DF93EF
:1009C000EC0197FD02C08BE204C0D195C195D1091D
:1009D0008DE20E94F203CE0160E177E20E9463069D
:1009E000EC01FB01E050FF4F80810E94F203CE0139
:1009F00068EE73E00E946306EC01FB01E050FF4FDC
:100A000080810E94F203CE0164E670E00E946306DA
:100A1000EC01FB01E050FF4F80810E94F203CE0108
:100A20006AE070E00E946306EC01FB01E050FF4FBA
:100A300080810E94F203C050DF4F8881DF91CF9107
:100A40000C94F2034F925F926F927F928F929F92DB
:100A5000AF92BF92CF92DF92EF92FF920F931F93CC
:100A6000CF93DF934B015C01C9E0D0E0C12C9AEC3D
:100A7000D92E9AE9E92E9BE3F92E2AE0422E512C39
:100A8000612C712C8C149D04AE04BF0454F4C70176
:100A9000B601A30192010E94770669017A012197AC
:100AA00089F78AE0482E512C612C712C1C141D04EE
:100AB0001E041F04DCF4C501B401A70196010E94C5
:100AC00077068B01D82FC92FF901E050FF4F8081A5
:100AD0000E94F2034801AD2EBC2EC701B601A3014E
:100AE00092010E94770669017A01E0CFDF91CF91F0
:100AF0001F910F91FF90EF90DF90CF90BF90AF903C
:100B00009F908F907F906F905F904F900895CF93BC
:100B1000C82FE82FE295EF70F0E0E050FF4F8081A2
:100B20000E94F203CF70EC2FF0E0E050FF4F808185
:100B3000CF910C94F203E82FE295EF70F0E0E050D3
:100B4000FF4F208130E0322F2227E82FEF70F0E0B6
:100B5000E050FF4F8081A901482BCA0108951F92E0
:100B60000F920FB60F9211248F93CF93DF931F92A2
:100B7000CDB7DEB78CB1898389810F90DF91CF919A
:100B80008F910F900FBE0F901F90189508950895A4
:100B900008950895CF93DF93CDB7DEB7EC970FB6E6
:100BA000F894DEBF0FBECDBF0E94DD030E94670038
:100BB00081E08EBD8FEF84BB15BA2FEF8FE39BE0F2
:100BC000215080409040E1F700C0000085ED96E0A4
:100BD0000E94F90382E097E00E94F9031F9287E0E8
:100BE0008F9388E08F931F9282E297E09F938F9379
:100BF0008E010F5F1F4F1F930F930E94B806C8010D
:100C00000E94F90385E497E00E94F9030FB6F89477
:100C1000DEBF0FBECDBF0E94AD030E940504182F9A
:100C20000E94F20384E693E00E94F903123369F014
:100C300028F4113381F40E94B2001AC0133341F03A
:100C4000143349F40E94B70213C00E94470110C038
:100C50000E94FD010DC081E797E00E94F9039FEF1C
:100C60002FE786E1915020408040E1F700C000006E
:100C7000C09A9FEF2FE38BE0915020408040E1F736
:100C800000C00000C8CF991B79E004C0991F9617D7
:100C900008F0961B881F7A95C9F780950895AA1BBE
:100CA000BB1B51E107C0AA1FBB1FA617B70710F057
:100CB000A61BB70B881F991F5A95A9F78095909589
:100CC000BC01CD01089597FB072E16F4009407D0C0
:100CD00077FD09D00E944F0607FC05D03EF49095A1
:100CE00081959F4F0895709561957F4F0895052ECA
:100CF00097FB1EF400940E948E0657FD07D00E94B9
:100D0000960607FC03D04EF40C948E065095409541
:100D1000309521953F4F4F4F5F4F089590958095A7
:100D2000709561957F4F8F4F9F4F0895A1E21A2EC6
:100D3000AA1BBB1BFD010DC0AA1FBB1FEE1FFF1F7F
:100D4000A217B307E407F50720F0A21BB30BE40BCF
:100D5000F50B661F771F881F991F1A9469F7609516
:100D60007095809590959B01AC01BD01CF010895D0
:100D70000F931F93CF93DF93CDB7DEB72E970FB6A8
:100D8000F894DEBF0FBECDBF0D891E8986E08C832F
:100D90001A8309838FEF9FE79E838D83AE01475EA1
:100DA0005F4F6F89788DCE0101960E94E706EF8133
:100DB000F885E00FF11F10822E960FB6F894DEBF73
:100DC0000FBECDBFDF91CF911F910F9108952F924C
:100DD0003F924F925F926F927F928F929F92AF92CB
:100DE000BF92CF92DF92EF92FF920F931F93CF9318
:100DF000DF93CDB7DEB72B970FB6F894DEBF0FBEEB
:100E0000CDBF6C017B018A01FC01178216828381B0
:100E100081FFCCC1CE0101963C01F6019381F7011F
:100E200093FD859193FF81917F01882309F4BAC1D5
:100E3000853239F493FD859193FF81917F0185324D
:100E400029F4B60190E00E940709E7CF912C212CEC
:100E5000312CFFE1F315D8F08B3279F038F4803281
:100E600079F08332A1F4232D20611DC08D3261F011
:100E7000803369F4232D216016C0832D8260382EC3
:100E8000E32DE4603E2E2AC0F32DF8601DC037FC30
:100E90002DC020ED280F2A3040F08E32B9F436FCF8
:100EA00081C1232D2064322E19C036FE06C08AE08F
:100EB000989E200D1124922E11C0EAE02E9E200D46
:100EC0001124222EF32DF0623F2E08C08C3621F41F
:100ED000832D8068382E02C0883641F4F70193FDD7
:100EE000859193FF81917F018111B3CF982F9F7DD1
:100EF0009554933028F40C5F1F4F9FE399830DC0E6
:100F0000833631F0833771F0833509F059C021C041
:100F1000F801808189830E5F1F4F88248394912C70
:100F2000530113C02801F2E04F0E511CF801A080BC
:100F3000B18036FE03C0692D70E002C06FEF7FEF15
:100F4000C5010E94FC084C018201F32DFF773F2E62
:100F500016C0280122E0420E511CF801A080B18089
:100F600036FE03C0692D70E002C06FEF7FEFC50150
:100F70000E94F1084C01F32DF0683F2E820133FCF2
:100F80001BC0822D90E088169906B0F4B60180E26D
:100F900090E00E9407092A94F4CFF50137FC85916F
:100FA00037FE81915F01B60190E00E940709211090
:100FB0002A9421E0821A91088114910471F7E8C003
:100FC000843611F0893641F5F80137FE07C060819B
:100FD0007181828193810C5F1F4F08C06081718194
:100FE000072E000C880B990B0E5F1F4FF32DFF7619
:100FF0003F2E97FF09C090958095709561957F4F22
:101000008F4F9F4FF0683F2E2AE030E0A3010E94EF
:101010004309882E861845C0853731F4232D2F7E4D
:10102000B22E2AE030E025C0932D997FB92E8F365D
:10103000C1F018F4883579F0B5C0803719F08837D9
:1010400021F0B0C0E92FE061BE2EB4FE0DC0FB2D33
:10105000F460BF2E09C034FE0AC0292F2660B22ECC
:1010600006C028E030E005C020E130E002C020E109
:1010700032E0F801B7FE07C06081718182819381FF
:101080000C5F1F4F06C06081718180E090E00E5FB1
:101090001F4FA3010E944309882E8618FB2DFF775E
:1010A0003F2E36FE0DC0232D2E7FA22E891458F41C
:1010B00034FE0BC032FC09C0832D8E7EA82E05C0E5
:1010C000B82CA32C03C0B82C01C0B92CA4FE0FC0AF
:1010D000FE01E80DF11D8081803321F49A2D997E67
:1010E000A92E09C0A2FE06C0B394B39404C08A2DF1
:1010F000867809F0B394A3FC11C0A0FE06C0B21418
:1011000088F4280C922C9B180EC0B21460F4B6011F
:1011100080E290E00E940709B394F7CFB21418F46C
:101120002B1802C0982C212CA4FE10C0B60180E31D
:1011300090E00E940709A2FE17C0A1FC03C088E747
:1011400090E002C088E590E0B6010CC08A2D867858
:1011500059F0A1FE02C08BE201C080E2A7FC8DE243
:10116000B60190E00E940709891438F4B60180E3C3
:1011700090E00E9407099A94F7CF8A94F301E80D52
:10118000F11D8081B60190E00E9407098110F5CF22
:10119000222009F442CEB60180E290E00E940709C5
:1011A0002A94F6CFF6018681978102C08FEF9FEFD8
:1011B0002B960FB6F894DEBF0FBECDBFDF91CF9157
:1011C0001F910F91FF90EF90DF90CF90BF90AF9065
:1011D0009F908F907F906F905F904F903F902F9057
:1011E0000895FC010590615070400110D8F780957A
:1011F00090958E0F9F1F0895FC01615070400190E3
:101200000110D8F7809590958E0F9F1F08950F932A
:101210001F93CF93DF93FB01238121FD03C08FEF49
:101220009FEF2CC022FF16C0468157812481358153
:101230004217530744F4A081B1819D012F5F3F4FB6
:10124000318320838C93268137812F5F3F4F3783F3
:10125000268314C08B01EC01FB010084F185E02D95
:101260000995892BE1F6D80116968D919C911797D7
:10127000019617969C938E931697CE01DF91CF918E
:101280001F910F910895FA01AA27283051F12031BA
:1012900081F1E8946F936E7F6E5F7F4F8F4F9F4F0A
:1012A000AF4FB1E03ED0B4E03CD0670F781F891F4C
:1012B0009A1FA11D680F791F8A1F911DA11D6A0F1A
:1012C000711D811D911DA11D20D009F468943F91CD
:1012D0002AE0269F11243019305D3193DEF6CF01CC
:1012E0000895462F4770405D4193B3E00FD0C9F792
:1012F000F6CF462F4F70405D4A3318F0495D31FDFF
:101300004052419302D0A9F7EACFB4E0A695979551
:10131000879577956795BA95C9F700976105710527
:1013200008959B01AC010A2E069457954795379571
:101330002795BA95C9F7620F731F841F951FA01DCB
:061340000895F894FFCFB0
:1013460030313233343536373839414243444546F5
:1013560009000D0A0009000D0A0000FFAA550FF04A
:10136600D103D903E203EB0300201C0000080700A9
:1013760000C2010000E100000D0A3D3D3D2044454C
:101386004D4F20313A204261736963205350492002
:101396005472616E736D697373696F6E203D3D3D66
:1013A6000D0A0053656E64696E6720746573742058
:1013B6007061747465726E7320766961205350494A
:1013C6000D0A004D6F6E69746F722077697468201C
:1013D6006C6F67696320616E616C797A6572206FE4
:1013E600722053504920736C6176650D0A00507265
:1013F6006573732027712720746F20726574757268
:101406006E20746F206D656E750D0A0D0A005365AA
:101416006E743A2030782530325820205265636544
:10142600697665643A203078253032580D0A000D09
:101436000A3D3D3D2044454D4F20323A2053504908
:10144600204C6F6F706261636B2054657374203D2E
:101456003D3D0D0A00436F6E6E656374204D4F531C
:101466004920285042322920746F204D49534F207D
:10147600285042332920666F722074657374696E32
:10148600670D0A0054686973207665726966696536
:101496007320535049206861726477617265206FCA
:1014A6007065726174696F6E0D0A00436F756E74B4
:1014B6003A202533752020537563636573733A208C
:1014C60025337520204572726F72733A2025337565
:1014D60020204C6173743A203078253032580D0A3A
:1014E600000D0A4C6F6F706261636B2074657374D4
:1014F60020636F6D706C657465210D0A00546F74FE
:10150600616C3A2025752020537563636573733AC1
:1015160020257520204572726F72733A202575203A
:1015260020526174653A20257525250D0A000D0A9D
:101536003D3D3D2044454D4F20333A2053504920F0
:10154600537065656420436F6D70617269736F6E69
:10155600203D3D3D0D0A0054657374696E67206435
:101566006966666572656E742053504920636C6FB8
:10157600636B207370656564730D0A004D65617356
:101586007572696E67207472616E73666572207417
:10159600696D6520666F7220313030302062797453
:1015A60065730D0A0D0A0053706565643A20252D92
:1015B6003130732020467265713A2025366C7520CD
:1015C600487A202054696D653A2025752074696330
:1015D6006B730D0A000D0A537065656420636F6DA9
:1015E60070617269736F6E20636F6D706C65746580
:1015F600210D0A00507265737320616E79206B6548
:101606007920746F20636F6E74696E75652E2E2E49
:1016160000465F4350552F3400465F4350552F31E7
:101626003600465F4350552F363400465F435055CB
:101636002F313238000D0A3D3D3D2044454D4F20A7
:10164600343A20496E746572616374697665205315
:101656005049205465726D696E616C203D3D3D0DAB
:101666000A00436F6D6D616E64733A0D0A002020A7
:10167600735B58585D3A2053656E64206865782020
:10168600627974652028652E672E2C2073414129C6
:101696000D0A002020723A2052656164206F6E6543
:1016A6002062797465202873656E6420307846461A
:1016B600290D0A002020633A20546F67676C652065
:1016C600636869702073656C6563740D0A00202079
:1016D600713A2052657475726E20746F206D656E56
:1016E600750D0A0D0A00E286922053656E743A2043
:1016F6003078253032582020E28690205265636586
:10170600697665643A203078253032580D0A0043F0
:10171600533A20484947482028646573656C6563D9
:10172600746564290D0A0043533A204C4F5720280C
:1017360073656C6563746564290D0A00200800E210
:101746009594E29590E29590E29590E29590E295D7
:1017560090E29590E29590E29590E29590E29590D0
:10176600E29590E29590E29590E29590E29590E26E
:101776009590E29590E29590E29590E29590E295AB
:1017860090E29590E29590E29590E29590E29590A0
:10179600E29590E29590E29590E29590E29590E23E
:1017A6009590E29590E29590E29590E29590E2957B
:1017B60090E29590E29590E29590E295970D0A0059
:1017C600E29591202020535049204D4153544552D3
:1017D600204241534943202D2041546D65676131B4
:1017E60032382020202020202020E295910D0A006A
:1017F600E2959AE29590E29590E29590E29590E2D4
:101806009590E29590E29590E29590E29590E2951A
:1018160090E29590E29590E29590E29590E295900F
:10182600E29590E29590E29590E29590E29590E2AD
:101836009590E29590E29590E29590E29590E295EA
:1018460090E29590E29590E29590E29590E29590DF
:10185600E29590E29590E29590E29590E29590E27D
:101866009590E29590E29590E29590E2959D0D0A0D
:101876000053656C6563742044656D6F3A0D0A000C
:1018860020205B315D2042617369632053504920FB
:101896005472616E736D697373696F6E0D0A002001
:1018A600205B325D204C6F6F706261636B20546504
:1018B600737420284D4F5349E286924D49534F2960
:1018C6000D0A0020205B335D20537065656420435C
:1018D6006F6D70617269736F6E0D0A0020205B3444
:1018E6005D20496E74657261637469766520535034
:1018F60049205465726D696E616C0D0A00456E74FF
:1019060065722073656C656374696F6E2028312D6E
:1019160034293A20000D0A0D0A2A2A2A2053504952
:10192600204D617374657220426173696320436F51
:101936006D6D756E69636174696F6E202A2A2A0D52
:101946000A0041546D656761313238205350492091
:101956004C6561726E696E672053797374656D0D9F
:101966000A00436C6F636B3A20256C7520487A2C0D
:101976002044656661756C743A20465F4350552F66
:1019860031360D0A0050696E733A205042303D538D
:10199600532C205042313D53434B2C205042323D74
:1019A6004D4F53492C205042333D4D49534F0D0A5C
:1019B60000496E76616C69642073656C6563746951
:0E19C6006F6E210D0A00257500253032580085
:00000001FF
