:100000000C9446000C9465000C9465000C946500FB
:100010000C9465000C9465000C9465000C946500CC
:100020000C9465000C9465000C9465000C946500BC
:100030000C9465000C9465000C9465000C946500AC
:100040000C9465000C9465000C941C080C946500DD
:100050000C9465000C9465000C9465000C9465008C
:100060000C9465000C9465000C9465000C9465007C
:100070000C9465000C9465000C94D1060C946500FA
:100080000C9465000C9465000C94650011241FBE4F
:10009000CFEFD0E1DEBFCDBF16E0A0E0B1E0E2E1FE
:1000A000FDE100E00BBF02C007900D92AC37B10735
:1000B000D9F726E0ACE7B6E001C01D92A439B2073B
:1000C000E1F70E9437080C94870E0C940000E5E6D7
:1000D000F0E080818260808382E08A95F1F700C041
:1000E00080818D7F80838BE78A95F1F70895E5E61F
:1000F000F0E020818F7034E0839FC0011124237CC5
:10010000822B80830C946700CF93C82F8091650069
:10011000662311F0816001C08E7F809365008C2F73
:1001200082958F700E9477008C2F8F700E947700CD
:100130008BE78A95F1F7CF910895CF93C82F60E0B0
:100140000E948400C150C23028F486E69EE00197E8
:10015000F1F70000CF91089561E00C948400E4E68B
:10016000F0E080818F6380832FEF8FE191E0215059
:1001700080409040E1F700C00000E5E6F0E08081BB
:100180008E7F808383E00E9477008FEF93E2019758
:10019000F1F700C0000083E00E94770084E191E065
:1001A0000197F1F7000083E00E94770084E191E07D
:1001B0000197F1F7000082E00E94770084E191E06E
:1001C0000197F1F7000088E20E949D008CE00E94F8
:1001D0009D0081E00E949D0086E00C949D0081E0DE
:1001E0000C949D00882329F0813011F4605C01C0DB
:1001F00060E0862F80680C949D00CF93DF93EC0124
:100200008991882319F00E94AC00FACFDF91CF9139
:100210000895CF93DF93EA010E94F200CE01DF91AF
:10022000CF910C94FD000F931F93CF93DF938B011D
:1002300028E0829FC001112480640E949D00E80193
:10024000085F1F4F89910E94AC00C017D107D1F7FA
:10025000DF91CF911F910F91089580E487B986E8CF
:1002600086B9089597B1907E8F71892B87B9369A98
:100270003699FECF84B195B10895CF93DF9380E096
:100280000E943201C5E8D6E09983888381E00E940C
:1002900032019B838A8382E00E9432019D838C839A
:1002A0006881798180E090E00E94730A20E030E06C
:1002B00040EA50E40E942A0B20E030E048EC52E48F
:1002C0000E942A0B20E030E040E85AE30E942A0B0B
:1002D0006E837F83888799872A813B8144E6429F8A
:1002E000C001439F900D11246FEF73E00E94F70847
:1002F0006A87DF91CF9108956F927F928F929F923C
:10030000AF92BF92CF92DF92EF92FF920F931F9323
:10031000CF93DF93CDB7DEB764970FB6F894DEBF07
:100320000FBECDBF8AE491E00E9466068EE691E0A2
:100330000E9466060E94EF0086E8A82E81E0B82E93
:100340008E010F5F1F4F94E6692E88248A9423E064
:10035000922E37E9C32E31E0D32E47EAE42E41E056
:10036000F42E5DE0752E0E943D0180918F061F9254
:100370008F9380918E068F9380918D068F938091BD
:100380008C068F9380918B068F93BF92AF921F93B1
:100390000F930E949E0BA80160E080E00E9409017B
:1003A0002091890630918A06629EC001639E900D5D
:1003B0001124B4010E94F7087F936F933F932F930A
:1003C000DF92CF921F930F930E949E0BA80160E0D3
:1003D00081E00E94090180918A068F9380918906AD
:1003E0008F9380918F061F928F9380918E068F93AB
:1003F00080918D068F9380918C068F9380918B06D0
:100400008F93FF92EF921F930F930E949E0BC80150
:100410000E94660680918F06672D0E94EB0885BBBF
:100420002FEF3FE985E0215030408040E1F700C0E8
:10043000000080919B000FB6F894DEBF0FBECDBFC9
:1004400087FF91CF0E94720680EC91E00E946606C1
:1004500064960FB6F894DEBF0FBECDBFDF91CF918B
:100460001F910F91FF90EF90DF90CF90BF90AF90D2
:100470009F908F907F906F900895BF92CF92DF9260
:10048000EF92FF920F931F93CF93DF93CDB7DEB719
:10049000CC56D1090FB6F894DEBF0FBECDBF89EDA3
:1004A00091E00E9466068EE691E00E946606BE011B
:1004B0006B597F4F88E0FB01282F11922A95E9F7AD
:1004C000EAE1F1E0DE01A35ABF4F982F01900D92AF
:1004D0009A95E1F7E2E2F1E0DE01AB5ABF4F982FC7
:1004E00001900D929A95E1F7EAE2F1E0DE01A35B5B
:1004F000BF4F982F01900D929A95E1F7E2E3F1E05A
:10050000DE01AB5BBF4F982F01900D929A95E1F7FA
:10051000EAE3F1E0DE01DD9601900D928A95E1F7C4
:1005200080E00E941301BE01635A7F4F81E00E9468
:100530001301BE016B5A7F4F82E00E941301BE017E
:10054000635B7F4F83E00E941301BE016B5B7F4FB3
:1005500084E00E941301BE01635C7F4F85E00E942E
:1005600013010E94EF0081E0E82E82E0F82ECE0118
:1005700001966C010E943D0180E80E949D0084E587
:100580000E94AC0020E030E040E651E460918B0630
:1005900070918C0680918D0690918E060E942A0B98
:1005A00020E030E048E452E40E94D2090E94440A6C
:1005B000B62E10E01B1510F485E001C080E00E940B
:1005C000AC001F5F1E30B1F780EC0E949D008CE4F0
:1005D0000E94AC0010918F0616951695169500E0B6
:1005E000011710F485E001C080E00E94AC000F5FAD
:1005F0000E30B1F71F921F931F92BF92FF92EF929E
:10060000DF92CF920E949E0BC6010E9466060FB633
:10061000F894DEBF0FBECDBFFAE0FB1508F410EF73
:1006200015BB2FEF8FE794E0215080409040E1F719
:1006300000C0000080919B0087FF9CCF0E94720643
:100640008FE192E00E946606C459DF4F0FB6F8941E
:10065000DEBF0FBECDBFDF91CF911F910F91FF90F5
:10066000EF90DF90CF90BF9008952F923F924F92DE
:100670005F926F927F928F929F92AF92BF92CF9232
:10068000DF92EF92FF920F931F93CF93DF93CDB73B
:10069000DEB7AD970FB6F894DEBF0FBECDBF8EE2CA
:1006A00092E00E9466068FE492E00E9466068EE663
:1006B00091E00E94660688E0E2E4F1E0DE019696B1
:1006C00001900D928A95E1F7BE016A5D7F4F80E04F
:1006D0000E9413010E94EF0000E010E0CE01459659
:1006E0007C013324339426E8A22E21E0B22E4497D5
:1006F0006C0136EA832E32E0932E22242A940E9443
:100700003D0181E1EEEDF2E0D70101900D928A9575
:10071000E1F740908B0650908C0660908D067090AB
:100720008E0620E030E04CE052E4C301B2010E94AA
:10073000250B18161CF465E772E00CC020E030E0D1
:1007400040E751E4C301B2010E94CD0987FF0AC00E
:1007500066E872E0C7010E94970B0F5F1F4F772476
:10076000739401C0712C8091870690918806883C13
:10077000910558F4711007C066E972E0C7010E9444
:10078000970B0F5F1F4F7724739480E80E949D00A2
:10079000772039F080E00E94AC0080E20E94AC003B
:1007A00004C08CEE92E00E94FD00C7010E94FD0093
:1007B00080918F061F928F9380918E068F938091E8
:1007C0008D068F9380918C068F9380918B068F93EB
:1007D000BF92AF92DF92CF920E949E0BA60160E083
:1007E00081E00E9409010FB6F894DEBF0FBECDBFB5
:1007F0007720B9F180918F061F928F9380918E069A
:100800008F9380918D068F9380918C068F9380912A
:100810008B068F93FF92EF921F930F939F928F926D
:10082000DF92CF920E949E0BC6010E94660625BAF7
:100830009FEF2FE382E0915020408040E1F700C01D
:10084000000015BA9FEF2FE382E0915020408040D6
:10085000E1F700C000000FB6F894DEBF0FBECDBFB9
:1008600001C035BA9FEF2FE38BE0915020408040CC
:10087000E1F700C0000080919B0087FF40CF0E94FD
:1008800072061F930F9387EC92E09F938F93DF92F2
:10089000CF920E949E0BC6010E9466060F900F9099
:1008A0000F900F900F900F90AD960FB6F894DEBF9B
:1008B0000FBECDBFDF91CF911F910F91FF90EF90B1
:1008C000DF90CF90BF90AF909F908F907F906F9070
:1008D0005F904F903F902F9008952F923F924F92AC
:1008E0005F926F927F928F929F92AF92BF92CF92C0
:1008F000DF92EF92FF920F931F93CF93DF93CDB7C9
:10090000DEB7C855D1090FB6F894DEBF0FBECDBF14
:100910008FEE92E00E9466068FE093E00E946606EA
:100920000E94EF004CE353E060E080E00E94090188
:1009300087E493E00E946606612C712C81E090E0D0
:1009400063969FAF8EAF639768961FAE68979FEFD1
:1009500069969FAF6997212C312C2101912C80EC55
:10096000882E29E766962FAF669784EC67968FAF3F
:100970006797B12C90EC64969FAF649765962FAF04
:10098000659794E4A92E8E010F5F1F4F0E943D01D1
:10099000C0908B06D0908C06E0908D06F0908E066D
:1009A00064966FAD649765969FAD65972B2D362F36
:1009B000492F5A2DB601C7010E94CD0987FF08C0F3
:1009C000BC2C6496DFAE64976596EFAE6597AF2C4E
:1009D000B40166969FAD669767968FAD6797272F90
:1009E000382D492F582FB601C7010E94250B181624
:1009F00044F49C2C8D2C6696EFAE66976796FFAEFE
:100A000067979601A701C201B1010E9461091B010C
:100A10002C0180918F0669969FAD6997891718F40C
:100A200069968FAF699768962FAD6897281718F465
:100A300068968FAF689763968FAD63978F93629632
:100A40009FAD62979F9386E693E09F938F931F934A
:100A50000F930E949E0BA80160E081E00E940901B3
:100A600080918A068F93809189068F9380918F065B
:100A70001F928F9380918E068F9380918D068F9316
:100A800080918C068F9380918B068F9363968FADA8
:100A900063978F9362969FAD62979F9387E793E0EA
:100AA0009F938F931F930F930E949E0BC8010E94E8
:100AB0006606C3016EE170E00E940B0965BB8FEF13
:100AC0009FE726E1815090402040E1F700C0000000
:100AD00063968EAD9FAD6397019663969FAF8EAF81
:100AE00063979FEF690E711C0FB6F894DEBF0FBEBF
:100AF000CDBF92EE69169DE1790609F047CF0E94BD
:100B0000EF0047E853E060E080E00E94090185E9DA
:100B100093E00E94660667962FAD67972F936696BF
:100B20008FAD66978F938F929F9220E030E040EFD9
:100B300051E4C201B1010E94D2099F938F937F9328
:100B40006F93AF9265969FAD65979F9364962FAD17
:100B500064972F93BF928CEA93E09F938F931F9398
:100B60000F930E949E0BC8010E9466061F92689612
:100B70008FAD68978F931F9269969FAD69979F93EA
:100B800089ED93E09F938F931F930F930E949E0B89
:100B9000C8010E94660667962FAD67972F936696E9
:100BA0008FAD66978F938F929F92AF9265969FAD10
:100BB00065979F9364962FAD64972F93BF9284EFB0
:100BC00093E09F938F931F930F930E949E0B0FB6FA
:100BD000F894DEBF0FBECDBFA80160E081E00E94A7
:100BE00009019FEF2FE783E4915020408040E1F717
:100BF00000C0000082E094E00E9466060E94720637
:100C0000C85ADF4F0FB6F894DEBF0FBECDBFDF91DD
:100C1000CF911F910F91FF90EF90DF90CF90BF90F9
:100C2000AF909F908F907F906F905F904F903F908C
:100C30002F90089587E393E00E94660681E294E096
:100C40000E94660682EA94E00E94660682ED94E0C5
:100C50000E94660689E393E00E94660683E595E0BC
:100C60000E94660682E695E00E9466068AE795E0A5
:100C70000E94660686E995E00E9466068BEA95E08A
:100C80000E94660689E393E00E9466068FEB95E07A
:100C90000C94660610929B0086E080939D0088E984
:100CA00080939A008FE290E0909391068093900653
:100CB00010929800809190068093990008959091E9
:100CC0009B0095FFFCCF80939C000895CF93DF930A
:100CD000EC018991882319F00E945F06FACFDF9119
:100CE000CF91089580919B0087FFFCCF80919C005D
:100CF00008950F931F93CF93DF9300D000D000D0BF
:100D0000CDB7DEB79F938F9384E796E09F938F9341
:100D10008E010F5F1F4F1F930F930E949E0BC80100
:100D20000E9466060F900F900F900F900F900F90FB
:100D300026960FB6F894DEBF0FBECDBFDF91CF91E0
:100D40001F910F9108950F931F93CF93DF9300D0BE
:100D50001F92CDB7DEB71F928F9387E796E09F93E0
:100D60008F938E010F5F1F4F1F930F930E949E0B57
:100D7000C8010E9466060F900F900F900F900F9081
:100D80000F900F900F900F90DF91CF911F910F91C7
:100D9000089587E191E00C9466060E9472060C9417
:100DA0005F061F920F920FB60F9211248F938091BE
:100DB0009C008093810681E080938006809181066B
:100DC000809384068F910F900FBE0F901F901895FF
:100DD00080918006882319F01092800681E00895A2
:100DE000809181060895CF93DF9360E177E20E94BE
:100DF000F708EC01FB01E050FF4F80810E945F0685
:100E0000CE0168EE73E00E94F708EC01FB01E050B0
:100E1000FF4F80810E945F06CE0164E670E00E9471
:100E2000F708EC01FB01E050FF4F80810E945F0654
:100E3000CE016AE070E00E94F708EC01FB01E0508F
:100E4000FF4F80810E945F06C050DF4F8881DF9195
:100E5000CF910C945F06CF9364E60E94EB08C92FF4
:100E6000E82FF0E0E050FF4F80810E945F068C2F5A
:100E70006AE00E94EB08C92FE82FF0E0E050FF4F36
:100E800080810E945F06EC2FF0E0E050FF4F8081F0
:100E9000CF910C945F06CF93DF93EC0197FD02C0D6
:100EA0008BE204C0D195C195D1098DE20E945F0605
:100EB000CE0160E177E20E940B09EC01FB01E050FA
:100EC000FF4F80810E945F06CE0168EE73E00E94B2
:100ED0000B09EC01FB01E050FF4F80810E945F068F
:100EE000CE0164E670E00E940B09EC01FB01E050CA
:100EF000FF4F80810E945F06CE016AE070E00E9491
:100F00000B09EC01FB01E050FF4F80810E945F065E
:100F1000C050DF4F8881DF91CF910C945F064F92D4
:100F20005F926F927F928F929F92AF92BF92CF9279
:100F3000DF92EF92FF920F931F93CF93DF934B01BA
:100F40005C01C9E0D0E0C12C9AECD92E9AE9E92ED7
:100F50009BE3F92E2AE0422E512C612C712C8C142B
:100F60009D04AE04BF0454F4C701B601A30192016D
:100F70000E941F0969017A01219789F78AE0482EAA
:100F8000512C612C712C1C141D041E041F04DCF454
:100F9000C501B401A70196010E941F098B01D82F3A
:100FA000C92FF901E050FF4F80810E945F06480180
:100FB000AD2EBC2EC701B601A30192010E941F09EC
:100FC00069017A01E0CFDF91CF911F910F91FF90DE
:100FD000EF90DF90CF90BF90AF909F908F907F90D9
:100FE0006F905F904F900895CF93C82FE82FE295B0
:100FF000EF70F0E0E050FF4F80810E945F06CF70FD
:10100000EC2FF0E0E050FF4F8081CF910C945F0611
:10101000E82FE295EF70F0E0E050FF4F208130E0E4
:10102000322F2227E82FEF70F0E0E050FF4F808151
:10103000A901482BCA0108951F920F920FB60F9273
:1010400011248F93CF93DF931F92CDB7DEB78CB16E
:10105000898389810F90DF91CF918F910F900FBE7F
:101060000F901F9018950895089508950895CF93AF
:10107000DF93CDB7DEB764970FB6F894DEBF0FBE2F
:10108000CDBF0E944A060E94AF000E942D018FEF43
:1010900084BB15BA2FEF8FE39BE021508040904036
:1010A000E1F700C0000087ED95E00E9466068AEF38
:1010B00095E00E9466060E94EF0048E156E060E07D
:1010C00080E00E94090147E256E060E081E00E9472
:1010D00009012FEF8FE796E1215080409040E1F722
:1010E00000C000000E943D010E94EF0048E356E06E
:1010F00060E080E00E94090180918F061F928F932B
:1011000080918E068F9380918D068F9380918C06AF
:101110008F9380918B068F9387E496E09F938F93B4
:101120008E010F5F1F4F1F930F930E949E0BA8010C
:1011300060E081E00E94090181E085BB2FEF8FEF25
:101140009CE2215080409040E1F700C000000FB6C3
:10115000F894DEBF0FBECDBF0E941A060E94720631
:10116000182F0E945F0689E393E00E9466061233FF
:1011700069F028F4113381F40E947C0122C01333FA
:1011800041F0143349F40E946D041BC00E943D02DB
:1011900018C00E94350315C086E596E00E946606D9
:1011A0000E94EF004BE656E060E080E00E940901FB
:1011B0009FEF2FE786E1915020408040E1F700C08B
:1011C00000009FEF2FE38BE0915020408040E1F73B
:1011D00000C00000C1CF991B79E004C0991F961789
:1011E00008F0961B881F7A95C9F780950895AA1B69
:1011F000BB1B51E107C0AA1FBB1FA617B70710F002
:10120000A61BB70B881F991F5A95A9F78095909533
:10121000BC01CD01089597FB072E16F4009407D06A
:1012200077FD09D00E94F70807FC05D03EF49095A1
:1012300081959F4F0895709561957F4F0895052E74
:1012400097FB1EF400940E94360957FD07D00E94B8
:101250003E0907FC03D04EF40C9436095095409596
:10126000309521953F4F4F4F5F4F08959095809552
:10127000709561957F4F8F4F9F4F0895A1E21A2E71
:10128000AA1BBB1BFD010DC0AA1FBB1FEE1FFF1F2A
:10129000A217B307E407F50720F0A21BB30BE40B7A
:1012A000F50B661F771F881F991F1A9469F76095C1
:1012B0007095809590959B01AC01BD01CF0108957B
:1012C0005058BB27AA270E9478090C94EB0A0E9469
:1012D000DD0A38F00E94E40A20F039F49F3F19F447
:1012E00026F40C94DA0A0EF4E095E7FB0C94D40A89
:1012F000E92F0E94FC0A58F3BA17620773078407A4
:10130000950720F079F4A6F50C941E0B0EF4E095E9
:101310000B2EBA2FA02D0B01B90190010C01CA01AF
:10132000A0011124FF27591B99F0593F50F4503E5A
:1013300068F11A16F040A22F232F342F4427585F4C
:10134000F3CF469537952795A795F0405395C9F764
:101350007EF41F16BA0B620B730B840BBAF091501C
:10136000A1F0FF0FBB1F661F771F881FC2F70EC0BB
:10137000BA0F621F731F841F48F48795779567958E
:10138000B795F7959E3F08F0B0CF9395880F08F07A
:101390009927EE0F9795879508950E94B00A08F453
:1013A00081E008950E94E6090C94EB0A0E94E40A89
:1013B00058F00E94DD0A40F029F45F3F29F00C94B8
:1013C000D40A51110C941F0B0C94DA0A0E94FC0AE7
:1013D00068F39923B1F3552391F3951B550BBB2764
:1013E000AA2762177307840738F09F5F5F4F220FA9
:1013F000331F441FAA1FA9F335D00E2E3AF0E0E8A0
:1014000032D091505040E695001CCAF72BD0FE2FE9
:1014100029D0660F771F881FBB1F2617370748077D
:10142000AB07B0E809F0BB0B802DBF01FF27935835
:101430005F4F3AF09E3F510578F00C94D40A0C941B
:101440001F0B5F3FE4F3983ED4F38695779567953D
:10145000B795F7959F5FC9F7880F911D969587956A
:1014600097F90895E1E0660F771F881FBB1F621789
:1014700073078407BA0720F0621B730B840BBA0B47
:10148000EE1F88F7E09508950E94040B88F09F579F
:1014900098F0B92F9927B751B0F0E1F0660F771F98
:1014A000881F991F1AF0BA95C9F714C0B13091F08E
:1014B0000E941E0BB1E008950C941E0B672F782F2D
:1014C0008827B85F39F0B93FCCF386957795679553
:1014D000B395D9F73EF490958095709561957F4FBF
:1014E0008F4F9F4F0895E89409C097FB3EF4909565
:1014F0008095709561957F4F8F4F9F4F9923A9F0ED
:10150000F92F96E9BB279395F6958795779567957B
:10151000B795F111F8CFFAF4BB0F11F460FF1BC0BF
:101520006F5F7F4F8F4F9F4F16C0882311F096E952
:1015300011C0772321F09EE8872F762F05C0662300
:1015400071F096E8862F70E060E02AF09A95660FB9
:10155000771F881FDAF7880F9695879597F9089572
:10156000990F0008550FAA0BE0E8FEEF16161706B4
:10157000E807F907C0F012161306E407F50798F01C
:10158000621B730B840B950B39F40A2661F0232B35
:10159000242B252B21F408950A2609F4A140A695B1
:1015A0008FEF811D811D089597F99F6780E870E096
:1015B00060E008959FEF80EC089500240A941616C9
:1015C000170618060906089500240A941216130631
:1015D000140605060895092E0394000C11F48823BF
:1015E00052F0BB0F40F4BF2B11F460FF04C06F5FDB
:1015F0007F4F8F4F9F4F089557FD9058440F551FB1
:1016000059F05F3F71F04795880F97FB991F61F084
:101610009F3F79F087950895121613061406551FFB
:10162000F2CF4695F1DF08C0161617061806991F67
:10163000F1CF86957105610508940895E894BB275C
:1016400066277727CB0197F908950E94B00A08F41E
:101650008FEF08950E943D0B0C94EB0A0E94DD0A67
:1016600038F00E94E40A20F0952311F00C94D40A7B
:101670000C94DA0A11240C941F0B0E94FC0A70F3DC
:10168000959FC1F3950F50E0551F629FF001729F27
:10169000BB27F00DB11D639FAA27F00DB11DAA1F36
:1016A000649F6627B00DA11D661F829F2227B00D83
:1016B000A11D621F739FB00DA11D621F839FA00D0E
:1016C000611D221F749F3327A00D611D231F849F5E
:1016D000600D211D822F762F6A2F11249F575040B5
:1016E0009AF0F1F088234AF0EE0FFF1FBB1F661F30
:1016F000771F881F91505040A9F79E3F510580F0F9
:101700000C94D40A0C941F0B5F3FE4F3983ED4F37F
:10171000869577956795B795F795E7959F5FC1F79C
:10172000FE2B880F911D9695879597F90895FB01DB
:10173000DC0101900D920020E1F708950F931F93B3
:10174000CF93DF93CDB7DEB72E970FB6F894DEBFF9
:101750000FBECDBF0D891E8986E08C831A83098355
:101760008FEF9FE79E838D83AE01475E5F4F6F894A
:10177000788DCE0101960E94CD0BEF81F885E00FA8
:10178000F11F10822E960FB6F894DEBF0FBECDBFAC
:10179000DF91CF911F910F9108952F923F924F9219
:1017A0005F926F927F928F929F92AF92BF92CF92F1
:1017B000DF92EF92FF920F931F93CF93DF93CDB7FA
:1017C000DEB72B970FB6F894DEBF0FBECDBF6C010E
:1017D0007B018A01FC0117821682838181FFCCC1C3
:1017E000CE0101963C01F6019381F70193FD8591AD
:1017F00093FF81917F01882309F4BAC1853239F4BE
:1018000093FD859193FF81917F01853229F4B60183
:1018100090E00E94ED0DE7CF912C212C312CFFE1BF
:10182000F315D8F08B3279F038F4803279F08332C6
:10183000A1F4232D20611DC08D3261F0803369F445
:10184000232D216016C0832D8260382EE32DE460A5
:101850003E2E2AC0F32DF8601DC037FC2DC020EDB0
:10186000280F2A3040F08E32B9F436FC81C1232D86
:101870002064322E19C036FE06C08AE0989E200DE4
:101880001124922E11C0EAE02E9E200D1124222E4A
:10189000F32DF0623F2E08C08C3621F4832D806832
:1018A000382E02C0883641F4F70193FD859193FFED
:1018B00081917F018111B3CF982F9F7D95549330F3
:1018C00028F40C5F1F4F9FE399830DC0833631F0DE
:1018D000833771F0833509F059C021C0F801808148
:1018E00089830E5F1F4F88248394912C530113C06A
:1018F0002801F2E04F0E511CF801A080B18036FEA5
:1019000003C0692D70E002C06FEF7FEFC5010E9438
:10191000E20D4C018201F32DFF773F2E16C0280106
:1019200022E0420E511CF801A080B18036FE03C0B7
:10193000692D70E002C06FEF7FEFC5010E94D70DE7
:101940004C01F32DF0683F2E820133FC1BC0822D29
:1019500090E088169906B0F4B60180E290E00E940B
:10196000ED0D2A94F4CFF50137FC859137FE819176
:101970005F01B60190E00E94ED0D21102A9421E054
:10198000821A91088114910471F7E8C0843611F02D
:10199000893641F5F80137FE07C060817181828187
:1019A00093810C5F1F4F08C060817181072E000C6E
:1019B000880B990B0E5F1F4FF32DFF763F2E97FF7D
:1019C00009C090958095709561957F4F8F4F9F4F7F
:1019D000F0683F2E2AE030E0A3010E94290E882EF5
:1019E000861845C0853731F4232D2F7EB22E2AE08C
:1019F00030E025C0932D997FB92E8F36C1F018F4B1
:101A0000883579F0B5C0803719F0883721F0B0C03B
:101A1000E92FE061BE2EB4FE0DC0FB2DF460BF2E99
:101A200009C034FE0AC0292F2660B22E06C028E065
:101A300030E005C020E130E002C020E132E0F801F2
:101A4000B7FE07C060817181828193810C5F1F4F57
:101A500006C06081718180E090E00E5F1F4FA3019E
:101A60000E94290E882E8618FB2DFF773F2E36FE0A
:101A70000DC0232D2E7FA22E891458F434FE0BC0E6
:101A800032FC09C0832D8E7EA82E05C0B82CA32C55
:101A900003C0B82C01C0B92CA4FE0FC0FE01E80D94
:101AA000F11D8081803321F49A2D997EA92E09C0E1
:101AB000A2FE06C0B394B39404C08A2D867809F0C0
:101AC000B394A3FC11C0A0FE06C0B21488F4280C85
:101AD000922C9B180EC0B21460F4B60180E290E024
:101AE0000E94ED0DB394F7CFB21418F42B1802C076
:101AF000982C212CA4FE10C0B60180E390E00E9437
:101B0000ED0DA2FE17C0A1FC03C088E790E002C063
:101B100088E590E0B6010CC08A2D867859F0A1FEC8
:101B200002C08BE201C080E2A7FC8DE2B60190E02A
:101B30000E94ED0D891438F4B60180E390E00E9414
:101B4000ED0D9A94F7CF8A94F301E80DF11D808191
:101B5000B60190E00E94ED0D8110F5CF222009F42E
:101B600042CEB60180E290E00E94ED0D2A94F6CFBD
:101B7000F6018681978102C08FEF9FEF2B960FB6FB
:101B8000F894DEBF0FBECDBFDF91CF911F910F91B3
:101B9000FF90EF90DF90CF90BF90AF909F908F908D
:101BA0007F906F905F904F903F902F900895FC0131
:101BB0000590615070400110D8F7809590958E0F78
:101BC0009F1F0895FC016150704001900110D8F7EB
:101BD000809590958E0F9F1F08950F931F93CF931D
:101BE000DF93FB01238121FD03C08FEF9FEF2CC00A
:101BF00022FF16C046815781248135814217530741
:101C000044F4A081B1819D012F5F3F4F3183208338
:101C10008C93268137812F5F3F4F3783268314C0F3
:101C20008B01EC01FB010084F185E02D0995892BE6
:101C3000E1F6D80116968D919C911797019617960B
:101C40009C938E931697CE01DF91CF911F910F91A8
:101C50000895FA01AA27283051F1203181F1E89442
:101C60006F936E7F6E5F7F4F8F4F9F4FAF4FB1E08F
:101C70003ED0B4E03CD0670F781F891F9A1FA11D8A
:101C8000680F791F8A1F911DA11D6A0F711D811D8B
:101C9000911DA11D20D009F468943F912AE0269F50
:101CA00011243019305D3193DEF6CF010895462FAF
:101CB0004770405D4193B3E00FD0C9F7F6CF462F90
:101CC0004F70405D4A3318F0495D31FD40524193F9
:101CD00002D0A9F7EACFB4E0A695979587957795B6
:101CE0006795BA95C9F700976105710508959B013D
:101CF000AC010A2E06945795479537952795BA95C6
:101D0000C9F7620F731F841F951FA01D0895F894D3
:021D1000FFCF03
:101D1200303132333435363738394142434445461F
:101D220009000D0A0009000D0A0010101010101011
:101D3200101018181818181818181C1C1C1C1C1C19
:101D42001C1C1E1E1E1E1E1E1E1E1F1F1F1F1F1FAF
:101D52001F1F00040E0E1F1F00000D0A3D3D3D20F7
:101D620044454D4F20313A204261736963204461FA
:101D72007368626F617264203D3D3D0D0A005072CE
:101D820065737320616E79206B657920746F20739F
:101D9200746F700D0A00543A252E316643204C3A76
:101DA20025752525202000413A2534752028253324
:101DB200752525292020000D543A252E3166432011
:101DC2004C3A2575252520413A25752020202000F2
:101DD2000D0A0D0A44617368626F61726420737444
:101DE2006F707065642E0D0A000D0A3D3D3D204462
:101DF200454D4F20323A2047726170686963616CC9
:101E02002044617368626F617264203D3D3D0D0A3A
:101E1200000D54656D703A2532752F3134204C69AE
:101E22006768743A2532752F313420202020000D46
:101E32000A0D0A53746F707065642E0D0A000D0A44
:101E42003D3D3D2044454D4F20333A20416C657263
:101E5200742053797374656D203D3D3D0D0A004D2C
:101E62006F6E69746F72696E6720666F7220746834
:101E7200726573686F6C642076696F6C6174696FE8
:101E82006E730D0A005741524E3A2054656D702010
:101E92004869676821005741524E3A2054656D7077
:101EA200204C6F7721005741524E3A20546F6F20D9
:101EB2004461726B21000D5B414C45525420232535
:101EC200755D20257320543A252E316643204C3A05
:101ED200257525250D0A000D0A0D0A546F74616CD3
:101EE20020616C657274733A2025750D0A00537473
:101EF200617475733A204F4B202020202020000D62
:101F02000A3D3D3D2044454D4F20343A2044617402
:101F120061204C6F67676572203D3D3D0D0A004CA4
:101F22006F6767696E672033302073616D706C650F
:101F32007320617420312D7365636F6E6420696E46
:101F420074657276616C730D0A0D0A004C6F6767D7
:101F5200696E672E2E2E0053616D706C652C546570
:101F62006D705F432C4C696768745F252C416E610C
:101F72006C6F670D0A0053616D706C653A202575B0
:101F82002F33302020200025752C252E31662C255C
:101F9200752C25750D0A004C6F6720436F6D706CB0
:101FA20065746521000D0A3D3D3D205374617469DD
:101FB2007374696373203D3D3D0D0A0054656D7075
:101FC200657261747572653A204D696E3D252E31D8
:101FD2006643204176673D252E316643204D617868
:101FE2003D252E3166430D0A004C696768743A201C
:101FF2004D696E3D25752525204D61783D25752558
:10200200250D0A00543A252E31662D252E316643C0
:1020120020000D0A507265737320616E79206B6522
:102022007920746F20636F6E74696E75652E2E2E23
:1020320000E29594E29590E29590E29590E2959077
:10204200E29590E29590E29590E29590E29590E289
:102052009590E29590E29590E29590E29590E295C6
:1020620090E29590E29590E29590E29590E29590BB
:10207200E29590E29590E29590E29590E29590E259
:102082009590E29590E29590E29590E29590E29596
:1020920090E29590E29590E29590E29590E295908B
:1020A200E29590E29590E29590E29590E295970DF7
:1020B2000A00E2959120204C43442053656E736FD1
:1020C200722044617368626F617264202D204154F2
:1020D2006D6567613132382020202020E295910D14
:1020E2000A00E2959AE29590E29590E29590E29547
:1020F20090E29590E29590E29590E29590E295902B
:10210200E29590E29590E29590E29590E29590E2C8
:102112009590E29590E29590E29590E29590E29505
:1021220090E29590E29590E29590E29590E29590FA
:10213200E29590E29590E29590E29590E29590E298
:102142009590E29590E29590E29590E29590E295D5
:1021520090E29590E29590E29590E29590E2959DBD
:102162000D0A0053656C6563742044656D6F3A0D0A
:102172000A0020205B315D20426173696320446163
:102182007368626F6172640D0A0020205B325D2009
:1021920047726170686963616C2042617267726143
:1021A2007068730D0A0020205B335D20416C6572FC
:1021B200742053797374656D0D0A0020205B345DC1
:1021C2002044617461204C6F676765720D0A004597
:1021D2006E7465722073656C656374696F6E202816
:1021E200312D34293A20000D0A0D0A2A2A2A204CC0
:1021F20043442053656E736F722044617368626F4B
:10220200617264202A2A2A0D0A005265616C2D74BB
:10221200696D652073656E736F72206D6F6E697480
:102222006F72696E670D0A002053656E736F7220BC
:1022320053797374656D002020496E697469616C0D
:10224200697A696E672E2E0053656E736F72732002
:1022520052656164792100543A252E316643204C3F
:102262003A2575252500496E76616C69642073658F
:102272006C656374696F6E210D0A00496E76616C3C
:0C228200696421002575002530325800E9
:00000001FF
